{
  "_format": "hh-sol-artifact-1",
  "contractName": "FlashLoanNativeTest",
  "sourceName": "contracts/test/FlashLoanNativeTest.sol",
  "abi": [
    {
      "inputs": [
        {
          "internalType": "bytes",
          "name": "encodedData",
          "type": "bytes"
        }
      ],
      "name": "onDeferredLiquidityCheck",
      "outputs": [],
      "stateMutability": "nonpayable",
      "type": "function"
    },
    {
      "inputs": [
        {
          "components": [
            {
              "internalType": "address",
              "name": "eulerAddr",
              "type": "address"
            },
            {
              "internalType": "address",
              "name": "marketsAddr",
              "type": "address"
            },
            {
              "internalType": "address",
              "name": "execAddr",
              "type": "address"
            },
            {
              "internalType": "address",
              "name": "underlying",
              "type": "address"
            },
            {
              "internalType": "uint256",
              "name": "amount",
              "type": "uint256"
            },
            {
              "internalType": "bool",
              "name": "payItBack",
              "type": "bool"
            }
          ],
          "internalType": "struct FlashLoanNativeTest.CallbackData",
          "name": "data",
          "type": "tuple"
        }
      ],
      "name": "testFlashLoan",
      "outputs": [],
      "stateMutability": "nonpayable",
      "type": "function"
    }
  ],
  "bytecode": "0x608060405234801561001057600080fd5b50610b51806100206000396000f3fe608060405234801561001057600080fd5b50600436106100365760003560e01c8063a15db5c51461003b578063fee5215f14610050575b600080fd5b61004e6100493660046107c4565b610063565b005b61004e61005e366004610893565b6106f7565b60008180602001905181019061007991906108de565b602081015160608201516040517f1b30058200000000000000000000000000000000000000000000000000000000815273ffffffffffffffffffffffffffffffffffffffff9182166004820152929350600092911690631b30058290602401602060405180830381865afa1580156100f5573d6000803e3d6000fd5b505050506040513d601f19601f820116820180604052508101906101199190610980565b60808301516040517f0ecbcdab000000000000000000000000000000000000000000000000000000008152600060048201526024810191909152909150819073ffffffffffffffffffffffffffffffffffffffff821690630ecbcdab90604401600060405180830381600087803b15801561019357600080fd5b505af11580156101a7573d6000803e3d6000fd5b505050608084015160608501516040517f70a0823100000000000000000000000000000000000000000000000000000000815230600482015291925073ffffffffffffffffffffffffffffffffffffffff16906370a0823190602401602060405180830381865afa158015610220573d6000803e3d6000fd5b505050506040513d601f19601f8201168201806040525081019061024491906109a4565b146102b0576040517f08c379a000000000000000000000000000000000000000000000000000000000815260206004820152601960248201527f6469646e2774207265636569766520756e6465726c79696e670000000000000060448201526064015b60405180910390fd5b60808301516040517f70a0823100000000000000000000000000000000000000000000000000000000815230600482015273ffffffffffffffffffffffffffffffffffffffff8316906370a0823190602401602060405180830381865afa15801561031f573d6000803e3d6000fd5b505050506040513d601f19601f8201168201806040525081019061034391906109a4565b146103aa576040517f08c379a000000000000000000000000000000000000000000000000000000000815260206004820152601660248201527f6469646e277420726563656976652064546f6b656e730000000000000000000060448201526064016102a7565b8260a00151156106f157606083015183516040517f095ea7b300000000000000000000000000000000000000000000000000000000815273ffffffffffffffffffffffffffffffffffffffff91821660048201527fffffffffffffffffffffffffffffffffffffffffffffffffffffffffffffffff602482015291169063095ea7b3906044016020604051808303816000875af115801561044f573d6000803e3d6000fd5b505050506040513d601f19601f8201168201806040525081019061047391906109bd565b5060808301516040517fd8aed14500000000000000000000000000000000000000000000000000000000815260006004820152602481019190915273ffffffffffffffffffffffffffffffffffffffff82169063d8aed14590604401600060405180830381600087803b1580156104e957600080fd5b505af11580156104fd573d6000803e3d6000fd5b50505060608401516040517f70a0823100000000000000000000000000000000000000000000000000000000815230600482015273ffffffffffffffffffffffffffffffffffffffff90911691506370a0823190602401602060405180830381865afa158015610571573d6000803e3d6000fd5b505050506040513d601f19601f8201168201806040525081019061059591906109a4565b156105fc576040517f08c379a000000000000000000000000000000000000000000000000000000000815260206004820152601760248201527f6469646e277420726570617920756e6465726c79696e6700000000000000000060448201526064016102a7565b6040517f70a0823100000000000000000000000000000000000000000000000000000000815230600482015273ffffffffffffffffffffffffffffffffffffffff8216906370a0823190602401602060405180830381865afa158015610666573d6000803e3d6000fd5b505050506040513d601f19601f8201168201806040525081019061068a91906109a4565b156106f1576040517f08c379a000000000000000000000000000000000000000000000000000000000815260206004820152601360248201527f6469646e2774206275726e2064546f6b656e730000000000000000000000000060448201526064016102a7565b50505050565b61070760608201604083016109da565b73ffffffffffffffffffffffffffffffffffffffff166389b7b7a6308360405160200161073491906109f7565b6040516020818303038152906040526040518363ffffffff1660e01b8152600401610760929190610a8a565b600060405180830381600087803b15801561077a57600080fd5b505af115801561078e573d6000803e3d6000fd5b5050505050565b7f4e487b7100000000000000000000000000000000000000000000000000000000600052604160045260246000fd5b6000602082840312156107d657600080fd5b813567ffffffffffffffff808211156107ee57600080fd5b818401915084601f83011261080257600080fd5b81358181111561081457610814610795565b604051601f82017fffffffffffffffffffffffffffffffffffffffffffffffffffffffffffffffe0908116603f0116810190838211818310171561085a5761085a610795565b8160405282815287602084870101111561087357600080fd5b826020860160208301376000928101602001929092525095945050505050565b600060c082840312156108a557600080fd5b50919050565b73ffffffffffffffffffffffffffffffffffffffff811681146108cd57600080fd5b50565b80151581146108cd57600080fd5b600060c082840312156108f057600080fd5b60405160c0810181811067ffffffffffffffff8211171561091357610913610795565b6040528251610921816108ab565b81526020830151610931816108ab565b60208201526040830151610944816108ab565b60408201526060830151610957816108ab565b60608201526080838101519082015260a0830151610974816108d0565b60a08201529392505050565b60006020828403121561099257600080fd5b815161099d816108ab565b9392505050565b6000602082840312156109b657600080fd5b5051919050565b6000602082840312156109cf57600080fd5b815161099d816108d0565b6000602082840312156109ec57600080fd5b813561099d816108ab565b60c081018235610a06816108ab565b73ffffffffffffffffffffffffffffffffffffffff9081168352602084013590610a2f826108ab565b9081166020840152604084013590610a46826108ab565b9081166040840152606084013590610a5d826108ab565b1660608301526080838101359083015260a0830135610a7b816108d0565b80151560a08401525092915050565b73ffffffffffffffffffffffffffffffffffffffff8316815260006020604081840152835180604085015260005b81811015610ad457858101830151858201606001528201610ab8565b81811115610ae6576000606083870101525b50601f017fffffffffffffffffffffffffffffffffffffffffffffffffffffffffffffffe0169290920160600194935050505056fea2646970667358221220df008cd233576d3356434d48b9e0b95a651da3af5ae7fd2838db653369ab5e0f64736f6c634300080a0033",
  "linkReferences": {},
  "deployedLinkReferences": {}
}