{
  "_format": "hh-sol-artifact-1",
  "contractName": "TestERC20",
  "sourceName": "contracts/test/TestERC20.sol",
  "abi": [
    {
      "inputs": [
        {
          "internalType": "string",
          "name": "name_",
          "type": "string"
        },
        {
          "internalType": "string",
          "name": "symbol_",
          "type": "string"
        },
        {
          "internalType": "uint8",
          "name": "decimals_",
          "type": "uint8"
        },
        {
          "internalType": "bool",
          "name": "secureMode_",
          "type": "bool"
        }
      ],
      "stateMutability": "nonpayable",
      "type": "constructor"
    },
    {
      "anonymous": false,
      "inputs": [
        {
          "indexed": true,
          "internalType": "address",
          "name": "owner",
          "type": "address"
        },
        {
          "indexed": true,
          "internalType": "address",
          "name": "spender",
          "type": "address"
        },
        {
          "indexed": false,
          "internalType": "uint256",
          "name": "value",
          "type": "uint256"
        }
      ],
      "name": "Approval",
      "type": "event"
    },
    {
      "anonymous": false,
      "inputs": [
        {
          "indexed": true,
          "internalType": "address",
          "name": "from",
          "type": "address"
        },
        {
          "indexed": true,
          "internalType": "address",
          "name": "to",
          "type": "address"
        },
        {
          "indexed": false,
          "internalType": "uint256",
          "name": "value",
          "type": "uint256"
        }
      ],
      "name": "Transfer",
      "type": "event"
    },
    {
      "inputs": [
        {
          "internalType": "address",
          "name": "",
          "type": "address"
        },
        {
          "internalType": "address",
          "name": "",
          "type": "address"
        }
      ],
      "name": "allowance",
      "outputs": [
        {
          "internalType": "uint256",
          "name": "",
          "type": "uint256"
        }
      ],
      "stateMutability": "view",
      "type": "function"
    },
    {
      "inputs": [
        {
          "internalType": "address",
          "name": "spender",
          "type": "address"
        },
        {
          "internalType": "uint256",
          "name": "amount",
          "type": "uint256"
        }
      ],
      "name": "approve",
      "outputs": [],
      "stateMutability": "nonpayable",
      "type": "function"
    },
    {
      "inputs": [
        {
          "internalType": "address",
          "name": "account",
          "type": "address"
        }
      ],
      "name": "balanceOf",
      "outputs": [
        {
          "internalType": "uint256",
          "name": "",
          "type": "uint256"
        }
      ],
      "stateMutability": "view",
      "type": "function"
    },
    {
      "inputs": [
        {
          "internalType": "address",
          "name": "",
          "type": "address"
        }
      ],
      "name": "balances",
      "outputs": [
        {
          "internalType": "uint256",
          "name": "",
          "type": "uint256"
        }
      ],
      "stateMutability": "view",
      "type": "function"
    },
    {
      "inputs": [
        {
          "internalType": "string",
          "name": "name_",
          "type": "string"
        }
      ],
      "name": "behaviour",
      "outputs": [
        {
          "internalType": "bool",
          "name": "",
          "type": "bool"
        },
        {
          "internalType": "bytes",
          "name": "",
          "type": "bytes"
        }
      ],
      "stateMutability": "view",
      "type": "function"
    },
    {
      "inputs": [],
      "name": "callSelfDestruct",
      "outputs": [],
      "stateMutability": "nonpayable",
      "type": "function"
    },
    {
      "inputs": [
        {
          "internalType": "uint8",
          "name": "decimals_",
          "type": "uint8"
        }
      ],
      "name": "changeDecimals",
      "outputs": [],
      "stateMutability": "nonpayable",
      "type": "function"
    },
    {
      "inputs": [
        {
          "internalType": "address",
          "name": "newOwner",
          "type": "address"
        }
      ],
      "name": "changeOwner",
      "outputs": [],
      "stateMutability": "nonpayable",
      "type": "function"
    },
    {
      "inputs": [
        {
          "internalType": "string",
          "name": "name_",
          "type": "string"
        },
        {
          "internalType": "bytes",
          "name": "data_",
          "type": "bytes"
        }
      ],
      "name": "configure",
      "outputs": [],
      "stateMutability": "nonpayable",
      "type": "function"
    },
    {
      "inputs": [],
      "name": "decimals",
      "outputs": [
        {
          "internalType": "uint8",
          "name": "",
          "type": "uint8"
        }
      ],
      "stateMutability": "view",
      "type": "function"
    },
    {
      "inputs": [
        {
          "internalType": "address",
          "name": "who",
          "type": "address"
        },
        {
          "internalType": "uint256",
          "name": "amount",
          "type": "uint256"
        }
      ],
      "name": "mint",
      "outputs": [],
      "stateMutability": "nonpayable",
      "type": "function"
    },
    {
      "inputs": [],
      "name": "name",
      "outputs": [
        {
          "internalType": "string",
          "name": "",
          "type": "string"
        }
      ],
      "stateMutability": "view",
      "type": "function"
    },
    {
      "inputs": [
        {
          "internalType": "address",
          "name": "who",
          "type": "address"
        },
        {
          "internalType": "uint256",
          "name": "newBalance",
          "type": "uint256"
        }
      ],
      "name": "setBalance",
      "outputs": [],
      "stateMutability": "nonpayable",
      "type": "function"
    },
    {
      "inputs": [],
      "name": "symbol",
      "outputs": [
        {
          "internalType": "string",
          "name": "",
          "type": "string"
        }
      ],
      "stateMutability": "view",
      "type": "function"
    },
    {
      "inputs": [],
      "name": "totalSupply",
      "outputs": [
        {
          "internalType": "uint256",
          "name": "",
          "type": "uint256"
        }
      ],
      "stateMutability": "view",
      "type": "function"
    },
    {
      "inputs": [
        {
          "internalType": "address",
          "name": "recipient",
          "type": "address"
        },
        {
          "internalType": "uint256",
          "name": "amount",
          "type": "uint256"
        }
      ],
      "name": "transfer",
      "outputs": [],
      "stateMutability": "nonpayable",
      "type": "function"
    },
    {
      "inputs": [
        {
          "internalType": "address",
          "name": "from",
          "type": "address"
        },
        {
          "internalType": "address",
          "name": "recipient",
          "type": "address"
        },
        {
          "internalType": "uint256",
          "name": "amount",
          "type": "uint256"
        }
      ],
      "name": "transferFrom",
      "outputs": [],
      "stateMutability": "nonpayable",
      "type": "function"
    }
  ],
  "bytecode": "0x60806040523480156200001157600080fd5b5060405162001fc138038062001fc183398101604081905262000034916200020e565b600080546001600160a01b0319163317905583516200005b9060019060208701906200009b565b508251620000719060029060208601906200009b565b506003805460ff90931660ff19938416179055600580549115159190921617905550620002e89050565b828054620000a990620002ab565b90600052602060002090601f016020900481019282620000cd576000855562000118565b82601f10620000e857805160ff191683800117855562000118565b8280016001018555821562000118579182015b8281111562000118578251825591602001919060010190620000fb565b50620001269291506200012a565b5090565b5b808211156200012657600081556001016200012b565b634e487b7160e01b600052604160045260246000fd5b600082601f8301126200016957600080fd5b81516001600160401b038082111562000186576200018662000141565b604051601f8301601f19908116603f01168101908282118183101715620001b157620001b162000141565b81604052838152602092508683858801011115620001ce57600080fd5b600091505b83821015620001f25785820183015181830184015290820190620001d3565b83821115620002045760008385830101525b9695505050505050565b600080600080608085870312156200022557600080fd5b84516001600160401b03808211156200023d57600080fd5b6200024b8883890162000157565b955060208701519150808211156200026257600080fd5b50620002718782880162000157565b935050604085015160ff811681146200028957600080fd5b60608601519092508015158114620002a057600080fd5b939692955090935050565b600181811c90821680620002c057607f821691505b60208210811415620002e257634e487b7160e01b600052602260045260246000fd5b50919050565b611cc980620002f86000396000f3fe608060405234801561001057600080fd5b506004361061011b5760003560e01c806340c10f19116100b2578063a6f9dae111610081578063c112dfa311610066578063c112dfa31461024c578063dd62ed3e1461025f578063e30443bc1461028a57600080fd5b8063a6f9dae114610226578063a9059cbb1461023957600080fd5b806340c10f19146101d757806370a08231146101ea57806373b14271146101fd57806395d89b411461021e57600080fd5b806323b872dd116100ee57806323b872dd1461017257806327e235e314610185578063303a92dc146101a5578063313ce567146101b857600080fd5b806306fdde0314610120578063095ea7b31461013e57806318160ddd14610153578063183555f01461016a575b600080fd5b61012861029d565b6040516101359190611633565b60405180910390f35b61015161014c366004611672565b61032b565b005b61015c60045481565b604051908152602001610135565b610151610492565b61015161018036600461169e565b610525565b61015c6101933660046116df565b60066020526000908152604090205481565b6101516101b3366004611745565b610b8c565b6003546101c59060ff1681565b60405160ff9091168152602001610135565b6101516101e5366004611672565b610cdc565b61015c6101f83660046116df565b610df7565b61021061020b366004611875565b611042565b6040516101359291906118f5565b6101286111b2565b6101516102343660046116df565b6111bf565b610151610247366004611672565b611295565b61015161025a366004611910565b611389565b61015c61026d366004611933565b600760209081526000928352604080842090915290825290205481565b610151610298366004611672565b61144c565b600180546102aa9061196c565b80601f01602080910402602001604051908101604052809291908181526020018280546102d69061196c565b80156103235780601f106102f857610100808354040283529160200191610323565b820191906000526020600020905b81548152906001019060200180831161030657829003601f168201915b505050505081565b33600081815260076020908152604080832073ffffffffffffffffffffffffffffffffffffffff871680855290835292819020859055518481529192917f8c5be1e5ebec7d5bd14f71427d1e84f3dd0314c0f7b2291e5b200ac8c7c3b925910160405180910390a360006103d36040518060400160405280600e81526020017f617070726f76652f726576657274000000000000000000000000000000000000815250611042565b5090508015610443576040517f08c379a000000000000000000000000000000000000000000000000000000000815260206004820152601060248201527f726576657274206265686176696f75720000000000000000000000000000000060448201526064015b60405180910390fd5b6104816040518060400160405280601381526020017f617070726f76652f72657475726e2d766f696400000000000000000000000000815250611042565b50905061048d81611504565b505050565b60055460ff1615806104bb575060005473ffffffffffffffffffffffffffffffffffffffff1633145b610521576040517f08c379a000000000000000000000000000000000000000000000000000000000815260206004820152601e60248201527f5465737445524332303a20736563757265206d6f646520656e61626c65640000604482015260640161043a565b6000ff5b73ffffffffffffffffffffffffffffffffffffffff83166000908152600660205260409020548111156105da576040517f08c379a000000000000000000000000000000000000000000000000000000000815260206004820152602660248201527f45524332303a207472616e7366657220616d6f756e742065786365656473206260448201527f616c616e63650000000000000000000000000000000000000000000000000000606482015260840161043a565b73ffffffffffffffffffffffffffffffffffffffff83163314801590610650575073ffffffffffffffffffffffffffffffffffffffff831660009081526007602090815260408083203384529091529020547fffffffffffffffffffffffffffffffffffffffffffffffffffffffffffffffff14155b1561075b5773ffffffffffffffffffffffffffffffffffffffff83166000908152600760209081526040808320338452909152902054811115610715576040517f08c379a000000000000000000000000000000000000000000000000000000000815260206004820152602860248201527f45524332303a207472616e7366657220616d6f756e742065786365656473206160448201527f6c6c6f77616e6365000000000000000000000000000000000000000000000000606482015260840161043a565b73ffffffffffffffffffffffffffffffffffffffff83166000908152600760209081526040808320338452909152812080548392906107559084906119ef565b90915550505b60008061079c6040518060400160405280601581526020017f7472616e736665722f6465666c6174696f6e6172790000000000000000000000815250611042565b915091506000826107ae5760006107c2565b818060200190518101906107c29190611a06565b90506108026040518060400160405280601581526020017f7472616e736665722f696e666c6174696f6e6172790000000000000000000000815250611042565b9093509150600083610815576000610829565b828060200190518101906108299190611a06565b90506108696040518060400160405280601281526020017f7472616e736665722f756e646572666c6f770000000000000000000000000000815250611042565b50935083156108b85761087d856002611a1f565b73ffffffffffffffffffffffffffffffffffffffff8816600090815260066020526040812080549091906108b2908490611a5c565b90915550505b73ffffffffffffffffffffffffffffffffffffffff80881660008181526006602052604080822080548a90039055928916808252908390208054868a03860101905591517fddf252ad1be2c89b69c2b068fc378daa952ba7f163c4a11628f55a4df523b3ef9061092b9089815260200190565b60405180910390a36000357fffffffff00000000000000000000000000000000000000000000000000000000167f23b872dd000000000000000000000000000000000000000000000000000000001415610b83576109bd6040518060400160405280601281526020017f7472616e736665722d66726f6d2f63616c6c0000000000000000000000000000815250611042565b90945092508315610a9057600080848060200190518101906109df9190611a74565b915091506000808373ffffffffffffffffffffffffffffffffffffffff1683604051610a0b9190611b01565b6000604051808303816000865af19150503d8060008114610a48576040519150601f19603f3d011682016040523d82523d6000602084013e610a4d565b606091505b509150915081610a8b57806040517f08c379a000000000000000000000000000000000000000000000000000000000815260040161043a9190611633565b505050505b610ace6040518060400160405280601481526020017f7472616e736665722d66726f6d2f726576657274000000000000000000000000815250611042565b5093508315610b39576040517f08c379a000000000000000000000000000000000000000000000000000000000815260206004820152601060248201527f726576657274206265686176696f757200000000000000000000000000000000604482015260640161043a565b610b776040518060400160405280601981526020017f7472616e736665722d66726f6d2f72657475726e2d766f696400000000000000815250611042565b509350610b8384611504565b50505050505050565b60055460ff161580610bb5575060005473ffffffffffffffffffffffffffffffffffffffff1633145b610c1b576040517f08c379a000000000000000000000000000000000000000000000000000000000815260206004820152601e60248201527f5465737445524332303a20736563757265206d6f646520656e61626c65640000604482015260640161043a565b6040805160606020601f8701819004028201810183529181018581526008928291908890889081908501838280828437600092019190915250505090825250604080516020601f8701819004810282018101909252858152918101919086908690819084018382808284376000920182905250939094525050835460018101855593815260209081902083518051949560020290910193610cc3935084929190910190611520565b506020828101518051610b839260018501920190611520565b60055460ff161580610d05575060005473ffffffffffffffffffffffffffffffffffffffff1633145b610d6b576040517f08c379a000000000000000000000000000000000000000000000000000000000815260206004820152601e60248201527f5465737445524332303a20736563757265206d6f646520656e61626c65640000604482015260640161043a565b73ffffffffffffffffffffffffffffffffffffffff821660009081526006602052604081208054839290610da0908490611a5c565b909155505060405181815273ffffffffffffffffffffffffffffffffffffffff8316906000907fddf252ad1be2c89b69c2b068fc378daa952ba7f163c4a11628f55a4df523b3ef9060200160405180910390a35050565b6000806000610e3a6040518060400160405280601581526020017f62616c616e63652d6f662f7365742d616d6f756e740000000000000000000000815250611042565b915091508115610e605780806020019051810190610e589190611a06565b949350505050565b610e9e6040518060400160405280601a81526020017f62616c616e63652d6f662f636f6e73756d652d616c6c2d676173000000000000815250611042565b5091508115610eaf57610eaf61151a565b610eed6040518060400160405280601181526020017f62616c616e63652d6f662f726576657274000000000000000000000000000000815250611042565b5091508115610f58576040517f08c379a000000000000000000000000000000000000000000000000000000000815260206004820152601060248201527f726576657274206265686176696f757200000000000000000000000000000000604482015260640161043a565b610f966040518060400160405280601081526020017f62616c616e63652d6f662f70616e696300000000000000000000000000000000815250611042565b5091508115610fa757610fa7611b1d565b610fe56040518060400160405280601481526020017f62616c616e63652d6f662f6d61782d76616c7565000000000000000000000000815250611042565b509150811561101757507fffffffffffffffffffffffffffffffffffffffffffffffffffffffffffffffff9392505050565b50505073ffffffffffffffffffffffffffffffffffffffff1660009081526006602052604090205490565b6000606060005b60085481101561119657836040516020016110649190611633565b604051602081830303815290604052805190602001206008828154811061108d5761108d611b4c565b90600052602060002090600202016000016040516020016110ae9190611b7b565b604051602081830303815290604052805190602001201415611186576001600882815481106110df576110df611b4c565b90600052602060002090600202016001018080546110fc9061196c565b80601f01602080910402602001604051908101604052809291908181526020018280546111289061196c565b80156111755780601f1061114a57610100808354040283529160200191611175565b820191906000526020600020905b81548152906001019060200180831161115857829003601f168201915b505050505090509250925050915091565b61118f81611c5a565b9050611049565b5060006040518060200160405280600081525091509150915091565b600280546102aa9061196c565b60055460ff1615806111e8575060005473ffffffffffffffffffffffffffffffffffffffff1633145b61124e576040517f08c379a000000000000000000000000000000000000000000000000000000000815260206004820152601e60248201527f5465737445524332303a20736563757265206d6f646520656e61626c65640000604482015260640161043a565b600080547fffffffffffffffffffffffff00000000000000000000000000000000000000001673ffffffffffffffffffffffffffffffffffffffff92909216919091179055565b6112a0338383610525565b60006112e06040518060400160405280600f81526020017f7472616e736665722f7265766572740000000000000000000000000000000000815250611042565b509050801561134b576040517f08c379a000000000000000000000000000000000000000000000000000000000815260206004820152601060248201527f726576657274206265686176696f757200000000000000000000000000000000604482015260640161043a565b6104816040518060400160405280601481526020017f7472616e736665722f72657475726e2d766f6964000000000000000000000000815250611042565b60055460ff1615806113b2575060005473ffffffffffffffffffffffffffffffffffffffff1633145b611418576040517f08c379a000000000000000000000000000000000000000000000000000000000815260206004820152601e60248201527f5465737445524332303a20736563757265206d6f646520656e61626c65640000604482015260640161043a565b600380547fffffffffffffffffffffffffffffffffffffffffffffffffffffffffffffff001660ff92909216919091179055565b60055460ff161580611475575060005473ffffffffffffffffffffffffffffffffffffffff1633145b6114db576040517f08c379a000000000000000000000000000000000000000000000000000000000815260206004820152601e60248201527f5465737445524332303a20736563757265206d6f646520656e61626c65640000604482015260640161043a565b73ffffffffffffffffffffffffffffffffffffffff909116600090815260066020526040902055565b801561150d5750565b6001604051526020604051f35b5b61151b565b82805461152c9061196c565b90600052602060002090601f01602090048101928261154e5760008555611594565b82601f1061156757805160ff1916838001178555611594565b82800160010185558215611594579182015b82811115611594578251825591602001919060010190611579565b506115a09291506115a4565b5090565b5b808211156115a057600081556001016115a5565b60005b838110156115d45781810151838201526020016115bc565b838111156115e3576000848401525b50505050565b600081518084526116018160208601602086016115b9565b601f017fffffffffffffffffffffffffffffffffffffffffffffffffffffffffffffffe0169290920160200192915050565b60208152600061164660208301846115e9565b9392505050565b73ffffffffffffffffffffffffffffffffffffffff8116811461166f57600080fd5b50565b6000806040838503121561168557600080fd5b82356116908161164d565b946020939093013593505050565b6000806000606084860312156116b357600080fd5b83356116be8161164d565b925060208401356116ce8161164d565b929592945050506040919091013590565b6000602082840312156116f157600080fd5b81356116468161164d565b60008083601f84011261170e57600080fd5b50813567ffffffffffffffff81111561172657600080fd5b60208301915083602082850101111561173e57600080fd5b9250929050565b6000806000806040858703121561175b57600080fd5b843567ffffffffffffffff8082111561177357600080fd5b61177f888389016116fc565b9096509450602087013591508082111561179857600080fd5b506117a5878288016116fc565b95989497509550505050565b7f4e487b7100000000000000000000000000000000000000000000000000000000600052604160045260246000fd5b604051601f82017fffffffffffffffffffffffffffffffffffffffffffffffffffffffffffffffe016810167ffffffffffffffff81118282101715611827576118276117b1565b604052919050565b600067ffffffffffffffff821115611849576118496117b1565b50601f017fffffffffffffffffffffffffffffffffffffffffffffffffffffffffffffffe01660200190565b60006020828403121561188757600080fd5b813567ffffffffffffffff81111561189e57600080fd5b8201601f810184136118af57600080fd5b80356118c26118bd8261182f565b6117e0565b8181528560208385010111156118d757600080fd5b81602084016020830137600091810160200191909152949350505050565b8215158152604060208201526000610e5860408301846115e9565b60006020828403121561192257600080fd5b813560ff8116811461164657600080fd5b6000806040838503121561194657600080fd5b82356119518161164d565b915060208301356119618161164d565b809150509250929050565b600181811c9082168061198057607f821691505b602082108114156119ba577f4e487b7100000000000000000000000000000000000000000000000000000000600052602260045260246000fd5b50919050565b7f4e487b7100000000000000000000000000000000000000000000000000000000600052601160045260246000fd5b600082821015611a0157611a016119c0565b500390565b600060208284031215611a1857600080fd5b5051919050565b6000817fffffffffffffffffffffffffffffffffffffffffffffffffffffffffffffffff0483118215151615611a5757611a576119c0565b500290565b60008219821115611a6f57611a6f6119c0565b500190565b60008060408385031215611a8757600080fd5b8251611a928161164d565b602084015190925067ffffffffffffffff811115611aaf57600080fd5b8301601f81018513611ac057600080fd5b8051611ace6118bd8261182f565b818152866020838501011115611ae357600080fd5b611af48260208301602086016115b9565b8093505050509250929050565b60008251611b138184602087016115b9565b9190910192915050565b7f4e487b7100000000000000000000000000000000000000000000000000000000600052600160045260246000fd5b7f4e487b7100000000000000000000000000000000000000000000000000000000600052603260045260246000fd5b600060208083526000845481600182811c915080831680611b9d57607f831692505b858310811415611bd4577f4e487b710000000000000000000000000000000000000000000000000000000085526022600452602485fd5b878601838152602001818015611bf15760018114611c2057611c4b565b7fffffffffffffffffffffffffffffffffffffffffffffffffffffffffffffff00861682528782019650611c4b565b60008b81526020902060005b86811015611c4557815484820152908501908901611c2c565b83019750505b50949998505050505050505050565b60007fffffffffffffffffffffffffffffffffffffffffffffffffffffffffffffffff821415611c8c57611c8c6119c0565b506001019056fea2646970667358221220a8a30fa2540240e7582d60278fa27fc6f6a3ab8872e465c3dc9469b14dd6b9c864736f6c634300080a0033",
  "linkReferences": {},
  "deployedLinkReferences": {}
}