{
  "_format": "hh-sol-artifact-1",
  "contractName": "SimpleUniswapPeriphery",
  "sourceName": "contracts/test/SimpleUniswapPeriphery.sol",
  "abi": [
    {
      "inputs": [
        {
          "internalType": "address",
          "name": "pool",
          "type": "address"
        },
        {
          "internalType": "address",
          "name": "recipient",
          "type": "address"
        },
        {
          "internalType": "int24",
          "name": "tickLower",
          "type": "int24"
        },
        {
          "internalType": "int24",
          "name": "tickUpper",
          "type": "int24"
        },
        {
          "internalType": "uint128",
          "name": "amount",
          "type": "uint128"
        }
      ],
      "name": "mint",
      "outputs": [],
      "stateMutability": "nonpayable",
      "type": "function"
    },
    {
      "inputs": [
        {
          "internalType": "address",
          "name": "pool",
          "type": "address"
        },
        {
          "internalType": "uint256",
          "name": "amount1Out",
          "type": "uint256"
        },
        {
          "internalType": "address",
          "name": "recipient",
          "type": "address"
        },
        {
          "internalType": "uint160",
          "name": "sqrtPriceLimitX96",
          "type": "uint160"
        }
      ],
      "name": "swap0ForExact1",
      "outputs": [],
      "stateMutability": "nonpayable",
      "type": "function"
    },
    {
      "inputs": [
        {
          "internalType": "address",
          "name": "pool",
          "type": "address"
        },
        {
          "internalType": "uint256",
          "name": "amount0Out",
          "type": "uint256"
        },
        {
          "internalType": "address",
          "name": "recipient",
          "type": "address"
        },
        {
          "internalType": "uint160",
          "name": "sqrtPriceLimitX96",
          "type": "uint160"
        }
      ],
      "name": "swap1ForExact0",
      "outputs": [],
      "stateMutability": "nonpayable",
      "type": "function"
    },
    {
      "inputs": [
        {
          "internalType": "address",
          "name": "pool",
          "type": "address"
        },
        {
          "internalType": "uint256",
          "name": "amount0In",
          "type": "uint256"
        },
        {
          "internalType": "address",
          "name": "recipient",
          "type": "address"
        },
        {
          "internalType": "uint160",
          "name": "sqrtPriceLimitX96",
          "type": "uint160"
        }
      ],
      "name": "swapExact0For1",
      "outputs": [],
      "stateMutability": "nonpayable",
      "type": "function"
    },
    {
      "inputs": [
        {
          "internalType": "address",
          "name": "pool",
          "type": "address"
        },
        {
          "internalType": "uint256",
          "name": "amount1In",
          "type": "uint256"
        },
        {
          "internalType": "address",
          "name": "recipient",
          "type": "address"
        },
        {
          "internalType": "uint160",
          "name": "sqrtPriceLimitX96",
          "type": "uint160"
        }
      ],
      "name": "swapExact1For0",
      "outputs": [],
      "stateMutability": "nonpayable",
      "type": "function"
    },
    {
      "inputs": [
        {
          "internalType": "address",
          "name": "pool",
          "type": "address"
        },
        {
          "internalType": "uint160",
          "name": "sqrtPriceX96",
          "type": "uint160"
        },
        {
          "internalType": "address",
          "name": "recipient",
          "type": "address"
        }
      ],
      "name": "swapToHigherSqrtPrice",
      "outputs": [],
      "stateMutability": "nonpayable",
      "type": "function"
    },
    {
      "inputs": [
        {
          "internalType": "address",
          "name": "pool",
          "type": "address"
        },
        {
          "internalType": "uint160",
          "name": "sqrtPriceX96",
          "type": "uint160"
        },
        {
          "internalType": "address",
          "name": "recipient",
          "type": "address"
        }
      ],
      "name": "swapToLowerSqrtPrice",
      "outputs": [],
      "stateMutability": "nonpayable",
      "type": "function"
    },
    {
      "inputs": [
        {
          "internalType": "uint256",
          "name": "amount0Owed",
          "type": "uint256"
        },
        {
          "internalType": "uint256",
          "name": "amount1Owed",
          "type": "uint256"
        },
        {
          "internalType": "bytes",
          "name": "data",
          "type": "bytes"
        }
      ],
      "name": "uniswapV3MintCallback",
      "outputs": [],
      "stateMutability": "nonpayable",
      "type": "function"
    },
    {
      "inputs": [
        {
          "internalType": "int256",
          "name": "amount0Delta",
          "type": "int256"
        },
        {
          "internalType": "int256",
          "name": "amount1Delta",
          "type": "int256"
        },
        {
          "internalType": "bytes",
          "name": "data",
          "type": "bytes"
        }
      ],
      "name": "uniswapV3SwapCallback",
      "outputs": [],
      "stateMutability": "nonpayable",
      "type": "function"
    }
  ],
  "bytecode": "0x608060405234801561001057600080fd5b50610cfd806100206000396000f3fe608060405234801561001057600080fd5b50600436106100a35760003560e01c8063bac7bf7811610076578063e2be91091161005b578063e2be91091461011c578063f603482c1461011c578063fa461e331461012f57600080fd5b8063bac7bf78146100f6578063d34879971461010957600080fd5b80632ec20bf9146100a85780636dfc0ddb146100bd5780637b4f5327146100d05780639e77b805146100e3575b600080fd5b6100bb6100b63660046108c8565b610142565b005b6100bb6100cb366004610913565b61020d565b6100bb6100de36600461097d565b6102b9565b6100bb6100f13660046108c8565b61037a565b6100bb610104366004610913565b6103d1565b6100bb610117366004610a48565b61040b565b6100bb61012a366004610913565b610649565b6100bb61013d366004610a48565b610680565b6040805133602082015273ffffffffffffffffffffffffffffffffffffffff85169163128acb089184916001917f7fffffffffffffffffffffffffffffffffffffffffffffffffffffffffffffff918891015b6040516020818303038152906040526040518663ffffffff1660e01b81526004016101c4959493929190610b06565b60408051808303816000875af11580156101e2573d6000803e3d6000fd5b505050506040513d601f19601f820116820180604052508101906102069190610b58565b5050505050565b6040805133602082015273ffffffffffffffffffffffffffffffffffffffff86169163128acb0891859160019188918791015b6040516020818303038152906040526040518663ffffffff1660e01b815260040161026f959493929190610b06565b60408051808303816000875af115801561028d573d6000803e3d6000fd5b505050506040513d601f19601f820116820180604052508101906102b19190610b58565b505050505050565b604080513360208083019190915282518083039091018152818301928390527f3c8a7d8d0000000000000000000000000000000000000000000000000000000090925273ffffffffffffffffffffffffffffffffffffffff871691633c8a7d8d9161032f91889188918891889190604401610b7c565b60408051808303816000875af115801561034d573d6000803e3d6000fd5b505050506040513d601f19601f820116820180604052508101906103719190610b58565b50505050505050565b6040805133602082015273ffffffffffffffffffffffffffffffffffffffff85169163128acb089184916000917f7fffffffffffffffffffffffffffffffffffffffffffffffffffffffffffffff91889101610195565b73ffffffffffffffffffffffffffffffffffffffff841663128acb088360016103f987610bd5565b60408051336020820152879101610240565b600061041982840184610c35565b90508415610533573373ffffffffffffffffffffffffffffffffffffffff16630dfe16816040518163ffffffff1660e01b8152600401602060405180830381865afa15801561046c573d6000803e3d6000fd5b505050506040513d601f19601f820116820180604052508101906104909190610c59565b6040517f23b872dd00000000000000000000000000000000000000000000000000000000815273ffffffffffffffffffffffffffffffffffffffff83811660048301523360248301526044820188905291909116906323b872dd906064016020604051808303816000875af115801561050d573d6000803e3d6000fd5b505050506040513d601f19601f820116820180604052508101906105319190610c76565b505b8315610206573373ffffffffffffffffffffffffffffffffffffffff1663d21220a76040518163ffffffff1660e01b8152600401602060405180830381865afa158015610584573d6000803e3d6000fd5b505050506040513d601f19601f820116820180604052508101906105a89190610c59565b6040517f23b872dd00000000000000000000000000000000000000000000000000000000815273ffffffffffffffffffffffffffffffffffffffff83811660048301523360248301526044820187905291909116906323b872dd906064016020604051808303816000875af1158015610625573d6000803e3d6000fd5b505050506040513d601f19601f820116820180604052508101906102b19190610c76565b6040805133602082015273ffffffffffffffffffffffffffffffffffffffff86169163128acb089185916000918891879101610240565b600061068e82840184610c35565b905060008513156107b0573373ffffffffffffffffffffffffffffffffffffffff16630dfe16816040518163ffffffff1660e01b8152600401602060405180830381865afa1580156106e4573d6000803e3d6000fd5b505050506040513d601f19601f820116820180604052508101906107089190610c59565b6040517f23b872dd00000000000000000000000000000000000000000000000000000000815273ffffffffffffffffffffffffffffffffffffffff83811660048301523360248301526044820188905291909116906323b872dd906064015b6020604051808303816000875af1158015610786573d6000803e3d6000fd5b505050506040513d601f19601f820116820180604052508101906107aa9190610c76565b50610206565b600084131561088b573373ffffffffffffffffffffffffffffffffffffffff1663d21220a76040518163ffffffff1660e01b8152600401602060405180830381865afa158015610804573d6000803e3d6000fd5b505050506040513d601f19601f820116820180604052508101906108289190610c59565b6040517f23b872dd00000000000000000000000000000000000000000000000000000000815273ffffffffffffffffffffffffffffffffffffffff83811660048301523360248301526044820187905291909116906323b872dd90606401610767565b84158015610897575083155b61020657610206610c98565b73ffffffffffffffffffffffffffffffffffffffff811681146108c557600080fd5b50565b6000806000606084860312156108dd57600080fd5b83356108e8816108a3565b925060208401356108f8816108a3565b91506040840135610908816108a3565b809150509250925092565b6000806000806080858703121561092957600080fd5b8435610934816108a3565b935060208501359250604085013561094b816108a3565b9150606085013561095b816108a3565b939692955090935050565b8035600281900b811461097857600080fd5b919050565b600080600080600060a0868803121561099557600080fd5b85356109a0816108a3565b945060208601356109b0816108a3565b93506109be60408701610966565b92506109cc60608701610966565b915060808601356fffffffffffffffffffffffffffffffff811681146109f157600080fd5b809150509295509295909350565b60008083601f840112610a1157600080fd5b50813567ffffffffffffffff811115610a2957600080fd5b602083019150836020828501011115610a4157600080fd5b9250929050565b60008060008060608587031215610a5e57600080fd5b8435935060208501359250604085013567ffffffffffffffff811115610a8357600080fd5b610a8f878288016109ff565b95989497509550505050565b6000815180845260005b81811015610ac157602081850181015186830182015201610aa5565b81811115610ad3576000602083870101525b50601f017fffffffffffffffffffffffffffffffffffffffffffffffffffffffffffffffe0169290920160200192915050565b600073ffffffffffffffffffffffffffffffffffffffff8088168352861515602084015285604084015280851660608401525060a06080830152610b4d60a0830184610a9b565b979650505050505050565b60008060408385031215610b6b57600080fd5b505080516020909101519092909150565b73ffffffffffffffffffffffffffffffffffffffff861681528460020b60208201528360020b60408201526fffffffffffffffffffffffffffffffff8316606082015260a060808201526000610b4d60a0830184610a9b565b60007f8000000000000000000000000000000000000000000000000000000000000000821415610c2e577f4e487b7100000000000000000000000000000000000000000000000000000000600052601160045260246000fd5b5060000390565b600060208284031215610c4757600080fd5b8135610c52816108a3565b9392505050565b600060208284031215610c6b57600080fd5b8151610c52816108a3565b600060208284031215610c8857600080fd5b81518015158114610c5257600080fd5b7f4e487b7100000000000000000000000000000000000000000000000000000000600052600160045260246000fdfea2646970667358221220c5f953e084760369b8b930852da0cccb9ca256f74791b295a1512d00fc5f477b64736f6c634300080a0033",
  "linkReferences": {},
  "deployedLinkReferences": {}
}