{
  "_format": "hh-sol-artifact-1",
  "contractName": "FlashLoanAdaptorTest2",
  "sourceName": "contracts/test/FlashLoanAdaptorTest2.sol",
  "abi": [
    {
      "anonymous": false,
      "inputs": [
        {
          "indexed": false,
          "internalType": "address",
          "name": "token",
          "type": "address"
        },
        {
          "indexed": false,
          "internalType": "uint256",
          "name": "balance",
          "type": "uint256"
        },
        {
          "indexed": false,
          "internalType": "uint256",
          "name": "fee",
          "type": "uint256"
        },
        {
          "indexed": false,
          "internalType": "uint256",
          "name": "borrowIndex",
          "type": "uint256"
        },
        {
          "indexed": false,
          "internalType": "address",
          "name": "sender",
          "type": "address"
        },
        {
          "indexed": false,
          "internalType": "address",
          "name": "initiator",
          "type": "address"
        }
      ],
      "name": "BorrowResult",
      "type": "event"
    },
    {
      "inputs": [
        {
          "internalType": "address",
          "name": "initiator",
          "type": "address"
        },
        {
          "internalType": "address",
          "name": "token",
          "type": "address"
        },
        {
          "internalType": "uint256",
          "name": "",
          "type": "uint256"
        },
        {
          "internalType": "uint256",
          "name": "fee",
          "type": "uint256"
        },
        {
          "internalType": "bytes",
          "name": "data",
          "type": "bytes"
        }
      ],
      "name": "onFlashLoan",
      "outputs": [
        {
          "internalType": "bytes32",
          "name": "",
          "type": "bytes32"
        }
      ],
      "stateMutability": "nonpayable",
      "type": "function"
    },
    {
      "inputs": [
        {
          "internalType": "address",
          "name": "token",
          "type": "address"
        },
        {
          "internalType": "address",
          "name": "to",
          "type": "address"
        }
      ],
      "name": "setMaxAllowance",
      "outputs": [
        {
          "internalType": "bool",
          "name": "success",
          "type": "bool"
        }
      ],
      "stateMutability": "nonpayable",
      "type": "function"
    },
    {
      "inputs": [
        {
          "internalType": "address",
          "name": "lender",
          "type": "address"
        },
        {
          "internalType": "address[]",
          "name": "receivers",
          "type": "address[]"
        },
        {
          "internalType": "address[]",
          "name": "tokens",
          "type": "address[]"
        },
        {
          "internalType": "uint256[]",
          "name": "amounts",
          "type": "uint256[]"
        }
      ],
      "name": "testFlashBorrow",
      "outputs": [],
      "stateMutability": "nonpayable",
      "type": "function"
    }
  ],
  "bytecode": "0x608060405234801561001057600080fd5b50610e28806100206000396000f3fe608060405234801561001057600080fd5b50600436106100415760003560e01c806323e30c8b146100465780633833fe031461006c57806397121e7014610081575b600080fd5b61005961005436600461066f565b6100a4565b6040519081526020015b60405180910390f35b61007f61007a366004610761565b6101b5565b005b61009461008f36600461080c565b61039f565b6040519015158152602001610063565b6000808080806100b686880188610953565b93509350935093506100c88a3361039f565b506100d58a89838e6104a0565b600083511180156100f25750600183516100ef9190610a66565b81105b15610185576000610104826001610a7d565b90506101833386838151811061011c5761011c610a95565b602002602001015186848151811061013657610136610a95565b602002602001015186858151811061015057610150610a95565b60200260200101518989898860405160200161016f9493929190610b15565b6040516020818303038152906040526105a3565b505b507f439148f0bbc682ca079e46d6e2c2f0c1e3b820f1a291b069d8882abf8cf18dd99a9950505050505050505050565b600086868686868660006040516020016101d59796959493929190610bd0565b604051602081830303815290604052905061025a88888860008181106101fd576101fd610a95565b90506020020160208101906102129190610c61565b8787600081811061022557610225610a95565b905060200201602081019061023a9190610c61565b8686600081811061024d5761024d610a95565b90506020020135856105a3565b60005b868110156103945760005b858110156103835786868281811061028257610282610a95565b90506020020160208101906102979190610c61565b73ffffffffffffffffffffffffffffffffffffffff166370a082318a8a858181106102c4576102c4610a95565b90506020020160208101906102d99190610c61565b6040517fffffffff0000000000000000000000000000000000000000000000000000000060e084901b16815273ffffffffffffffffffffffffffffffffffffffff9091166004820152602401602060405180830381865afa158015610342573d6000803e3d6000fd5b505050506040513d601f19601f820116820180604052508101906103669190610c83565b1561037357610373610c9c565b61037c81610ccb565b9050610268565b5061038d81610ccb565b905061025d565b505050505050505050565b6040805173ffffffffffffffffffffffffffffffffffffffff83811660248301527fffffffffffffffffffffffffffffffffffffffffffffffffffffffffffffffff60448084019190915283518084039091018152606490920183526020820180517bffffffffffffffffffffffffffffffffffffffffffffffffffffffff167f095ea7b300000000000000000000000000000000000000000000000000000000179052915160009285169161045491610d34565b6000604051808303816000865af19150503d8060008114610491576040519150601f19603f3d011682016040523d82523d6000602084013e610496565b606091505b5090949350505050565b6040517f70a082310000000000000000000000000000000000000000000000000000000081523060048201527f30c040cbaaacb2920f9d7ae4208b66e51c136a984e2d2fbacb2e417fa83a696490859073ffffffffffffffffffffffffffffffffffffffff8216906370a0823190602401602060405180830381865afa15801561052e573d6000803e3d6000fd5b505050506040513d601f19601f820116820180604052508101906105529190610c83565b6040805173ffffffffffffffffffffffffffffffffffffffff9384168152602081019290925281018690526060810185905233608082015290831660a082015260c00160405180910390a150505050565b6040517f5cffe9de00000000000000000000000000000000000000000000000000000000815273ffffffffffffffffffffffffffffffffffffffff861690635cffe9de906105fb908790879087908790600401610d50565b6020604051808303816000875af115801561061a573d6000803e3d6000fd5b505050506040513d601f19601f8201168201806040525081019061063e9190610dd0565b505050505050565b803573ffffffffffffffffffffffffffffffffffffffff8116811461066a57600080fd5b919050565b60008060008060008060a0878903121561068857600080fd5b61069187610646565b955061069f60208801610646565b94506040870135935060608701359250608087013567ffffffffffffffff808211156106ca57600080fd5b818901915089601f8301126106de57600080fd5b8135818111156106ed57600080fd5b8a60208285010111156106ff57600080fd5b6020830194508093505050509295509295509295565b60008083601f84011261072757600080fd5b50813567ffffffffffffffff81111561073f57600080fd5b6020830191508360208260051b850101111561075a57600080fd5b9250929050565b60008060008060008060006080888a03121561077c57600080fd5b61078588610646565b9650602088013567ffffffffffffffff808211156107a257600080fd5b6107ae8b838c01610715565b909850965060408a01359150808211156107c757600080fd5b6107d38b838c01610715565b909650945060608a01359150808211156107ec57600080fd5b506107f98a828b01610715565b989b979a50959850939692959293505050565b6000806040838503121561081f57600080fd5b61082883610646565b915061083660208401610646565b90509250929050565b7f4e487b7100000000000000000000000000000000000000000000000000000000600052604160045260246000fd5b604051601f82017fffffffffffffffffffffffffffffffffffffffffffffffffffffffffffffffe016810167ffffffffffffffff811182821017156108b5576108b561083f565b604052919050565b600067ffffffffffffffff8211156108d7576108d761083f565b5060051b60200190565b600082601f8301126108f257600080fd5b81356020610907610902836108bd565b61086e565b82815260059290921b8401810191818101908684111561092657600080fd5b8286015b848110156109485761093b81610646565b835291830191830161092a565b509695505050505050565b6000806000806080858703121561096957600080fd5b843567ffffffffffffffff8082111561098157600080fd5b61098d888389016108e1565b95506020915081870135818111156109a457600080fd5b6109b089828a016108e1565b9550506040870135818111156109c557600080fd5b87019050601f810188136109d857600080fd5b80356109e6610902826108bd565b81815260059190911b8201830190838101908a831115610a0557600080fd5b928401925b82841015610a2357833582529284019290840190610a0a565b979a96995096976060013596505050505050565b7f4e487b7100000000000000000000000000000000000000000000000000000000600052601160045260246000fd5b600082821015610a7857610a78610a37565b500390565b60008219821115610a9057610a90610a37565b500190565b7f4e487b7100000000000000000000000000000000000000000000000000000000600052603260045260246000fd5b600081518084526020808501945080840160005b83811015610b0a57815173ffffffffffffffffffffffffffffffffffffffff1687529582019590820190600101610ad8565b509495945050505050565b608081526000610b286080830187610ac4565b602083820381850152610b3b8288610ac4565b8481036040860152865180825282880193509082019060005b81811015610b7057845183529383019391830191600101610b54565b505080935050505082606083015295945050505050565b8183526000602080850194508260005b85811015610b0a5773ffffffffffffffffffffffffffffffffffffffff610bbd83610646565b1687529582019590820190600101610b97565b608081526000610be460808301898b610b87565b8281036020840152610bf781888a610b87565b905082810360408401528481527f07ffffffffffffffffffffffffffffffffffffffffffffffffffffffffffffff851115610c3157600080fd5b8460051b808760208401376000910160200190815260ff9390931660609290920191909152509695505050505050565b600060208284031215610c7357600080fd5b610c7c82610646565b9392505050565b600060208284031215610c9557600080fd5b5051919050565b7f4e487b7100000000000000000000000000000000000000000000000000000000600052600160045260246000fd5b60007fffffffffffffffffffffffffffffffffffffffffffffffffffffffffffffffff821415610cfd57610cfd610a37565b5060010190565b60005b83811015610d1f578181015183820152602001610d07565b83811115610d2e576000848401525b50505050565b60008251610d46818460208701610d04565b9190910192915050565b600073ffffffffffffffffffffffffffffffffffffffff8087168352808616602084015250836040830152608060608301528251806080840152610d9b8160a0850160208701610d04565b601f017fffffffffffffffffffffffffffffffffffffffffffffffffffffffffffffffe0169190910160a00195945050505050565b600060208284031215610de257600080fd5b81518015158114610c7c57600080fdfea26469706673582212209c61a31b95e6c121c4bb5599dc7327aa65f228e0fe14301b00c6840b51402fe464736f6c634300080a0033",
  "linkReferences": {},
  "deployedLinkReferences": {}
}