{
  "_format": "hh-sol-artifact-1",
  "contractName": "EToken",
  "sourceName": "contracts/modules/EToken.sol",
  "abi": [
    {
      "inputs": [
        {
          "internalType": "bytes32",
          "name": "moduleGitCommit_",
          "type": "bytes32"
        }
      ],
      "stateMutability": "nonpayable",
      "type": "constructor"
    },
    {
      "anonymous": false,
      "inputs": [
        {
          "indexed": true,
          "internalType": "address",
          "name": "owner",
          "type": "address"
        },
        {
          "indexed": true,
          "internalType": "address",
          "name": "spender",
          "type": "address"
        },
        {
          "indexed": false,
          "internalType": "uint256",
          "name": "value",
          "type": "uint256"
        }
      ],
      "name": "Approval",
      "type": "event"
    },
    {
      "anonymous": false,
      "inputs": [
        {
          "indexed": true,
          "internalType": "address",
          "name": "underlying",
          "type": "address"
        },
        {
          "indexed": false,
          "internalType": "uint256",
          "name": "totalBalances",
          "type": "uint256"
        },
        {
          "indexed": false,
          "internalType": "uint256",
          "name": "totalBorrows",
          "type": "uint256"
        },
        {
          "indexed": false,
          "internalType": "uint96",
          "name": "reserveBalance",
          "type": "uint96"
        },
        {
          "indexed": false,
          "internalType": "uint256",
          "name": "poolSize",
          "type": "uint256"
        },
        {
          "indexed": false,
          "internalType": "uint256",
          "name": "interestAccumulator",
          "type": "uint256"
        },
        {
          "indexed": false,
          "internalType": "int96",
          "name": "interestRate",
          "type": "int96"
        },
        {
          "indexed": false,
          "internalType": "uint256",
          "name": "timestamp",
          "type": "uint256"
        }
      ],
      "name": "AssetStatus",
      "type": "event"
    },
    {
      "anonymous": false,
      "inputs": [
        {
          "indexed": true,
          "internalType": "address",
          "name": "underlying",
          "type": "address"
        },
        {
          "indexed": true,
          "internalType": "address",
          "name": "account",
          "type": "address"
        },
        {
          "indexed": false,
          "internalType": "uint256",
          "name": "amount",
          "type": "uint256"
        }
      ],
      "name": "Borrow",
      "type": "event"
    },
    {
      "anonymous": false,
      "inputs": [
        {
          "indexed": true,
          "internalType": "address",
          "name": "account",
          "type": "address"
        },
        {
          "indexed": true,
          "internalType": "address",
          "name": "delegate",
          "type": "address"
        }
      ],
      "name": "DelegateAverageLiquidity",
      "type": "event"
    },
    {
      "anonymous": false,
      "inputs": [
        {
          "indexed": true,
          "internalType": "address",
          "name": "underlying",
          "type": "address"
        },
        {
          "indexed": true,
          "internalType": "address",
          "name": "account",
          "type": "address"
        },
        {
          "indexed": false,
          "internalType": "uint256",
          "name": "amount",
          "type": "uint256"
        }
      ],
      "name": "Deposit",
      "type": "event"
    },
    {
      "anonymous": false,
      "inputs": [
        {
          "indexed": true,
          "internalType": "address",
          "name": "underlying",
          "type": "address"
        },
        {
          "indexed": true,
          "internalType": "address",
          "name": "account",
          "type": "address"
        }
      ],
      "name": "EnterMarket",
      "type": "event"
    },
    {
      "anonymous": false,
      "inputs": [
        {
          "indexed": true,
          "internalType": "address",
          "name": "underlying",
          "type": "address"
        },
        {
          "indexed": true,
          "internalType": "address",
          "name": "account",
          "type": "address"
        }
      ],
      "name": "ExitMarket",
      "type": "event"
    },
    {
      "anonymous": false,
      "inputs": [],
      "name": "Genesis",
      "type": "event"
    },
    {
      "anonymous": false,
      "inputs": [
        {
          "indexed": true,
          "internalType": "address",
          "name": "underlying",
          "type": "address"
        },
        {
          "indexed": true,
          "internalType": "address",
          "name": "recipient",
          "type": "address"
        },
        {
          "indexed": false,
          "internalType": "uint256",
          "name": "amount",
          "type": "uint256"
        }
      ],
      "name": "GovConvertReserves",
      "type": "event"
    },
    {
      "anonymous": false,
      "inputs": [
        {
          "indexed": true,
          "internalType": "address",
          "name": "underlying",
          "type": "address"
        },
        {
          "components": [
            {
              "internalType": "address",
              "name": "eTokenAddress",
              "type": "address"
            },
            {
              "internalType": "bool",
              "name": "borrowIsolated",
              "type": "bool"
            },
            {
              "internalType": "uint32",
              "name": "collateralFactor",
              "type": "uint32"
            },
            {
              "internalType": "uint32",
              "name": "borrowFactor",
              "type": "uint32"
            },
            {
              "internalType": "uint24",
              "name": "twapWindow",
              "type": "uint24"
            }
          ],
          "indexed": false,
          "internalType": "struct Storage.AssetConfig",
          "name": "newConfig",
          "type": "tuple"
        }
      ],
      "name": "GovSetAssetConfig",
      "type": "event"
    },
    {
      "anonymous": false,
      "inputs": [
        {
          "indexed": true,
          "internalType": "address",
          "name": "underlying",
          "type": "address"
        },
        {
          "indexed": false,
          "internalType": "uint256",
          "name": "interestRateModel",
          "type": "uint256"
        },
        {
          "indexed": false,
          "internalType": "bytes",
          "name": "resetParams",
          "type": "bytes"
        }
      ],
      "name": "GovSetIRM",
      "type": "event"
    },
    {
      "anonymous": false,
      "inputs": [
        {
          "indexed": true,
          "internalType": "address",
          "name": "underlying",
          "type": "address"
        },
        {
          "indexed": false,
          "internalType": "uint16",
          "name": "newPricingType",
          "type": "uint16"
        },
        {
          "indexed": false,
          "internalType": "uint32",
          "name": "newPricingParameter",
          "type": "uint32"
        }
      ],
      "name": "GovSetPricingConfig",
      "type": "event"
    },
    {
      "anonymous": false,
      "inputs": [
        {
          "indexed": true,
          "internalType": "address",
          "name": "underlying",
          "type": "address"
        },
        {
          "indexed": false,
          "internalType": "uint32",
          "name": "newReserveFee",
          "type": "uint32"
        }
      ],
      "name": "GovSetReserveFee",
      "type": "event"
    },
    {
      "anonymous": false,
      "inputs": [
        {
          "indexed": true,
          "internalType": "uint256",
          "name": "moduleId",
          "type": "uint256"
        },
        {
          "indexed": true,
          "internalType": "address",
          "name": "moduleImpl",
          "type": "address"
        },
        {
          "indexed": false,
          "internalType": "bytes32",
          "name": "moduleGitCommit",
          "type": "bytes32"
        }
      ],
      "name": "InstallerInstallModule",
      "type": "event"
    },
    {
      "anonymous": false,
      "inputs": [
        {
          "indexed": true,
          "internalType": "address",
          "name": "newGovernorAdmin",
          "type": "address"
        }
      ],
      "name": "InstallerSetGovernorAdmin",
      "type": "event"
    },
    {
      "anonymous": false,
      "inputs": [
        {
          "indexed": true,
          "internalType": "address",
          "name": "newUpgradeAdmin",
          "type": "address"
        }
      ],
      "name": "InstallerSetUpgradeAdmin",
      "type": "event"
    },
    {
      "anonymous": false,
      "inputs": [
        {
          "indexed": true,
          "internalType": "address",
          "name": "liquidator",
          "type": "address"
        },
        {
          "indexed": true,
          "internalType": "address",
          "name": "violator",
          "type": "address"
        },
        {
          "indexed": true,
          "internalType": "address",
          "name": "underlying",
          "type": "address"
        },
        {
          "indexed": false,
          "internalType": "address",
          "name": "collateral",
          "type": "address"
        },
        {
          "indexed": false,
          "internalType": "uint256",
          "name": "repay",
          "type": "uint256"
        },
        {
          "indexed": false,
          "internalType": "uint256",
          "name": "yield",
          "type": "uint256"
        },
        {
          "indexed": false,
          "internalType": "uint256",
          "name": "healthScore",
          "type": "uint256"
        },
        {
          "indexed": false,
          "internalType": "uint256",
          "name": "baseDiscount",
          "type": "uint256"
        },
        {
          "indexed": false,
          "internalType": "uint256",
          "name": "discount",
          "type": "uint256"
        }
      ],
      "name": "Liquidation",
      "type": "event"
    },
    {
      "anonymous": false,
      "inputs": [
        {
          "indexed": true,
          "internalType": "address",
          "name": "underlying",
          "type": "address"
        },
        {
          "indexed": true,
          "internalType": "address",
          "name": "eToken",
          "type": "address"
        },
        {
          "indexed": true,
          "internalType": "address",
          "name": "dToken",
          "type": "address"
        }
      ],
      "name": "MarketActivated",
      "type": "event"
    },
    {
      "anonymous": false,
      "inputs": [
        {
          "indexed": true,
          "internalType": "address",
          "name": "underlying",
          "type": "address"
        },
        {
          "indexed": true,
          "internalType": "address",
          "name": "pToken",
          "type": "address"
        }
      ],
      "name": "PTokenActivated",
      "type": "event"
    },
    {
      "anonymous": false,
      "inputs": [
        {
          "indexed": true,
          "internalType": "address",
          "name": "underlying",
          "type": "address"
        },
        {
          "indexed": true,
          "internalType": "address",
          "name": "account",
          "type": "address"
        },
        {
          "indexed": false,
          "internalType": "uint256",
          "name": "amount",
          "type": "uint256"
        }
      ],
      "name": "PTokenUnWrap",
      "type": "event"
    },
    {
      "anonymous": false,
      "inputs": [
        {
          "indexed": true,
          "internalType": "address",
          "name": "underlying",
          "type": "address"
        },
        {
          "indexed": true,
          "internalType": "address",
          "name": "account",
          "type": "address"
        },
        {
          "indexed": false,
          "internalType": "uint256",
          "name": "amount",
          "type": "uint256"
        }
      ],
      "name": "PTokenWrap",
      "type": "event"
    },
    {
      "anonymous": false,
      "inputs": [
        {
          "indexed": true,
          "internalType": "address",
          "name": "proxy",
          "type": "address"
        },
        {
          "indexed": false,
          "internalType": "uint256",
          "name": "moduleId",
          "type": "uint256"
        }
      ],
      "name": "ProxyCreated",
      "type": "event"
    },
    {
      "anonymous": false,
      "inputs": [
        {
          "indexed": true,
          "internalType": "address",
          "name": "underlying",
          "type": "address"
        },
        {
          "indexed": true,
          "internalType": "address",
          "name": "account",
          "type": "address"
        },
        {
          "indexed": false,
          "internalType": "uint256",
          "name": "amount",
          "type": "uint256"
        }
      ],
      "name": "Repay",
      "type": "event"
    },
    {
      "anonymous": false,
      "inputs": [
        {
          "indexed": true,
          "internalType": "address",
          "name": "account",
          "type": "address"
        },
        {
          "indexed": false,
          "internalType": "uint256",
          "name": "amount",
          "type": "uint256"
        }
      ],
      "name": "RequestBorrow",
      "type": "event"
    },
    {
      "anonymous": false,
      "inputs": [
        {
          "indexed": true,
          "internalType": "address",
          "name": "account",
          "type": "address"
        },
        {
          "indexed": false,
          "internalType": "uint256",
          "name": "amount",
          "type": "uint256"
        }
      ],
      "name": "RequestBurn",
      "type": "event"
    },
    {
      "anonymous": false,
      "inputs": [
        {
          "indexed": true,
          "internalType": "address",
          "name": "account",
          "type": "address"
        },
        {
          "indexed": false,
          "internalType": "uint256",
          "name": "amount",
          "type": "uint256"
        }
      ],
      "name": "RequestDeposit",
      "type": "event"
    },
    {
      "anonymous": false,
      "inputs": [
        {
          "indexed": true,
          "internalType": "address",
          "name": "liquidator",
          "type": "address"
        },
        {
          "indexed": true,
          "internalType": "address",
          "name": "violator",
          "type": "address"
        },
        {
          "indexed": true,
          "internalType": "address",
          "name": "underlying",
          "type": "address"
        },
        {
          "indexed": false,
          "internalType": "address",
          "name": "collateral",
          "type": "address"
        },
        {
          "indexed": false,
          "internalType": "uint256",
          "name": "repay",
          "type": "uint256"
        },
        {
          "indexed": false,
          "internalType": "uint256",
          "name": "minYield",
          "type": "uint256"
        }
      ],
      "name": "RequestLiquidate",
      "type": "event"
    },
    {
      "anonymous": false,
      "inputs": [
        {
          "indexed": true,
          "internalType": "address",
          "name": "account",
          "type": "address"
        },
        {
          "indexed": false,
          "internalType": "uint256",
          "name": "amount",
          "type": "uint256"
        }
      ],
      "name": "RequestMint",
      "type": "event"
    },
    {
      "anonymous": false,
      "inputs": [
        {
          "indexed": true,
          "internalType": "address",
          "name": "account",
          "type": "address"
        },
        {
          "indexed": false,
          "internalType": "uint256",
          "name": "amount",
          "type": "uint256"
        }
      ],
      "name": "RequestRepay",
      "type": "event"
    },
    {
      "anonymous": false,
      "inputs": [
        {
          "indexed": true,
          "internalType": "address",
          "name": "accountIn",
          "type": "address"
        },
        {
          "indexed": true,
          "internalType": "address",
          "name": "accountOut",
          "type": "address"
        },
        {
          "indexed": true,
          "internalType": "address",
          "name": "underlyingIn",
          "type": "address"
        },
        {
          "indexed": false,
          "internalType": "address",
          "name": "underlyingOut",
          "type": "address"
        },
        {
          "indexed": false,
          "internalType": "uint256",
          "name": "amount",
          "type": "uint256"
        },
        {
          "indexed": false,
          "internalType": "uint256",
          "name": "swapType",
          "type": "uint256"
        }
      ],
      "name": "RequestSwap",
      "type": "event"
    },
    {
      "anonymous": false,
      "inputs": [
        {
          "indexed": true,
          "internalType": "address",
          "name": "from",
          "type": "address"
        },
        {
          "indexed": true,
          "internalType": "address",
          "name": "to",
          "type": "address"
        },
        {
          "indexed": false,
          "internalType": "uint256",
          "name": "amount",
          "type": "uint256"
        }
      ],
      "name": "RequestTransferDToken",
      "type": "event"
    },
    {
      "anonymous": false,
      "inputs": [
        {
          "indexed": true,
          "internalType": "address",
          "name": "from",
          "type": "address"
        },
        {
          "indexed": true,
          "internalType": "address",
          "name": "to",
          "type": "address"
        },
        {
          "indexed": false,
          "internalType": "uint256",
          "name": "amount",
          "type": "uint256"
        }
      ],
      "name": "RequestTransferEToken",
      "type": "event"
    },
    {
      "anonymous": false,
      "inputs": [
        {
          "indexed": true,
          "internalType": "address",
          "name": "account",
          "type": "address"
        },
        {
          "indexed": false,
          "internalType": "uint256",
          "name": "amount",
          "type": "uint256"
        }
      ],
      "name": "RequestWithdraw",
      "type": "event"
    },
    {
      "anonymous": false,
      "inputs": [
        {
          "indexed": true,
          "internalType": "address",
          "name": "account",
          "type": "address"
        }
      ],
      "name": "TrackAverageLiquidity",
      "type": "event"
    },
    {
      "anonymous": false,
      "inputs": [
        {
          "indexed": true,
          "internalType": "address",
          "name": "from",
          "type": "address"
        },
        {
          "indexed": true,
          "internalType": "address",
          "name": "to",
          "type": "address"
        },
        {
          "indexed": false,
          "internalType": "uint256",
          "name": "value",
          "type": "uint256"
        }
      ],
      "name": "Transfer",
      "type": "event"
    },
    {
      "anonymous": false,
      "inputs": [
        {
          "indexed": true,
          "internalType": "address",
          "name": "account",
          "type": "address"
        }
      ],
      "name": "UnTrackAverageLiquidity",
      "type": "event"
    },
    {
      "anonymous": false,
      "inputs": [
        {
          "indexed": true,
          "internalType": "address",
          "name": "underlying",
          "type": "address"
        },
        {
          "indexed": true,
          "internalType": "address",
          "name": "account",
          "type": "address"
        },
        {
          "indexed": false,
          "internalType": "uint256",
          "name": "amount",
          "type": "uint256"
        }
      ],
      "name": "Withdraw",
      "type": "event"
    },
    {
      "inputs": [
        {
          "internalType": "address",
          "name": "holder",
          "type": "address"
        },
        {
          "internalType": "address",
          "name": "spender",
          "type": "address"
        }
      ],
      "name": "allowance",
      "outputs": [
        {
          "internalType": "uint256",
          "name": "",
          "type": "uint256"
        }
      ],
      "stateMutability": "view",
      "type": "function"
    },
    {
      "inputs": [
        {
          "internalType": "address",
          "name": "spender",
          "type": "address"
        },
        {
          "internalType": "uint256",
          "name": "amount",
          "type": "uint256"
        }
      ],
      "name": "approve",
      "outputs": [
        {
          "internalType": "bool",
          "name": "",
          "type": "bool"
        }
      ],
      "stateMutability": "nonpayable",
      "type": "function"
    },
    {
      "inputs": [
        {
          "internalType": "uint256",
          "name": "subAccountId",
          "type": "uint256"
        },
        {
          "internalType": "address",
          "name": "spender",
          "type": "address"
        },
        {
          "internalType": "uint256",
          "name": "amount",
          "type": "uint256"
        }
      ],
      "name": "approveSubAccount",
      "outputs": [
        {
          "internalType": "bool",
          "name": "",
          "type": "bool"
        }
      ],
      "stateMutability": "nonpayable",
      "type": "function"
    },
    {
      "inputs": [
        {
          "internalType": "address",
          "name": "account",
          "type": "address"
        }
      ],
      "name": "balanceOf",
      "outputs": [
        {
          "internalType": "uint256",
          "name": "",
          "type": "uint256"
        }
      ],
      "stateMutability": "view",
      "type": "function"
    },
    {
      "inputs": [
        {
          "internalType": "address",
          "name": "account",
          "type": "address"
        }
      ],
      "name": "balanceOfUnderlying",
      "outputs": [
        {
          "internalType": "uint256",
          "name": "",
          "type": "uint256"
        }
      ],
      "stateMutability": "view",
      "type": "function"
    },
    {
      "inputs": [
        {
          "internalType": "uint256",
          "name": "subAccountId",
          "type": "uint256"
        },
        {
          "internalType": "uint256",
          "name": "amount",
          "type": "uint256"
        }
      ],
      "name": "burn",
      "outputs": [],
      "stateMutability": "nonpayable",
      "type": "function"
    },
    {
      "inputs": [],
      "name": "decimals",
      "outputs": [
        {
          "internalType": "uint8",
          "name": "",
          "type": "uint8"
        }
      ],
      "stateMutability": "pure",
      "type": "function"
    },
    {
      "inputs": [
        {
          "internalType": "uint256",
          "name": "subAccountId",
          "type": "uint256"
        },
        {
          "internalType": "uint256",
          "name": "amount",
          "type": "uint256"
        }
      ],
      "name": "deposit",
      "outputs": [],
      "stateMutability": "nonpayable",
      "type": "function"
    },
    {
      "inputs": [
        {
          "internalType": "uint256",
          "name": "subAccountId",
          "type": "uint256"
        },
        {
          "internalType": "uint256",
          "name": "amount",
          "type": "uint256"
        }
      ],
      "name": "mint",
      "outputs": [],
      "stateMutability": "nonpayable",
      "type": "function"
    },
    {
      "inputs": [],
      "name": "moduleGitCommit",
      "outputs": [
        {
          "internalType": "bytes32",
          "name": "",
          "type": "bytes32"
        }
      ],
      "stateMutability": "view",
      "type": "function"
    },
    {
      "inputs": [],
      "name": "moduleId",
      "outputs": [
        {
          "internalType": "uint256",
          "name": "",
          "type": "uint256"
        }
      ],
      "stateMutability": "view",
      "type": "function"
    },
    {
      "inputs": [],
      "name": "name",
      "outputs": [
        {
          "internalType": "string",
          "name": "",
          "type": "string"
        }
      ],
      "stateMutability": "view",
      "type": "function"
    },
    {
      "inputs": [],
      "name": "reserveBalance",
      "outputs": [
        {
          "internalType": "uint256",
          "name": "",
          "type": "uint256"
        }
      ],
      "stateMutability": "view",
      "type": "function"
    },
    {
      "inputs": [],
      "name": "reserveBalanceUnderlying",
      "outputs": [
        {
          "internalType": "uint256",
          "name": "",
          "type": "uint256"
        }
      ],
      "stateMutability": "view",
      "type": "function"
    },
    {
      "inputs": [],
      "name": "symbol",
      "outputs": [
        {
          "internalType": "string",
          "name": "",
          "type": "string"
        }
      ],
      "stateMutability": "view",
      "type": "function"
    },
    {
      "inputs": [],
      "name": "totalSupply",
      "outputs": [
        {
          "internalType": "uint256",
          "name": "",
          "type": "uint256"
        }
      ],
      "stateMutability": "view",
      "type": "function"
    },
    {
      "inputs": [],
      "name": "totalSupplyUnderlying",
      "outputs": [
        {
          "internalType": "uint256",
          "name": "",
          "type": "uint256"
        }
      ],
      "stateMutability": "view",
      "type": "function"
    },
    {
      "inputs": [],
      "name": "touch",
      "outputs": [],
      "stateMutability": "nonpayable",
      "type": "function"
    },
    {
      "inputs": [
        {
          "internalType": "address",
          "name": "to",
          "type": "address"
        },
        {
          "internalType": "uint256",
          "name": "amount",
          "type": "uint256"
        }
      ],
      "name": "transfer",
      "outputs": [
        {
          "internalType": "bool",
          "name": "",
          "type": "bool"
        }
      ],
      "stateMutability": "nonpayable",
      "type": "function"
    },
    {
      "inputs": [
        {
          "internalType": "address",
          "name": "from",
          "type": "address"
        },
        {
          "internalType": "address",
          "name": "to",
          "type": "address"
        },
        {
          "internalType": "uint256",
          "name": "amount",
          "type": "uint256"
        }
      ],
      "name": "transferFrom",
      "outputs": [
        {
          "internalType": "bool",
          "name": "",
          "type": "bool"
        }
      ],
      "stateMutability": "nonpayable",
      "type": "function"
    },
    {
      "inputs": [
        {
          "internalType": "uint256",
          "name": "subAccountId",
          "type": "uint256"
        },
        {
          "internalType": "uint256",
          "name": "amount",
          "type": "uint256"
        }
      ],
      "name": "withdraw",
      "outputs": [],
      "stateMutability": "nonpayable",
      "type": "function"
    }
  ],
  "bytecode": "0x60c06040523480156200001157600080fd5b506040516200438038038062004380833981016040819052620000349162000044565b6207a12060805260a0526200005e565b6000602082840312156200005757600080fd5b5051919050565b60805160a0516142fc6200008460003960006102480152600061029201526142fc6000f3fe608060405234801561001057600080fd5b50600436106101775760003560e01c806370a08231116100d8578063a9059cbb1161008c578063e2bbb15811610066578063e2bbb158146102f5578063e73277d014610308578063fea61faa1461031057600080fd5b8063a9059cbb146102bc578063b390c0ab146102cf578063dd62ed3e146102e257600080fd5b8063a10954fe116100bd578063a10954fe14610285578063a1308f271461028d578063a55526db146102b457600080fd5b806370a082311461026a57806395d89b411461027d57600080fd5b8063313ce5671161012f5780633af9e669116101145780633af9e6691461021d578063441a3e701461023057806369a92ea31461024357600080fd5b8063313ce567146101fb57806332d1ca9b1461020a57600080fd5b806318160ddd1161016057806318160ddd146101bd5780631b2ef1ca146101d357806323b872dd146101e857600080fd5b806306fdde031461017c578063095ea7b31461019a575b600080fd5b610184610318565b6040516101919190613c8e565b60405180910390f35b6101ad6101a8366004613d08565b6103df565b6040519015158152602001610191565b6101c56103f6565b604051908152602001610191565b6101e66101e1366004613d32565b610431565b005b6101ad6101f6366004613d54565b6105b0565b60405160128152602001610191565b6101ad610218366004613d90565b610992565b6101c561022b366004613db5565b610a8f565b6101e661023e366004613d32565b610b0e565b6101c57f000000000000000000000000000000000000000000000000000000000000000081565b6101c5610278366004613db5565b610ca4565b610184610cf3565b6101c5610da5565b6101c57f000000000000000000000000000000000000000000000000000000000000000081565b6101e6610dde565b6101ad6102ca366004613d08565b610e8b565b6101e66102dd366004613d32565b610e99565b6101c56102f0366004613dd0565b61103a565b6101e6610303366004613d32565b611086565b6101c5611203565b6101c5611258565b6060600061032461129d565b50505090508073ffffffffffffffffffffffffffffffffffffffff166306fdde036040518163ffffffff1660e01b8152600401600060405180830381865afa158015610374573d6000803e3d6000fd5b505050506040513d6000823e601f3d9081017fffffffffffffffffffffffffffffffffffffffffffffffffffffffffffffffe01682016040526103ba9190810190613e32565b6040516020016103ca9190613efd565b60405160208183030381529060405291505090565b60006103ed60008484610992565b90505b92915050565b600080600061040361129d565b5050915091506000610415838361134e565b602001516dffffffffffffffffffffffffffff16949350505050565b6001600054146104a2576040517f08c379a000000000000000000000000000000000000000000000000000000000815260206004820152600c60248201527f652f7265656e7472616e6379000000000000000000000000000000000000000060448201526064015b60405180910390fd5b600260009081558080806104b461129d565b935093509350935060006104c882886113d9565b90506104d38161144b565b8073ffffffffffffffffffffffffffffffffffffffff167f7053340faeaa787c14d517bde5b7f4f7e1ebc393c59b246723598563d39af9ed8760405161051b91815260200190565b60405180910390a2600061052f8686611531565b905061053b8188611692565b96506000610549828961170f565b90506105558282611757565b97506105648683878685611778565b600286015461058e908790849073ffffffffffffffffffffffffffffffffffffffff16868c6118ec565b61059783611ac8565b6105a082611c2a565b5050600160005550505050505050565b600060016000541461061e576040517f08c379a000000000000000000000000000000000000000000000000000000000815260206004820152600c60248201527f652f7265656e7472616e637900000000000000000000000000000000000000006044820152606401610499565b6002600090815580808061063061129d565b935093509350935060006106448585611531565b905073ffffffffffffffffffffffffffffffffffffffff8916610665578198505b8773ffffffffffffffffffffffffffffffffffffffff168973ffffffffffffffffffffffffffffffffffffffff1614156106fb576040517f08c379a000000000000000000000000000000000000000000000000000000000815260206004820152600f60248201527f652f73656c662d7472616e7366657200000000000000000000000000000000006044820152606401610499565b6107048961144b565b61070d8861144b565b8773ffffffffffffffffffffffffffffffffffffffff168973ffffffffffffffffffffffffffffffffffffffff167f05c051db3761ec29f60be6db25acec44695498d628df7aa22ebff5a2922f8ffb8960405161076c91815260200190565b60405180910390a37fffffffffffffffffffffffffffffffffffffffffffffffffffffffffffffffff8714156107d75773ffffffffffffffffffffffffffffffffffffffff891660009081526005850160205260409020546dffffffffffffffffffffffffffff1696505b866107ea57600195505050505050610986565b60ff80831773ffffffffffffffffffffffffffffffffffffffff908116918b17161415801561086d575073ffffffffffffffffffffffffffffffffffffffff808a1660009081526006860160209081526040808320938616835292905220547fffffffffffffffffffffffffffffffffffffffffffffffffffffffffffffffff14155b1561095c5773ffffffffffffffffffffffffffffffffffffffff808a166000908152600686016020908152604080832093861683529290522054871115610910576040517f08c379a000000000000000000000000000000000000000000000000000000000815260206004820152601860248201527f652f696e73756666696369656e742d616c6c6f77616e636500000000000000006044820152606401610499565b73ffffffffffffffffffffffffffffffffffffffff8981166000908152600686016020908152604080832093861683529290522080548890039081905561095c9084908b908590611d09565b61096a8482858c8c8c611ea1565b61097389611ac8565b61097c81611c2a565b6001955050505050505b60016000559392505050565b6000806000806109a061129d565b9350935093505060006109b382896113d9565b905060ff80881773ffffffffffffffffffffffffffffffffffffffff908116918317161415610a3e576040517f08c379a000000000000000000000000000000000000000000000000000000000815260206004820152600f60248201527f652f73656c662d617070726f76616c00000000000000000000000000000000006044820152606401610499565b73ffffffffffffffffffffffffffffffffffffffff80821660009081526006860160209081526040808320938b16835292905220869055610a8183828989611d09565b506001979650505050505050565b6000806000610a9c61129d565b5050915091506000610aae838361134e565b6101a081015173ffffffffffffffffffffffffffffffffffffffff8716600090815260058501602052604090205491925090610afb9083906dffffffffffffffffffffffffffff16611757565b610b059190613fa0565b95945050505050565b600160005414610b7a576040517f08c379a000000000000000000000000000000000000000000000000000000000815260206004820152600c60248201527f652f7265656e7472616e637900000000000000000000000000000000000000006044820152606401610499565b60026000908155808080610b8c61129d565b93509350935093506000610ba082886113d9565b9050610bab8161144b565b8073ffffffffffffffffffffffffffffffffffffffff167f0afd74a2a0a78f6c15e41029f44995ee023fe49276f44a4b2b2cf674829362e687604051610bf391815260200190565b60405180910390a26000610c078686611531565b90506000610c178683858b6120d3565b6101808401519199509150881115610c8b576040517f08c379a000000000000000000000000000000000000000000000000000000000815260206004820152601860248201527f652f696e73756666696369656e742d706f6f6c2d73697a6500000000000000006044820152606401610499565b610c9682858a612170565b5061058e868387868561222a565b600080610caf61129d565b505073ffffffffffffffffffffffffffffffffffffffff9094166000908152600590940160205250506040909120546dffffffffffffffffffffffffffff16919050565b60606000610cff61129d565b50505090508073ffffffffffffffffffffffffffffffffffffffff166395d89b416040518163ffffffff1660e01b8152600401600060405180830381865afa158015610d4f573d6000803e3d6000fd5b505050506040513d6000823e601f3d9081017fffffffffffffffffffffffffffffffffffffffffffffffffffffffffffffffe0168201604052610d959190810190613e32565b6040516020016103ca9190613fdb565b6000806000610db261129d565b5050915091506000610dc4838361134e565b606001516bffffffffffffffffffffffff16949350505050565b600160005414610e4a576040517f08c379a000000000000000000000000000000000000000000000000000000000815260206004820152600c60248201527f652f7265656e7472616e637900000000000000000000000000000000000000006044820152606401610499565b6002600090815580610e5a61129d565b5050915091506000610e6c8383611531565b9050610e788282612402565b610e8181611c2a565b5050600160005550565b60006103ed600084846105b0565b600160005414610f05576040517f08c379a000000000000000000000000000000000000000000000000000000000815260206004820152600c60248201527f652f7265656e7472616e637900000000000000000000000000000000000000006044820152606401610499565b60026000908155808080610f1761129d565b93509350935093506000610f2b82886113d9565b9050610f368161144b565b8073ffffffffffffffffffffffffffffffffffffffff167ff05dc13309edd62ddfddf2ba57299daa8fc08d8be6d2fad6c648fa9b2b0d91df87604051610f7e91815260200190565b60405180910390a26000610f928686611531565b90506000610fa186838561256b565b905080610fb45750505050505050611031565b6000610fc28784868c6120d3565b909950905081891115610fdf57819850610fdc838a61170f565b90505b610fec878488878561222a565b6002870154611016908890859073ffffffffffffffffffffffffffffffffffffffff16878d6125d9565b61101f84611ac8565b61102883611c2a565b50505050505050505b50506001600055565b60008061104561129d565b505073ffffffffffffffffffffffffffffffffffffffff95861660009081526006919091016020908152604080832096909716825294909452505050205490565b6001600054146110f2576040517f08c379a000000000000000000000000000000000000000000000000000000000815260206004820152600c60248201527f652f7265656e7472616e637900000000000000000000000000000000000000006044820152606401610499565b6002600090815580808061110461129d565b9350935093509350600061111882886113d9565b90506111238161144b565b8073ffffffffffffffffffffffffffffffffffffffff167fab5515522df06610b9fbcbbbd8416018226aca39364adcf5524751fcfef40ae58760405161116b91815260200190565b60405180910390a2600061117f8686611531565b90507fffffffffffffffffffffffffffffffffffffffffffffffffffffffffffffffff8714156111b6576111b381846127af565b96505b6111c08188611692565b965060006111cf82858a6128cc565b610180830180518290039052905060006111e98383612982565b6101808401805184019052905061101f8784888785611778565b600080600061121061129d565b5050915091506000611222838361134e565b9050806101a001516112468283606001516bffffffffffffffffffffffff16611757565b6112509190613fa0565b935050505090565b600080600061126561129d565b5050915091506000611277838361134e565b9050806101a001516112468283602001516dffffffffffffffffffffffffffff16611757565b6000806000806112ab6129a3565b73ffffffffffffffffffffffffffffffffffffffff80821660009081526009602052604090206001810154909116965094509250905083611348576040517f08c379a000000000000000000000000000000000000000000000000000000000815260206004820152601c60248201527f652f756e7265636f676e697a65642d65746f6b656e2d63616c6c6572000000006044820152606401610499565b90919293565b604080516101e081018252600080825260208201819052918101829052606081018290526080810182905260a0810182905260c0810182905260e08101829052610100810182905261012081018290526101408101829052610160810182905261018081018290526101a081018290526101c08101919091526113d28383836129c8565b5092915050565b60006101008210611446576040517f08c379a000000000000000000000000000000000000000000000000000000000815260206004820152601860248201527f652f7375622d6163636f756e742d69642d746f6f2d62696700000000000000006044820152606401610499565b501890565b73ffffffffffffffffffffffffffffffffffffffff8116600090815260066020526040902054610100900464ffffffffff1680611486575050565b60006114928242614020565b90508061149e57505050565b73ffffffffffffffffffffffffffffffffffffffff8316600090815260066020526040902080547fffffffffffffffffffffffffffffffffffffffffffffffffffff0000000000ff166101004264ffffffffff16021790556115008382612e3b565b73ffffffffffffffffffffffffffffffffffffffff9093166000908152600660205260409020600101929092555050565b604080516101e081018252600080825260208201819052918101829052606081018290526080810182905260a0810182905260c0810182905260e08101829052610100810182905261012081018290526101408101829052610160810182905261018081018290526101a081018290526101c08101919091526115b58383836129c8565b156103f05760a0810151825464ffffffffff9091167fffffffffffffffffffffffffffffffffffffffffffffffffffffff0000000000909116178255805160608201516bffffffffffffffffffffffff16740100000000000000000000000000000000000000000273ffffffffffffffffffffffffffffffffffffffff9091161760018301556020810151604082015171ffffffffffffffffffffffffffffffffffff166e010000000000000000000000000000026dffffffffffffffffffffffffffff9091161760038301556080810151600483015592915050565b6000826101c00151821115611703576040517f08c379a000000000000000000000000000000000000000000000000000000000815260206004820152601260248201527f652f616d6f756e742d746f6f2d6c6172676500000000000000000000000000006044820152606401610499565b506101a0909101510290565b60008061171b84612f06565b905080611729600182614020565b61173b85670de0b6b3a7640000614037565b6117459190614074565b61174f9190613fa0565b949350505050565b60008061176384612f06565b9050670de0b6b3a76400006117458285614037565b73ffffffffffffffffffffffffffffffffffffffff821660009081526005860160205260409020546117c4906117bf9083906dffffffffffffffffffffffffffff16614074565b612f9d565b73ffffffffffffffffffffffffffffffffffffffff83166000908152600587016020908152604090912080547fffffffffffffffffffffffffffffffffffff0000000000000000000000000000166dffffffffffffffffffffffffffff93841617905585015161183a916117bf91849116614074565b6dffffffffffffffffffffffffffff16602085018190526003860180547fffffffffffffffffffffffffffffffffffff00000000000000000000000000001690911790556118888585612402565b835160405182815273ffffffffffffffffffffffffffffffffffffffff8085169216907f5548c837ab068cf56a2c2479df0882a4922fd203edb7517321831d95078c5f629060200160405180910390a36118e5836000848461301b565b5050505050565b6118fa633b9aca0082614037565b61014085015190915061ffff16600314158061193d5750835173ffffffffffffffffffffffffffffffffffffffff9081166000908152600b602052604090205416155b6119a3576040517f08c379a000000000000000000000000000000000000000000000000000000000815260206004820152601660248201527f652f626f72726f772d6e6f742d737570706f72746564000000000000000000006044820152606401610499565b6000806119b18787866130c8565b9150915081600014156119cc576119cc8487600001516131a8565b6119d68383614074565b91506119e182613460565b73ffffffffffffffffffffffffffffffffffffffff851660009081526005890160205260409081902080546dffffffffffffffffffffffffffff166e01000000000000000000000000000071ffffffffffffffffffffffffffffffffffff94851602179055870151611a5e91611a5991869116614074565b613460565b71ffffffffffffffffffffffffffffffffffff16604087018190526003880180546dffffffffffffffffffffffffffff166e010000000000000000000000000000909202919091179055611ab28787612402565b611abf8686868486613504565b50505050505050565b73ffffffffffffffffffffffffffffffffffffffff811660009081526006602052604090205460ff1680611bcb5760405173ffffffffffffffffffffffffffffffffffffffff83166024820152611bc690620f4240907fc39b543a00000000000000000000000000000000000000000000000000000000906044015b604080517fffffffffffffffffffffffffffffffffffffffffffffffffffffffffffffffe08184030181529190526020810180517bffffffffffffffffffffffffffffffffffffffffffffffffffffffff167fffffffff000000000000000000000000000000000000000000000000000000009093169290921790915261365c565b505050565b60ff811660011415611c265773ffffffffffffffffffffffffffffffffffffffff8216600090815260066020526040902080547fffffffffffffffffffffffffffffffffffffffffffffffffffffffffffffff001660021790555b5050565b806000015173ffffffffffffffffffffffffffffffffffffffff167f2f2d732e1a7a15fe7a2e51d3482efe83ff791579cebc5e3cd12cd2064374bc7f8260200151633b9aca00846040015171ffffffffffffffffffffffffffffffffffff16611c939190613fa0565b6060808601516101808701516080808901516101008a0151604080516dffffffffffffffffffffffffffff909916895260208901979097526bffffffffffffffffffffffff909416958701959095529285015290830191909152600b0b60a08201524260c082015260e00160405180910390a250565b6000604051905060008573ffffffffffffffffffffffffffffffffffffffff16600360405180606001604052806021815260200161428560219139805160209182012060405160f89390931b7fff000000000000000000000000000000000000000000000000000000000000001691830191909152602182015273ffffffffffffffffffffffffffffffffffffffff8781166041830152861660618201526081810185905260a1015b604080517fffffffffffffffffffffffffffffffffffffffffffffffffffffffffffffffe081840301815290829052611dea9161408c565b6000604051808303816000865af19150503d8060008114611e27576040519150601f19603f3d011682016040523d82523d6000602084013e611e2c565b606091505b5050905080611e97576040517f08c379a000000000000000000000000000000000000000000000000000000000815260206004820152601060248201527f652f6c6f672d70726f78792d6661696c000000000000000000000000000000006044820152606401610499565b5060405250505050565b73ffffffffffffffffffffffffffffffffffffffff831660009081526005870160205260409020546dffffffffffffffffffffffffffff1681811015611f43576040517f08c379a000000000000000000000000000000000000000000000000000000000815260206004820152601660248201527f652f696e73756666696369656e742d62616c616e6365000000000000000000006044820152606401610499565b818103611f4f81612f9d565b73ffffffffffffffffffffffffffffffffffffffff868116600090815260058b01602052604080822080547fffffffffffffffffffffffffffffffffffff0000000000000000000000000000166dffffffffffffffffffffffffffff95861617905591871681522054611fc8916117bf91869116614074565b73ffffffffffffffffffffffffffffffffffffffff858116600090815260058b01602090815260409182902080547fffffffffffffffffffffffffffffffffffff0000000000000000000000000000166dffffffffffffffffffffffffffff9590951694909417909355895190518681528883169391909216917f9b1bfa7fa9ee420a16e124f794c35ac9f90472acc99140eb2f6447c714cad8eb910160405180910390a3865160405184815273ffffffffffffffffffffffffffffffffffffffff8087169216907f5548c837ab068cf56a2c2479df0882a4922fd203edb7517321831d95078c5f629060200160405180910390a36120c98686868661301b565b5050505050505050565b60008060007fffffffffffffffffffffffffffffffffffffffffffffffffffffffffffffffff84141561214a575073ffffffffffffffffffffffffffffffffffffffff841660009081526005870160205260409020546dffffffffffffffffffffffffffff166121438682611757565b9350612163565b6121548685611692565b9350612160868561170f565b90505b9296929550919350505050565b61018083015183516101a0850151600092916121979186906121929087613fa0565b6136eb565b60006121ac866121a788306127af565b611692565b6101808701819052905080821015612220576040517f08c379a000000000000000000000000000000000000000000000000000000000815260206004820152601a60248201527f652f6e656761746976652d7472616e736665722d616d6f756e740000000000006044820152606401610499565b9003949350505050565b73ffffffffffffffffffffffffffffffffffffffff821660009081526005860160205260409020546dffffffffffffffffffffffffffff16818110156122cc576040517f08c379a000000000000000000000000000000000000000000000000000000000815260206004820152601660248201527f652f696e73756666696369656e742d62616c616e6365000000000000000000006044820152606401610499565b6122d96117bf8383614020565b73ffffffffffffffffffffffffffffffffffffffff84166000908152600588016020908152604090912080547fffffffffffffffffffffffffffffffffffff0000000000000000000000000000166dffffffffffffffffffffffffffff93841617905586015161234f916117bf91859116614020565b6dffffffffffffffffffffffffffff16602086018190526003870180547fffffffffffffffffffffffffffffffffffff000000000000000000000000000016909117905561239d8686612402565b845160405183815273ffffffffffffffffffffffffffffffffffffffff8086169216907f9b1bfa7fa9ee420a16e124f794c35ac9f90472acc99140eb2f6447c714cad8eb9060200160405180910390a36123fa848460008561301b565b505050505050565b600080633b9aca00836040015171ffffffffffffffffffffffffffffffffffff1661242d9190613fa0565b90506000818461018001516124429190614074565b905080612452576000925061248b565b670de0b6b3a76400008161246a63ffffffff83614037565b6124749085614037565b61247e9190613fa0565b6124889190613fa0565b92505b505060e0820151825160405173ffffffffffffffffffffffffffffffffffffffff909116602482015263ffffffff83811660448301526000926124f5929116907fd50c08f80000000000000000000000000000000000000000000000000000000090606401611b44565b905060008180602001905181019061250d91906140a8565b600b81900b61010090950194909452505082546bffffffffffffffffffffffff9092166a0100000000000000000000027fffffffffffffffffffff000000000000000000000000ffffffffffffffffffff9092169190911790915550565b73ffffffffffffffffffffffffffffffffffffffff81166000908152600584016020526040812054633b9aca00906117459085906125d4908890839088906e010000000000000000000000000000900471ffffffffffffffffffffffffffffffffffff16613827565b613870565b60006125e9633b9aca0083614037565b90506000806125f98888876130c8565b9150915060006126098884613870565b905080841115612675576040517f08c379a000000000000000000000000000000000000000000000000000000000815260206004820152601060248201527f652f72657061792d746f6f2d6d756368000000000000000000000000000000006044820152606401610499565b60408801518482039071ffffffffffffffffffffffffffffffffffff168411156126b557886040015171ffffffffffffffffffffffffffffffffffff1693505b6126be81613460565b73ffffffffffffffffffffffffffffffffffffffff8816600090815260058c0160205260409081902080546dffffffffffffffffffffffffffff166e01000000000000000000000000000071ffffffffffffffffffffffffffffffffffff948516021790558a015161274291839161273891889116614020565b611a599190614074565b71ffffffffffffffffffffffffffffffffffff1660408a0181905260038b0180546dffffffffffffffffffffffffffff166e0100000000000000000000000000009092029190911790556127968a8a612402565b6127a38989898685613504565b50505050505050505050565b60408051835173ffffffffffffffffffffffffffffffffffffffff848116602480850191909152845180850390910181526044840185526020810180517bffffffffffffffffffffffffffffffffffffffffffffffffffffffff167f70a08231000000000000000000000000000000000000000000000000000000001790529351600094859384931691614e20916128469161408c565b6000604051808303818686fa925050503d8060008114612882576040519150601f19603f3d011682016040523d82523d6000602084013e612887565b606091505b509150915081158061289a575060208151105b156128aa576000935050506128c3565b808060200190518101906128be91906140d2565b935050505b60405292915050565b61018083015183516101a0850151600092916128f591869030906128f09088613fa0565b6138c9565b6000612905866121a788306127af565b6101808701819052905081811015612979576040517f08c379a000000000000000000000000000000000000000000000000000000000815260206004820152601a60248201527f652f6e656761746976652d7472616e736665722d616d6f756e740000000000006044820152606401610499565b03949350505050565b60008061298e84612f06565b90508061174584670de0b6b3a7640000614037565b60008060008052601460283603600c3760005191506014803603600c37506000519091565b73ffffffffffffffffffffffffffffffffffffffff83168152815464ffffffffff811660a083015265010000000000810460ff90811660c084018190526601000000000000830463ffffffff90811660e08601526a01000000000000000000008404600b0b610100860152760100000000000000000000000000000000000000000000840481166101208601527a010000000000000000000000000000000000000000000000000000840461ffff166101408601527c010000000000000000000000000000000000000000000000000000000090930490921661016084015260018401547401000000000000000000000000000000000000000090046bffffffffffffffffffffffff16606084015260038401546dffffffffffffffffffffffffffff80821660208601526e01000000000000000000000000000090910471ffffffffffffffffffffffffffffffffffff166040850152600485015460808501526012839003909116600a0a6101a084018190526000929181612b4d57612b4d613f42565b046101c08401526000612b6084306127af565b9050836101c001518111612b81576101a08401518102610180850152612b8a565b60006101808501525b8360a0015164ffffffffff164214612e32576001925060008460a0015164ffffffffff1642612bb99190614020565b905060006b033b2e3c9fd0803ce80000008660800151612c05886101000151600b0b6b033b2e3c9fd0803ce8000000612bf291906140eb565b856b033b2e3c9fd0803ce8000000613a0d565b612c0f9190614037565b612c199190613fa0565b90506000866080015182886040015171ffffffffffffffffffffffffffffffffffff16612c469190614037565b612c509190613fa0565b606088015160208901519192506bffffffffffffffffffffffff16906dffffffffffffffffffffffffffff166000612c90633b9aca0063ee6b2800614037565b6101208b015163ffffffff90811614612cae578a6101200151612cb4565b6336d616005b63ffffffff168b6040015171ffffffffffffffffffffffffffffffffffff1686612cde9190614020565b612ce89190614037565b612cf29190613fa0565b90508015612d6a576000612d0a633b9aca0086613fa0565b8b6101800151612d1a9190614074565b9050612d268282614020565b612d308483614037565b612d3a9190613fa0565b92508a602001516dffffffffffffffffffffffffffff1683612d5c9190614020565b612d669085614074565b9350505b6dffffffffffffffffffffffffffff8211801590612d9a575071ffffffffffffffffffffffffffffffffffff8411155b15612e2b57612da884613460565b71ffffffffffffffffffffffffffffffffffff1660408b015260808a0185905264ffffffffff421660a08b015260208a01516dffffffffffffffffffffffffffff168214612e2b57612df983613aca565b6bffffffffffffffffffffffff1660608b0152612e1582612f9d565b6dffffffffffffffffffffffffffff1660208b01525b5050505050505b50509392505050565b60008062015180831015612e4f5782612e54565b620151805b90506000612e658262015180614020565b90506000806000612e7588613b68565b91509150808211612e87576000612e91565b612e918183614020565b92505050620151808382612ea59190614037565b612eaf9190613fa0565b73ffffffffffffffffffffffffffffffffffffffff87166000908152600660205260409020600101546201518090612ee8908590614037565b612ef29190613fa0565b612efc9190614074565b9695505050505050565b600081602001516dffffffffffffffffffffffffffff1660001415612f345750670de0b6b3a7640000919050565b81602001516dffffffffffffffffffffffffffff16633b9aca00836040015171ffffffffffffffffffffffffffffffffffff16612f719190613fa0565b836101800151612f819190614074565b612f9390670de0b6b3a7640000614037565b6103f09190613fa0565b60006dffffffffffffffffffffffffffff821115613017576040517f08c379a000000000000000000000000000000000000000000000000000000000815260206004820152601c60248201527f652f616d6f756e742d746f6f2d6c617267652d746f2d656e636f6465000000006044820152606401610499565b5090565b6000604051905060008573ffffffffffffffffffffffffffffffffffffffff1660036040518060600160405280602181526020016142a660219139805160209182012060405160f89390931b7fff000000000000000000000000000000000000000000000000000000000000001691830191909152602182015273ffffffffffffffffffffffffffffffffffffffff8781166041830152861660618201526081810185905260a101611db2565b73ffffffffffffffffffffffffffffffffffffffff811660009081526005840160205260408120546e010000000000000000000000000000900471ffffffffffffffffffffffffffffffffffff1661312285858584613827565b915061312d82613460565b73ffffffffffffffffffffffffffffffffffffffff909316600090815260059095016020526040909420805471ffffffffffffffffffffffffffffffffffff939093166e010000000000000000000000000000026dffffffffffffffffffffffffffff90931692909217825560809092015160019091015591565b73ffffffffffffffffffffffffffffffffffffffff82166000908152600660209081526040808320805460079093529220660100000000000090910463ffffffff169081156132a057825473ffffffffffffffffffffffffffffffffffffffff8581166a0100000000000000000000909204161415613228575050505050565b60015b8263ffffffff1681101561329e578473ffffffffffffffffffffffffffffffffffffffff16828264010000000081106132665761326661415f565b015473ffffffffffffffffffffffffffffffffffffffff16141561328c57505050505050565b806132968161418e565b91505061322b565b505b600a8263ffffffff1610613310576040517f08c379a000000000000000000000000000000000000000000000000000000000815260206004820152601a60248201527f652f746f6f2d6d616e792d656e74657265642d6d61726b6574730000000000006044820152606401610499565b63ffffffff821661336b5782547fffff0000000000000000000000000000000000000000ffffffffffffffffffff166a010000000000000000000073ffffffffffffffffffffffffffffffffffffffff8616021783556133cd565b83818363ffffffff1664010000000081106133885761338861415f565b0180547fffffffffffffffffffffffff00000000000000000000000000000000000000001673ffffffffffffffffffffffffffffffffffffffff929092169190911790555b6133d88260016141c7565b835463ffffffff919091166601000000000000027fffffffffffffffffffffffffffffffffffffffffffff00000000ffffffffffff90911617835560405173ffffffffffffffffffffffffffffffffffffffff80871691908616907f1c0971b8e0f7bb4e90bdbd87cfe682c36c383e2fc3dc4716ecc02771186293cc90600090a35050505050565b600071ffffffffffffffffffffffffffffffffffff821115613017576040517f08c379a000000000000000000000000000000000000000000000000000000000815260206004820152602160248201527f652f646562742d616d6f756e742d746f6f2d6c617267652d746f2d656e636f6460448201527f65000000000000000000000000000000000000000000000000000000000000006064820152608401610499565b633b9aca006135138684613870565b61351d9190613fa0565b9150633b9aca0061352e8683613870565b6135389190613fa0565b9050818111156135ce57600061354e8383614020565b90508373ffffffffffffffffffffffffffffffffffffffff16866000015173ffffffffffffffffffffffffffffffffffffffff167f312a5e5e1079f5dda4e95dbbd0b908b291fd5b992ef22073643ab691572c5b52836040516135b391815260200190565b60405180910390a36135c8856000868461301b565b506118e5565b808211156118e55760006135e28284614020565b90508373ffffffffffffffffffffffffffffffffffffffff16866000015173ffffffffffffffffffffffffffffffffffffffff167f05f2eeda0e08e4b437f487c8d7d29b14537d15e3488170dc3de5dbdf8dac46848360405161364791815260200190565b60405180910390a36123fa858560008461301b565b60008281526003602052604080822054905160609291829173ffffffffffffffffffffffffffffffffffffffff9091169061369890869061408c565b600060405180830381855af49150503d80600081146136d3576040519150601f19603f3d011682016040523d82523d6000602084013e6136d8565b606091505b50915091508161174f5761174f81613bed565b6040805173ffffffffffffffffffffffffffffffffffffffff8481166024830152604480830185905283518084039091018152606490920183526020820180517bffffffffffffffffffffffffffffffffffffffffffffffffffffffff167fa9059cbb000000000000000000000000000000000000000000000000000000001790529151600092839290871691613782919061408c565b6000604051808303816000865af19150503d80600081146137bf576040519150601f19603f3d011682016040523d82523d6000602084013e6137c4565b606091505b50915091508180156137ee5750805115806137ee5750808060200190518101906137ee91906141ff565b81906123fa576040517f08c379a00000000000000000000000000000000000000000000000000000000081526004016104999190613c8e565b6000816138365750600061174f565b73ffffffffffffffffffffffffffffffffffffffff831660009081526005860160205260409020600101546080850151610afb9084614037565b60008161387f575060006103f0565b6101a0830151633b9aca000280807fffffffffffffffffffffffffffffffffffffffffffffffffffffffffffffffff85820101816138bf576138bf613f42565b0402949350505050565b6040805173ffffffffffffffffffffffffffffffffffffffff85811660248301528481166044830152606480830185905283518084039091018152608490920183526020820180517bffffffffffffffffffffffffffffffffffffffffffffffffffffffff167f23b872dd000000000000000000000000000000000000000000000000000000001790529151600092839290881691613968919061408c565b6000604051808303816000865af19150503d80600081146139a5576040519150601f19603f3d011682016040523d82523d6000602084013e6139aa565b606091505b50915091508180156139d45750805115806139d45750808060200190518101906139d491906141ff565b8190611abf576040517f08c379a00000000000000000000000000000000000000000000000000000000081526004016104999190613c8e565b6000838015613aad57600184168015613a2857859250613a2c565b8392505b50600283046002850494505b8415613aa7578586028687820414613a4f57600080fd5b81810181811015613a5f57600080fd5b8590049650506001851615613a9c578583028387820414158715151615613a8557600080fd5b81810181811015613a9557600080fd5b8590049350505b600285049450613a38565b50613ac2565b838015613abd5760009250612e32565b839250505b509392505050565b60006bffffffffffffffffffffffff821115613017576040517f08c379a000000000000000000000000000000000000000000000000000000000815260206004820152602260248201527f652f736d616c6c2d616d6f756e742d746f6f2d6c617267652d746f2d656e636f60448201527f64650000000000000000000000000000000000000000000000000000000000006064820152608401610499565b60405173ffffffffffffffffffffffffffffffffffffffff8216602482015260009081908190613bc190620f4240907f37fe974a0000000000000000000000000000000000000000000000000000000090604401611b44565b9050600081806020019051810190613bd9919061421a565b805160209091015190969095509350505050565b805115613bfc57805181602001fd5b6040517f08c379a000000000000000000000000000000000000000000000000000000000815260206004820152600d60248201527f652f656d7074792d6572726f72000000000000000000000000000000000000006044820152606401610499565b60005b83811015613c79578181015183820152602001613c61565b83811115613c88576000848401525b50505050565b6020815260008251806020840152613cad816040850160208701613c5e565b601f017fffffffffffffffffffffffffffffffffffffffffffffffffffffffffffffffe0169190910160400192915050565b803573ffffffffffffffffffffffffffffffffffffffff81168114613d0357600080fd5b919050565b60008060408385031215613d1b57600080fd5b613d2483613cdf565b946020939093013593505050565b60008060408385031215613d4557600080fd5b50508035926020909101359150565b600080600060608486031215613d6957600080fd5b613d7284613cdf565b9250613d8060208501613cdf565b9150604084013590509250925092565b600080600060608486031215613da557600080fd5b83359250613d8060208501613cdf565b600060208284031215613dc757600080fd5b6103ed82613cdf565b60008060408385031215613de357600080fd5b613dec83613cdf565b9150613dfa60208401613cdf565b90509250929050565b7f4e487b7100000000000000000000000000000000000000000000000000000000600052604160045260246000fd5b600060208284031215613e4457600080fd5b815167ffffffffffffffff80821115613e5c57600080fd5b818401915084601f830112613e7057600080fd5b815181811115613e8257613e82613e03565b604051601f82017fffffffffffffffffffffffffffffffffffffffffffffffffffffffffffffffe0908116603f01168101908382118183101715613ec857613ec8613e03565b81604052828152876020848701011115613ee157600080fd5b613ef2836020830160208801613c5e565b979650505050505050565b7f45756c657220506f6f6c3a200000000000000000000000000000000000000000815260008251613f3581600c850160208701613c5e565b91909101600c0192915050565b7f4e487b7100000000000000000000000000000000000000000000000000000000600052601260045260246000fd5b7f4e487b7100000000000000000000000000000000000000000000000000000000600052601160045260246000fd5b600082613fd6577f4e487b7100000000000000000000000000000000000000000000000000000000600052601260045260246000fd5b500490565b7f6500000000000000000000000000000000000000000000000000000000000000815260008251614013816001850160208701613c5e565b9190910160010192915050565b60008282101561403257614032613f71565b500390565b6000817fffffffffffffffffffffffffffffffffffffffffffffffffffffffffffffffff048311821515161561406f5761406f613f71565b500290565b6000821982111561408757614087613f71565b500190565b6000825161409e818460208701613c5e565b9190910192915050565b6000602082840312156140ba57600080fd5b815180600b0b81146140cb57600080fd5b9392505050565b6000602082840312156140e457600080fd5b5051919050565b6000808212827f7fffffffffffffffffffffffffffffffffffffffffffffffffffffffffffffff0384138115161561412557614125613f71565b827f800000000000000000000000000000000000000000000000000000000000000003841281161561415957614159613f71565b50500190565b7f4e487b7100000000000000000000000000000000000000000000000000000000600052603260045260246000fd5b60007fffffffffffffffffffffffffffffffffffffffffffffffffffffffffffffffff8214156141c0576141c0613f71565b5060010190565b600063ffffffff8083168185168083038211156141e6576141e6613f71565b01949350505050565b80518015158114613d0357600080fd5b60006020828403121561421157600080fd5b6103ed826141ef565b60006080828403121561422c57600080fd5b6040516080810181811067ffffffffffffffff8211171561424f5761424f613e03565b8060405250825181526020830151602082015260408301516040820152614278606084016141ef565b6060820152939250505056fe417070726f76616c28616464726573732c616464726573732c75696e74323536295472616e7366657228616464726573732c616464726573732c75696e7432353629a264697066735822122007afb6e0b9eb9a893ae7c900fd9a03bc9f8fc2239bd11bacfa0fb182aef4fb7864736f6c634300080a0033",
  "linkReferences": {},
  "deployedLinkReferences": {}
}