{
  "_format": "hh-sol-artifact-1",
  "contractName": "EToken",
  "sourceName": "contracts/modules/EToken.sol",
  "abi": [
    {
      "inputs": [
        {
          "internalType": "bytes32",
          "name": "moduleGitCommit_",
          "type": "bytes32"
        }
      ],
      "stateMutability": "nonpayable",
      "type": "constructor"
    },
    {
      "anonymous": false,
      "inputs": [
        {
          "indexed": true,
          "internalType": "address",
          "name": "owner",
          "type": "address"
        },
        {
          "indexed": true,
          "internalType": "address",
          "name": "spender",
          "type": "address"
        },
        {
          "indexed": false,
          "internalType": "uint256",
          "name": "value",
          "type": "uint256"
        }
      ],
      "name": "Approval",
      "type": "event"
    },
    {
      "anonymous": false,
      "inputs": [
        {
          "indexed": true,
          "internalType": "address",
          "name": "underlying",
          "type": "address"
        },
        {
          "indexed": false,
          "internalType": "uint256",
          "name": "totalBalances",
          "type": "uint256"
        },
        {
          "indexed": false,
          "internalType": "uint256",
          "name": "totalBorrows",
          "type": "uint256"
        },
        {
          "indexed": false,
          "internalType": "uint96",
          "name": "reserveBalance",
          "type": "uint96"
        },
        {
          "indexed": false,
          "internalType": "uint256",
          "name": "poolSize",
          "type": "uint256"
        },
        {
          "indexed": false,
          "internalType": "uint256",
          "name": "interestAccumulator",
          "type": "uint256"
        },
        {
          "indexed": false,
          "internalType": "int96",
          "name": "interestRate",
          "type": "int96"
        },
        {
          "indexed": false,
          "internalType": "uint256",
          "name": "timestamp",
          "type": "uint256"
        }
      ],
      "name": "AssetStatus",
      "type": "event"
    },
    {
      "anonymous": false,
      "inputs": [
        {
          "indexed": true,
          "internalType": "address",
          "name": "underlying",
          "type": "address"
        },
        {
          "indexed": true,
          "internalType": "address",
          "name": "account",
          "type": "address"
        },
        {
          "indexed": false,
          "internalType": "uint256",
          "name": "amount",
          "type": "uint256"
        }
      ],
      "name": "Borrow",
      "type": "event"
    },
    {
      "anonymous": false,
      "inputs": [
        {
          "indexed": true,
          "internalType": "address",
          "name": "account",
          "type": "address"
        },
        {
          "indexed": true,
          "internalType": "address",
          "name": "delegate",
          "type": "address"
        }
      ],
      "name": "DelegateAverageLiquidity",
      "type": "event"
    },
    {
      "anonymous": false,
      "inputs": [
        {
          "indexed": true,
          "internalType": "address",
          "name": "underlying",
          "type": "address"
        },
        {
          "indexed": true,
          "internalType": "address",
          "name": "account",
          "type": "address"
        },
        {
          "indexed": false,
          "internalType": "uint256",
          "name": "amount",
          "type": "uint256"
        }
      ],
      "name": "Deposit",
      "type": "event"
    },
    {
      "anonymous": false,
      "inputs": [
        {
          "indexed": true,
          "internalType": "address",
          "name": "underlying",
          "type": "address"
        },
        {
          "indexed": true,
          "internalType": "address",
          "name": "account",
          "type": "address"
        }
      ],
      "name": "EnterMarket",
      "type": "event"
    },
    {
      "anonymous": false,
      "inputs": [
        {
          "indexed": true,
          "internalType": "address",
          "name": "underlying",
          "type": "address"
        },
        {
          "indexed": true,
          "internalType": "address",
          "name": "account",
          "type": "address"
        }
      ],
      "name": "ExitMarket",
      "type": "event"
    },
    {
      "anonymous": false,
      "inputs": [],
      "name": "Genesis",
      "type": "event"
    },
    {
      "anonymous": false,
      "inputs": [
        {
          "indexed": true,
          "internalType": "address",
          "name": "underlying",
          "type": "address"
        },
        {
          "indexed": true,
          "internalType": "address",
          "name": "recipient",
          "type": "address"
        },
        {
          "indexed": false,
          "internalType": "uint256",
          "name": "amount",
          "type": "uint256"
        }
      ],
      "name": "GovConvertReserves",
      "type": "event"
    },
    {
      "anonymous": false,
      "inputs": [
        {
          "indexed": true,
          "internalType": "address",
          "name": "underlying",
          "type": "address"
        },
        {
          "components": [
            {
              "internalType": "address",
              "name": "eTokenAddress",
              "type": "address"
            },
            {
              "internalType": "bool",
              "name": "borrowIsolated",
              "type": "bool"
            },
            {
              "internalType": "uint32",
              "name": "collateralFactor",
              "type": "uint32"
            },
            {
              "internalType": "uint32",
              "name": "borrowFactor",
              "type": "uint32"
            },
            {
              "internalType": "uint24",
              "name": "twapWindow",
              "type": "uint24"
            }
          ],
          "indexed": false,
          "internalType": "struct Storage.AssetConfig",
          "name": "newConfig",
          "type": "tuple"
        }
      ],
      "name": "GovSetAssetConfig",
      "type": "event"
    },
    {
      "anonymous": false,
      "inputs": [
        {
          "indexed": true,
          "internalType": "address",
          "name": "underlying",
          "type": "address"
        },
        {
          "indexed": false,
          "internalType": "uint256",
          "name": "interestRateModel",
          "type": "uint256"
        },
        {
          "indexed": false,
          "internalType": "bytes",
          "name": "resetParams",
          "type": "bytes"
        }
      ],
      "name": "GovSetIRM",
      "type": "event"
    },
    {
      "anonymous": false,
      "inputs": [
        {
          "indexed": true,
          "internalType": "address",
          "name": "underlying",
          "type": "address"
        },
        {
          "indexed": false,
          "internalType": "uint16",
          "name": "newPricingType",
          "type": "uint16"
        },
        {
          "indexed": false,
          "internalType": "uint32",
          "name": "newPricingParameter",
          "type": "uint32"
        }
      ],
      "name": "GovSetPricingConfig",
      "type": "event"
    },
    {
      "anonymous": false,
      "inputs": [
        {
          "indexed": true,
          "internalType": "address",
          "name": "underlying",
          "type": "address"
        },
        {
          "indexed": false,
          "internalType": "uint32",
          "name": "newReserveFee",
          "type": "uint32"
        }
      ],
      "name": "GovSetReserveFee",
      "type": "event"
    },
    {
      "anonymous": false,
      "inputs": [
        {
          "indexed": true,
          "internalType": "uint256",
          "name": "moduleId",
          "type": "uint256"
        },
        {
          "indexed": true,
          "internalType": "address",
          "name": "moduleImpl",
          "type": "address"
        },
        {
          "indexed": false,
          "internalType": "bytes32",
          "name": "moduleGitCommit",
          "type": "bytes32"
        }
      ],
      "name": "InstallerInstallModule",
      "type": "event"
    },
    {
      "anonymous": false,
      "inputs": [
        {
          "indexed": true,
          "internalType": "address",
          "name": "newGovernorAdmin",
          "type": "address"
        }
      ],
      "name": "InstallerSetGovernorAdmin",
      "type": "event"
    },
    {
      "anonymous": false,
      "inputs": [
        {
          "indexed": true,
          "internalType": "address",
          "name": "newUpgradeAdmin",
          "type": "address"
        }
      ],
      "name": "InstallerSetUpgradeAdmin",
      "type": "event"
    },
    {
      "anonymous": false,
      "inputs": [
        {
          "indexed": true,
          "internalType": "address",
          "name": "liquidator",
          "type": "address"
        },
        {
          "indexed": true,
          "internalType": "address",
          "name": "violator",
          "type": "address"
        },
        {
          "indexed": true,
          "internalType": "address",
          "name": "underlying",
          "type": "address"
        },
        {
          "indexed": false,
          "internalType": "address",
          "name": "collateral",
          "type": "address"
        },
        {
          "indexed": false,
          "internalType": "uint256",
          "name": "repay",
          "type": "uint256"
        },
        {
          "indexed": false,
          "internalType": "uint256",
          "name": "yield",
          "type": "uint256"
        },
        {
          "indexed": false,
          "internalType": "uint256",
          "name": "healthScore",
          "type": "uint256"
        },
        {
          "indexed": false,
          "internalType": "uint256",
          "name": "baseDiscount",
          "type": "uint256"
        },
        {
          "indexed": false,
          "internalType": "uint256",
          "name": "discount",
          "type": "uint256"
        }
      ],
      "name": "Liquidation",
      "type": "event"
    },
    {
      "anonymous": false,
      "inputs": [
        {
          "indexed": true,
          "internalType": "address",
          "name": "underlying",
          "type": "address"
        },
        {
          "indexed": true,
          "internalType": "address",
          "name": "eToken",
          "type": "address"
        },
        {
          "indexed": true,
          "internalType": "address",
          "name": "dToken",
          "type": "address"
        }
      ],
      "name": "MarketActivated",
      "type": "event"
    },
    {
      "anonymous": false,
      "inputs": [
        {
          "indexed": true,
          "internalType": "address",
          "name": "underlying",
          "type": "address"
        },
        {
          "indexed": true,
          "internalType": "address",
          "name": "pToken",
          "type": "address"
        }
      ],
      "name": "PTokenActivated",
      "type": "event"
    },
    {
      "anonymous": false,
      "inputs": [
        {
          "indexed": true,
          "internalType": "address",
          "name": "underlying",
          "type": "address"
        },
        {
          "indexed": true,
          "internalType": "address",
          "name": "account",
          "type": "address"
        },
        {
          "indexed": false,
          "internalType": "uint256",
          "name": "amount",
          "type": "uint256"
        }
      ],
      "name": "PTokenUnWrap",
      "type": "event"
    },
    {
      "anonymous": false,
      "inputs": [
        {
          "indexed": true,
          "internalType": "address",
          "name": "underlying",
          "type": "address"
        },
        {
          "indexed": true,
          "internalType": "address",
          "name": "account",
          "type": "address"
        },
        {
          "indexed": false,
          "internalType": "uint256",
          "name": "amount",
          "type": "uint256"
        }
      ],
      "name": "PTokenWrap",
      "type": "event"
    },
    {
      "anonymous": false,
      "inputs": [
        {
          "indexed": true,
          "internalType": "address",
          "name": "proxy",
          "type": "address"
        },
        {
          "indexed": false,
          "internalType": "uint256",
          "name": "moduleId",
          "type": "uint256"
        }
      ],
      "name": "ProxyCreated",
      "type": "event"
    },
    {
      "anonymous": false,
      "inputs": [
        {
          "indexed": true,
          "internalType": "address",
          "name": "underlying",
          "type": "address"
        },
        {
          "indexed": true,
          "internalType": "address",
          "name": "account",
          "type": "address"
        },
        {
          "indexed": false,
          "internalType": "uint256",
          "name": "amount",
          "type": "uint256"
        }
      ],
      "name": "Repay",
      "type": "event"
    },
    {
      "anonymous": false,
      "inputs": [
        {
          "indexed": true,
          "internalType": "address",
          "name": "account",
          "type": "address"
        },
        {
          "indexed": false,
          "internalType": "uint256",
          "name": "amount",
          "type": "uint256"
        }
      ],
      "name": "RequestBorrow",
      "type": "event"
    },
    {
      "anonymous": false,
      "inputs": [
        {
          "indexed": true,
          "internalType": "address",
          "name": "account",
          "type": "address"
        },
        {
          "indexed": false,
          "internalType": "uint256",
          "name": "amount",
          "type": "uint256"
        }
      ],
      "name": "RequestBurn",
      "type": "event"
    },
    {
      "anonymous": false,
      "inputs": [
        {
          "indexed": true,
          "internalType": "address",
          "name": "account",
          "type": "address"
        },
        {
          "indexed": false,
          "internalType": "uint256",
          "name": "amount",
          "type": "uint256"
        }
      ],
      "name": "RequestDeposit",
      "type": "event"
    },
    {
      "anonymous": false,
      "inputs": [
        {
          "indexed": true,
          "internalType": "address",
          "name": "liquidator",
          "type": "address"
        },
        {
          "indexed": true,
          "internalType": "address",
          "name": "violator",
          "type": "address"
        },
        {
          "indexed": true,
          "internalType": "address",
          "name": "underlying",
          "type": "address"
        },
        {
          "indexed": false,
          "internalType": "address",
          "name": "collateral",
          "type": "address"
        },
        {
          "indexed": false,
          "internalType": "uint256",
          "name": "repay",
          "type": "uint256"
        },
        {
          "indexed": false,
          "internalType": "uint256",
          "name": "minYield",
          "type": "uint256"
        }
      ],
      "name": "RequestLiquidate",
      "type": "event"
    },
    {
      "anonymous": false,
      "inputs": [
        {
          "indexed": true,
          "internalType": "address",
          "name": "account",
          "type": "address"
        },
        {
          "indexed": false,
          "internalType": "uint256",
          "name": "amount",
          "type": "uint256"
        }
      ],
      "name": "RequestMint",
      "type": "event"
    },
    {
      "anonymous": false,
      "inputs": [
        {
          "indexed": true,
          "internalType": "address",
          "name": "account",
          "type": "address"
        },
        {
          "indexed": false,
          "internalType": "uint256",
          "name": "amount",
          "type": "uint256"
        }
      ],
      "name": "RequestRepay",
      "type": "event"
    },
    {
      "anonymous": false,
      "inputs": [
        {
          "indexed": true,
          "internalType": "address",
          "name": "accountIn",
          "type": "address"
        },
        {
          "indexed": true,
          "internalType": "address",
          "name": "accountOut",
          "type": "address"
        },
        {
          "indexed": true,
          "internalType": "address",
          "name": "underlyingIn",
          "type": "address"
        },
        {
          "indexed": false,
          "internalType": "address",
          "name": "underlyingOut",
          "type": "address"
        },
        {
          "indexed": false,
          "internalType": "uint256",
          "name": "amount",
          "type": "uint256"
        },
        {
          "indexed": false,
          "internalType": "uint256",
          "name": "swapType",
          "type": "uint256"
        }
      ],
      "name": "RequestSwap",
      "type": "event"
    },
    {
      "anonymous": false,
      "inputs": [
        {
          "indexed": true,
          "internalType": "address",
          "name": "from",
          "type": "address"
        },
        {
          "indexed": true,
          "internalType": "address",
          "name": "to",
          "type": "address"
        },
        {
          "indexed": false,
          "internalType": "uint256",
          "name": "amount",
          "type": "uint256"
        }
      ],
      "name": "RequestTransferDToken",
      "type": "event"
    },
    {
      "anonymous": false,
      "inputs": [
        {
          "indexed": true,
          "internalType": "address",
          "name": "from",
          "type": "address"
        },
        {
          "indexed": true,
          "internalType": "address",
          "name": "to",
          "type": "address"
        },
        {
          "indexed": false,
          "internalType": "uint256",
          "name": "amount",
          "type": "uint256"
        }
      ],
      "name": "RequestTransferEToken",
      "type": "event"
    },
    {
      "anonymous": false,
      "inputs": [
        {
          "indexed": true,
          "internalType": "address",
          "name": "account",
          "type": "address"
        },
        {
          "indexed": false,
          "internalType": "uint256",
          "name": "amount",
          "type": "uint256"
        }
      ],
      "name": "RequestWithdraw",
      "type": "event"
    },
    {
      "anonymous": false,
      "inputs": [
        {
          "indexed": true,
          "internalType": "address",
          "name": "account",
          "type": "address"
        }
      ],
      "name": "TrackAverageLiquidity",
      "type": "event"
    },
    {
      "anonymous": false,
      "inputs": [
        {
          "indexed": true,
          "internalType": "address",
          "name": "from",
          "type": "address"
        },
        {
          "indexed": true,
          "internalType": "address",
          "name": "to",
          "type": "address"
        },
        {
          "indexed": false,
          "internalType": "uint256",
          "name": "value",
          "type": "uint256"
        }
      ],
      "name": "Transfer",
      "type": "event"
    },
    {
      "anonymous": false,
      "inputs": [
        {
          "indexed": true,
          "internalType": "address",
          "name": "account",
          "type": "address"
        }
      ],
      "name": "UnTrackAverageLiquidity",
      "type": "event"
    },
    {
      "anonymous": false,
      "inputs": [
        {
          "indexed": true,
          "internalType": "address",
          "name": "underlying",
          "type": "address"
        },
        {
          "indexed": true,
          "internalType": "address",
          "name": "account",
          "type": "address"
        },
        {
          "indexed": false,
          "internalType": "uint256",
          "name": "amount",
          "type": "uint256"
        }
      ],
      "name": "Withdraw",
      "type": "event"
    },
    {
      "inputs": [
        {
          "internalType": "address",
          "name": "holder",
          "type": "address"
        },
        {
          "internalType": "address",
          "name": "spender",
          "type": "address"
        }
      ],
      "name": "allowance",
      "outputs": [
        {
          "internalType": "uint256",
          "name": "",
          "type": "uint256"
        }
      ],
      "stateMutability": "view",
      "type": "function"
    },
    {
      "inputs": [
        {
          "internalType": "address",
          "name": "spender",
          "type": "address"
        },
        {
          "internalType": "uint256",
          "name": "amount",
          "type": "uint256"
        }
      ],
      "name": "approve",
      "outputs": [
        {
          "internalType": "bool",
          "name": "",
          "type": "bool"
        }
      ],
      "stateMutability": "nonpayable",
      "type": "function"
    },
    {
      "inputs": [
        {
          "internalType": "uint256",
          "name": "subAccountId",
          "type": "uint256"
        },
        {
          "internalType": "address",
          "name": "spender",
          "type": "address"
        },
        {
          "internalType": "uint256",
          "name": "amount",
          "type": "uint256"
        }
      ],
      "name": "approveSubAccount",
      "outputs": [
        {
          "internalType": "bool",
          "name": "",
          "type": "bool"
        }
      ],
      "stateMutability": "nonpayable",
      "type": "function"
    },
    {
      "inputs": [
        {
          "internalType": "address",
          "name": "account",
          "type": "address"
        }
      ],
      "name": "balanceOf",
      "outputs": [
        {
          "internalType": "uint256",
          "name": "",
          "type": "uint256"
        }
      ],
      "stateMutability": "view",
      "type": "function"
    },
    {
      "inputs": [
        {
          "internalType": "address",
          "name": "account",
          "type": "address"
        }
      ],
      "name": "balanceOfUnderlying",
      "outputs": [
        {
          "internalType": "uint256",
          "name": "",
          "type": "uint256"
        }
      ],
      "stateMutability": "view",
      "type": "function"
    },
    {
      "inputs": [
        {
          "internalType": "uint256",
          "name": "subAccountId",
          "type": "uint256"
        },
        {
          "internalType": "uint256",
          "name": "amount",
          "type": "uint256"
        }
      ],
      "name": "burn",
      "outputs": [],
      "stateMutability": "nonpayable",
      "type": "function"
    },
    {
      "inputs": [],
      "name": "decimals",
      "outputs": [
        {
          "internalType": "uint8",
          "name": "",
          "type": "uint8"
        }
      ],
      "stateMutability": "pure",
      "type": "function"
    },
    {
      "inputs": [
        {
          "internalType": "uint256",
          "name": "subAccountId",
          "type": "uint256"
        },
        {
          "internalType": "uint256",
          "name": "amount",
          "type": "uint256"
        }
      ],
      "name": "deposit",
      "outputs": [],
      "stateMutability": "nonpayable",
      "type": "function"
    },
    {
      "inputs": [
        {
          "internalType": "uint256",
          "name": "subAccountId",
          "type": "uint256"
        },
        {
          "internalType": "uint256",
          "name": "amount",
          "type": "uint256"
        }
      ],
      "name": "mint",
      "outputs": [],
      "stateMutability": "nonpayable",
      "type": "function"
    },
    {
      "inputs": [],
      "name": "moduleGitCommit",
      "outputs": [
        {
          "internalType": "bytes32",
          "name": "",
          "type": "bytes32"
        }
      ],
      "stateMutability": "view",
      "type": "function"
    },
    {
      "inputs": [],
      "name": "moduleId",
      "outputs": [
        {
          "internalType": "uint256",
          "name": "",
          "type": "uint256"
        }
      ],
      "stateMutability": "view",
      "type": "function"
    },
    {
      "inputs": [],
      "name": "name",
      "outputs": [
        {
          "internalType": "string",
          "name": "",
          "type": "string"
        }
      ],
      "stateMutability": "view",
      "type": "function"
    },
    {
      "inputs": [],
      "name": "reserveBalance",
      "outputs": [
        {
          "internalType": "uint256",
          "name": "",
          "type": "uint256"
        }
      ],
      "stateMutability": "view",
      "type": "function"
    },
    {
      "inputs": [],
      "name": "reserveBalanceUnderlying",
      "outputs": [
        {
          "internalType": "uint256",
          "name": "",
          "type": "uint256"
        }
      ],
      "stateMutability": "view",
      "type": "function"
    },
    {
      "inputs": [],
      "name": "symbol",
      "outputs": [
        {
          "internalType": "string",
          "name": "",
          "type": "string"
        }
      ],
      "stateMutability": "view",
      "type": "function"
    },
    {
      "inputs": [],
      "name": "totalSupply",
      "outputs": [
        {
          "internalType": "uint256",
          "name": "",
          "type": "uint256"
        }
      ],
      "stateMutability": "view",
      "type": "function"
    },
    {
      "inputs": [],
      "name": "totalSupplyUnderlying",
      "outputs": [
        {
          "internalType": "uint256",
          "name": "",
          "type": "uint256"
        }
      ],
      "stateMutability": "view",
      "type": "function"
    },
    {
      "inputs": [],
      "name": "touch",
      "outputs": [],
      "stateMutability": "nonpayable",
      "type": "function"
    },
    {
      "inputs": [
        {
          "internalType": "address",
          "name": "to",
          "type": "address"
        },
        {
          "internalType": "uint256",
          "name": "amount",
          "type": "uint256"
        }
      ],
      "name": "transfer",
      "outputs": [
        {
          "internalType": "bool",
          "name": "",
          "type": "bool"
        }
      ],
      "stateMutability": "nonpayable",
      "type": "function"
    },
    {
      "inputs": [
        {
          "internalType": "address",
          "name": "from",
          "type": "address"
        },
        {
          "internalType": "address",
          "name": "to",
          "type": "address"
        },
        {
          "internalType": "uint256",
          "name": "amount",
          "type": "uint256"
        }
      ],
      "name": "transferFrom",
      "outputs": [
        {
          "internalType": "bool",
          "name": "",
          "type": "bool"
        }
      ],
      "stateMutability": "nonpayable",
      "type": "function"
    },
    {
      "inputs": [
        {
          "internalType": "uint256",
          "name": "subAccountId",
          "type": "uint256"
        },
        {
          "internalType": "uint256",
          "name": "amount",
          "type": "uint256"
        }
      ],
      "name": "withdraw",
      "outputs": [],
      "stateMutability": "nonpayable",
      "type": "function"
    }
  ],
  "bytecode": "0x60c06040523480156200001157600080fd5b506040516200431d3803806200431d833981016040819052620000349162000044565b6207a12060805260a0526200005e565b6000602082840312156200005757600080fd5b5051919050565b60805160a0516142996200008460003960006102480152600061029201526142996000f3fe608060405234801561001057600080fd5b50600436106101775760003560e01c806370a08231116100d8578063a9059cbb1161008c578063e2bbb15811610066578063e2bbb158146102f5578063e73277d014610308578063fea61faa1461031057600080fd5b8063a9059cbb146102bc578063b390c0ab146102cf578063dd62ed3e146102e257600080fd5b8063a10954fe116100bd578063a10954fe14610285578063a1308f271461028d578063a55526db146102b457600080fd5b806370a082311461026a57806395d89b411461027d57600080fd5b8063313ce5671161012f5780633af9e669116101145780633af9e6691461021d578063441a3e701461023057806369a92ea31461024357600080fd5b8063313ce567146101fb57806332d1ca9b1461020a57600080fd5b806318160ddd1161016057806318160ddd146101bd5780631b2ef1ca146101d357806323b872dd146101e857600080fd5b806306fdde031461017c578063095ea7b31461019a575b600080fd5b610184610318565b6040516101919190613c2b565b60405180910390f35b6101ad6101a8366004613ca5565b6103df565b6040519015158152602001610191565b6101c56103f6565b604051908152602001610191565b6101e66101e1366004613ccf565b610431565b005b6101ad6101f6366004613cf1565b6105b0565b60405160128152602001610191565b6101ad610218366004613d2d565b61092f565b6101c561022b366004613d52565b610a2c565b6101e661023e366004613ccf565b610aab565b6101c57f000000000000000000000000000000000000000000000000000000000000000081565b6101c5610278366004613d52565b610c41565b610184610c90565b6101c5610d42565b6101c57f000000000000000000000000000000000000000000000000000000000000000081565b6101e6610d7b565b6101ad6102ca366004613ca5565b610e28565b6101e66102dd366004613ccf565b610e36565b6101c56102f0366004613d6d565b610fd7565b6101e6610303366004613ccf565b611023565b6101c56111a0565b6101c56111f5565b6060600061032461123a565b50505090508073ffffffffffffffffffffffffffffffffffffffff166306fdde036040518163ffffffff1660e01b8152600401600060405180830381865afa158015610374573d6000803e3d6000fd5b505050506040513d6000823e601f3d9081017fffffffffffffffffffffffffffffffffffffffffffffffffffffffffffffffe01682016040526103ba9190810190613dcf565b6040516020016103ca9190613e9a565b60405160208183030381529060405291505090565b60006103ed6000848461092f565b90505b92915050565b600080600061040361123a565b505091509150600061041583836112eb565b602001516dffffffffffffffffffffffffffff16949350505050565b6001600054146104a2576040517f08c379a000000000000000000000000000000000000000000000000000000000815260206004820152600c60248201527f652f7265656e7472616e6379000000000000000000000000000000000000000060448201526064015b60405180910390fd5b600260009081558080806104b461123a565b935093509350935060006104c88288611376565b90506104d3816113e8565b8073ffffffffffffffffffffffffffffffffffffffff167f7053340faeaa787c14d517bde5b7f4f7e1ebc393c59b246723598563d39af9ed8760405161051b91815260200190565b60405180910390a2600061052f86866114ce565b905061053b818861162f565b9650600061054982896116ac565b905061055582826116f4565b97506105648683878685611715565b600286015461058e908790849073ffffffffffffffffffffffffffffffffffffffff16868c611889565b61059783611a65565b6105a082611bc7565b5050600160005550505050505050565b600060016000541461061e576040517f08c379a000000000000000000000000000000000000000000000000000000000815260206004820152600c60248201527f652f7265656e7472616e637900000000000000000000000000000000000000006044820152606401610499565b6002600090815580808061063061123a565b9350935093509350600061064485856114ce565b905073ffffffffffffffffffffffffffffffffffffffff8916610665578198505b8773ffffffffffffffffffffffffffffffffffffffff168973ffffffffffffffffffffffffffffffffffffffff1614156106fb576040517f08c379a000000000000000000000000000000000000000000000000000000000815260206004820152600f60248201527f652f73656c662d7472616e7366657200000000000000000000000000000000006044820152606401610499565b610704896113e8565b61070d886113e8565b8773ffffffffffffffffffffffffffffffffffffffff168973ffffffffffffffffffffffffffffffffffffffff167f05c051db3761ec29f60be6db25acec44695498d628df7aa22ebff5a2922f8ffb8960405161076c91815260200190565b60405180910390a38661078757600195505050505050610923565b60ff80831773ffffffffffffffffffffffffffffffffffffffff908116918b17161415801561080a575073ffffffffffffffffffffffffffffffffffffffff808a1660009081526006860160209081526040808320938616835292905220547fffffffffffffffffffffffffffffffffffffffffffffffffffffffffffffffff14155b156108f95773ffffffffffffffffffffffffffffffffffffffff808a1660009081526006860160209081526040808320938616835292905220548711156108ad576040517f08c379a000000000000000000000000000000000000000000000000000000000815260206004820152601860248201527f652f696e73756666696369656e742d616c6c6f77616e636500000000000000006044820152606401610499565b73ffffffffffffffffffffffffffffffffffffffff898116600090815260068601602090815260408083209386168352929052208054889003908190556108f99084908b908590611ca6565b6109078482858c8c8c611e3e565b61091089611a65565b61091981611bc7565b6001955050505050505b60016000559392505050565b60008060008061093d61123a565b9350935093505060006109508289611376565b905060ff80881773ffffffffffffffffffffffffffffffffffffffff9081169183171614156109db576040517f08c379a000000000000000000000000000000000000000000000000000000000815260206004820152600f60248201527f652f73656c662d617070726f76616c00000000000000000000000000000000006044820152606401610499565b73ffffffffffffffffffffffffffffffffffffffff80821660009081526006860160209081526040808320938b16835292905220869055610a1e83828989611ca6565b506001979650505050505050565b6000806000610a3961123a565b5050915091506000610a4b83836112eb565b6101a081015173ffffffffffffffffffffffffffffffffffffffff8716600090815260058501602052604090205491925090610a989083906dffffffffffffffffffffffffffff166116f4565b610aa29190613f3d565b95945050505050565b600160005414610b17576040517f08c379a000000000000000000000000000000000000000000000000000000000815260206004820152600c60248201527f652f7265656e7472616e637900000000000000000000000000000000000000006044820152606401610499565b60026000908155808080610b2961123a565b93509350935093506000610b3d8288611376565b9050610b48816113e8565b8073ffffffffffffffffffffffffffffffffffffffff167f0afd74a2a0a78f6c15e41029f44995ee023fe49276f44a4b2b2cf674829362e687604051610b9091815260200190565b60405180910390a26000610ba486866114ce565b90506000610bb48683858b612070565b6101808401519199509150881115610c28576040517f08c379a000000000000000000000000000000000000000000000000000000000815260206004820152601860248201527f652f696e73756666696369656e742d706f6f6c2d73697a6500000000000000006044820152606401610499565b610c3382858a61210d565b5061058e86838786856121c7565b600080610c4c61123a565b505073ffffffffffffffffffffffffffffffffffffffff9094166000908152600590940160205250506040909120546dffffffffffffffffffffffffffff16919050565b60606000610c9c61123a565b50505090508073ffffffffffffffffffffffffffffffffffffffff166395d89b416040518163ffffffff1660e01b8152600401600060405180830381865afa158015610cec573d6000803e3d6000fd5b505050506040513d6000823e601f3d9081017fffffffffffffffffffffffffffffffffffffffffffffffffffffffffffffffe0168201604052610d329190810190613dcf565b6040516020016103ca9190613f78565b6000806000610d4f61123a565b5050915091506000610d6183836112eb565b606001516bffffffffffffffffffffffff16949350505050565b600160005414610de7576040517f08c379a000000000000000000000000000000000000000000000000000000000815260206004820152600c60248201527f652f7265656e7472616e637900000000000000000000000000000000000000006044820152606401610499565b6002600090815580610df761123a565b5050915091506000610e0983836114ce565b9050610e15828261239f565b610e1e81611bc7565b5050600160005550565b60006103ed600084846105b0565b600160005414610ea2576040517f08c379a000000000000000000000000000000000000000000000000000000000815260206004820152600c60248201527f652f7265656e7472616e637900000000000000000000000000000000000000006044820152606401610499565b60026000908155808080610eb461123a565b93509350935093506000610ec88288611376565b9050610ed3816113e8565b8073ffffffffffffffffffffffffffffffffffffffff167ff05dc13309edd62ddfddf2ba57299daa8fc08d8be6d2fad6c648fa9b2b0d91df87604051610f1b91815260200190565b60405180910390a26000610f2f86866114ce565b90506000610f3e868385612508565b905080610f515750505050505050610fce565b6000610f5f8784868c612070565b909950905081891115610f7c57819850610f79838a6116ac565b90505b610f8987848887856121c7565b6002870154610fb3908890859073ffffffffffffffffffffffffffffffffffffffff16878d612576565b610fbc84611a65565b610fc583611bc7565b50505050505050505b50506001600055565b600080610fe261123a565b505073ffffffffffffffffffffffffffffffffffffffff95861660009081526006919091016020908152604080832096909716825294909452505050205490565b60016000541461108f576040517f08c379a000000000000000000000000000000000000000000000000000000000815260206004820152600c60248201527f652f7265656e7472616e637900000000000000000000000000000000000000006044820152606401610499565b600260009081558080806110a161123a565b935093509350935060006110b58288611376565b90506110c0816113e8565b8073ffffffffffffffffffffffffffffffffffffffff167fab5515522df06610b9fbcbbbd8416018226aca39364adcf5524751fcfef40ae58760405161110891815260200190565b60405180910390a2600061111c86866114ce565b90507fffffffffffffffffffffffffffffffffffffffffffffffffffffffffffffffff87141561115357611150818461274c565b96505b61115d818861162f565b9650600061116c82858a612869565b61018083018051829003905290506000611186838361291f565b61018084018051840190529050610fbc8784888785611715565b60008060006111ad61123a565b50509150915060006111bf83836112eb565b9050806101a001516111e38283606001516bffffffffffffffffffffffff166116f4565b6111ed9190613f3d565b935050505090565b600080600061120261123a565b505091509150600061121483836112eb565b9050806101a001516111e38283602001516dffffffffffffffffffffffffffff166116f4565b600080600080611248612940565b73ffffffffffffffffffffffffffffffffffffffff808216600090815260096020526040902060018101549091169650945092509050836112e5576040517f08c379a000000000000000000000000000000000000000000000000000000000815260206004820152601c60248201527f652f756e7265636f676e697a65642d65746f6b656e2d63616c6c6572000000006044820152606401610499565b90919293565b604080516101e081018252600080825260208201819052918101829052606081018290526080810182905260a0810182905260c0810182905260e08101829052610100810182905261012081018290526101408101829052610160810182905261018081018290526101a081018290526101c081019190915261136f838383612965565b5092915050565b600061010082106113e3576040517f08c379a000000000000000000000000000000000000000000000000000000000815260206004820152601860248201527f652f7375622d6163636f756e742d69642d746f6f2d62696700000000000000006044820152606401610499565b501890565b73ffffffffffffffffffffffffffffffffffffffff8116600090815260066020526040902054610100900464ffffffffff1680611423575050565b600061142f8242613fbd565b90508061143b57505050565b73ffffffffffffffffffffffffffffffffffffffff8316600090815260066020526040902080547fffffffffffffffffffffffffffffffffffffffffffffffffffff0000000000ff166101004264ffffffffff160217905561149d8382612dd8565b73ffffffffffffffffffffffffffffffffffffffff9093166000908152600660205260409020600101929092555050565b604080516101e081018252600080825260208201819052918101829052606081018290526080810182905260a0810182905260c0810182905260e08101829052610100810182905261012081018290526101408101829052610160810182905261018081018290526101a081018290526101c0810191909152611552838383612965565b156103f05760a0810151825464ffffffffff9091167fffffffffffffffffffffffffffffffffffffffffffffffffffffff0000000000909116178255805160608201516bffffffffffffffffffffffff16740100000000000000000000000000000000000000000273ffffffffffffffffffffffffffffffffffffffff9091161760018301556020810151604082015171ffffffffffffffffffffffffffffffffffff166e010000000000000000000000000000026dffffffffffffffffffffffffffff9091161760038301556080810151600483015592915050565b6000826101c001518211156116a0576040517f08c379a000000000000000000000000000000000000000000000000000000000815260206004820152601260248201527f652f616d6f756e742d746f6f2d6c6172676500000000000000000000000000006044820152606401610499565b506101a0909101510290565b6000806116b884612ea3565b9050806116c6600182613fbd565b6116d885670de0b6b3a7640000613fd4565b6116e29190614011565b6116ec9190613f3d565b949350505050565b60008061170084612ea3565b9050670de0b6b3a76400006116e28285613fd4565b73ffffffffffffffffffffffffffffffffffffffff821660009081526005860160205260409020546117619061175c9083906dffffffffffffffffffffffffffff16614011565b612f3a565b73ffffffffffffffffffffffffffffffffffffffff83166000908152600587016020908152604090912080547fffffffffffffffffffffffffffffffffffff0000000000000000000000000000166dffffffffffffffffffffffffffff9384161790558501516117d79161175c91849116614011565b6dffffffffffffffffffffffffffff16602085018190526003860180547fffffffffffffffffffffffffffffffffffff0000000000000000000000000000169091179055611825858561239f565b835160405182815273ffffffffffffffffffffffffffffffffffffffff8085169216907f5548c837ab068cf56a2c2479df0882a4922fd203edb7517321831d95078c5f629060200160405180910390a36118828360008484612fb8565b5050505050565b611897633b9aca0082613fd4565b61014085015190915061ffff1660031415806118da5750835173ffffffffffffffffffffffffffffffffffffffff9081166000908152600b602052604090205416155b611940576040517f08c379a000000000000000000000000000000000000000000000000000000000815260206004820152601660248201527f652f626f72726f772d6e6f742d737570706f72746564000000000000000000006044820152606401610499565b60008061194e878786613065565b91509150816000141561196957611969848760000151613145565b6119738383614011565b915061197e826133fd565b73ffffffffffffffffffffffffffffffffffffffff851660009081526005890160205260409081902080546dffffffffffffffffffffffffffff166e01000000000000000000000000000071ffffffffffffffffffffffffffffffffffff948516021790558701516119fb916119f691869116614011565b6133fd565b71ffffffffffffffffffffffffffffffffffff16604087018190526003880180546dffffffffffffffffffffffffffff166e010000000000000000000000000000909202919091179055611a4f878761239f565b611a5c86868684866134a1565b50505050505050565b73ffffffffffffffffffffffffffffffffffffffff811660009081526006602052604090205460ff1680611b685760405173ffffffffffffffffffffffffffffffffffffffff83166024820152611b6390620f4240907fc39b543a00000000000000000000000000000000000000000000000000000000906044015b604080517fffffffffffffffffffffffffffffffffffffffffffffffffffffffffffffffe08184030181529190526020810180517bffffffffffffffffffffffffffffffffffffffffffffffffffffffff167fffffffff00000000000000000000000000000000000000000000000000000000909316929092179091526135f9565b505050565b60ff811660011415611bc35773ffffffffffffffffffffffffffffffffffffffff8216600090815260066020526040902080547fffffffffffffffffffffffffffffffffffffffffffffffffffffffffffffff001660021790555b5050565b806000015173ffffffffffffffffffffffffffffffffffffffff167f2f2d732e1a7a15fe7a2e51d3482efe83ff791579cebc5e3cd12cd2064374bc7f8260200151633b9aca00846040015171ffffffffffffffffffffffffffffffffffff16611c309190613f3d565b6060808601516101808701516080808901516101008a0151604080516dffffffffffffffffffffffffffff909916895260208901979097526bffffffffffffffffffffffff909416958701959095529285015290830191909152600b0b60a08201524260c082015260e00160405180910390a250565b6000604051905060008573ffffffffffffffffffffffffffffffffffffffff16600360405180606001604052806021815260200161422260219139805160209182012060405160f89390931b7fff000000000000000000000000000000000000000000000000000000000000001691830191909152602182015273ffffffffffffffffffffffffffffffffffffffff8781166041830152861660618201526081810185905260a1015b604080517fffffffffffffffffffffffffffffffffffffffffffffffffffffffffffffffe081840301815290829052611d8791614029565b6000604051808303816000865af19150503d8060008114611dc4576040519150601f19603f3d011682016040523d82523d6000602084013e611dc9565b606091505b5050905080611e34576040517f08c379a000000000000000000000000000000000000000000000000000000000815260206004820152601060248201527f652f6c6f672d70726f78792d6661696c000000000000000000000000000000006044820152606401610499565b5060405250505050565b73ffffffffffffffffffffffffffffffffffffffff831660009081526005870160205260409020546dffffffffffffffffffffffffffff1681811015611ee0576040517f08c379a000000000000000000000000000000000000000000000000000000000815260206004820152601660248201527f652f696e73756666696369656e742d62616c616e6365000000000000000000006044820152606401610499565b818103611eec81612f3a565b73ffffffffffffffffffffffffffffffffffffffff868116600090815260058b01602052604080822080547fffffffffffffffffffffffffffffffffffff0000000000000000000000000000166dffffffffffffffffffffffffffff95861617905591871681522054611f659161175c91869116614011565b73ffffffffffffffffffffffffffffffffffffffff858116600090815260058b01602090815260409182902080547fffffffffffffffffffffffffffffffffffff0000000000000000000000000000166dffffffffffffffffffffffffffff9590951694909417909355895190518681528883169391909216917f9b1bfa7fa9ee420a16e124f794c35ac9f90472acc99140eb2f6447c714cad8eb910160405180910390a3865160405184815273ffffffffffffffffffffffffffffffffffffffff8087169216907f5548c837ab068cf56a2c2479df0882a4922fd203edb7517321831d95078c5f629060200160405180910390a361206686868686612fb8565b5050505050505050565b60008060007fffffffffffffffffffffffffffffffffffffffffffffffffffffffffffffffff8414156120e7575073ffffffffffffffffffffffffffffffffffffffff841660009081526005870160205260409020546dffffffffffffffffffffffffffff166120e086826116f4565b9350612100565b6120f1868561162f565b93506120fd86856116ac565b90505b9296929550919350505050565b61018083015183516101a08501516000929161213491869061212f9087613f3d565b613688565b600061214986612144883061274c565b61162f565b61018087018190529050808210156121bd576040517f08c379a000000000000000000000000000000000000000000000000000000000815260206004820152601a60248201527f652f6e656761746976652d7472616e736665722d616d6f756e740000000000006044820152606401610499565b9003949350505050565b73ffffffffffffffffffffffffffffffffffffffff821660009081526005860160205260409020546dffffffffffffffffffffffffffff1681811015612269576040517f08c379a000000000000000000000000000000000000000000000000000000000815260206004820152601660248201527f652f696e73756666696369656e742d62616c616e6365000000000000000000006044820152606401610499565b61227661175c8383613fbd565b73ffffffffffffffffffffffffffffffffffffffff84166000908152600588016020908152604090912080547fffffffffffffffffffffffffffffffffffff0000000000000000000000000000166dffffffffffffffffffffffffffff9384161790558601516122ec9161175c91859116613fbd565b6dffffffffffffffffffffffffffff16602086018190526003870180547fffffffffffffffffffffffffffffffffffff000000000000000000000000000016909117905561233a868661239f565b845160405183815273ffffffffffffffffffffffffffffffffffffffff8086169216907f9b1bfa7fa9ee420a16e124f794c35ac9f90472acc99140eb2f6447c714cad8eb9060200160405180910390a36123978484600085612fb8565b505050505050565b600080633b9aca00836040015171ffffffffffffffffffffffffffffffffffff166123ca9190613f3d565b90506000818461018001516123df9190614011565b9050806123ef5760009250612428565b670de0b6b3a76400008161240763ffffffff83613fd4565b6124119085613fd4565b61241b9190613f3d565b6124259190613f3d565b92505b505060e0820151825160405173ffffffffffffffffffffffffffffffffffffffff909116602482015263ffffffff8381166044830152600092612492929116907fd50c08f80000000000000000000000000000000000000000000000000000000090606401611ae1565b90506000818060200190518101906124aa9190614045565b600b81900b61010090950194909452505082546bffffffffffffffffffffffff9092166a0100000000000000000000027fffffffffffffffffffff000000000000000000000000ffffffffffffffffffff9092169190911790915550565b73ffffffffffffffffffffffffffffffffffffffff81166000908152600584016020526040812054633b9aca00906116e2908590612571908890839088906e010000000000000000000000000000900471ffffffffffffffffffffffffffffffffffff166137c4565b61380d565b6000612586633b9aca0083613fd4565b9050600080612596888887613065565b9150915060006125a6888461380d565b905080841115612612576040517f08c379a000000000000000000000000000000000000000000000000000000000815260206004820152601060248201527f652f72657061792d746f6f2d6d756368000000000000000000000000000000006044820152606401610499565b60408801518482039071ffffffffffffffffffffffffffffffffffff1684111561265257886040015171ffffffffffffffffffffffffffffffffffff1693505b61265b816133fd565b73ffffffffffffffffffffffffffffffffffffffff8816600090815260058c0160205260409081902080546dffffffffffffffffffffffffffff166e01000000000000000000000000000071ffffffffffffffffffffffffffffffffffff948516021790558a01516126df9183916126d591889116613fbd565b6119f69190614011565b71ffffffffffffffffffffffffffffffffffff1660408a0181905260038b0180546dffffffffffffffffffffffffffff166e0100000000000000000000000000009092029190911790556127338a8a61239f565b61274089898986856134a1565b50505050505050505050565b60408051835173ffffffffffffffffffffffffffffffffffffffff848116602480850191909152845180850390910181526044840185526020810180517bffffffffffffffffffffffffffffffffffffffffffffffffffffffff167f70a08231000000000000000000000000000000000000000000000000000000001790529351600094859384931691614e20916127e391614029565b6000604051808303818686fa925050503d806000811461281f576040519150601f19603f3d011682016040523d82523d6000602084013e612824565b606091505b5091509150811580612837575060208151105b1561284757600093505050612860565b8080602001905181019061285b919061406f565b935050505b60405292915050565b61018083015183516101a085015160009291612892918690309061288d9088613f3d565b613866565b60006128a286612144883061274c565b6101808701819052905081811015612916576040517f08c379a000000000000000000000000000000000000000000000000000000000815260206004820152601a60248201527f652f6e656761746976652d7472616e736665722d616d6f756e740000000000006044820152606401610499565b03949350505050565b60008061292b84612ea3565b9050806116e284670de0b6b3a7640000613fd4565b60008060008052601460283603600c3760005191506014803603600c37506000519091565b73ffffffffffffffffffffffffffffffffffffffff83168152815464ffffffffff811660a083015265010000000000810460ff90811660c084018190526601000000000000830463ffffffff90811660e08601526a01000000000000000000008404600b0b610100860152760100000000000000000000000000000000000000000000840481166101208601527a010000000000000000000000000000000000000000000000000000840461ffff166101408601527c010000000000000000000000000000000000000000000000000000000090930490921661016084015260018401547401000000000000000000000000000000000000000090046bffffffffffffffffffffffff16606084015260038401546dffffffffffffffffffffffffffff80821660208601526e01000000000000000000000000000090910471ffffffffffffffffffffffffffffffffffff166040850152600485015460808501526012839003909116600a0a6101a084018190526000929181612aea57612aea613edf565b046101c08401526000612afd843061274c565b9050836101c001518111612b1e576101a08401518102610180850152612b27565b60006101808501525b8360a0015164ffffffffff164214612dcf576001925060008460a0015164ffffffffff1642612b569190613fbd565b905060006b033b2e3c9fd0803ce80000008660800151612ba2886101000151600b0b6b033b2e3c9fd0803ce8000000612b8f9190614088565b856b033b2e3c9fd0803ce80000006139aa565b612bac9190613fd4565b612bb69190613f3d565b90506000866080015182886040015171ffffffffffffffffffffffffffffffffffff16612be39190613fd4565b612bed9190613f3d565b606088015160208901519192506bffffffffffffffffffffffff16906dffffffffffffffffffffffffffff166000612c2d633b9aca0063ee6b2800613fd4565b6101208b015163ffffffff90811614612c4b578a6101200151612c51565b6336d616005b63ffffffff168b6040015171ffffffffffffffffffffffffffffffffffff1686612c7b9190613fbd565b612c859190613fd4565b612c8f9190613f3d565b90508015612d07576000612ca7633b9aca0086613f3d565b8b6101800151612cb79190614011565b9050612cc38282613fbd565b612ccd8483613fd4565b612cd79190613f3d565b92508a602001516dffffffffffffffffffffffffffff1683612cf99190613fbd565b612d039085614011565b9350505b6dffffffffffffffffffffffffffff8211801590612d37575071ffffffffffffffffffffffffffffffffffff8411155b15612dc857612d45846133fd565b71ffffffffffffffffffffffffffffffffffff1660408b015260808a0185905264ffffffffff421660a08b015260208a01516dffffffffffffffffffffffffffff168214612dc857612d9683613a67565b6bffffffffffffffffffffffff1660608b0152612db282612f3a565b6dffffffffffffffffffffffffffff1660208b01525b5050505050505b50509392505050565b60008062015180831015612dec5782612df1565b620151805b90506000612e028262015180613fbd565b90506000806000612e1288613b05565b91509150808211612e24576000612e2e565b612e2e8183613fbd565b92505050620151808382612e429190613fd4565b612e4c9190613f3d565b73ffffffffffffffffffffffffffffffffffffffff87166000908152600660205260409020600101546201518090612e85908590613fd4565b612e8f9190613f3d565b612e999190614011565b9695505050505050565b600081602001516dffffffffffffffffffffffffffff1660001415612ed15750670de0b6b3a7640000919050565b81602001516dffffffffffffffffffffffffffff16633b9aca00836040015171ffffffffffffffffffffffffffffffffffff16612f0e9190613f3d565b836101800151612f1e9190614011565b612f3090670de0b6b3a7640000613fd4565b6103f09190613f3d565b60006dffffffffffffffffffffffffffff821115612fb4576040517f08c379a000000000000000000000000000000000000000000000000000000000815260206004820152601c60248201527f652f616d6f756e742d746f6f2d6c617267652d746f2d656e636f6465000000006044820152606401610499565b5090565b6000604051905060008573ffffffffffffffffffffffffffffffffffffffff16600360405180606001604052806021815260200161424360219139805160209182012060405160f89390931b7fff000000000000000000000000000000000000000000000000000000000000001691830191909152602182015273ffffffffffffffffffffffffffffffffffffffff8781166041830152861660618201526081810185905260a101611d4f565b73ffffffffffffffffffffffffffffffffffffffff811660009081526005840160205260408120546e010000000000000000000000000000900471ffffffffffffffffffffffffffffffffffff166130bf858585846137c4565b91506130ca826133fd565b73ffffffffffffffffffffffffffffffffffffffff909316600090815260059095016020526040909420805471ffffffffffffffffffffffffffffffffffff939093166e010000000000000000000000000000026dffffffffffffffffffffffffffff90931692909217825560809092015160019091015591565b73ffffffffffffffffffffffffffffffffffffffff82166000908152600660209081526040808320805460079093529220660100000000000090910463ffffffff1690811561323d57825473ffffffffffffffffffffffffffffffffffffffff8581166a01000000000000000000009092041614156131c5575050505050565b60015b8263ffffffff1681101561323b578473ffffffffffffffffffffffffffffffffffffffff1682826401000000008110613203576132036140fc565b015473ffffffffffffffffffffffffffffffffffffffff16141561322957505050505050565b806132338161412b565b9150506131c8565b505b600a8263ffffffff16106132ad576040517f08c379a000000000000000000000000000000000000000000000000000000000815260206004820152601a60248201527f652f746f6f2d6d616e792d656e74657265642d6d61726b6574730000000000006044820152606401610499565b63ffffffff82166133085782547fffff0000000000000000000000000000000000000000ffffffffffffffffffff166a010000000000000000000073ffffffffffffffffffffffffffffffffffffffff86160217835561336a565b83818363ffffffff166401000000008110613325576133256140fc565b0180547fffffffffffffffffffffffff00000000000000000000000000000000000000001673ffffffffffffffffffffffffffffffffffffffff929092169190911790555b613375826001614164565b835463ffffffff919091166601000000000000027fffffffffffffffffffffffffffffffffffffffffffff00000000ffffffffffff90911617835560405173ffffffffffffffffffffffffffffffffffffffff80871691908616907f1c0971b8e0f7bb4e90bdbd87cfe682c36c383e2fc3dc4716ecc02771186293cc90600090a35050505050565b600071ffffffffffffffffffffffffffffffffffff821115612fb4576040517f08c379a000000000000000000000000000000000000000000000000000000000815260206004820152602160248201527f652f646562742d616d6f756e742d746f6f2d6c617267652d746f2d656e636f6460448201527f65000000000000000000000000000000000000000000000000000000000000006064820152608401610499565b633b9aca006134b0868461380d565b6134ba9190613f3d565b9150633b9aca006134cb868361380d565b6134d59190613f3d565b90508181111561356b5760006134eb8383613fbd565b90508373ffffffffffffffffffffffffffffffffffffffff16866000015173ffffffffffffffffffffffffffffffffffffffff167f312a5e5e1079f5dda4e95dbbd0b908b291fd5b992ef22073643ab691572c5b528360405161355091815260200190565b60405180910390a36135658560008684612fb8565b50611882565b8082111561188257600061357f8284613fbd565b90508373ffffffffffffffffffffffffffffffffffffffff16866000015173ffffffffffffffffffffffffffffffffffffffff167f05f2eeda0e08e4b437f487c8d7d29b14537d15e3488170dc3de5dbdf8dac4684836040516135e491815260200190565b60405180910390a36123978585600084612fb8565b60008281526003602052604080822054905160609291829173ffffffffffffffffffffffffffffffffffffffff90911690613635908690614029565b600060405180830381855af49150503d8060008114613670576040519150601f19603f3d011682016040523d82523d6000602084013e613675565b606091505b5091509150816116ec576116ec81613b8a565b6040805173ffffffffffffffffffffffffffffffffffffffff8481166024830152604480830185905283518084039091018152606490920183526020820180517bffffffffffffffffffffffffffffffffffffffffffffffffffffffff167fa9059cbb00000000000000000000000000000000000000000000000000000000179052915160009283929087169161371f9190614029565b6000604051808303816000865af19150503d806000811461375c576040519150601f19603f3d011682016040523d82523d6000602084013e613761565b606091505b509150915081801561378b57508051158061378b57508080602001905181019061378b919061419c565b8190612397576040517f08c379a00000000000000000000000000000000000000000000000000000000081526004016104999190613c2b565b6000816137d3575060006116ec565b73ffffffffffffffffffffffffffffffffffffffff831660009081526005860160205260409020600101546080850151610a989084613fd4565b60008161381c575060006103f0565b6101a0830151633b9aca000280807fffffffffffffffffffffffffffffffffffffffffffffffffffffffffffffffff858201018161385c5761385c613edf565b0402949350505050565b6040805173ffffffffffffffffffffffffffffffffffffffff85811660248301528481166044830152606480830185905283518084039091018152608490920183526020820180517bffffffffffffffffffffffffffffffffffffffffffffffffffffffff167f23b872dd0000000000000000000000000000000000000000000000000000000017905291516000928392908816916139059190614029565b6000604051808303816000865af19150503d8060008114613942576040519150601f19603f3d011682016040523d82523d6000602084013e613947565b606091505b5091509150818015613971575080511580613971575080806020019051810190613971919061419c565b8190611a5c576040517f08c379a00000000000000000000000000000000000000000000000000000000081526004016104999190613c2b565b6000838015613a4a576001841680156139c5578592506139c9565b8392505b50600283046002850494505b8415613a445785860286878204146139ec57600080fd5b818101818110156139fc57600080fd5b8590049650506001851615613a39578583028387820414158715151615613a2257600080fd5b81810181811015613a3257600080fd5b8590049350505b6002850494506139d5565b50613a5f565b838015613a5a5760009250612dcf565b839250505b509392505050565b60006bffffffffffffffffffffffff821115612fb4576040517f08c379a000000000000000000000000000000000000000000000000000000000815260206004820152602260248201527f652f736d616c6c2d616d6f756e742d746f6f2d6c617267652d746f2d656e636f60448201527f64650000000000000000000000000000000000000000000000000000000000006064820152608401610499565b60405173ffffffffffffffffffffffffffffffffffffffff8216602482015260009081908190613b5e90620f4240907f37fe974a0000000000000000000000000000000000000000000000000000000090604401611ae1565b9050600081806020019051810190613b7691906141b7565b805160209091015190969095509350505050565b805115613b9957805181602001fd5b6040517f08c379a000000000000000000000000000000000000000000000000000000000815260206004820152600d60248201527f652f656d7074792d6572726f72000000000000000000000000000000000000006044820152606401610499565b60005b83811015613c16578181015183820152602001613bfe565b83811115613c25576000848401525b50505050565b6020815260008251806020840152613c4a816040850160208701613bfb565b601f017fffffffffffffffffffffffffffffffffffffffffffffffffffffffffffffffe0169190910160400192915050565b803573ffffffffffffffffffffffffffffffffffffffff81168114613ca057600080fd5b919050565b60008060408385031215613cb857600080fd5b613cc183613c7c565b946020939093013593505050565b60008060408385031215613ce257600080fd5b50508035926020909101359150565b600080600060608486031215613d0657600080fd5b613d0f84613c7c565b9250613d1d60208501613c7c565b9150604084013590509250925092565b600080600060608486031215613d4257600080fd5b83359250613d1d60208501613c7c565b600060208284031215613d6457600080fd5b6103ed82613c7c565b60008060408385031215613d8057600080fd5b613d8983613c7c565b9150613d9760208401613c7c565b90509250929050565b7f4e487b7100000000000000000000000000000000000000000000000000000000600052604160045260246000fd5b600060208284031215613de157600080fd5b815167ffffffffffffffff80821115613df957600080fd5b818401915084601f830112613e0d57600080fd5b815181811115613e1f57613e1f613da0565b604051601f82017fffffffffffffffffffffffffffffffffffffffffffffffffffffffffffffffe0908116603f01168101908382118183101715613e6557613e65613da0565b81604052828152876020848701011115613e7e57600080fd5b613e8f836020830160208801613bfb565b979650505050505050565b7f45756c657220506f6f6c3a200000000000000000000000000000000000000000815260008251613ed281600c850160208701613bfb565b91909101600c0192915050565b7f4e487b7100000000000000000000000000000000000000000000000000000000600052601260045260246000fd5b7f4e487b7100000000000000000000000000000000000000000000000000000000600052601160045260246000fd5b600082613f73577f4e487b7100000000000000000000000000000000000000000000000000000000600052601260045260246000fd5b500490565b7f6500000000000000000000000000000000000000000000000000000000000000815260008251613fb0816001850160208701613bfb565b9190910160010192915050565b600082821015613fcf57613fcf613f0e565b500390565b6000817fffffffffffffffffffffffffffffffffffffffffffffffffffffffffffffffff048311821515161561400c5761400c613f0e565b500290565b6000821982111561402457614024613f0e565b500190565b6000825161403b818460208701613bfb565b9190910192915050565b60006020828403121561405757600080fd5b815180600b0b811461406857600080fd5b9392505050565b60006020828403121561408157600080fd5b5051919050565b6000808212827f7fffffffffffffffffffffffffffffffffffffffffffffffffffffffffffffff038413811516156140c2576140c2613f0e565b827f80000000000000000000000000000000000000000000000000000000000000000384128116156140f6576140f6613f0e565b50500190565b7f4e487b7100000000000000000000000000000000000000000000000000000000600052603260045260246000fd5b60007fffffffffffffffffffffffffffffffffffffffffffffffffffffffffffffffff82141561415d5761415d613f0e565b5060010190565b600063ffffffff80831681851680830382111561418357614183613f0e565b01949350505050565b80518015158114613ca057600080fd5b6000602082840312156141ae57600080fd5b6103ed8261418c565b6000608082840312156141c957600080fd5b6040516080810181811067ffffffffffffffff821117156141ec576141ec613da0565b80604052508251815260208301516020820152604083015160408201526142156060840161418c565b6060820152939250505056fe417070726f76616c28616464726573732c616464726573732c75696e74323536295472616e7366657228616464726573732c616464726573732c75696e7432353629a26469706673582212205a722ead9eb36e41adc885dd4dc13fc1b289a9d96358cc6773623b12b526c95964736f6c634300080a0033",
  "linkReferences": {},
  "deployedLinkReferences": {}
}