{
  "_format": "hh-sol-artifact-1",
  "contractName": "Markets",
  "sourceName": "contracts/modules/Markets.sol",
  "abi": [
    {
      "inputs": [
        {
          "internalType": "bytes32",
          "name": "moduleGitCommit_",
          "type": "bytes32"
        }
      ],
      "stateMutability": "nonpayable",
      "type": "constructor"
    },
    {
      "anonymous": false,
      "inputs": [
        {
          "indexed": true,
          "internalType": "address",
          "name": "underlying",
          "type": "address"
        },
        {
          "indexed": false,
          "internalType": "uint256",
          "name": "totalBalances",
          "type": "uint256"
        },
        {
          "indexed": false,
          "internalType": "uint256",
          "name": "totalBorrows",
          "type": "uint256"
        },
        {
          "indexed": false,
          "internalType": "uint96",
          "name": "reserveBalance",
          "type": "uint96"
        },
        {
          "indexed": false,
          "internalType": "uint256",
          "name": "poolSize",
          "type": "uint256"
        },
        {
          "indexed": false,
          "internalType": "uint256",
          "name": "interestAccumulator",
          "type": "uint256"
        },
        {
          "indexed": false,
          "internalType": "int96",
          "name": "interestRate",
          "type": "int96"
        },
        {
          "indexed": false,
          "internalType": "uint256",
          "name": "timestamp",
          "type": "uint256"
        }
      ],
      "name": "AssetStatus",
      "type": "event"
    },
    {
      "anonymous": false,
      "inputs": [
        {
          "indexed": true,
          "internalType": "address",
          "name": "underlying",
          "type": "address"
        },
        {
          "indexed": true,
          "internalType": "address",
          "name": "account",
          "type": "address"
        },
        {
          "indexed": false,
          "internalType": "uint256",
          "name": "amount",
          "type": "uint256"
        }
      ],
      "name": "Borrow",
      "type": "event"
    },
    {
      "anonymous": false,
      "inputs": [
        {
          "indexed": true,
          "internalType": "address",
          "name": "account",
          "type": "address"
        },
        {
          "indexed": true,
          "internalType": "address",
          "name": "delegate",
          "type": "address"
        }
      ],
      "name": "DelegateAverageLiquidity",
      "type": "event"
    },
    {
      "anonymous": false,
      "inputs": [
        {
          "indexed": true,
          "internalType": "address",
          "name": "underlying",
          "type": "address"
        },
        {
          "indexed": true,
          "internalType": "address",
          "name": "account",
          "type": "address"
        },
        {
          "indexed": false,
          "internalType": "uint256",
          "name": "amount",
          "type": "uint256"
        }
      ],
      "name": "Deposit",
      "type": "event"
    },
    {
      "anonymous": false,
      "inputs": [
        {
          "indexed": true,
          "internalType": "address",
          "name": "underlying",
          "type": "address"
        },
        {
          "indexed": true,
          "internalType": "address",
          "name": "account",
          "type": "address"
        }
      ],
      "name": "EnterMarket",
      "type": "event"
    },
    {
      "anonymous": false,
      "inputs": [
        {
          "indexed": true,
          "internalType": "address",
          "name": "underlying",
          "type": "address"
        },
        {
          "indexed": true,
          "internalType": "address",
          "name": "account",
          "type": "address"
        }
      ],
      "name": "ExitMarket",
      "type": "event"
    },
    {
      "anonymous": false,
      "inputs": [],
      "name": "Genesis",
      "type": "event"
    },
    {
      "anonymous": false,
      "inputs": [
        {
          "indexed": true,
          "internalType": "address",
          "name": "underlying",
          "type": "address"
        },
        {
          "indexed": true,
          "internalType": "address",
          "name": "recipient",
          "type": "address"
        },
        {
          "indexed": false,
          "internalType": "uint256",
          "name": "amount",
          "type": "uint256"
        }
      ],
      "name": "GovConvertReserves",
      "type": "event"
    },
    {
      "anonymous": false,
      "inputs": [
        {
          "indexed": true,
          "internalType": "address",
          "name": "underlying",
          "type": "address"
        },
        {
          "components": [
            {
              "internalType": "address",
              "name": "eTokenAddress",
              "type": "address"
            },
            {
              "internalType": "bool",
              "name": "borrowIsolated",
              "type": "bool"
            },
            {
              "internalType": "uint32",
              "name": "collateralFactor",
              "type": "uint32"
            },
            {
              "internalType": "uint32",
              "name": "borrowFactor",
              "type": "uint32"
            },
            {
              "internalType": "uint24",
              "name": "twapWindow",
              "type": "uint24"
            }
          ],
          "indexed": false,
          "internalType": "struct Storage.AssetConfig",
          "name": "newConfig",
          "type": "tuple"
        }
      ],
      "name": "GovSetAssetConfig",
      "type": "event"
    },
    {
      "anonymous": false,
      "inputs": [
        {
          "indexed": true,
          "internalType": "address",
          "name": "underlying",
          "type": "address"
        },
        {
          "indexed": false,
          "internalType": "uint256",
          "name": "interestRateModel",
          "type": "uint256"
        },
        {
          "indexed": false,
          "internalType": "bytes",
          "name": "resetParams",
          "type": "bytes"
        }
      ],
      "name": "GovSetIRM",
      "type": "event"
    },
    {
      "anonymous": false,
      "inputs": [
        {
          "indexed": true,
          "internalType": "address",
          "name": "underlying",
          "type": "address"
        },
        {
          "indexed": false,
          "internalType": "uint16",
          "name": "newPricingType",
          "type": "uint16"
        },
        {
          "indexed": false,
          "internalType": "uint32",
          "name": "newPricingParameter",
          "type": "uint32"
        }
      ],
      "name": "GovSetPricingConfig",
      "type": "event"
    },
    {
      "anonymous": false,
      "inputs": [
        {
          "indexed": true,
          "internalType": "address",
          "name": "underlying",
          "type": "address"
        },
        {
          "indexed": false,
          "internalType": "uint32",
          "name": "newReserveFee",
          "type": "uint32"
        }
      ],
      "name": "GovSetReserveFee",
      "type": "event"
    },
    {
      "anonymous": false,
      "inputs": [
        {
          "indexed": true,
          "internalType": "uint256",
          "name": "moduleId",
          "type": "uint256"
        },
        {
          "indexed": true,
          "internalType": "address",
          "name": "moduleImpl",
          "type": "address"
        },
        {
          "indexed": false,
          "internalType": "bytes32",
          "name": "moduleGitCommit",
          "type": "bytes32"
        }
      ],
      "name": "InstallerInstallModule",
      "type": "event"
    },
    {
      "anonymous": false,
      "inputs": [
        {
          "indexed": true,
          "internalType": "address",
          "name": "newGovernorAdmin",
          "type": "address"
        }
      ],
      "name": "InstallerSetGovernorAdmin",
      "type": "event"
    },
    {
      "anonymous": false,
      "inputs": [
        {
          "indexed": true,
          "internalType": "address",
          "name": "newUpgradeAdmin",
          "type": "address"
        }
      ],
      "name": "InstallerSetUpgradeAdmin",
      "type": "event"
    },
    {
      "anonymous": false,
      "inputs": [
        {
          "indexed": true,
          "internalType": "address",
          "name": "liquidator",
          "type": "address"
        },
        {
          "indexed": true,
          "internalType": "address",
          "name": "violator",
          "type": "address"
        },
        {
          "indexed": true,
          "internalType": "address",
          "name": "underlying",
          "type": "address"
        },
        {
          "indexed": false,
          "internalType": "address",
          "name": "collateral",
          "type": "address"
        },
        {
          "indexed": false,
          "internalType": "uint256",
          "name": "repay",
          "type": "uint256"
        },
        {
          "indexed": false,
          "internalType": "uint256",
          "name": "yield",
          "type": "uint256"
        },
        {
          "indexed": false,
          "internalType": "uint256",
          "name": "healthScore",
          "type": "uint256"
        },
        {
          "indexed": false,
          "internalType": "uint256",
          "name": "baseDiscount",
          "type": "uint256"
        },
        {
          "indexed": false,
          "internalType": "uint256",
          "name": "discount",
          "type": "uint256"
        }
      ],
      "name": "Liquidation",
      "type": "event"
    },
    {
      "anonymous": false,
      "inputs": [
        {
          "indexed": true,
          "internalType": "address",
          "name": "underlying",
          "type": "address"
        },
        {
          "indexed": true,
          "internalType": "address",
          "name": "eToken",
          "type": "address"
        },
        {
          "indexed": true,
          "internalType": "address",
          "name": "dToken",
          "type": "address"
        }
      ],
      "name": "MarketActivated",
      "type": "event"
    },
    {
      "anonymous": false,
      "inputs": [
        {
          "indexed": true,
          "internalType": "address",
          "name": "underlying",
          "type": "address"
        },
        {
          "indexed": true,
          "internalType": "address",
          "name": "pToken",
          "type": "address"
        }
      ],
      "name": "PTokenActivated",
      "type": "event"
    },
    {
      "anonymous": false,
      "inputs": [
        {
          "indexed": true,
          "internalType": "address",
          "name": "underlying",
          "type": "address"
        },
        {
          "indexed": true,
          "internalType": "address",
          "name": "account",
          "type": "address"
        },
        {
          "indexed": false,
          "internalType": "uint256",
          "name": "amount",
          "type": "uint256"
        }
      ],
      "name": "PTokenUnWrap",
      "type": "event"
    },
    {
      "anonymous": false,
      "inputs": [
        {
          "indexed": true,
          "internalType": "address",
          "name": "underlying",
          "type": "address"
        },
        {
          "indexed": true,
          "internalType": "address",
          "name": "account",
          "type": "address"
        },
        {
          "indexed": false,
          "internalType": "uint256",
          "name": "amount",
          "type": "uint256"
        }
      ],
      "name": "PTokenWrap",
      "type": "event"
    },
    {
      "anonymous": false,
      "inputs": [
        {
          "indexed": true,
          "internalType": "address",
          "name": "proxy",
          "type": "address"
        },
        {
          "indexed": false,
          "internalType": "uint256",
          "name": "moduleId",
          "type": "uint256"
        }
      ],
      "name": "ProxyCreated",
      "type": "event"
    },
    {
      "anonymous": false,
      "inputs": [
        {
          "indexed": true,
          "internalType": "address",
          "name": "underlying",
          "type": "address"
        },
        {
          "indexed": true,
          "internalType": "address",
          "name": "account",
          "type": "address"
        },
        {
          "indexed": false,
          "internalType": "uint256",
          "name": "amount",
          "type": "uint256"
        }
      ],
      "name": "Repay",
      "type": "event"
    },
    {
      "anonymous": false,
      "inputs": [
        {
          "indexed": true,
          "internalType": "address",
          "name": "account",
          "type": "address"
        },
        {
          "indexed": false,
          "internalType": "uint256",
          "name": "amount",
          "type": "uint256"
        }
      ],
      "name": "RequestBorrow",
      "type": "event"
    },
    {
      "anonymous": false,
      "inputs": [
        {
          "indexed": true,
          "internalType": "address",
          "name": "account",
          "type": "address"
        },
        {
          "indexed": false,
          "internalType": "uint256",
          "name": "amount",
          "type": "uint256"
        }
      ],
      "name": "RequestBurn",
      "type": "event"
    },
    {
      "anonymous": false,
      "inputs": [
        {
          "indexed": true,
          "internalType": "address",
          "name": "account",
          "type": "address"
        },
        {
          "indexed": false,
          "internalType": "uint256",
          "name": "amount",
          "type": "uint256"
        }
      ],
      "name": "RequestDeposit",
      "type": "event"
    },
    {
      "anonymous": false,
      "inputs": [
        {
          "indexed": true,
          "internalType": "address",
          "name": "liquidator",
          "type": "address"
        },
        {
          "indexed": true,
          "internalType": "address",
          "name": "violator",
          "type": "address"
        },
        {
          "indexed": true,
          "internalType": "address",
          "name": "underlying",
          "type": "address"
        },
        {
          "indexed": false,
          "internalType": "address",
          "name": "collateral",
          "type": "address"
        },
        {
          "indexed": false,
          "internalType": "uint256",
          "name": "repay",
          "type": "uint256"
        },
        {
          "indexed": false,
          "internalType": "uint256",
          "name": "minYield",
          "type": "uint256"
        }
      ],
      "name": "RequestLiquidate",
      "type": "event"
    },
    {
      "anonymous": false,
      "inputs": [
        {
          "indexed": true,
          "internalType": "address",
          "name": "account",
          "type": "address"
        },
        {
          "indexed": false,
          "internalType": "uint256",
          "name": "amount",
          "type": "uint256"
        }
      ],
      "name": "RequestMint",
      "type": "event"
    },
    {
      "anonymous": false,
      "inputs": [
        {
          "indexed": true,
          "internalType": "address",
          "name": "account",
          "type": "address"
        },
        {
          "indexed": false,
          "internalType": "uint256",
          "name": "amount",
          "type": "uint256"
        }
      ],
      "name": "RequestRepay",
      "type": "event"
    },
    {
      "anonymous": false,
      "inputs": [
        {
          "indexed": true,
          "internalType": "address",
          "name": "accountIn",
          "type": "address"
        },
        {
          "indexed": true,
          "internalType": "address",
          "name": "accountOut",
          "type": "address"
        },
        {
          "indexed": true,
          "internalType": "address",
          "name": "underlyingIn",
          "type": "address"
        },
        {
          "indexed": false,
          "internalType": "address",
          "name": "underlyingOut",
          "type": "address"
        },
        {
          "indexed": false,
          "internalType": "uint256",
          "name": "amount",
          "type": "uint256"
        },
        {
          "indexed": false,
          "internalType": "uint256",
          "name": "swapType",
          "type": "uint256"
        }
      ],
      "name": "RequestSwap",
      "type": "event"
    },
    {
      "anonymous": false,
      "inputs": [
        {
          "indexed": true,
          "internalType": "address",
          "name": "from",
          "type": "address"
        },
        {
          "indexed": true,
          "internalType": "address",
          "name": "to",
          "type": "address"
        },
        {
          "indexed": false,
          "internalType": "uint256",
          "name": "amount",
          "type": "uint256"
        }
      ],
      "name": "RequestTransferDToken",
      "type": "event"
    },
    {
      "anonymous": false,
      "inputs": [
        {
          "indexed": true,
          "internalType": "address",
          "name": "from",
          "type": "address"
        },
        {
          "indexed": true,
          "internalType": "address",
          "name": "to",
          "type": "address"
        },
        {
          "indexed": false,
          "internalType": "uint256",
          "name": "amount",
          "type": "uint256"
        }
      ],
      "name": "RequestTransferEToken",
      "type": "event"
    },
    {
      "anonymous": false,
      "inputs": [
        {
          "indexed": true,
          "internalType": "address",
          "name": "account",
          "type": "address"
        },
        {
          "indexed": false,
          "internalType": "uint256",
          "name": "amount",
          "type": "uint256"
        }
      ],
      "name": "RequestWithdraw",
      "type": "event"
    },
    {
      "anonymous": false,
      "inputs": [
        {
          "indexed": true,
          "internalType": "address",
          "name": "account",
          "type": "address"
        }
      ],
      "name": "TrackAverageLiquidity",
      "type": "event"
    },
    {
      "anonymous": false,
      "inputs": [
        {
          "indexed": true,
          "internalType": "address",
          "name": "account",
          "type": "address"
        }
      ],
      "name": "UnTrackAverageLiquidity",
      "type": "event"
    },
    {
      "anonymous": false,
      "inputs": [
        {
          "indexed": true,
          "internalType": "address",
          "name": "underlying",
          "type": "address"
        },
        {
          "indexed": true,
          "internalType": "address",
          "name": "account",
          "type": "address"
        },
        {
          "indexed": false,
          "internalType": "uint256",
          "name": "amount",
          "type": "uint256"
        }
      ],
      "name": "Withdraw",
      "type": "event"
    },
    {
      "inputs": [
        {
          "internalType": "address",
          "name": "underlying",
          "type": "address"
        }
      ],
      "name": "activateMarket",
      "outputs": [
        {
          "internalType": "address",
          "name": "",
          "type": "address"
        }
      ],
      "stateMutability": "nonpayable",
      "type": "function"
    },
    {
      "inputs": [
        {
          "internalType": "address",
          "name": "underlying",
          "type": "address"
        }
      ],
      "name": "activatePToken",
      "outputs": [
        {
          "internalType": "address",
          "name": "",
          "type": "address"
        }
      ],
      "stateMutability": "nonpayable",
      "type": "function"
    },
    {
      "inputs": [
        {
          "internalType": "address",
          "name": "eToken",
          "type": "address"
        }
      ],
      "name": "eTokenToDToken",
      "outputs": [
        {
          "internalType": "address",
          "name": "dTokenAddr",
          "type": "address"
        }
      ],
      "stateMutability": "view",
      "type": "function"
    },
    {
      "inputs": [
        {
          "internalType": "address",
          "name": "eToken",
          "type": "address"
        }
      ],
      "name": "eTokenToUnderlying",
      "outputs": [
        {
          "internalType": "address",
          "name": "underlying",
          "type": "address"
        }
      ],
      "stateMutability": "view",
      "type": "function"
    },
    {
      "inputs": [
        {
          "internalType": "uint256",
          "name": "subAccountId",
          "type": "uint256"
        },
        {
          "internalType": "address",
          "name": "newMarket",
          "type": "address"
        }
      ],
      "name": "enterMarket",
      "outputs": [],
      "stateMutability": "nonpayable",
      "type": "function"
    },
    {
      "inputs": [
        {
          "internalType": "uint256",
          "name": "subAccountId",
          "type": "uint256"
        },
        {
          "internalType": "address",
          "name": "oldMarket",
          "type": "address"
        }
      ],
      "name": "exitMarket",
      "outputs": [],
      "stateMutability": "nonpayable",
      "type": "function"
    },
    {
      "inputs": [
        {
          "internalType": "address",
          "name": "account",
          "type": "address"
        }
      ],
      "name": "getEnteredMarkets",
      "outputs": [
        {
          "internalType": "address[]",
          "name": "",
          "type": "address[]"
        }
      ],
      "stateMutability": "view",
      "type": "function"
    },
    {
      "inputs": [
        {
          "internalType": "address",
          "name": "underlying",
          "type": "address"
        }
      ],
      "name": "getPricingConfig",
      "outputs": [
        {
          "internalType": "uint16",
          "name": "pricingType",
          "type": "uint16"
        },
        {
          "internalType": "uint32",
          "name": "pricingParameters",
          "type": "uint32"
        },
        {
          "internalType": "address",
          "name": "pricingForwarded",
          "type": "address"
        }
      ],
      "stateMutability": "view",
      "type": "function"
    },
    {
      "inputs": [
        {
          "internalType": "address",
          "name": "underlying",
          "type": "address"
        }
      ],
      "name": "interestAccumulator",
      "outputs": [
        {
          "internalType": "uint256",
          "name": "",
          "type": "uint256"
        }
      ],
      "stateMutability": "view",
      "type": "function"
    },
    {
      "inputs": [
        {
          "internalType": "address",
          "name": "underlying",
          "type": "address"
        }
      ],
      "name": "interestRate",
      "outputs": [
        {
          "internalType": "int96",
          "name": "",
          "type": "int96"
        }
      ],
      "stateMutability": "view",
      "type": "function"
    },
    {
      "inputs": [
        {
          "internalType": "address",
          "name": "underlying",
          "type": "address"
        }
      ],
      "name": "interestRateModel",
      "outputs": [
        {
          "internalType": "uint256",
          "name": "",
          "type": "uint256"
        }
      ],
      "stateMutability": "view",
      "type": "function"
    },
    {
      "inputs": [],
      "name": "moduleGitCommit",
      "outputs": [
        {
          "internalType": "bytes32",
          "name": "",
          "type": "bytes32"
        }
      ],
      "stateMutability": "view",
      "type": "function"
    },
    {
      "inputs": [],
      "name": "moduleId",
      "outputs": [
        {
          "internalType": "uint256",
          "name": "",
          "type": "uint256"
        }
      ],
      "stateMutability": "view",
      "type": "function"
    },
    {
      "inputs": [
        {
          "internalType": "address",
          "name": "underlying",
          "type": "address"
        }
      ],
      "name": "reserveFee",
      "outputs": [
        {
          "internalType": "uint32",
          "name": "",
          "type": "uint32"
        }
      ],
      "stateMutability": "view",
      "type": "function"
    },
    {
      "inputs": [
        {
          "internalType": "address",
          "name": "underlying",
          "type": "address"
        }
      ],
      "name": "underlyingToAssetConfig",
      "outputs": [
        {
          "components": [
            {
              "internalType": "address",
              "name": "eTokenAddress",
              "type": "address"
            },
            {
              "internalType": "bool",
              "name": "borrowIsolated",
              "type": "bool"
            },
            {
              "internalType": "uint32",
              "name": "collateralFactor",
              "type": "uint32"
            },
            {
              "internalType": "uint32",
              "name": "borrowFactor",
              "type": "uint32"
            },
            {
              "internalType": "uint24",
              "name": "twapWindow",
              "type": "uint24"
            }
          ],
          "internalType": "struct Storage.AssetConfig",
          "name": "",
          "type": "tuple"
        }
      ],
      "stateMutability": "view",
      "type": "function"
    },
    {
      "inputs": [
        {
          "internalType": "address",
          "name": "underlying",
          "type": "address"
        }
      ],
      "name": "underlyingToAssetConfigUnresolved",
      "outputs": [
        {
          "components": [
            {
              "internalType": "address",
              "name": "eTokenAddress",
              "type": "address"
            },
            {
              "internalType": "bool",
              "name": "borrowIsolated",
              "type": "bool"
            },
            {
              "internalType": "uint32",
              "name": "collateralFactor",
              "type": "uint32"
            },
            {
              "internalType": "uint32",
              "name": "borrowFactor",
              "type": "uint32"
            },
            {
              "internalType": "uint24",
              "name": "twapWindow",
              "type": "uint24"
            }
          ],
          "internalType": "struct Storage.AssetConfig",
          "name": "config",
          "type": "tuple"
        }
      ],
      "stateMutability": "view",
      "type": "function"
    },
    {
      "inputs": [
        {
          "internalType": "address",
          "name": "underlying",
          "type": "address"
        }
      ],
      "name": "underlyingToDToken",
      "outputs": [
        {
          "internalType": "address",
          "name": "",
          "type": "address"
        }
      ],
      "stateMutability": "view",
      "type": "function"
    },
    {
      "inputs": [
        {
          "internalType": "address",
          "name": "underlying",
          "type": "address"
        }
      ],
      "name": "underlyingToEToken",
      "outputs": [
        {
          "internalType": "address",
          "name": "",
          "type": "address"
        }
      ],
      "stateMutability": "view",
      "type": "function"
    },
    {
      "inputs": [
        {
          "internalType": "address",
          "name": "underlying",
          "type": "address"
        }
      ],
      "name": "underlyingToPToken",
      "outputs": [
        {
          "internalType": "address",
          "name": "",
          "type": "address"
        }
      ],
      "stateMutability": "view",
      "type": "function"
    }
  ],
  "bytecode": "0x60c06040523480156200001157600080fd5b5060405162004c5638038062004c56833981016040819052620000349162000042565b600260805260a0526200005c565b6000602082840312156200005557600080fd5b5051919050565b60805160a051614bd46200008260003960006102f3015260006103fe0152614bd46000f3fe60806040523480156200001157600080fd5b50600436106200016c5760003560e01c80638948874911620000dd578063b74b1ed5116200008b578063bcc343ae116200006e578063bcc343ae146200047b578063c8a5fba31462000492578063fd7948d414620004a957600080fd5b8063b74b1ed51462000437578063b93982a0146200046457600080fd5b80638f34bdbc11620000c05780638f34bdbc14620003e1578063a1308f2714620003f8578063b409dd9b146200042057600080fd5b806389488749146200037f5780638ccb720b14620003bb57600080fd5b8063546422d6116200013b5780636b5e3606116200011e5780636b5e3606146200032457806373f0b437146200033b5780637c2c69c0146200035457600080fd5b8063546422d6146200029a57806369a92ea314620002ed57600080fd5b80630d771df714620001715780631b30058214620001b25780634e80717714620002005780634e9cfac21462000217575b600080fd5b620001886200018236600462002f9c565b620004e5565b60405173ffffffffffffffffffffffffffffffffffffffff90911681526020015b60405180910390f35b62000188620001c336600462002f9c565b73ffffffffffffffffffffffffffffffffffffffff9081166000908152600860209081526040808320548416835260099091529020600201541690565b620001886200021136600462002f9c565b62000746565b6200022e6200022836600462002f9c565b62000862565b604051620001a99190600060a08201905073ffffffffffffffffffffffffffffffffffffffff8351168252602083015115156020830152604083015163ffffffff8082166040850152806060860151166060850152505062ffffff608084015116608083015292915050565b620002b1620002ab36600462002f9c565b6200089e565b6040805161ffff909416845263ffffffff909216602084015273ffffffffffffffffffffffffffffffffffffffff1690820152606001620001a9565b620003157f000000000000000000000000000000000000000000000000000000000000000081565b604051908152602001620001a9565b620001886200033536600462002f9c565b62000942565b620003526200034c36600462002fbc565b620009db565b005b6200036b6200036536600462002f9c565b62000b14565b604051600b9190910b8152602001620001a9565b620001886200039036600462002f9c565b73ffffffffffffffffffffffffffffffffffffffff9081166000908152600860205260409020541690565b620003d2620003cc36600462002f9c565b62000b3b565b604051620001a9919062002fef565b6200022e620003f236600462002f9c565b62000b48565b620003157f000000000000000000000000000000000000000000000000000000000000000081565b620003156200043136600462002f9c565b62000cb4565b6200044e6200044836600462002f9c565b62000cda565b60405163ffffffff9091168152602001620001a9565b620001886200047536600462002f9c565b62000d4a565b620003156200048c36600462002f9c565b62000dde565b62000352620004a336600462002fbc565b62000e08565b62000188620004ba36600462002f9c565b73ffffffffffffffffffffffffffffffffffffffff9081166000908152600c60205260409020541690565b600060016000541462000559576040517f08c379a000000000000000000000000000000000000000000000000000000000815260206004820152600c60248201527f652f7265656e7472616e6379000000000000000000000000000000000000000060448201526064015b60405180910390fd5b6002600090815573ffffffffffffffffffffffffffffffffffffffff8381168252600c6020526040909120541615620005bb575073ffffffffffffffffffffffffffffffffffffffff8082166000908152600c6020526040902054166200073c565b6000620005c88362000fcb565b9050806040015163ffffffff166000141562000641576040517f08c379a000000000000000000000000000000000000000000000000000000000815260206004820152601760248201527f652f70746f6b656e2f6e6f742d636f6c6c61746572616c000000000000000000604482015260640162000550565b5060003083604051620006549062002f5a565b73ffffffffffffffffffffffffffffffffffffffff928316815291166020820152604001604051809103906000f08015801562000695573d6000803e3d6000fd5b5073ffffffffffffffffffffffffffffffffffffffff8082166000818152600b602090815260408083208054958a167fffffffffffffffffffffffff00000000000000000000000000000000000000009687168117909155808452600c90925280832080549095168417909455925193945090927f73fb3a739df7a607a2d4190be1c2d2beb0a1a1d66712602ace77dfa83381b73f9190a3620007388162001176565b5090505b6001600055919050565b6000600160005414620007b6576040517f08c379a000000000000000000000000000000000000000000000000000000000815260206004820152600c60248201527f652f7265656e7472616e63790000000000000000000000000000000000000000604482015260640162000550565b6002600090815573ffffffffffffffffffffffffffffffffffffffff8381168252600b60205260409091205416156200084c576040517f08c379a000000000000000000000000000000000000000000000000000000000815260206004820152601760248201527f652f6d61726b6574732f696e76616c69642d746f6b656e000000000000000000604482015260640162000550565b620008578262001176565b600160005592915050565b6040805160a081018252600080825260208201819052918101829052606081018290526080810191909152620008988262000fcb565b92915050565b600080600080620008af85620018bd565b80547a010000000000000000000000000000000000000000000000000000810461ffff1695507c0100000000000000000000000000000000000000000000000000000000900463ffffffff1693509050600384146200091057600062000939565b73ffffffffffffffffffffffffffffffffffffffff8086166000908152600b6020526040902054165b93959294505050565b73ffffffffffffffffffffffffffffffffffffffff8082166000908152600960205260409020600201541680620009d6576040517f08c379a000000000000000000000000000000000000000000000000000000000815260206004820152601060248201527f652f696e76616c69642d65746f6b656e00000000000000000000000000000000604482015260640162000550565b919050565b60016000541462000a49576040517f08c379a000000000000000000000000000000000000000000000000000000000815260206004820152600c60248201527f652f7265656e7472616e63790000000000000000000000000000000000000000604482015260640162000550565b6002600090815562000a5a6200197a565b9050600062000a6a828562001990565b73ffffffffffffffffffffffffffffffffffffffff8481166000908152600860205260409020549192501662000afd576040517f08c379a000000000000000000000000000000000000000000000000000000000815260206004820152601660248201527f652f6d61726b65742d6e6f742d61637469766174656400000000000000000000604482015260640162000550565b62000b09818462001a04565b505060016000555050565b60008062000b2283620018bd565b546a01000000000000000000009004600b0b9392505050565b6060620008988262001ccf565b6040805160a0810182526000808252602082018190529181018290526060810182905260808101919091525073ffffffffffffffffffffffffffffffffffffffff818116600090815260086020908152604091829020825160a081018452905493841680825274010000000000000000000000000000000000000000850460ff161515928201929092527501000000000000000000000000000000000000000000840463ffffffff90811693820193909352790100000000000000000000000000000000000000000000000000840490921660608301527d01000000000000000000000000000000000000000000000000000000000090920462ffffff16608082015290620009d6576040517f08c379a000000000000000000000000000000000000000000000000000000000815260206004820152601660248201527f652f6d61726b65742d6e6f742d61637469766174656400000000000000000000604482015260640162000550565b60008062000cc283620018bd565b546601000000000000900463ffffffff169392505050565b60008062000ce883620018bd565b8054909150760100000000000000000000000000000000000000000000900463ffffffff9081161462000d3d578054760100000000000000000000000000000000000000000000900463ffffffff1662000d43565b6336d616005b9392505050565b73ffffffffffffffffffffffffffffffffffffffff8082166000908152600960205260409020600101541680620009d6576040517f08c379a000000000000000000000000000000000000000000000000000000000815260206004820152601060248201527f652f696e76616c69642d65746f6b656e00000000000000000000000000000000604482015260640162000550565b60008062000dec83620018bd565b9050600062000dfc848362001e7a565b60800151949350505050565b60016000541462000e76576040517f08c379a000000000000000000000000000000000000000000000000000000000815260206004820152600c60248201527f652f7265656e7472616e63790000000000000000000000000000000000000000604482015260640162000550565b6002600090815562000e876200197a565b9050600062000e97828562001990565b9050600062000ea68462000fcb565b805173ffffffffffffffffffffffffffffffffffffffff9081166000908152600960209081526040808320938716835260058401909152902054919250906dffffffffffffffffffffffffffff8116906e010000000000000000000000000000900471ffffffffffffffffffffffffffffffffffff16801562000f86576040517f08c379a000000000000000000000000000000000000000000000000000000000815260206004820152601460248201527f652f6f75747374616e64696e672d626f72726f77000000000000000000000000604482015260640162000550565b62000f92858862001f07565b604084015163ffffffff161580159062000fab57508115155b1562000fbc5762000fbc8562002286565b50506001600055505050505050565b6040805160a08101825260008082526020820181905291810182905260608101829052608081019190915273ffffffffffffffffffffffffffffffffffffffff828116600090815260086020908152604091829020825160a081018452905493841680825274010000000000000000000000000000000000000000850460ff161515928201929092527501000000000000000000000000000000000000000000840463ffffffff90811693820193909352790100000000000000000000000000000000000000000000000000840490921660608301527d01000000000000000000000000000000000000000000000000000000000090920462ffffff1660808201529062001136576040517f08c379a000000000000000000000000000000000000000000000000000000000815260206004820152601660248201527f652f6d61726b65742d6e6f742d61637469766174656400000000000000000000604482015260640162000550565b606081015163ffffffff908116141562001155576342c1d80060608201525b608081015162ffffff90811614156200089857610708608082015292915050565b73ffffffffffffffffffffffffffffffffffffffff81811660009081526008602052604081205490911615620011d2575073ffffffffffffffffffffffffffffffffffffffff9081166000908152600860205260409020541690565b73ffffffffffffffffffffffffffffffffffffffff821660009081526005602052604090205463ffffffff1615801562001222575073ffffffffffffffffffffffffffffffffffffffff82163014155b6200128a576040517f08c379a000000000000000000000000000000000000000000000000000000000815260206004820152601760248201527f652f6d61726b6574732f696e76616c69642d746f6b656e000000000000000000604482015260640162000550565b60008273ffffffffffffffffffffffffffffffffffffffff1663313ce5676040518163ffffffff1660e01b8152600401602060405180830381865afa158015620012d8573d6000803e3d6000fd5b505050506040513d601f19601f82011682018060405250810190620012fe91906200304b565b905060128160ff16111562001370576040517f08c379a000000000000000000000000000000000000000000000000000000000815260206004820152601360248201527f652f746f6f2d6d616e792d646563696d616c7300000000000000000000000000604482015260640162000550565b620013b6604080516060808201835260008083526020808401829052845160a0810186528281529081018290528085018290529182018190526080820152909182015290565b60405173ffffffffffffffffffffffffffffffffffffffff851660248201526000906200148b90620f4240907f8eddcd9200000000000000000000000000000000000000000000000000000000906044015b604080517fffffffffffffffffffffffffffffffffffffffffffffffffffffffffffffffe08184030181529190526020810180517bffffffffffffffffffffffffffffffffffffffffffffffffffffffff167fffffffff00000000000000000000000000000000000000000000000000000000909316929092179091526200236e565b905080806020019051810190620014a3919062003150565b9150506000620014b66207a1206200240c565b604083015173ffffffffffffffffffffffffffffffffffffffff9091169081905290506000620014e96207a1216200240c565b90508260400151600860008873ffffffffffffffffffffffffffffffffffffffff1673ffffffffffffffffffffffffffffffffffffffff16815260200190815260200160002060008201518160000160006101000a81548173ffffffffffffffffffffffffffffffffffffffff021916908373ffffffffffffffffffffffffffffffffffffffff16021790555060208201518160000160146101000a81548160ff02191690831515021790555060408201518160000160156101000a81548163ffffffff021916908363ffffffff16021790555060608201518160000160196101000a81548163ffffffff021916908363ffffffff160217905550608082015181600001601d6101000a81548162ffffff021916908362ffffff16021790555090505081600a60008373ffffffffffffffffffffffffffffffffffffffff1673ffffffffffffffffffffffffffffffffffffffff16815260200190815260200160002060006101000a81548173ffffffffffffffffffffffffffffffffffffffff021916908373ffffffffffffffffffffffffffffffffffffffff1602179055506000600960008473ffffffffffffffffffffffffffffffffffffffff1673ffffffffffffffffffffffffffffffffffffffff1681526020019081526020016000209050868160010160006101000a81548173ffffffffffffffffffffffffffffffffffffffff021916908373ffffffffffffffffffffffffffffffffffffffff160217905550836000015181600001601a6101000a81548161ffff021916908361ffff160217905550836020015181600001601c6101000a81548163ffffffff021916908363ffffffff160217905550818160020160006101000a81548173ffffffffffffffffffffffffffffffffffffffff021916908373ffffffffffffffffffffffffffffffffffffffff160217905550428160000160006101000a81548164ffffffffff021916908364ffffffffff160217905550848160000160056101000a81548160ff021916908360ff160217905550621e84808160000160066101000a81548163ffffffff021916908363ffffffff16021790555063ffffffff8160000160166101000a81548163ffffffff021916908363ffffffff1602179055506b033b2e3c9fd0803ce800000081600401819055508173ffffffffffffffffffffffffffffffffffffffff168373ffffffffffffffffffffffffffffffffffffffff168873ffffffffffffffffffffffffffffffffffffffff167f2ece124509c63be11a6985ae00b93c8cb8f8d8898f6e5239fc9e38bc7190966760405160405180910390a4509095945050505050565b73ffffffffffffffffffffffffffffffffffffffff8082166000908152600860205260408120549091168062001950576040517f08c379a000000000000000000000000000000000000000000000000000000000815260206004820152601660248201527f652f6d61726b65742d6e6f742d61637469766174656400000000000000000000604482015260640162000550565b73ffffffffffffffffffffffffffffffffffffffff16600090815260096020526040902092915050565b600080600052601460283603600c375060005190565b60006101008210620019ff576040517f08c379a000000000000000000000000000000000000000000000000000000000815260206004820152601860248201527f652f7375622d6163636f756e742d69642d746f6f2d6269670000000000000000604482015260640162000550565b501890565b73ffffffffffffffffffffffffffffffffffffffff82166000908152600660209081526040808320805460079093529220660100000000000090910463ffffffff1690811562001b0657825473ffffffffffffffffffffffffffffffffffffffff8581166a010000000000000000000090920416141562001a86575050505050565b60015b8263ffffffff1681101562001b04578473ffffffffffffffffffffffffffffffffffffffff168282640100000000811062001ac85762001ac86200324f565b015473ffffffffffffffffffffffffffffffffffffffff16141562001aef57505050505050565b8062001afb81620032ad565b91505062001a89565b505b600a8263ffffffff161062001b78576040517f08c379a000000000000000000000000000000000000000000000000000000000815260206004820152601a60248201527f652f746f6f2d6d616e792d656e74657265642d6d61726b657473000000000000604482015260640162000550565b63ffffffff821662001bd55782547fffff0000000000000000000000000000000000000000ffffffffffffffffffff166a010000000000000000000073ffffffffffffffffffffffffffffffffffffffff86160217835562001c3a565b83818363ffffffff16640100000000811062001bf55762001bf56200324f565b0180547fffffffffffffffffffffffff00000000000000000000000000000000000000001673ffffffffffffffffffffffffffffffffffffffff929092169190911790555b62001c47826001620032e9565b835463ffffffff919091166601000000000000027fffffffffffffffffffffffffffffffffffffffffffff00000000ffffffffffff90911617835560405173ffffffffffffffffffffffffffffffffffffffff80871691908616907f1c0971b8e0f7bb4e90bdbd87cfe682c36c383e2fc3dc4716ecc02771186293cc90600090a35050505050565b73ffffffffffffffffffffffffffffffffffffffff80821660009081526006602052604081205460609263ffffffff6601000000000000830416926a010000000000000000000090920416908267ffffffffffffffff81111562001d375762001d3762003070565b60405190808252806020026020018201604052801562001d61578160200160208202803683370190505b50905063ffffffff831662001d7857949350505050565b73ffffffffffffffffffffffffffffffffffffffff8516600090815260076020526040812082519091849184919062001db55762001db56200324f565b73ffffffffffffffffffffffffffffffffffffffff9092166020928302919091019091015260015b8463ffffffff1681101562001e6f578181640100000000811062001e055762001e056200324f565b0154835173ffffffffffffffffffffffffffffffffffffffff9091169084908390811062001e375762001e376200324f565b73ffffffffffffffffffffffffffffffffffffffff9092166020928302919091019091015262001e6781620032ad565b905062001ddd565b509095945050505050565b604080516101e081018252600080825260208201819052918101829052606081018290526080810182905260a0810182905260c0810182905260e08101829052610100810182905261012081018290526101408101829052610160810182905261018081018290526101a081018290526101c081019190915262001f0083838362002686565b5092915050565b73ffffffffffffffffffffffffffffffffffffffff82166000908152600660209081526040808320805460079093529220660100000000000090910463ffffffff16907fffffffffffffffffffffffffffffffffffffffffffffffffffffffffffffffff8262001f7957505050505050565b835473ffffffffffffffffffffffffffffffffffffffff8681166a010000000000000000000090920416141562001fb35750600062002064565b60015b8363ffffffff1681101562002032578573ffffffffffffffffffffffffffffffffffffffff168382640100000000811062001ff55762001ff56200324f565b015473ffffffffffffffffffffffffffffffffffffffff1614156200201d5780915062002032565b806200202981620032ad565b91505062001fb6565b507fffffffffffffffffffffffffffffffffffffffffffffffffffffffffffffffff8114156200206457505050505050565b60006200207360018562003314565b63ffffffff169050808214620021855781620020f65782816401000000008110620020a257620020a26200324f565b015485547fffff0000000000000000000000000000000000000000ffffffffffffffffffff1673ffffffffffffffffffffffffffffffffffffffff9091166a01000000000000000000000217855562002185565b828164010000000081106200210f576200210f6200324f565b015473ffffffffffffffffffffffffffffffffffffffff16838364010000000081106200214057620021406200324f565b0180547fffffffffffffffffffffffff00000000000000000000000000000000000000001673ffffffffffffffffffffffffffffffffffffffff929092169190911790555b84547fffffffffffffffffffffffffffffffffffffffffffff00000000ffffffffffff16660100000000000063ffffffff83160217855580156200222357600083826401000000008110620021de57620021de6200324f565b0180547fffffffffffffffffffffffff00000000000000000000000000000000000000001673ffffffffffffffffffffffffffffffffffffffff929092169190911790555b8673ffffffffffffffffffffffffffffffffffffffff168673ffffffffffffffffffffffffffffffffffffffff167f7a35d9c64b6bcbe8e9104e3f481fb44a765d4b2a54cfa1c2d434a46c69f0418960405160405180910390a350505050505050565b73ffffffffffffffffffffffffffffffffffffffff811660009081526006602052604090205460ff16806200230e5760405173ffffffffffffffffffffffffffffffffffffffff831660248201526200230990620f4240907fc39b543a000000000000000000000000000000000000000000000000000000009060440162001408565b505050565b60ff8116600114156200236a5773ffffffffffffffffffffffffffffffffffffffff8216600090815260066020526040902080547fffffffffffffffffffffffffffffffffffffffffffffffffffffffffffffff001660021790555b5050565b60008281526003602052604080822054905160609291829173ffffffffffffffffffffffffffffffffffffffff90911690620023ac9086906200333c565b600060405180830381855af49150503d8060008114620023e9576040519150601f19603f3d011682016040523d82523d6000602084013e620023ee565b606091505b5091509150816200240457620024048162002b31565b949350505050565b60008162002477576040517f08c379a000000000000000000000000000000000000000000000000000000000815260206004820152601d60248201527f652f6372656174652d70726f78792f696e76616c69642d6d6f64756c65000000604482015260640162000550565b620f423f821115620024e6576040517f08c379a000000000000000000000000000000000000000000000000000000000815260206004820152601e60248201527f652f6372656174652d70726f78792f696e7465726e616c2d6d6f64756c650000604482015260640162000550565b60008281526004602052604090205473ffffffffffffffffffffffffffffffffffffffff16156200253a575060009081526004602052604090205473ffffffffffffffffffffffffffffffffffffffff1690565b60006040516200254a9062002f68565b604051809103906000f08015801562002567573d6000803e3d6000fd5b5090506207a11f8311620025c257600083815260046020526040902080547fffffffffffffffffffffffff00000000000000000000000000000000000000001673ffffffffffffffffffffffffffffffffffffffff83161790555b60408051808201825263ffffffff80861682526000602080840182815273ffffffffffffffffffffffffffffffffffffffff878116808552600590935292869020945185549151909316640100000000027fffffffffffffffff00000000000000000000000000000000000000000000000090911692909316919091179190911790915590517f6c6ffd7df9a0cfaa14ee2cf752003968de6c340564276242aa48ca641b09bce490620026789086815260200190565b60405180910390a292915050565b73ffffffffffffffffffffffffffffffffffffffff83168152815464ffffffffff811660a083015265010000000000810460ff90811660c084018190526601000000000000830463ffffffff90811660e08601526a01000000000000000000008404600b0b610100860152760100000000000000000000000000000000000000000000840481166101208601527a010000000000000000000000000000000000000000000000000000840461ffff166101408601527c010000000000000000000000000000000000000000000000000000000090930490921661016084015260018401547401000000000000000000000000000000000000000090046bffffffffffffffffffffffff16606084015260038401546dffffffffffffffffffffffffffff80821660208601526e01000000000000000000000000000090910471ffffffffffffffffffffffffffffffffffff166040850152600485015460808501526012839003909116600a0a6101a0840181905260009291816200280e576200280e6200337a565b046101c0840152600062002823843062002ba4565b9050836101c00151811162002846576101a084015181026101808501526200284f565b60006101808501525b8360a0015164ffffffffff16421462002b28576001925060008460a0015164ffffffffff1642620028819190620033a9565b905060006b033b2e3c9fd0803ce80000008660800151620028d1886101000151600b0b6b033b2e3c9fd0803ce8000000620028bd9190620033c3565b856b033b2e3c9fd0803ce800000062002cca565b620028dd91906200343d565b620028e991906200347d565b90506000866080015182886040015171ffffffffffffffffffffffffffffffffffff166200291891906200343d565b6200292491906200347d565b606088015160208901519192506bffffffffffffffffffffffff16906dffffffffffffffffffffffffffff16600062002966633b9aca0063ee6b28006200343d565b6101208b015163ffffffff9081161462002986578a61012001516200298c565b6336d616005b63ffffffff168b6040015171ffffffffffffffffffffffffffffffffffff1686620029b89190620033a9565b620029c491906200343d565b620029d091906200347d565b9050801562002a57576000620029eb633b9aca00866200347d565b8b6101800151620029fd9190620034b9565b905062002a0b8282620033a9565b62002a1784836200343d565b62002a2391906200347d565b92508a602001516dffffffffffffffffffffffffffff168362002a479190620033a9565b62002a539085620034b9565b9350505b6dffffffffffffffffffffffffffff821180159062002a88575071ffffffffffffffffffffffffffffffffffff8411155b1562002b215762002a998462002d94565b71ffffffffffffffffffffffffffffffffffff1660408b015260808a0185905264ffffffffff421660a08b015260208a01516dffffffffffffffffffffffffffff16821462002b215762002aed8362002e3e565b6bffffffffffffffffffffffff1660608b015262002b0b8262002ede565b6dffffffffffffffffffffffffffff1660208b01525b5050505050505b50509392505050565b80511562002b4157805181602001fd5b6040517f08c379a000000000000000000000000000000000000000000000000000000000815260206004820152600d60248201527f652f656d7074792d6572726f7200000000000000000000000000000000000000604482015260640162000550565b60408051835173ffffffffffffffffffffffffffffffffffffffff848116602480850191909152845180850390910181526044840185526020810180517bffffffffffffffffffffffffffffffffffffffffffffffffffffffff167f70a08231000000000000000000000000000000000000000000000000000000001790529351600094859384931691614e209162002c3d916200333c565b6000604051808303818686fa925050503d806000811462002c7b576040519150601f19603f3d011682016040523d82523d6000602084013e62002c80565b606091505b509150915081158062002c94575060208151105b1562002ca65760009350505062002cc1565b8080602001905181019062002cbc9190620034d4565b935050505b60405292915050565b600083801562002d755760018416801562002ce85785925062002cec565b8392505b50600283046002850494505b841562002d6e57858602868782041462002d1157600080fd5b8181018181101562002d2257600080fd5b859004965050600185161562002d6257858302838782041415871515161562002d4a57600080fd5b8181018181101562002d5b57600080fd5b8590049350505b60028504945062002cf8565b5062002d8c565b83801562002d87576000925062002b28565b839250505b509392505050565b600071ffffffffffffffffffffffffffffffffffff82111562002e3a576040517f08c379a000000000000000000000000000000000000000000000000000000000815260206004820152602160248201527f652f646562742d616d6f756e742d746f6f2d6c617267652d746f2d656e636f6460448201527f6500000000000000000000000000000000000000000000000000000000000000606482015260840162000550565b5090565b60006bffffffffffffffffffffffff82111562002e3a576040517f08c379a000000000000000000000000000000000000000000000000000000000815260206004820152602260248201527f652f736d616c6c2d616d6f756e742d746f6f2d6c617267652d746f2d656e636f60448201527f6465000000000000000000000000000000000000000000000000000000000000606482015260840162000550565b60006dffffffffffffffffffffffffffff82111562002e3a576040517f08c379a000000000000000000000000000000000000000000000000000000000815260206004820152601c60248201527f652f616d6f756e742d746f6f2d6c617267652d746f2d656e636f646500000000604482015260640162000550565b61147a80620034ef83390190565b610236806200496983390190565b73ffffffffffffffffffffffffffffffffffffffff8116811462002f9957600080fd5b50565b60006020828403121562002faf57600080fd5b813562000d438162002f76565b6000806040838503121562002fd057600080fd5b82359150602083013562002fe48162002f76565b809150509250929050565b6020808252825182820181905260009190848201906040850190845b818110156200303f57835173ffffffffffffffffffffffffffffffffffffffff16835292840192918401916001016200300b565b50909695505050505050565b6000602082840312156200305e57600080fd5b815160ff8116811462000d4357600080fd5b7f4e487b7100000000000000000000000000000000000000000000000000000000600052604160045260246000fd5b6040516060810167ffffffffffffffff81118282101715620030ea577f4e487b7100000000000000000000000000000000000000000000000000000000600052604160045260246000fd5b60405290565b60405160a0810167ffffffffffffffff81118282101715620030ea577f4e487b7100000000000000000000000000000000000000000000000000000000600052604160045260246000fd5b805163ffffffff81168114620009d657600080fd5b600081830360e08112156200316457600080fd5b6200316e6200309f565b835161ffff811681146200318157600080fd5b815262003191602085016200313b565b602082015260a07fffffffffffffffffffffffffffffffffffffffffffffffffffffffffffffffc083011215620031c757600080fd5b620031d1620030f0565b91506040840151620031e38162002f76565b825260608401518015158114620031f957600080fd5b60208301526200320c608085016200313b565b60408301526200321f60a085016200313b565b606083015260c084015162ffffff811681146200323b57600080fd5b608083015260408101919091529392505050565b7f4e487b7100000000000000000000000000000000000000000000000000000000600052603260045260246000fd5b7f4e487b7100000000000000000000000000000000000000000000000000000000600052601160045260246000fd5b60007fffffffffffffffffffffffffffffffffffffffffffffffffffffffffffffffff821415620032e257620032e26200327e565b5060010190565b600063ffffffff8083168185168083038211156200330b576200330b6200327e565b01949350505050565b600063ffffffff838116908316818110156200333457620033346200327e565b039392505050565b6000825160005b818110156200335f576020818601810151858301520162003343565b818111156200336f576000828501525b509190910192915050565b7f4e487b7100000000000000000000000000000000000000000000000000000000600052601260045260246000fd5b600082821015620033be57620033be6200327e565b500390565b6000808212827f7fffffffffffffffffffffffffffffffffffffffffffffffffffffffffffffff038413811516156200340057620034006200327e565b827f80000000000000000000000000000000000000000000000000000000000000000384128116156200343757620034376200327e565b50500190565b6000817fffffffffffffffffffffffffffffffffffffffffffffffffffffffffffffffff04831182151516156200347857620034786200327e565b500290565b600082620034b4577f4e487b7100000000000000000000000000000000000000000000000000000000600052601260045260246000fd5b500490565b60008219821115620034cf57620034cf6200327e565b500190565b600060208284031215620034e757600080fd5b505191905056fe60c060405234801561001057600080fd5b5060405161147a38038061147a83398101604081905261002f91610062565b6001600160a01b039182166080521660a052610095565b80516001600160a01b038116811461005d57600080fd5b919050565b6000806040838503121561007557600080fd5b61007e83610046565b915061008c60208401610046565b90509250929050565b60805160a05161138f6100eb6000396000818161019e0152818161029c01528181610818015281816108ae015281816109b201528181610b670152610c7d0152600081816104000152610562015261138f6000f3fe608060405234801561001057600080fd5b50600436106100ea5760003560e01c806370a082311161008c578063b77dfe0311610066578063b77dfe0314610219578063dd62ed3e1461022c578063de0e9a3e14610272578063ea598cb01461028557600080fd5b806370a08231146101c857806395d89b41146101fe578063a9059cbb1461020657600080fd5b80631ed575db116100c85780631ed575db1461014257806323b872dd14610157578063313ce5671461016a5780636f307dc31461018457600080fd5b806306fdde03146100ef578063095ea7b31461010d57806318160ddd14610130575b600080fd5b6100f7610298565b6040516101049190610fb6565b60405180910390f35b61012061011b366004611030565b61036f565b6040519015158152602001610104565b6002545b604051908152602001610104565b610155610150366004611030565b6103e8565b005b61012061016536600461105a565b61049a565b610172610814565b60405160ff9091168152602001610104565b60405173ffffffffffffffffffffffffffffffffffffffff7f0000000000000000000000000000000000000000000000000000000000000000168152602001610104565b6101346101d6366004611096565b73ffffffffffffffffffffffffffffffffffffffff1660009081526020819052604090205490565b6100f76108aa565b610120610214366004611030565b61096d565b610155610227366004611096565b610981565b61013461023a3660046110b1565b73ffffffffffffffffffffffffffffffffffffffff918216600090815260016020908152604080832093909416825291909152205490565b6101556102803660046110e4565b610b55565b6101556102933660046110e4565b610b62565b60607f000000000000000000000000000000000000000000000000000000000000000073ffffffffffffffffffffffffffffffffffffffff166306fdde036040518163ffffffff1660e01b8152600401600060405180830381865afa158015610305573d6000803e3d6000fd5b505050506040513d6000823e601f3d9081017fffffffffffffffffffffffffffffffffffffffffffffffffffffffffffffffe016820160405261034b919081019061112c565b60405160200161035b91906111f7565b604051602081830303815290604052905090565b33600081815260016020908152604080832073ffffffffffffffffffffffffffffffffffffffff8716808552925280832085905551919290917f8c5be1e5ebec7d5bd14f71427d1e84f3dd0314c0f7b2291e5b200ac8c7c3b925906103d79086815260200190565b60405180910390a350600192915050565b3373ffffffffffffffffffffffffffffffffffffffff7f0000000000000000000000000000000000000000000000000000000000000000161461048c576040517f08c379a000000000000000000000000000000000000000000000000000000000815260206004820152601160248201527f7065726d697373696f6e2064656e69656400000000000000000000000000000060448201526064015b60405180910390fd5b6104968282610b97565b5050565b73ffffffffffffffffffffffffffffffffffffffff8316600090815260208190526040812054821115610529576040517f08c379a000000000000000000000000000000000000000000000000000000000815260206004820152601460248201527f696e73756666696369656e742062616c616e63650000000000000000000000006044820152606401610483565b73ffffffffffffffffffffffffffffffffffffffff8416331480159061058557503373ffffffffffffffffffffffffffffffffffffffff7f00000000000000000000000000000000000000000000000000000000000000001614155b80156105e1575073ffffffffffffffffffffffffffffffffffffffff841660009081526001602090815260408083203384529091529020547fffffffffffffffffffffffffffffffffffffffffffffffffffffffffffffffff14155b1561072d5773ffffffffffffffffffffffffffffffffffffffff84166000908152600160209081526040808320338452909152902054821115610680576040517f08c379a000000000000000000000000000000000000000000000000000000000815260206004820152601660248201527f696e73756666696369656e7420616c6c6f77616e6365000000000000000000006044820152606401610483565b73ffffffffffffffffffffffffffffffffffffffff84166000908152600160209081526040808320338452909152812080548492906106c090849061126b565b909155505073ffffffffffffffffffffffffffffffffffffffff8416600081815260016020908152604080832033808552908352928190205490519081529192917f8c5be1e5ebec7d5bd14f71427d1e84f3dd0314c0f7b2291e5b200ac8c7c3b925910160405180910390a35b73ffffffffffffffffffffffffffffffffffffffff84166000908152602081905260408120805484929061076290849061126b565b909155505073ffffffffffffffffffffffffffffffffffffffff83166000908152602081905260408120805484929061079c908490611282565b925050819055508273ffffffffffffffffffffffffffffffffffffffff168473ffffffffffffffffffffffffffffffffffffffff167fddf252ad1be2c89b69c2b068fc378daa952ba7f163c4a11628f55a4df523b3ef8460405161080291815260200190565b60405180910390a35060019392505050565b60007f000000000000000000000000000000000000000000000000000000000000000073ffffffffffffffffffffffffffffffffffffffff1663313ce5676040518163ffffffff1660e01b8152600401602060405180830381865afa158015610881573d6000803e3d6000fd5b505050506040513d601f19601f820116820180604052508101906108a5919061129a565b905090565b60607f000000000000000000000000000000000000000000000000000000000000000073ffffffffffffffffffffffffffffffffffffffff166395d89b416040518163ffffffff1660e01b8152600401600060405180830381865afa158015610917573d6000803e3d6000fd5b505050506040513d6000823e601f3d9081017fffffffffffffffffffffffffffffffffffffffffffffffffffffffffffffffe016820160405261095d919081019061112c565b60405160200161035b91906112bd565b600061097a33848461049a565b9392505050565b6040517f70a082310000000000000000000000000000000000000000000000000000000081523060048201526000907f000000000000000000000000000000000000000000000000000000000000000073ffffffffffffffffffffffffffffffffffffffff16906370a0823190602401602060405180830381865afa158015610a0e573d6000803e3d6000fd5b505050506040513d601f19601f82011682018060405250810190610a329190611302565b90506002548111610a9f576040517f08c379a000000000000000000000000000000000000000000000000000000000815260206004820152601b60248201527f6e6f20737572706c75732062616c616e636520746f20636c61696d00000000006044820152606401610483565b600060025482610aaf919061126b565b90508060026000828254610ac39190611282565b909155505073ffffffffffffffffffffffffffffffffffffffff831660009081526020819052604081208054839290610afd908490611282565b909155505060405181815273ffffffffffffffffffffffffffffffffffffffff8416906000907fddf252ad1be2c89b69c2b068fc378daa952ba7f163c4a11628f55a4df523b3ef9060200160405180910390a3505050565b610b5f3382610b97565b50565b610b8e7f0000000000000000000000000000000000000000000000000000000000000000333084610cf5565b610b5f33610981565b73ffffffffffffffffffffffffffffffffffffffff8216600090815260208190526040902054811115610c26576040517f08c379a000000000000000000000000000000000000000000000000000000000815260206004820152601460248201527f696e73756666696369656e742062616c616e63650000000000000000000000006044820152606401610483565b8060026000828254610c38919061126b565b909155505073ffffffffffffffffffffffffffffffffffffffff821660009081526020819052604081208054839290610c7290849061126b565b90915550610ca390507f00000000000000000000000000000000000000000000000000000000000000008383610e42565b60405181815260009073ffffffffffffffffffffffffffffffffffffffff8416907fddf252ad1be2c89b69c2b068fc378daa952ba7f163c4a11628f55a4df523b3ef9060200160405180910390a35050565b6040805173ffffffffffffffffffffffffffffffffffffffff85811660248301528481166044830152606480830185905283518084039091018152608490920183526020820180517bffffffffffffffffffffffffffffffffffffffffffffffffffffffff167f23b872dd000000000000000000000000000000000000000000000000000000001790529151600092839290881691610d94919061131b565b6000604051808303816000865af19150503d8060008114610dd1576040519150601f19603f3d011682016040523d82523d6000602084013e610dd6565b606091505b5091509150818015610e00575080511580610e00575080806020019051810190610e009190611337565b8190610e39576040517f08c379a00000000000000000000000000000000000000000000000000000000081526004016104839190610fb6565b50505050505050565b6040805173ffffffffffffffffffffffffffffffffffffffff8481166024830152604480830185905283518084039091018152606490920183526020820180517bffffffffffffffffffffffffffffffffffffffffffffffffffffffff167fa9059cbb000000000000000000000000000000000000000000000000000000001790529151600092839290871691610ed9919061131b565b6000604051808303816000865af19150503d8060008114610f16576040519150601f19603f3d011682016040523d82523d6000602084013e610f1b565b606091505b5091509150818015610f45575080511580610f45575080806020019051810190610f459190611337565b8190610f7e576040517f08c379a00000000000000000000000000000000000000000000000000000000081526004016104839190610fb6565b505050505050565b60005b83811015610fa1578181015183820152602001610f89565b83811115610fb0576000848401525b50505050565b6020815260008251806020840152610fd5816040850160208701610f86565b601f017fffffffffffffffffffffffffffffffffffffffffffffffffffffffffffffffe0169190910160400192915050565b803573ffffffffffffffffffffffffffffffffffffffff8116811461102b57600080fd5b919050565b6000806040838503121561104357600080fd5b61104c83611007565b946020939093013593505050565b60008060006060848603121561106f57600080fd5b61107884611007565b925061108660208501611007565b9150604084013590509250925092565b6000602082840312156110a857600080fd5b61097a82611007565b600080604083850312156110c457600080fd5b6110cd83611007565b91506110db60208401611007565b90509250929050565b6000602082840312156110f657600080fd5b5035919050565b7f4e487b7100000000000000000000000000000000000000000000000000000000600052604160045260246000fd5b60006020828403121561113e57600080fd5b815167ffffffffffffffff8082111561115657600080fd5b818401915084601f83011261116a57600080fd5b81518181111561117c5761117c6110fd565b604051601f82017fffffffffffffffffffffffffffffffffffffffffffffffffffffffffffffffe0908116603f011681019083821181831017156111c2576111c26110fd565b816040528281528760208487010111156111db57600080fd5b6111ec836020830160208801610f86565b979650505050505050565b7f45756c65722050726f746563746564200000000000000000000000000000000081526000825161122f816010850160208701610f86565b9190910160100192915050565b7f4e487b7100000000000000000000000000000000000000000000000000000000600052601160045260246000fd5b60008282101561127d5761127d61123c565b500390565b600082198211156112955761129561123c565b500190565b6000602082840312156112ac57600080fd5b815160ff8116811461097a57600080fd5b7f70000000000000000000000000000000000000000000000000000000000000008152600082516112f5816001850160208701610f86565b9190910160010192915050565b60006020828403121561131457600080fd5b5051919050565b6000825161132d818460208701610f86565b9190910192915050565b60006020828403121561134957600080fd5b8151801515811461097a57600080fdfea2646970667358221220321885289a5e13a4a38fa627d95b9d1c350a9bffc0432aee3d7d29d2dcd7209f64736f6c634300080a003360a060405234801561001057600080fd5b503360805260805161020761002f6000396000601301526102076000f3fe608060405234801561001057600080fd5b507f00000000000000000000000000000000000000000000000000000000000000003373ffffffffffffffffffffffffffffffffffffffff8216141561017b5760008081523681601f378051801561008657600181146100b157600281146100df57600381146101105760048114610144578182fd5b7fffffffffffffffffffffffffffffffffffffffffffffffffffffffffffffffff36016020a0508081f35b6020517fffffffffffffffffffffffffffffffffffffffffffffffffffffffffffffffdf36016040a1508081f35b6040516020517fffffffffffffffffffffffffffffffffffffffffffffffffffffffffffffffbf36016060a2508081f35b6060516040516020517fffffffffffffffffffffffffffffffffffffffffffffffffffffffffffffff9f36016080a3508081f35b6080516060516040516020517fffffffffffffffffffffffffffffffffffffffffffffffffffffffffffffff7f360160a0a4508081f35b7fe9c4a3ac000000000000000000000000000000000000000000000000000000006000523660006004373360601b366004015260008036601801600080855af13d6000803e8080156101cc573d6000f35b3d6000fdfea26469706673582212204c86fe253b9f19cb088c17838d424c049f387d68d1102741a6d20e8ab7bc03d164736f6c634300080a0033a2646970667358221220bab4ca0cee53832e0638f7772d7f036b1e48f23adb2847292921470e52a1b94764736f6c634300080a0033",
  "linkReferences": {},
  "deployedLinkReferences": {}
}