{
  "_format": "hh-sol-artifact-1",
  "contractName": "FlashLoan",
  "sourceName": "contracts/adaptors/FlashLoan.sol",
  "abi": [
    {
      "inputs": [
        {
          "internalType": "address",
          "name": "euler_",
          "type": "address"
        },
        {
          "internalType": "address",
          "name": "exec_",
          "type": "address"
        },
        {
          "internalType": "address",
          "name": "markets_",
          "type": "address"
        }
      ],
      "stateMutability": "nonpayable",
      "type": "constructor"
    },
    {
      "inputs": [],
      "name": "CALLBACK_SUCCESS",
      "outputs": [
        {
          "internalType": "bytes32",
          "name": "",
          "type": "bytes32"
        }
      ],
      "stateMutability": "view",
      "type": "function"
    },
    {
      "inputs": [
        {
          "internalType": "address",
          "name": "token",
          "type": "address"
        },
        {
          "internalType": "uint256",
          "name": "",
          "type": "uint256"
        }
      ],
      "name": "flashFee",
      "outputs": [
        {
          "internalType": "uint256",
          "name": "",
          "type": "uint256"
        }
      ],
      "stateMutability": "view",
      "type": "function"
    },
    {
      "inputs": [
        {
          "internalType": "contract IERC3156FlashBorrower",
          "name": "receiver",
          "type": "address"
        },
        {
          "internalType": "address",
          "name": "token",
          "type": "address"
        },
        {
          "internalType": "uint256",
          "name": "amount",
          "type": "uint256"
        },
        {
          "internalType": "bytes",
          "name": "data",
          "type": "bytes"
        }
      ],
      "name": "flashLoan",
      "outputs": [
        {
          "internalType": "bool",
          "name": "",
          "type": "bool"
        }
      ],
      "stateMutability": "nonpayable",
      "type": "function"
    },
    {
      "inputs": [
        {
          "internalType": "address",
          "name": "token",
          "type": "address"
        }
      ],
      "name": "maxFlashLoan",
      "outputs": [
        {
          "internalType": "uint256",
          "name": "",
          "type": "uint256"
        }
      ],
      "stateMutability": "view",
      "type": "function"
    },
    {
      "inputs": [
        {
          "internalType": "bytes",
          "name": "encodedData",
          "type": "bytes"
        }
      ],
      "name": "onDeferredLiquidityCheck",
      "outputs": [],
      "stateMutability": "nonpayable",
      "type": "function"
    }
  ],
  "bytecode": "0x60e06040523480156200001157600080fd5b50604051620019ad380380620019ad83398101604081905262000034916200006f565b6001600160a01b0392831660805290821660a0521660c052620000b9565b80516001600160a01b03811681146200006a57600080fd5b919050565b6000806000606084860312156200008557600080fd5b620000908462000052565b9250620000a06020850162000052565b9150620000b06040850162000052565b90509250925092565b60805160a05160c05161188c620001216000396000818161014e015281816103c4015281816106650152818161079f01528181610dd60152610e880152600061024801526000818161048a0152818161052401528181610b0f0152610b96015261188c6000f3fe608060405234801561001057600080fd5b50600436106100675760003560e01c80638237e538116100505780638237e538146100b5578063a15db5c5146100dc578063d9d98ce4146100f157600080fd5b80635cffe9de1461006c578063613255ab14610094575b600080fd5b61007f61007a36600461120f565b610104565b60405190151581526020015b60405180910390f35b6100a76100a23660046112ae565b61037a565b60405190815260200161008b565b6100a77f439148f0bbc682ca079e46d6e2c2f0c1e3b820f1a291b069d8882abf8cf18dd981565b6100ef6100ea36600461138f565b61050c565b005b6100a76100ff36600461140f565b61061b565b6040517f8948874900000000000000000000000000000000000000000000000000000000815273ffffffffffffffffffffffffffffffffffffffff858116600483015260009182917f00000000000000000000000000000000000000000000000000000000000000001690638948874990602401602060405180830381865afa158015610195573d6000803e3d6000fd5b505050506040513d601f19601f820116820180604052508101906101b9919061143b565b73ffffffffffffffffffffffffffffffffffffffff16141561023c576040517f08c379a000000000000000000000000000000000000000000000000000000000815260206004820152601e60248201527f652f666c6173682d6c6f616e2f756e737570706f727465642d746f6b656e000060448201526064015b60405180910390fd5b60005460ff1661032a577f000000000000000000000000000000000000000000000000000000000000000073ffffffffffffffffffffffffffffffffffffffff166389b7b7a63088888888883360405160200161029e96959493929190611458565b6040516020818303038152906040526040518363ffffffff1660e01b81526004016102ca92919061155a565b600060405180830381600087803b1580156102e457600080fd5b505af11580156102f8573d6000803e3d6000fd5b5050600080547fffffffffffffffffffffffffffffffffffffffffffffffffffffffffffffff001690555061036e9050565b61036e86868686868080601f016020809104026020016040519081016040528093929190818152602001838380828437600092019190915250339250610757915050565b50600195945050505050565b6040517f8948874900000000000000000000000000000000000000000000000000000000815273ffffffffffffffffffffffffffffffffffffffff828116600483015260009182917f00000000000000000000000000000000000000000000000000000000000000001690638948874990602401602060405180830381865afa15801561040b573d6000803e3d6000fd5b505050506040513d601f19601f8201168201806040525081019061042f919061143b565b905073ffffffffffffffffffffffffffffffffffffffff811615610502576040517f70a0823100000000000000000000000000000000000000000000000000000000815273ffffffffffffffffffffffffffffffffffffffff7f0000000000000000000000000000000000000000000000000000000000000000811660048301528416906370a0823190602401602060405180830381865afa1580156104d9573d6000803e3d6000fd5b505050506040513d601f19601f820116820180604052508101906104fd9190611591565b610505565b60005b9392505050565b3373ffffffffffffffffffffffffffffffffffffffff7f000000000000000000000000000000000000000000000000000000000000000016146105ab576040517f08c379a000000000000000000000000000000000000000000000000000000000815260206004820152601f60248201527f652f666c6173682d6c6f616e2f6f6e2d64656665727265642d63616c6c6572006044820152606401610233565b6000806000806000858060200190518101906105c791906115ba565b600080547fffffffffffffffffffffffffffffffffffffffffffffffffffffffffffffff0016600117905593985091965094509250905061060b8585858585610757565b610613610da5565b505050505050565b6040517f8948874900000000000000000000000000000000000000000000000000000000815273ffffffffffffffffffffffffffffffffffffffff838116600483015260009182917f00000000000000000000000000000000000000000000000000000000000000001690638948874990602401602060405180830381865afa1580156106ac573d6000803e3d6000fd5b505050506040513d601f19601f820116820180604052508101906106d0919061143b565b73ffffffffffffffffffffffffffffffffffffffff16141561074e576040517f08c379a000000000000000000000000000000000000000000000000000000000815260206004820152601e60248201527f652f666c6173682d6c6f616e2f756e737570706f727465642d746f6b656e00006044820152606401610233565b50600092915050565b6040517f1b30058200000000000000000000000000000000000000000000000000000000815273ffffffffffffffffffffffffffffffffffffffff85811660048301526000917f000000000000000000000000000000000000000000000000000000000000000090911690631b30058290602401602060405180830381865afa1580156107e8573d6000803e3d6000fd5b505050506040513d601f19601f8201168201806040525081019061080c919061143b565b6040517f0ecbcdab000000000000000000000000000000000000000000000000000000008152600060048201526024810186905290915073ffffffffffffffffffffffffffffffffffffffff821690630ecbcdab90604401600060405180830381600087803b15801561087e57600080fd5b505af1158015610892573d6000803e3d6000fd5b505050506108a1858786610f61565b6040517f23e30c8b0000000000000000000000000000000000000000000000000000000081527f439148f0bbc682ca079e46d6e2c2f0c1e3b820f1a291b069d8882abf8cf18dd99073ffffffffffffffffffffffffffffffffffffffff8816906323e30c8b9061091e9086908a908a906000908b90600401611674565b6020604051808303816000875af115801561093d573d6000803e3d6000fd5b505050506040513d601f19601f820116820180604052508101906109619190611591565b146109c8576040517f08c379a000000000000000000000000000000000000000000000000000000000815260206004820152601560248201527f652f666c6173682d6c6f616e2f63616c6c6261636b00000000000000000000006044820152606401610233565b6109d48587308761109d565b6040517f70a08231000000000000000000000000000000000000000000000000000000008152306004820152849073ffffffffffffffffffffffffffffffffffffffff8716906370a0823190602401602060405180830381865afa158015610a40573d6000803e3d6000fd5b505050506040513d601f19601f82011682018060405250810190610a649190611591565b1015610acc576040517f08c379a000000000000000000000000000000000000000000000000000000000815260206004820152601860248201527f652f666c6173682d6c6f616e2f70756c6c2d616d6f756e7400000000000000006044820152606401610233565b6040517fdd62ed3e00000000000000000000000000000000000000000000000000000000815230600482015273ffffffffffffffffffffffffffffffffffffffff7f0000000000000000000000000000000000000000000000000000000000000000811660248301526000919087169063dd62ed3e90604401602060405180830381865afa158015610b62573d6000803e3d6000fd5b505050506040513d601f19601f82011682018060405250810190610b869190611591565b905084811015610d1557604080517f000000000000000000000000000000000000000000000000000000000000000073ffffffffffffffffffffffffffffffffffffffff90811660248301527fffffffffffffffffffffffffffffffffffffffffffffffffffffffffffffffff60448084019190915283518084039091018152606490920183526020820180517bffffffffffffffffffffffffffffffffffffffffffffffffffffffff167f095ea7b3000000000000000000000000000000000000000000000000000000001790529151600092891691610c66916116c4565b6000604051808303816000865af19150503d8060008114610ca3576040519150601f19603f3d011682016040523d82523d6000602084013e610ca8565b606091505b5050905080610d13576040517f08c379a000000000000000000000000000000000000000000000000000000000815260206004820152601460248201527f652f666c6173682d6c6f616e2f617070726f76650000000000000000000000006044820152606401610233565b505b6040517fd8aed145000000000000000000000000000000000000000000000000000000008152600060048201526024810186905273ffffffffffffffffffffffffffffffffffffffff83169063d8aed14590604401600060405180830381600087803b158015610d8457600080fd5b505af1158015610d98573d6000803e3d6000fd5b5050505050505050505050565b6040517f8ccb720b0000000000000000000000000000000000000000000000000000000081523060048201526000907f000000000000000000000000000000000000000000000000000000000000000073ffffffffffffffffffffffffffffffffffffffff1690638ccb720b90602401600060405180830381865afa158015610e32573d6000803e3d6000fd5b505050506040513d6000823e601f3d9081017fffffffffffffffffffffffffffffffffffffffffffffffffffffffffffffffe0168201604052610e7891908101906116e0565b905060005b8151811015610f5d577f000000000000000000000000000000000000000000000000000000000000000073ffffffffffffffffffffffffffffffffffffffff1663c8a5fba36000848481518110610ed657610ed6611792565b60200260200101516040518363ffffffff1660e01b8152600401610f1a92919091825273ffffffffffffffffffffffffffffffffffffffff16602082015260400190565b600060405180830381600087803b158015610f3457600080fd5b505af1158015610f48573d6000803e3d6000fd5b5050505080610f56906117c1565b9050610e7d565b5050565b6040805173ffffffffffffffffffffffffffffffffffffffff8481166024830152604480830185905283518084039091018152606490920183526020820180517bffffffffffffffffffffffffffffffffffffffffffffffffffffffff167fa9059cbb000000000000000000000000000000000000000000000000000000001790529151600092839290871691610ff891906116c4565b6000604051808303816000865af19150503d8060008114611035576040519150601f19603f3d011682016040523d82523d6000602084013e61103a565b606091505b50915091508180156110645750805115806110645750808060200190518101906110649190611821565b8190610613576040517f08c379a00000000000000000000000000000000000000000000000000000000081526004016102339190611843565b6040805173ffffffffffffffffffffffffffffffffffffffff85811660248301528481166044830152606480830185905283518084039091018152608490920183526020820180517bffffffffffffffffffffffffffffffffffffffffffffffffffffffff167f23b872dd00000000000000000000000000000000000000000000000000000000179052915160009283929088169161113c91906116c4565b6000604051808303816000865af19150503d8060008114611179576040519150601f19603f3d011682016040523d82523d6000602084013e61117e565b606091505b50915091508180156111a85750805115806111a85750808060200190518101906111a89190611821565b81906111e1576040517f08c379a00000000000000000000000000000000000000000000000000000000081526004016102339190611843565b50505050505050565b73ffffffffffffffffffffffffffffffffffffffff8116811461120c57600080fd5b50565b60008060008060006080868803121561122757600080fd5b8535611232816111ea565b94506020860135611242816111ea565b935060408601359250606086013567ffffffffffffffff8082111561126657600080fd5b818801915088601f83011261127a57600080fd5b81358181111561128957600080fd5b89602082850101111561129b57600080fd5b9699959850939650602001949392505050565b6000602082840312156112c057600080fd5b8135610505816111ea565b7f4e487b7100000000000000000000000000000000000000000000000000000000600052604160045260246000fd5b604051601f82017fffffffffffffffffffffffffffffffffffffffffffffffffffffffffffffffe016810167ffffffffffffffff81118282101715611341576113416112cb565b604052919050565b600067ffffffffffffffff821115611363576113636112cb565b50601f017fffffffffffffffffffffffffffffffffffffffffffffffffffffffffffffffe01660200190565b6000602082840312156113a157600080fd5b813567ffffffffffffffff8111156113b857600080fd5b8201601f810184136113c957600080fd5b80356113dc6113d782611349565b6112fa565b8181528560208385010111156113f157600080fd5b81602084016020830137600091810160200191909152949350505050565b6000806040838503121561142257600080fd5b823561142d816111ea565b946020939093013593505050565b60006020828403121561144d57600080fd5b8151610505816111ea565b600073ffffffffffffffffffffffffffffffffffffffff8089168352808816602084015286604084015260a060608401528460a0840152848660c0850137600060c0868501015260c07fffffffffffffffffffffffffffffffffffffffffffffffffffffffffffffffe0601f8701168401019150808416608084015250979650505050505050565b60005b838110156114fb5781810151838201526020016114e3565b8381111561150a576000848401525b50505050565b600081518084526115288160208601602086016114e0565b601f017fffffffffffffffffffffffffffffffffffffffffffffffffffffffffffffffe0169290920160200192915050565b73ffffffffffffffffffffffffffffffffffffffff831681526040602082015260006115896040830184611510565b949350505050565b6000602082840312156115a357600080fd5b5051919050565b80516115b5816111ea565b919050565b600080600080600060a086880312156115d257600080fd5b85516115dd816111ea565b60208701519095506115ee816111ea565b60408701516060880151919550935067ffffffffffffffff81111561161257600080fd5b8601601f8101881361162357600080fd5b80516116316113d782611349565b81815289602083850101111561164657600080fd5b6116578260208301602086016114e0565b9350611668915050608087016115aa565b90509295509295909350565b600073ffffffffffffffffffffffffffffffffffffffff808816835280871660208401525084604083015283606083015260a060808301526116b960a0830184611510565b979650505050505050565b600082516116d68184602087016114e0565b9190910192915050565b600060208083850312156116f357600080fd5b825167ffffffffffffffff8082111561170b57600080fd5b818501915085601f83011261171f57600080fd5b815181811115611731576117316112cb565b8060051b91506117428483016112fa565b818152918301840191848101908884111561175c57600080fd5b938501935b838510156117865784519250611776836111ea565b8282529385019390850190611761565b98975050505050505050565b7f4e487b7100000000000000000000000000000000000000000000000000000000600052603260045260246000fd5b60007fffffffffffffffffffffffffffffffffffffffffffffffffffffffffffffffff82141561181a577f4e487b7100000000000000000000000000000000000000000000000000000000600052601160045260246000fd5b5060010190565b60006020828403121561183357600080fd5b8151801515811461050557600080fd5b602081526000610505602083018461151056fea2646970667358221220696fe8982bb7e0642458f012bb9d8117f09d7296ae582603f376fa02536bbd1264736f6c634300080a0033",
  "linkReferences": {},
  "deployedLinkReferences": {}
}