{
  "_format": "hh-sol-artifact-1",
  "contractName": "FlashLoan",
  "sourceName": "contracts/adaptors/FlashLoan.sol",
  "abi": [
    {
      "inputs": [
        {
          "internalType": "address",
          "name": "euler_",
          "type": "address"
        },
        {
          "internalType": "address",
          "name": "exec_",
          "type": "address"
        },
        {
          "internalType": "address",
          "name": "markets_",
          "type": "address"
        }
      ],
      "stateMutability": "nonpayable",
      "type": "constructor"
    },
    {
      "inputs": [],
      "name": "CALLBACK_SUCCESS",
      "outputs": [
        {
          "internalType": "bytes32",
          "name": "",
          "type": "bytes32"
        }
      ],
      "stateMutability": "view",
      "type": "function"
    },
    {
      "inputs": [],
      "name": "FEE",
      "outputs": [
        {
          "internalType": "uint256",
          "name": "",
          "type": "uint256"
        }
      ],
      "stateMutability": "view",
      "type": "function"
    },
    {
      "inputs": [
        {
          "internalType": "address",
          "name": "token",
          "type": "address"
        },
        {
          "internalType": "uint256",
          "name": "",
          "type": "uint256"
        }
      ],
      "name": "flashFee",
      "outputs": [
        {
          "internalType": "uint256",
          "name": "",
          "type": "uint256"
        }
      ],
      "stateMutability": "view",
      "type": "function"
    },
    {
      "inputs": [
        {
          "internalType": "contract IERC3156FlashBorrower",
          "name": "receiver",
          "type": "address"
        },
        {
          "internalType": "address",
          "name": "token",
          "type": "address"
        },
        {
          "internalType": "uint256",
          "name": "amount",
          "type": "uint256"
        },
        {
          "internalType": "bytes",
          "name": "data",
          "type": "bytes"
        }
      ],
      "name": "flashLoan",
      "outputs": [
        {
          "internalType": "bool",
          "name": "",
          "type": "bool"
        }
      ],
      "stateMutability": "nonpayable",
      "type": "function"
    },
    {
      "inputs": [
        {
          "internalType": "address",
          "name": "token",
          "type": "address"
        }
      ],
      "name": "maxFlashLoan",
      "outputs": [
        {
          "internalType": "uint256",
          "name": "",
          "type": "uint256"
        }
      ],
      "stateMutability": "view",
      "type": "function"
    },
    {
      "inputs": [
        {
          "internalType": "bytes",
          "name": "encodedData",
          "type": "bytes"
        }
      ],
      "name": "onDeferredLiquidityCheck",
      "outputs": [],
      "stateMutability": "nonpayable",
      "type": "function"
    }
  ],
  "bytecode": "0x60e06040523480156200001157600080fd5b50604051620019f3380380620019f383398101604081905262000034916200006f565b6001600160a01b0392831660805290821660a0521660c052620000b9565b80516001600160a01b03811681146200006a57600080fd5b919050565b6000806000606084860312156200008557600080fd5b620000908462000052565b9250620000a06020850162000052565b9150620000b06040850162000052565b90509250925092565b60805160a05160c0516118d26200012160003960008181610161015281816103d701528181610678015281816107b201528181610dfc0152610eae0152600061025b01526000818161049d0152818161053701528181610b2b0152610bbc01526118d26000f3fe608060405234801561001057600080fd5b50600436106100725760003560e01c8063a15db5c511610050578063a15db5c5146100e7578063c57981b5146100fc578063d9d98ce41461010457600080fd5b80635cffe9de14610077578063613255ab1461009f5780638237e538146100c0575b600080fd5b61008a610085366004611235565b610117565b60405190151581526020015b60405180910390f35b6100b26100ad3660046112d4565b61038d565b604051908152602001610096565b6100b27f439148f0bbc682ca079e46d6e2c2f0c1e3b820f1a291b069d8882abf8cf18dd981565b6100fa6100f53660046113b5565b61051f565b005b6100b2600081565b6100b2610112366004611435565b61062e565b6040517f8948874900000000000000000000000000000000000000000000000000000000815273ffffffffffffffffffffffffffffffffffffffff858116600483015260009182917f00000000000000000000000000000000000000000000000000000000000000001690638948874990602401602060405180830381865afa1580156101a8573d6000803e3d6000fd5b505050506040513d601f19601f820116820180604052508101906101cc9190611461565b73ffffffffffffffffffffffffffffffffffffffff16141561024f576040517f08c379a000000000000000000000000000000000000000000000000000000000815260206004820152601e60248201527f652f666c6173682d6c6f616e2f756e737570706f727465642d746f6b656e000060448201526064015b60405180910390fd5b60005460ff1661033d577f000000000000000000000000000000000000000000000000000000000000000073ffffffffffffffffffffffffffffffffffffffff166389b7b7a6308888888888336040516020016102b19695949392919061147e565b6040516020818303038152906040526040518363ffffffff1660e01b81526004016102dd929190611580565b600060405180830381600087803b1580156102f757600080fd5b505af115801561030b573d6000803e3d6000fd5b5050600080547fffffffffffffffffffffffffffffffffffffffffffffffffffffffffffffff00169055506103819050565b61038186868686868080601f01602080910402602001604051908101604052809392919081815260200183838082843760009201919091525033925061076a915050565b50600195945050505050565b6040517f8948874900000000000000000000000000000000000000000000000000000000815273ffffffffffffffffffffffffffffffffffffffff828116600483015260009182917f00000000000000000000000000000000000000000000000000000000000000001690638948874990602401602060405180830381865afa15801561041e573d6000803e3d6000fd5b505050506040513d601f19601f820116820180604052508101906104429190611461565b905073ffffffffffffffffffffffffffffffffffffffff811615610515576040517f70a0823100000000000000000000000000000000000000000000000000000000815273ffffffffffffffffffffffffffffffffffffffff7f0000000000000000000000000000000000000000000000000000000000000000811660048301528416906370a0823190602401602060405180830381865afa1580156104ec573d6000803e3d6000fd5b505050506040513d601f19601f8201168201806040525081019061051091906115b7565b610518565b60005b9392505050565b3373ffffffffffffffffffffffffffffffffffffffff7f000000000000000000000000000000000000000000000000000000000000000016146105be576040517f08c379a000000000000000000000000000000000000000000000000000000000815260206004820152601f60248201527f652f666c6173682d6c6f616e2f6f6e2d64656665727265642d63616c6c6572006044820152606401610246565b6000806000806000858060200190518101906105da91906115e0565b600080547fffffffffffffffffffffffffffffffffffffffffffffffffffffffffffffff0016600117905593985091965094509250905061061e858585858561076a565b610626610dcb565b505050505050565b6040517f8948874900000000000000000000000000000000000000000000000000000000815273ffffffffffffffffffffffffffffffffffffffff838116600483015260009182917f00000000000000000000000000000000000000000000000000000000000000001690638948874990602401602060405180830381865afa1580156106bf573d6000803e3d6000fd5b505050506040513d601f19601f820116820180604052508101906106e39190611461565b73ffffffffffffffffffffffffffffffffffffffff161415610761576040517f08c379a000000000000000000000000000000000000000000000000000000000815260206004820152601e60248201527f652f666c6173682d6c6f616e2f756e737570706f727465642d746f6b656e00006044820152606401610246565b50600092915050565b6040517f1b30058200000000000000000000000000000000000000000000000000000000815273ffffffffffffffffffffffffffffffffffffffff85811660048301526000917f000000000000000000000000000000000000000000000000000000000000000090911690631b30058290602401602060405180830381865afa1580156107fb573d6000803e3d6000fd5b505050506040513d601f19601f8201168201806040525081019061081f9190611461565b6040517f0ecbcdab000000000000000000000000000000000000000000000000000000008152600060048201526024810186905290915073ffffffffffffffffffffffffffffffffffffffff821690630ecbcdab90604401600060405180830381600087803b15801561089157600080fd5b505af11580156108a5573d6000803e3d6000fd5b505050506108b4858786610f87565b6040517f23e30c8b0000000000000000000000000000000000000000000000000000000081527f439148f0bbc682ca079e46d6e2c2f0c1e3b820f1a291b069d8882abf8cf18dd99073ffffffffffffffffffffffffffffffffffffffff8816906323e30c8b906109319086908a908a906000908b9060040161169a565b6020604051808303816000875af1158015610950573d6000803e3d6000fd5b505050506040513d601f19601f8201168201806040525081019061097491906115b7565b146109db576040517f08c379a000000000000000000000000000000000000000000000000000000000815260206004820152601560248201527f652f666c6173682d6c6f616e2f63616c6c6261636b00000000000000000000006044820152606401610246565b6109f18587306109ec600089611719565b6110c3565b6040517f70a08231000000000000000000000000000000000000000000000000000000008152306004820152849073ffffffffffffffffffffffffffffffffffffffff8716906370a0823190602401602060405180830381865afa158015610a5d573d6000803e3d6000fd5b505050506040513d601f19601f82011682018060405250810190610a8191906115b7565b14610ae8576040517f08c379a000000000000000000000000000000000000000000000000000000000815260206004820152601860248201527f652f666c6173682d6c6f616e2f70756c6c2d616d6f756e7400000000000000006044820152606401610246565b6040517fdd62ed3e00000000000000000000000000000000000000000000000000000000815230600482015273ffffffffffffffffffffffffffffffffffffffff7f0000000000000000000000000000000000000000000000000000000000000000811660248301526000919087169063dd62ed3e90604401602060405180830381865afa158015610b7e573d6000803e3d6000fd5b505050506040513d601f19601f82011682018060405250810190610ba291906115b7565b9050610baf600086611719565b811015610d3b57604080517f000000000000000000000000000000000000000000000000000000000000000073ffffffffffffffffffffffffffffffffffffffff90811660248301527fffffffffffffffffffffffffffffffffffffffffffffffffffffffffffffffff60448084019190915283518084039091018152606490920183526020820180517bffffffffffffffffffffffffffffffffffffffffffffffffffffffff167f095ea7b3000000000000000000000000000000000000000000000000000000001790529151600092891691610c8c91611731565b6000604051808303816000865af19150503d8060008114610cc9576040519150601f19603f3d011682016040523d82523d6000602084013e610cce565b606091505b5050905080610d39576040517f08c379a000000000000000000000000000000000000000000000000000000000815260206004820152601460248201527f652f666c6173682d6c6f616e2f617070726f76650000000000000000000000006044820152606401610246565b505b6040517fd8aed145000000000000000000000000000000000000000000000000000000008152600060048201526024810186905273ffffffffffffffffffffffffffffffffffffffff83169063d8aed14590604401600060405180830381600087803b158015610daa57600080fd5b505af1158015610dbe573d6000803e3d6000fd5b5050505050505050505050565b6040517f8ccb720b0000000000000000000000000000000000000000000000000000000081523060048201526000907f000000000000000000000000000000000000000000000000000000000000000073ffffffffffffffffffffffffffffffffffffffff1690638ccb720b90602401600060405180830381865afa158015610e58573d6000803e3d6000fd5b505050506040513d6000823e601f3d9081017fffffffffffffffffffffffffffffffffffffffffffffffffffffffffffffffe0168201604052610e9e919081019061174d565b905060005b8151811015610f83577f000000000000000000000000000000000000000000000000000000000000000073ffffffffffffffffffffffffffffffffffffffff1663c8a5fba36000848481518110610efc57610efc6117ff565b60200260200101516040518363ffffffff1660e01b8152600401610f4092919091825273ffffffffffffffffffffffffffffffffffffffff16602082015260400190565b600060405180830381600087803b158015610f5a57600080fd5b505af1158015610f6e573d6000803e3d6000fd5b5050505080610f7c9061182e565b9050610ea3565b5050565b6040805173ffffffffffffffffffffffffffffffffffffffff8481166024830152604480830185905283518084039091018152606490920183526020820180517bffffffffffffffffffffffffffffffffffffffffffffffffffffffff167fa9059cbb00000000000000000000000000000000000000000000000000000000179052915160009283929087169161101e9190611731565b6000604051808303816000865af19150503d806000811461105b576040519150601f19603f3d011682016040523d82523d6000602084013e611060565b606091505b509150915081801561108a57508051158061108a57508080602001905181019061108a9190611867565b8190610626576040517f08c379a00000000000000000000000000000000000000000000000000000000081526004016102469190611889565b6040805173ffffffffffffffffffffffffffffffffffffffff85811660248301528481166044830152606480830185905283518084039091018152608490920183526020820180517bffffffffffffffffffffffffffffffffffffffffffffffffffffffff167f23b872dd0000000000000000000000000000000000000000000000000000000017905291516000928392908816916111629190611731565b6000604051808303816000865af19150503d806000811461119f576040519150601f19603f3d011682016040523d82523d6000602084013e6111a4565b606091505b50915091508180156111ce5750805115806111ce5750808060200190518101906111ce9190611867565b8190611207576040517f08c379a00000000000000000000000000000000000000000000000000000000081526004016102469190611889565b50505050505050565b73ffffffffffffffffffffffffffffffffffffffff8116811461123257600080fd5b50565b60008060008060006080868803121561124d57600080fd5b853561125881611210565b9450602086013561126881611210565b935060408601359250606086013567ffffffffffffffff8082111561128c57600080fd5b818801915088601f8301126112a057600080fd5b8135818111156112af57600080fd5b8960208285010111156112c157600080fd5b9699959850939650602001949392505050565b6000602082840312156112e657600080fd5b813561051881611210565b7f4e487b7100000000000000000000000000000000000000000000000000000000600052604160045260246000fd5b604051601f82017fffffffffffffffffffffffffffffffffffffffffffffffffffffffffffffffe016810167ffffffffffffffff81118282101715611367576113676112f1565b604052919050565b600067ffffffffffffffff821115611389576113896112f1565b50601f017fffffffffffffffffffffffffffffffffffffffffffffffffffffffffffffffe01660200190565b6000602082840312156113c757600080fd5b813567ffffffffffffffff8111156113de57600080fd5b8201601f810184136113ef57600080fd5b80356114026113fd8261136f565b611320565b81815285602083850101111561141757600080fd5b81602084016020830137600091810160200191909152949350505050565b6000806040838503121561144857600080fd5b823561145381611210565b946020939093013593505050565b60006020828403121561147357600080fd5b815161051881611210565b600073ffffffffffffffffffffffffffffffffffffffff8089168352808816602084015286604084015260a060608401528460a0840152848660c0850137600060c0868501015260c07fffffffffffffffffffffffffffffffffffffffffffffffffffffffffffffffe0601f8701168401019150808416608084015250979650505050505050565b60005b83811015611521578181015183820152602001611509565b83811115611530576000848401525b50505050565b6000815180845261154e816020860160208601611506565b601f017fffffffffffffffffffffffffffffffffffffffffffffffffffffffffffffffe0169290920160200192915050565b73ffffffffffffffffffffffffffffffffffffffff831681526040602082015260006115af6040830184611536565b949350505050565b6000602082840312156115c957600080fd5b5051919050565b80516115db81611210565b919050565b600080600080600060a086880312156115f857600080fd5b855161160381611210565b602087015190955061161481611210565b60408701516060880151919550935067ffffffffffffffff81111561163857600080fd5b8601601f8101881361164957600080fd5b80516116576113fd8261136f565b81815289602083850101111561166c57600080fd5b61167d826020830160208601611506565b935061168e915050608087016115d0565b90509295509295909350565b600073ffffffffffffffffffffffffffffffffffffffff808816835280871660208401525084604083015283606083015260a060808301526116df60a0830184611536565b979650505050505050565b7f4e487b7100000000000000000000000000000000000000000000000000000000600052601160045260246000fd5b6000821982111561172c5761172c6116ea565b500190565b60008251611743818460208701611506565b9190910192915050565b6000602080838503121561176057600080fd5b825167ffffffffffffffff8082111561177857600080fd5b818501915085601f83011261178c57600080fd5b81518181111561179e5761179e6112f1565b8060051b91506117af848301611320565b81815291830184019184810190888411156117c957600080fd5b938501935b838510156117f357845192506117e383611210565b82825293850193908501906117ce565b98975050505050505050565b7f4e487b7100000000000000000000000000000000000000000000000000000000600052603260045260246000fd5b60007fffffffffffffffffffffffffffffffffffffffffffffffffffffffffffffffff821415611860576118606116ea565b5060010190565b60006020828403121561187957600080fd5b8151801515811461051857600080fd5b602081526000610518602083018461153656fea264697066735822122077f8131db3f47b81a0b5f0da3189a737d1bf76b15fa107b76fcdc2c5839429c964736f6c634300080a0033",
  "linkReferences": {},
  "deployedLinkReferences": {}
}