{
  "_format": "hh-sol-artifact-1",
  "contractName": "PToken",
  "sourceName": "contracts/PToken.sol",
  "abi": [
    {
      "inputs": [
        {
          "internalType": "address",
          "name": "euler_",
          "type": "address"
        },
        {
          "internalType": "address",
          "name": "underlying_",
          "type": "address"
        }
      ],
      "stateMutability": "nonpayable",
      "type": "constructor"
    },
    {
      "anonymous": false,
      "inputs": [
        {
          "indexed": true,
          "internalType": "address",
          "name": "owner",
          "type": "address"
        },
        {
          "indexed": true,
          "internalType": "address",
          "name": "spender",
          "type": "address"
        },
        {
          "indexed": false,
          "internalType": "uint256",
          "name": "value",
          "type": "uint256"
        }
      ],
      "name": "Approval",
      "type": "event"
    },
    {
      "anonymous": false,
      "inputs": [
        {
          "indexed": true,
          "internalType": "address",
          "name": "from",
          "type": "address"
        },
        {
          "indexed": true,
          "internalType": "address",
          "name": "to",
          "type": "address"
        },
        {
          "indexed": false,
          "internalType": "uint256",
          "name": "value",
          "type": "uint256"
        }
      ],
      "name": "Transfer",
      "type": "event"
    },
    {
      "inputs": [
        {
          "internalType": "address",
          "name": "holder",
          "type": "address"
        },
        {
          "internalType": "address",
          "name": "spender",
          "type": "address"
        }
      ],
      "name": "allowance",
      "outputs": [
        {
          "internalType": "uint256",
          "name": "",
          "type": "uint256"
        }
      ],
      "stateMutability": "view",
      "type": "function"
    },
    {
      "inputs": [
        {
          "internalType": "address",
          "name": "spender",
          "type": "address"
        },
        {
          "internalType": "uint256",
          "name": "amount",
          "type": "uint256"
        }
      ],
      "name": "approve",
      "outputs": [
        {
          "internalType": "bool",
          "name": "",
          "type": "bool"
        }
      ],
      "stateMutability": "nonpayable",
      "type": "function"
    },
    {
      "inputs": [
        {
          "internalType": "address",
          "name": "who",
          "type": "address"
        }
      ],
      "name": "balanceOf",
      "outputs": [
        {
          "internalType": "uint256",
          "name": "",
          "type": "uint256"
        }
      ],
      "stateMutability": "view",
      "type": "function"
    },
    {
      "inputs": [
        {
          "internalType": "address",
          "name": "who",
          "type": "address"
        }
      ],
      "name": "claimSurplus",
      "outputs": [],
      "stateMutability": "nonpayable",
      "type": "function"
    },
    {
      "inputs": [],
      "name": "decimals",
      "outputs": [
        {
          "internalType": "uint8",
          "name": "",
          "type": "uint8"
        }
      ],
      "stateMutability": "view",
      "type": "function"
    },
    {
      "inputs": [
        {
          "internalType": "address",
          "name": "who",
          "type": "address"
        },
        {
          "internalType": "uint256",
          "name": "amount",
          "type": "uint256"
        }
      ],
      "name": "forceUnwrap",
      "outputs": [],
      "stateMutability": "nonpayable",
      "type": "function"
    },
    {
      "inputs": [],
      "name": "name",
      "outputs": [
        {
          "internalType": "string",
          "name": "",
          "type": "string"
        }
      ],
      "stateMutability": "view",
      "type": "function"
    },
    {
      "inputs": [],
      "name": "symbol",
      "outputs": [
        {
          "internalType": "string",
          "name": "",
          "type": "string"
        }
      ],
      "stateMutability": "view",
      "type": "function"
    },
    {
      "inputs": [],
      "name": "totalSupply",
      "outputs": [
        {
          "internalType": "uint256",
          "name": "",
          "type": "uint256"
        }
      ],
      "stateMutability": "view",
      "type": "function"
    },
    {
      "inputs": [
        {
          "internalType": "address",
          "name": "recipient",
          "type": "address"
        },
        {
          "internalType": "uint256",
          "name": "amount",
          "type": "uint256"
        }
      ],
      "name": "transfer",
      "outputs": [
        {
          "internalType": "bool",
          "name": "",
          "type": "bool"
        }
      ],
      "stateMutability": "nonpayable",
      "type": "function"
    },
    {
      "inputs": [
        {
          "internalType": "address",
          "name": "from",
          "type": "address"
        },
        {
          "internalType": "address",
          "name": "recipient",
          "type": "address"
        },
        {
          "internalType": "uint256",
          "name": "amount",
          "type": "uint256"
        }
      ],
      "name": "transferFrom",
      "outputs": [
        {
          "internalType": "bool",
          "name": "",
          "type": "bool"
        }
      ],
      "stateMutability": "nonpayable",
      "type": "function"
    },
    {
      "inputs": [],
      "name": "underlying",
      "outputs": [
        {
          "internalType": "address",
          "name": "",
          "type": "address"
        }
      ],
      "stateMutability": "view",
      "type": "function"
    },
    {
      "inputs": [
        {
          "internalType": "uint256",
          "name": "amount",
          "type": "uint256"
        }
      ],
      "name": "unwrap",
      "outputs": [],
      "stateMutability": "nonpayable",
      "type": "function"
    },
    {
      "inputs": [
        {
          "internalType": "uint256",
          "name": "amount",
          "type": "uint256"
        }
      ],
      "name": "wrap",
      "outputs": [],
      "stateMutability": "nonpayable",
      "type": "function"
    }
  ],
  "bytecode": "0x60c060405234801561001057600080fd5b5060405161147a38038061147a83398101604081905261002f91610062565b6001600160a01b039182166080521660a052610095565b80516001600160a01b038116811461005d57600080fd5b919050565b6000806040838503121561007557600080fd5b61007e83610046565b915061008c60208401610046565b90509250929050565b60805160a05161138f6100eb6000396000818161019e0152818161029c01528181610818015281816108ae015281816109b201528181610b670152610c7d0152600081816104000152610562015261138f6000f3fe608060405234801561001057600080fd5b50600436106100ea5760003560e01c806370a082311161008c578063b77dfe0311610066578063b77dfe0314610219578063dd62ed3e1461022c578063de0e9a3e14610272578063ea598cb01461028557600080fd5b806370a08231146101c857806395d89b41146101fe578063a9059cbb1461020657600080fd5b80631ed575db116100c85780631ed575db1461014257806323b872dd14610157578063313ce5671461016a5780636f307dc31461018457600080fd5b806306fdde03146100ef578063095ea7b31461010d57806318160ddd14610130575b600080fd5b6100f7610298565b6040516101049190610fb6565b60405180910390f35b61012061011b366004611030565b61036f565b6040519015158152602001610104565b6002545b604051908152602001610104565b610155610150366004611030565b6103e8565b005b61012061016536600461105a565b61049a565b610172610814565b60405160ff9091168152602001610104565b60405173ffffffffffffffffffffffffffffffffffffffff7f0000000000000000000000000000000000000000000000000000000000000000168152602001610104565b6101346101d6366004611096565b73ffffffffffffffffffffffffffffffffffffffff1660009081526020819052604090205490565b6100f76108aa565b610120610214366004611030565b61096d565b610155610227366004611096565b610981565b61013461023a3660046110b1565b73ffffffffffffffffffffffffffffffffffffffff918216600090815260016020908152604080832093909416825291909152205490565b6101556102803660046110e4565b610b55565b6101556102933660046110e4565b610b62565b60607f000000000000000000000000000000000000000000000000000000000000000073ffffffffffffffffffffffffffffffffffffffff166306fdde036040518163ffffffff1660e01b8152600401600060405180830381865afa158015610305573d6000803e3d6000fd5b505050506040513d6000823e601f3d9081017fffffffffffffffffffffffffffffffffffffffffffffffffffffffffffffffe016820160405261034b919081019061112c565b60405160200161035b91906111f7565b604051602081830303815290604052905090565b33600081815260016020908152604080832073ffffffffffffffffffffffffffffffffffffffff8716808552925280832085905551919290917f8c5be1e5ebec7d5bd14f71427d1e84f3dd0314c0f7b2291e5b200ac8c7c3b925906103d79086815260200190565b60405180910390a350600192915050565b3373ffffffffffffffffffffffffffffffffffffffff7f0000000000000000000000000000000000000000000000000000000000000000161461048c576040517f08c379a000000000000000000000000000000000000000000000000000000000815260206004820152601160248201527f7065726d697373696f6e2064656e69656400000000000000000000000000000060448201526064015b60405180910390fd5b6104968282610b97565b5050565b73ffffffffffffffffffffffffffffffffffffffff8316600090815260208190526040812054821115610529576040517f08c379a000000000000000000000000000000000000000000000000000000000815260206004820152601460248201527f696e73756666696369656e742062616c616e63650000000000000000000000006044820152606401610483565b73ffffffffffffffffffffffffffffffffffffffff8416331480159061058557503373ffffffffffffffffffffffffffffffffffffffff7f00000000000000000000000000000000000000000000000000000000000000001614155b80156105e1575073ffffffffffffffffffffffffffffffffffffffff841660009081526001602090815260408083203384529091529020547fffffffffffffffffffffffffffffffffffffffffffffffffffffffffffffffff14155b1561072d5773ffffffffffffffffffffffffffffffffffffffff84166000908152600160209081526040808320338452909152902054821115610680576040517f08c379a000000000000000000000000000000000000000000000000000000000815260206004820152601660248201527f696e73756666696369656e7420616c6c6f77616e6365000000000000000000006044820152606401610483565b73ffffffffffffffffffffffffffffffffffffffff84166000908152600160209081526040808320338452909152812080548492906106c090849061126b565b909155505073ffffffffffffffffffffffffffffffffffffffff8416600081815260016020908152604080832033808552908352928190205490519081529192917f8c5be1e5ebec7d5bd14f71427d1e84f3dd0314c0f7b2291e5b200ac8c7c3b925910160405180910390a35b73ffffffffffffffffffffffffffffffffffffffff84166000908152602081905260408120805484929061076290849061126b565b909155505073ffffffffffffffffffffffffffffffffffffffff83166000908152602081905260408120805484929061079c908490611282565b925050819055508273ffffffffffffffffffffffffffffffffffffffff168473ffffffffffffffffffffffffffffffffffffffff167fddf252ad1be2c89b69c2b068fc378daa952ba7f163c4a11628f55a4df523b3ef8460405161080291815260200190565b60405180910390a35060019392505050565b60007f000000000000000000000000000000000000000000000000000000000000000073ffffffffffffffffffffffffffffffffffffffff1663313ce5676040518163ffffffff1660e01b8152600401602060405180830381865afa158015610881573d6000803e3d6000fd5b505050506040513d601f19601f820116820180604052508101906108a5919061129a565b905090565b60607f000000000000000000000000000000000000000000000000000000000000000073ffffffffffffffffffffffffffffffffffffffff166395d89b416040518163ffffffff1660e01b8152600401600060405180830381865afa158015610917573d6000803e3d6000fd5b505050506040513d6000823e601f3d9081017fffffffffffffffffffffffffffffffffffffffffffffffffffffffffffffffe016820160405261095d919081019061112c565b60405160200161035b91906112bd565b600061097a33848461049a565b9392505050565b6040517f70a082310000000000000000000000000000000000000000000000000000000081523060048201526000907f000000000000000000000000000000000000000000000000000000000000000073ffffffffffffffffffffffffffffffffffffffff16906370a0823190602401602060405180830381865afa158015610a0e573d6000803e3d6000fd5b505050506040513d601f19601f82011682018060405250810190610a329190611302565b90506002548111610a9f576040517f08c379a000000000000000000000000000000000000000000000000000000000815260206004820152601b60248201527f6e6f20737572706c75732062616c616e636520746f20636c61696d00000000006044820152606401610483565b600060025482610aaf919061126b565b90508060026000828254610ac39190611282565b909155505073ffffffffffffffffffffffffffffffffffffffff831660009081526020819052604081208054839290610afd908490611282565b909155505060405181815273ffffffffffffffffffffffffffffffffffffffff8416906000907fddf252ad1be2c89b69c2b068fc378daa952ba7f163c4a11628f55a4df523b3ef9060200160405180910390a3505050565b610b5f3382610b97565b50565b610b8e7f0000000000000000000000000000000000000000000000000000000000000000333084610cf5565b610b5f33610981565b73ffffffffffffffffffffffffffffffffffffffff8216600090815260208190526040902054811115610c26576040517f08c379a000000000000000000000000000000000000000000000000000000000815260206004820152601460248201527f696e73756666696369656e742062616c616e63650000000000000000000000006044820152606401610483565b8060026000828254610c38919061126b565b909155505073ffffffffffffffffffffffffffffffffffffffff821660009081526020819052604081208054839290610c7290849061126b565b90915550610ca390507f00000000000000000000000000000000000000000000000000000000000000008383610e42565b60405181815260009073ffffffffffffffffffffffffffffffffffffffff8416907fddf252ad1be2c89b69c2b068fc378daa952ba7f163c4a11628f55a4df523b3ef9060200160405180910390a35050565b6040805173ffffffffffffffffffffffffffffffffffffffff85811660248301528481166044830152606480830185905283518084039091018152608490920183526020820180517bffffffffffffffffffffffffffffffffffffffffffffffffffffffff167f23b872dd000000000000000000000000000000000000000000000000000000001790529151600092839290881691610d94919061131b565b6000604051808303816000865af19150503d8060008114610dd1576040519150601f19603f3d011682016040523d82523d6000602084013e610dd6565b606091505b5091509150818015610e00575080511580610e00575080806020019051810190610e009190611337565b8190610e39576040517f08c379a00000000000000000000000000000000000000000000000000000000081526004016104839190610fb6565b50505050505050565b6040805173ffffffffffffffffffffffffffffffffffffffff8481166024830152604480830185905283518084039091018152606490920183526020820180517bffffffffffffffffffffffffffffffffffffffffffffffffffffffff167fa9059cbb000000000000000000000000000000000000000000000000000000001790529151600092839290871691610ed9919061131b565b6000604051808303816000865af19150503d8060008114610f16576040519150601f19603f3d011682016040523d82523d6000602084013e610f1b565b606091505b5091509150818015610f45575080511580610f45575080806020019051810190610f459190611337565b8190610f7e576040517f08c379a00000000000000000000000000000000000000000000000000000000081526004016104839190610fb6565b505050505050565b60005b83811015610fa1578181015183820152602001610f89565b83811115610fb0576000848401525b50505050565b6020815260008251806020840152610fd5816040850160208701610f86565b601f017fffffffffffffffffffffffffffffffffffffffffffffffffffffffffffffffe0169190910160400192915050565b803573ffffffffffffffffffffffffffffffffffffffff8116811461102b57600080fd5b919050565b6000806040838503121561104357600080fd5b61104c83611007565b946020939093013593505050565b60008060006060848603121561106f57600080fd5b61107884611007565b925061108660208501611007565b9150604084013590509250925092565b6000602082840312156110a857600080fd5b61097a82611007565b600080604083850312156110c457600080fd5b6110cd83611007565b91506110db60208401611007565b90509250929050565b6000602082840312156110f657600080fd5b5035919050565b7f4e487b7100000000000000000000000000000000000000000000000000000000600052604160045260246000fd5b60006020828403121561113e57600080fd5b815167ffffffffffffffff8082111561115657600080fd5b818401915084601f83011261116a57600080fd5b81518181111561117c5761117c6110fd565b604051601f82017fffffffffffffffffffffffffffffffffffffffffffffffffffffffffffffffe0908116603f011681019083821181831017156111c2576111c26110fd565b816040528281528760208487010111156111db57600080fd5b6111ec836020830160208801610f86565b979650505050505050565b7f45756c65722050726f746563746564200000000000000000000000000000000081526000825161122f816010850160208701610f86565b9190910160100192915050565b7f4e487b7100000000000000000000000000000000000000000000000000000000600052601160045260246000fd5b60008282101561127d5761127d61123c565b500390565b600082198211156112955761129561123c565b500190565b6000602082840312156112ac57600080fd5b815160ff8116811461097a57600080fd5b7f70000000000000000000000000000000000000000000000000000000000000008152600082516112f5816001850160208701610f86565b9190910160010192915050565b60006020828403121561131457600080fd5b5051919050565b6000825161132d818460208701610f86565b9190910192915050565b60006020828403121561134957600080fd5b8151801515811461097a57600080fdfea2646970667358221220321885289a5e13a4a38fa627d95b9d1c350a9bffc0432aee3d7d29d2dcd7209f64736f6c634300080a0033",
  "linkReferences": {},
  "deployedLinkReferences": {}
}