{
  "_format": "hh-sol-artifact-1",
  "contractName": "Swap",
  "sourceName": "contracts/modules/Swap.sol",
  "abi": [
    {
      "inputs": [
        {
          "internalType": "bytes32",
          "name": "moduleGitCommit_",
          "type": "bytes32"
        },
        {
          "internalType": "address",
          "name": "uniswapRouter_",
          "type": "address"
        },
        {
          "internalType": "address",
          "name": "oneInch_",
          "type": "address"
        }
      ],
      "stateMutability": "nonpayable",
      "type": "constructor"
    },
    {
      "anonymous": false,
      "inputs": [
        {
          "indexed": true,
          "internalType": "address",
          "name": "underlying",
          "type": "address"
        },
        {
          "indexed": false,
          "internalType": "uint256",
          "name": "totalBalances",
          "type": "uint256"
        },
        {
          "indexed": false,
          "internalType": "uint256",
          "name": "totalBorrows",
          "type": "uint256"
        },
        {
          "indexed": false,
          "internalType": "uint96",
          "name": "reserveBalance",
          "type": "uint96"
        },
        {
          "indexed": false,
          "internalType": "uint256",
          "name": "poolSize",
          "type": "uint256"
        },
        {
          "indexed": false,
          "internalType": "uint256",
          "name": "interestAccumulator",
          "type": "uint256"
        },
        {
          "indexed": false,
          "internalType": "int96",
          "name": "interestRate",
          "type": "int96"
        },
        {
          "indexed": false,
          "internalType": "uint256",
          "name": "timestamp",
          "type": "uint256"
        }
      ],
      "name": "AssetStatus",
      "type": "event"
    },
    {
      "anonymous": false,
      "inputs": [
        {
          "indexed": true,
          "internalType": "address",
          "name": "underlying",
          "type": "address"
        },
        {
          "indexed": true,
          "internalType": "address",
          "name": "account",
          "type": "address"
        },
        {
          "indexed": false,
          "internalType": "uint256",
          "name": "amount",
          "type": "uint256"
        }
      ],
      "name": "Borrow",
      "type": "event"
    },
    {
      "anonymous": false,
      "inputs": [
        {
          "indexed": true,
          "internalType": "address",
          "name": "account",
          "type": "address"
        },
        {
          "indexed": true,
          "internalType": "address",
          "name": "delegate",
          "type": "address"
        }
      ],
      "name": "DelegateAverageLiquidity",
      "type": "event"
    },
    {
      "anonymous": false,
      "inputs": [
        {
          "indexed": true,
          "internalType": "address",
          "name": "underlying",
          "type": "address"
        },
        {
          "indexed": true,
          "internalType": "address",
          "name": "account",
          "type": "address"
        },
        {
          "indexed": false,
          "internalType": "uint256",
          "name": "amount",
          "type": "uint256"
        }
      ],
      "name": "Deposit",
      "type": "event"
    },
    {
      "anonymous": false,
      "inputs": [
        {
          "indexed": true,
          "internalType": "address",
          "name": "underlying",
          "type": "address"
        },
        {
          "indexed": true,
          "internalType": "address",
          "name": "account",
          "type": "address"
        }
      ],
      "name": "EnterMarket",
      "type": "event"
    },
    {
      "anonymous": false,
      "inputs": [
        {
          "indexed": true,
          "internalType": "address",
          "name": "underlying",
          "type": "address"
        },
        {
          "indexed": true,
          "internalType": "address",
          "name": "account",
          "type": "address"
        }
      ],
      "name": "ExitMarket",
      "type": "event"
    },
    {
      "anonymous": false,
      "inputs": [],
      "name": "Genesis",
      "type": "event"
    },
    {
      "anonymous": false,
      "inputs": [
        {
          "indexed": true,
          "internalType": "address",
          "name": "underlying",
          "type": "address"
        },
        {
          "indexed": true,
          "internalType": "address",
          "name": "recipient",
          "type": "address"
        },
        {
          "indexed": false,
          "internalType": "uint256",
          "name": "amount",
          "type": "uint256"
        }
      ],
      "name": "GovConvertReserves",
      "type": "event"
    },
    {
      "anonymous": false,
      "inputs": [
        {
          "indexed": true,
          "internalType": "address",
          "name": "underlying",
          "type": "address"
        },
        {
          "components": [
            {
              "internalType": "address",
              "name": "eTokenAddress",
              "type": "address"
            },
            {
              "internalType": "bool",
              "name": "borrowIsolated",
              "type": "bool"
            },
            {
              "internalType": "uint32",
              "name": "collateralFactor",
              "type": "uint32"
            },
            {
              "internalType": "uint32",
              "name": "borrowFactor",
              "type": "uint32"
            },
            {
              "internalType": "uint24",
              "name": "twapWindow",
              "type": "uint24"
            }
          ],
          "indexed": false,
          "internalType": "struct Storage.AssetConfig",
          "name": "newConfig",
          "type": "tuple"
        }
      ],
      "name": "GovSetAssetConfig",
      "type": "event"
    },
    {
      "anonymous": false,
      "inputs": [
        {
          "indexed": true,
          "internalType": "address",
          "name": "underlying",
          "type": "address"
        },
        {
          "indexed": false,
          "internalType": "uint256",
          "name": "interestRateModel",
          "type": "uint256"
        },
        {
          "indexed": false,
          "internalType": "bytes",
          "name": "resetParams",
          "type": "bytes"
        }
      ],
      "name": "GovSetIRM",
      "type": "event"
    },
    {
      "anonymous": false,
      "inputs": [
        {
          "indexed": true,
          "internalType": "address",
          "name": "underlying",
          "type": "address"
        },
        {
          "indexed": false,
          "internalType": "uint16",
          "name": "newPricingType",
          "type": "uint16"
        },
        {
          "indexed": false,
          "internalType": "uint32",
          "name": "newPricingParameter",
          "type": "uint32"
        }
      ],
      "name": "GovSetPricingConfig",
      "type": "event"
    },
    {
      "anonymous": false,
      "inputs": [
        {
          "indexed": true,
          "internalType": "address",
          "name": "underlying",
          "type": "address"
        },
        {
          "indexed": false,
          "internalType": "uint32",
          "name": "newReserveFee",
          "type": "uint32"
        }
      ],
      "name": "GovSetReserveFee",
      "type": "event"
    },
    {
      "anonymous": false,
      "inputs": [
        {
          "indexed": true,
          "internalType": "uint256",
          "name": "moduleId",
          "type": "uint256"
        },
        {
          "indexed": true,
          "internalType": "address",
          "name": "moduleImpl",
          "type": "address"
        },
        {
          "indexed": false,
          "internalType": "bytes32",
          "name": "moduleGitCommit",
          "type": "bytes32"
        }
      ],
      "name": "InstallerInstallModule",
      "type": "event"
    },
    {
      "anonymous": false,
      "inputs": [
        {
          "indexed": true,
          "internalType": "address",
          "name": "newGovernorAdmin",
          "type": "address"
        }
      ],
      "name": "InstallerSetGovernorAdmin",
      "type": "event"
    },
    {
      "anonymous": false,
      "inputs": [
        {
          "indexed": true,
          "internalType": "address",
          "name": "newUpgradeAdmin",
          "type": "address"
        }
      ],
      "name": "InstallerSetUpgradeAdmin",
      "type": "event"
    },
    {
      "anonymous": false,
      "inputs": [
        {
          "indexed": true,
          "internalType": "address",
          "name": "liquidator",
          "type": "address"
        },
        {
          "indexed": true,
          "internalType": "address",
          "name": "violator",
          "type": "address"
        },
        {
          "indexed": true,
          "internalType": "address",
          "name": "underlying",
          "type": "address"
        },
        {
          "indexed": false,
          "internalType": "address",
          "name": "collateral",
          "type": "address"
        },
        {
          "indexed": false,
          "internalType": "uint256",
          "name": "repay",
          "type": "uint256"
        },
        {
          "indexed": false,
          "internalType": "uint256",
          "name": "yield",
          "type": "uint256"
        },
        {
          "indexed": false,
          "internalType": "uint256",
          "name": "healthScore",
          "type": "uint256"
        },
        {
          "indexed": false,
          "internalType": "uint256",
          "name": "baseDiscount",
          "type": "uint256"
        },
        {
          "indexed": false,
          "internalType": "uint256",
          "name": "discount",
          "type": "uint256"
        }
      ],
      "name": "Liquidation",
      "type": "event"
    },
    {
      "anonymous": false,
      "inputs": [
        {
          "indexed": true,
          "internalType": "address",
          "name": "underlying",
          "type": "address"
        },
        {
          "indexed": true,
          "internalType": "address",
          "name": "eToken",
          "type": "address"
        },
        {
          "indexed": true,
          "internalType": "address",
          "name": "dToken",
          "type": "address"
        }
      ],
      "name": "MarketActivated",
      "type": "event"
    },
    {
      "anonymous": false,
      "inputs": [
        {
          "indexed": true,
          "internalType": "address",
          "name": "underlying",
          "type": "address"
        },
        {
          "indexed": true,
          "internalType": "address",
          "name": "pToken",
          "type": "address"
        }
      ],
      "name": "PTokenActivated",
      "type": "event"
    },
    {
      "anonymous": false,
      "inputs": [
        {
          "indexed": true,
          "internalType": "address",
          "name": "underlying",
          "type": "address"
        },
        {
          "indexed": true,
          "internalType": "address",
          "name": "account",
          "type": "address"
        },
        {
          "indexed": false,
          "internalType": "uint256",
          "name": "amount",
          "type": "uint256"
        }
      ],
      "name": "PTokenUnWrap",
      "type": "event"
    },
    {
      "anonymous": false,
      "inputs": [
        {
          "indexed": true,
          "internalType": "address",
          "name": "underlying",
          "type": "address"
        },
        {
          "indexed": true,
          "internalType": "address",
          "name": "account",
          "type": "address"
        },
        {
          "indexed": false,
          "internalType": "uint256",
          "name": "amount",
          "type": "uint256"
        }
      ],
      "name": "PTokenWrap",
      "type": "event"
    },
    {
      "anonymous": false,
      "inputs": [
        {
          "indexed": true,
          "internalType": "address",
          "name": "proxy",
          "type": "address"
        },
        {
          "indexed": false,
          "internalType": "uint256",
          "name": "moduleId",
          "type": "uint256"
        }
      ],
      "name": "ProxyCreated",
      "type": "event"
    },
    {
      "anonymous": false,
      "inputs": [
        {
          "indexed": true,
          "internalType": "address",
          "name": "underlying",
          "type": "address"
        },
        {
          "indexed": true,
          "internalType": "address",
          "name": "account",
          "type": "address"
        },
        {
          "indexed": false,
          "internalType": "uint256",
          "name": "amount",
          "type": "uint256"
        }
      ],
      "name": "Repay",
      "type": "event"
    },
    {
      "anonymous": false,
      "inputs": [
        {
          "indexed": true,
          "internalType": "address",
          "name": "account",
          "type": "address"
        },
        {
          "indexed": false,
          "internalType": "uint256",
          "name": "amount",
          "type": "uint256"
        }
      ],
      "name": "RequestBorrow",
      "type": "event"
    },
    {
      "anonymous": false,
      "inputs": [
        {
          "indexed": true,
          "internalType": "address",
          "name": "account",
          "type": "address"
        },
        {
          "indexed": false,
          "internalType": "uint256",
          "name": "amount",
          "type": "uint256"
        }
      ],
      "name": "RequestBurn",
      "type": "event"
    },
    {
      "anonymous": false,
      "inputs": [
        {
          "indexed": true,
          "internalType": "address",
          "name": "account",
          "type": "address"
        },
        {
          "indexed": false,
          "internalType": "uint256",
          "name": "amount",
          "type": "uint256"
        }
      ],
      "name": "RequestDeposit",
      "type": "event"
    },
    {
      "anonymous": false,
      "inputs": [
        {
          "indexed": true,
          "internalType": "address",
          "name": "liquidator",
          "type": "address"
        },
        {
          "indexed": true,
          "internalType": "address",
          "name": "violator",
          "type": "address"
        },
        {
          "indexed": true,
          "internalType": "address",
          "name": "underlying",
          "type": "address"
        },
        {
          "indexed": false,
          "internalType": "address",
          "name": "collateral",
          "type": "address"
        },
        {
          "indexed": false,
          "internalType": "uint256",
          "name": "repay",
          "type": "uint256"
        },
        {
          "indexed": false,
          "internalType": "uint256",
          "name": "minYield",
          "type": "uint256"
        }
      ],
      "name": "RequestLiquidate",
      "type": "event"
    },
    {
      "anonymous": false,
      "inputs": [
        {
          "indexed": true,
          "internalType": "address",
          "name": "account",
          "type": "address"
        },
        {
          "indexed": false,
          "internalType": "uint256",
          "name": "amount",
          "type": "uint256"
        }
      ],
      "name": "RequestMint",
      "type": "event"
    },
    {
      "anonymous": false,
      "inputs": [
        {
          "indexed": true,
          "internalType": "address",
          "name": "account",
          "type": "address"
        },
        {
          "indexed": false,
          "internalType": "uint256",
          "name": "amount",
          "type": "uint256"
        }
      ],
      "name": "RequestRepay",
      "type": "event"
    },
    {
      "anonymous": false,
      "inputs": [
        {
          "indexed": true,
          "internalType": "address",
          "name": "accountIn",
          "type": "address"
        },
        {
          "indexed": true,
          "internalType": "address",
          "name": "accountOut",
          "type": "address"
        },
        {
          "indexed": true,
          "internalType": "address",
          "name": "underlyingIn",
          "type": "address"
        },
        {
          "indexed": false,
          "internalType": "address",
          "name": "underlyingOut",
          "type": "address"
        },
        {
          "indexed": false,
          "internalType": "uint256",
          "name": "amount",
          "type": "uint256"
        },
        {
          "indexed": false,
          "internalType": "uint256",
          "name": "swapType",
          "type": "uint256"
        }
      ],
      "name": "RequestSwap",
      "type": "event"
    },
    {
      "anonymous": false,
      "inputs": [
        {
          "indexed": true,
          "internalType": "address",
          "name": "from",
          "type": "address"
        },
        {
          "indexed": true,
          "internalType": "address",
          "name": "to",
          "type": "address"
        },
        {
          "indexed": false,
          "internalType": "uint256",
          "name": "amount",
          "type": "uint256"
        }
      ],
      "name": "RequestTransferDToken",
      "type": "event"
    },
    {
      "anonymous": false,
      "inputs": [
        {
          "indexed": true,
          "internalType": "address",
          "name": "from",
          "type": "address"
        },
        {
          "indexed": true,
          "internalType": "address",
          "name": "to",
          "type": "address"
        },
        {
          "indexed": false,
          "internalType": "uint256",
          "name": "amount",
          "type": "uint256"
        }
      ],
      "name": "RequestTransferEToken",
      "type": "event"
    },
    {
      "anonymous": false,
      "inputs": [
        {
          "indexed": true,
          "internalType": "address",
          "name": "account",
          "type": "address"
        },
        {
          "indexed": false,
          "internalType": "uint256",
          "name": "amount",
          "type": "uint256"
        }
      ],
      "name": "RequestWithdraw",
      "type": "event"
    },
    {
      "anonymous": false,
      "inputs": [
        {
          "indexed": true,
          "internalType": "address",
          "name": "account",
          "type": "address"
        }
      ],
      "name": "TrackAverageLiquidity",
      "type": "event"
    },
    {
      "anonymous": false,
      "inputs": [
        {
          "indexed": true,
          "internalType": "address",
          "name": "account",
          "type": "address"
        }
      ],
      "name": "UnTrackAverageLiquidity",
      "type": "event"
    },
    {
      "anonymous": false,
      "inputs": [
        {
          "indexed": true,
          "internalType": "address",
          "name": "underlying",
          "type": "address"
        },
        {
          "indexed": true,
          "internalType": "address",
          "name": "account",
          "type": "address"
        },
        {
          "indexed": false,
          "internalType": "uint256",
          "name": "amount",
          "type": "uint256"
        }
      ],
      "name": "Withdraw",
      "type": "event"
    },
    {
      "inputs": [],
      "name": "moduleGitCommit",
      "outputs": [
        {
          "internalType": "bytes32",
          "name": "",
          "type": "bytes32"
        }
      ],
      "stateMutability": "view",
      "type": "function"
    },
    {
      "inputs": [],
      "name": "moduleId",
      "outputs": [
        {
          "internalType": "uint256",
          "name": "",
          "type": "uint256"
        }
      ],
      "stateMutability": "view",
      "type": "function"
    },
    {
      "inputs": [],
      "name": "oneInch",
      "outputs": [
        {
          "internalType": "address",
          "name": "",
          "type": "address"
        }
      ],
      "stateMutability": "view",
      "type": "function"
    },
    {
      "inputs": [
        {
          "components": [
            {
              "internalType": "uint256",
              "name": "subAccountIdIn",
              "type": "uint256"
            },
            {
              "internalType": "uint256",
              "name": "subAccountIdOut",
              "type": "uint256"
            },
            {
              "internalType": "address",
              "name": "underlyingIn",
              "type": "address"
            },
            {
              "internalType": "address",
              "name": "underlyingOut",
              "type": "address"
            },
            {
              "internalType": "uint256",
              "name": "amount",
              "type": "uint256"
            },
            {
              "internalType": "uint256",
              "name": "amountOutMinimum",
              "type": "uint256"
            },
            {
              "internalType": "bytes",
              "name": "payload",
              "type": "bytes"
            }
          ],
          "internalType": "struct Swap.Swap1InchParams",
          "name": "params",
          "type": "tuple"
        }
      ],
      "name": "swap1Inch",
      "outputs": [],
      "stateMutability": "nonpayable",
      "type": "function"
    },
    {
      "inputs": [
        {
          "components": [
            {
              "internalType": "uint256",
              "name": "subAccountIdIn",
              "type": "uint256"
            },
            {
              "internalType": "uint256",
              "name": "subAccountIdOut",
              "type": "uint256"
            },
            {
              "internalType": "uint256",
              "name": "amountOut",
              "type": "uint256"
            },
            {
              "internalType": "uint256",
              "name": "amountInMaximum",
              "type": "uint256"
            },
            {
              "internalType": "uint256",
              "name": "deadline",
              "type": "uint256"
            },
            {
              "internalType": "bytes",
              "name": "path",
              "type": "bytes"
            }
          ],
          "internalType": "struct Swap.SwapUniExactOutputParams",
          "name": "params",
          "type": "tuple"
        },
        {
          "internalType": "uint256",
          "name": "targetDebt",
          "type": "uint256"
        }
      ],
      "name": "swapAndRepayUni",
      "outputs": [],
      "stateMutability": "nonpayable",
      "type": "function"
    },
    {
      "inputs": [
        {
          "components": [
            {
              "internalType": "uint256",
              "name": "subAccountIdIn",
              "type": "uint256"
            },
            {
              "internalType": "uint256",
              "name": "subAccountIdOut",
              "type": "uint256"
            },
            {
              "internalType": "address",
              "name": "underlyingIn",
              "type": "address"
            },
            {
              "internalType": "address",
              "name": "underlyingOut",
              "type": "address"
            },
            {
              "internalType": "uint256",
              "name": "amountOut",
              "type": "uint256"
            },
            {
              "internalType": "uint256",
              "name": "amountInMaximum",
              "type": "uint256"
            },
            {
              "internalType": "uint256",
              "name": "deadline",
              "type": "uint256"
            },
            {
              "internalType": "uint24",
              "name": "fee",
              "type": "uint24"
            },
            {
              "internalType": "uint160",
              "name": "sqrtPriceLimitX96",
              "type": "uint160"
            }
          ],
          "internalType": "struct Swap.SwapUniExactOutputSingleParams",
          "name": "params",
          "type": "tuple"
        },
        {
          "internalType": "uint256",
          "name": "targetDebt",
          "type": "uint256"
        }
      ],
      "name": "swapAndRepayUniSingle",
      "outputs": [],
      "stateMutability": "nonpayable",
      "type": "function"
    },
    {
      "inputs": [
        {
          "components": [
            {
              "internalType": "uint256",
              "name": "subAccountIdIn",
              "type": "uint256"
            },
            {
              "internalType": "uint256",
              "name": "subAccountIdOut",
              "type": "uint256"
            },
            {
              "internalType": "uint256",
              "name": "amountIn",
              "type": "uint256"
            },
            {
              "internalType": "uint256",
              "name": "amountOutMinimum",
              "type": "uint256"
            },
            {
              "internalType": "uint256",
              "name": "deadline",
              "type": "uint256"
            },
            {
              "internalType": "bytes",
              "name": "path",
              "type": "bytes"
            }
          ],
          "internalType": "struct Swap.SwapUniExactInputParams",
          "name": "params",
          "type": "tuple"
        }
      ],
      "name": "swapUniExactInput",
      "outputs": [],
      "stateMutability": "nonpayable",
      "type": "function"
    },
    {
      "inputs": [
        {
          "components": [
            {
              "internalType": "uint256",
              "name": "subAccountIdIn",
              "type": "uint256"
            },
            {
              "internalType": "uint256",
              "name": "subAccountIdOut",
              "type": "uint256"
            },
            {
              "internalType": "address",
              "name": "underlyingIn",
              "type": "address"
            },
            {
              "internalType": "address",
              "name": "underlyingOut",
              "type": "address"
            },
            {
              "internalType": "uint256",
              "name": "amountIn",
              "type": "uint256"
            },
            {
              "internalType": "uint256",
              "name": "amountOutMinimum",
              "type": "uint256"
            },
            {
              "internalType": "uint256",
              "name": "deadline",
              "type": "uint256"
            },
            {
              "internalType": "uint24",
              "name": "fee",
              "type": "uint24"
            },
            {
              "internalType": "uint160",
              "name": "sqrtPriceLimitX96",
              "type": "uint160"
            }
          ],
          "internalType": "struct Swap.SwapUniExactInputSingleParams",
          "name": "params",
          "type": "tuple"
        }
      ],
      "name": "swapUniExactInputSingle",
      "outputs": [],
      "stateMutability": "nonpayable",
      "type": "function"
    },
    {
      "inputs": [
        {
          "components": [
            {
              "internalType": "uint256",
              "name": "subAccountIdIn",
              "type": "uint256"
            },
            {
              "internalType": "uint256",
              "name": "subAccountIdOut",
              "type": "uint256"
            },
            {
              "internalType": "uint256",
              "name": "amountOut",
              "type": "uint256"
            },
            {
              "internalType": "uint256",
              "name": "amountInMaximum",
              "type": "uint256"
            },
            {
              "internalType": "uint256",
              "name": "deadline",
              "type": "uint256"
            },
            {
              "internalType": "bytes",
              "name": "path",
              "type": "bytes"
            }
          ],
          "internalType": "struct Swap.SwapUniExactOutputParams",
          "name": "params",
          "type": "tuple"
        }
      ],
      "name": "swapUniExactOutput",
      "outputs": [],
      "stateMutability": "nonpayable",
      "type": "function"
    },
    {
      "inputs": [
        {
          "components": [
            {
              "internalType": "uint256",
              "name": "subAccountIdIn",
              "type": "uint256"
            },
            {
              "internalType": "uint256",
              "name": "subAccountIdOut",
              "type": "uint256"
            },
            {
              "internalType": "address",
              "name": "underlyingIn",
              "type": "address"
            },
            {
              "internalType": "address",
              "name": "underlyingOut",
              "type": "address"
            },
            {
              "internalType": "uint256",
              "name": "amountOut",
              "type": "uint256"
            },
            {
              "internalType": "uint256",
              "name": "amountInMaximum",
              "type": "uint256"
            },
            {
              "internalType": "uint256",
              "name": "deadline",
              "type": "uint256"
            },
            {
              "internalType": "uint24",
              "name": "fee",
              "type": "uint24"
            },
            {
              "internalType": "uint160",
              "name": "sqrtPriceLimitX96",
              "type": "uint160"
            }
          ],
          "internalType": "struct Swap.SwapUniExactOutputSingleParams",
          "name": "params",
          "type": "tuple"
        }
      ],
      "name": "swapUniExactOutputSingle",
      "outputs": [],
      "stateMutability": "nonpayable",
      "type": "function"
    },
    {
      "inputs": [],
      "name": "uniswapRouter",
      "outputs": [
        {
          "internalType": "address",
          "name": "",
          "type": "address"
        }
      ],
      "stateMutability": "view",
      "type": "function"
    }
  ],
  "bytecode": "0x6101006040523480156200001257600080fd5b506040516200429038038062004290833981016040819052620000359162000075565b600660805260a0929092526001600160a01b0390811660c0521660e052620000b6565b80516001600160a01b03811681146200007057600080fd5b919050565b6000806000606084860312156200008b57600080fd5b835192506200009d6020850162000058565b9150620000ad6040850162000058565b90509250925092565b60805160a05160c05160e05161414d620001436000396000818160d30152818161054b015261057a0152600081816101810152818161081f0152818161084b01528181610a7801528181610aa4015281816112500152818161127d01528181611424015281816115190152818161154601526117580152600061014c015260006101e1015261414d6000f3fe608060405234801561001057600080fd5b50600436106100c95760003560e01c80637ee3d88911610081578063a1308f271161005b578063a1308f27146101dc578063f205beb014610203578063fa258bf91461021657600080fd5b80637ee3d889146101a357806382d7af8f146101b65780638dfb1f36146101c957600080fd5b8063465734c8116100b2578063465734c81461013457806369a92ea314610147578063735de9f71461017c57600080fd5b8063045c08d5146100ce578063228487951461011f575b600080fd5b6100f57f000000000000000000000000000000000000000000000000000000000000000081565b60405173ffffffffffffffffffffffffffffffffffffffff90911681526020015b60405180910390f35b61013261012d366004613adb565b610229565b005b610132610142366004613bf0565b610303565b61016e7f000000000000000000000000000000000000000000000000000000000000000081565b604051908152602001610116565b6100f57f000000000000000000000000000000000000000000000000000000000000000081565b6101326101b1366004613c14565b6103c5565b6101326101c4366004613c49565b610498565b6101326101d7366004613d00565b6106a8565b61016e7f000000000000000000000000000000000000000000000000000000000000000081565b610132610211366004613bf0565b61076c565b610132610224366004613c14565b6109bb565b60016000541461029a576040517f08c379a000000000000000000000000000000000000000000000000000000000815260206004820152600c60248201527f652f7265656e7472616e6379000000000000000000000000000000000000000060448201526064015b60405180910390fd5b60026000819055506000806102b48460a001516001610bad565b9150915060006102d1838386886000015189602001516007610d01565b90506102dd818561118b565b6101208201526102ee81868561124a565b6102f781611450565b50506001600055505050565b60016000541461036f576040517f08c379a000000000000000000000000000000000000000000000000000000000815260206004820152600c60248201527f652f7265656e7472616e637900000000000000000000000000000000000000006044820152606401610291565b6002600081905550600061039c826040015183606001518460800151856000015186602001516003610d01565b608083015161012082015290506103b3818361150f565b6103bc81611783565b50506001600055565b600160005414610431576040517f08c379a000000000000000000000000000000000000000000000000000000000815260206004820152600c60248201527f652f7265656e7472616e637900000000000000000000000000000000000000006044820152606401610291565b600260008190555060008061044b8360a001516001610bad565b91509150600061046c83838660400151876000015188602001516004610d01565b6040850151610120820152905061048481858561124a565b61048d81611783565b505060016000555050565b600160005414610504576040517f08c379a000000000000000000000000000000000000000000000000000000000815260206004820152600c60248201527f652f7265656e7472616e637900000000000000000000000000000000000000006044820152606401610291565b60026000819055506000610531826040015183606001518460800151856000015186602001516005610d01565b9050610541818360800151611838565b61057582604001517f000000000000000000000000000000000000000000000000000000000000000083610100015161190f565b6000807f000000000000000000000000000000000000000000000000000000000000000073ffffffffffffffffffffffffffffffffffffffff168460c001516040516105c19190613d59565b6000604051808303816000865af19150503d80600081146105fe576040519150601f19603f3d011682016040523d82523d6000602084013e610603565b606091505b5091509150816106165761061681611a53565b8080602001905181019061062a9190613d75565b610120840181905260a0850151111561069f576040517f08c379a000000000000000000000000000000000000000000000000000000000815260206004820152601560248201527f652f737761702f6d696e2d616d6f756e742d6f757400000000000000000000006044820152606401610291565b61048d83611783565b600160005414610714576040517f08c379a000000000000000000000000000000000000000000000000000000000815260206004820152600c60248201527f652f7265656e7472616e637900000000000000000000000000000000000000006044820152606401610291565b6002600081905550600061073d8360400151846060015184866000015187602001516006610d01565b9050610749818361118b565b610120820152610759818461150f565b61076281611450565b5050600160005550565b6001600054146107d8576040517f08c379a000000000000000000000000000000000000000000000000000000000815260206004820152600c60248201527f652f7265656e7472616e637900000000000000000000000000000000000000006044820152606401610291565b60026000819055506000610805826040015183606001518460800151856000015186602001516001610d01565b9050610815818360800151611838565b61084982604001517f000000000000000000000000000000000000000000000000000000000000000083610100015161190f565b7f000000000000000000000000000000000000000000000000000000000000000073ffffffffffffffffffffffffffffffffffffffff1663414bf389604051806101000160405280856040015173ffffffffffffffffffffffffffffffffffffffff168152602001856060015173ffffffffffffffffffffffffffffffffffffffff1681526020018560e0015162ffffff1681526020013073ffffffffffffffffffffffffffffffffffffffff16815260200160008660c001511161090e5742610914565b8560c001515b815260200184610100015181526020018560a00151815260200185610100015173ffffffffffffffffffffffffffffffffffffffff168152506040518263ffffffff1660e01b81526004016109699190613d8e565b6020604051808303816000875af1158015610988573d6000803e3d6000fd5b505050506040513d601f19601f820116820180604052508101906109ac9190613d75565b6101208201526103bc81611783565b600160005414610a27576040517f08c379a000000000000000000000000000000000000000000000000000000000815260206004820152600c60248201527f652f7265656e7472616e637900000000000000000000000000000000000000006044820152606401610291565b6002600081905550600080610a418360a001516000610bad565b915091506000610a6283838660400151876000015188602001516002610d01565b9050610a72818560400151611838565b610aa2837f000000000000000000000000000000000000000000000000000000000000000083610100015161190f565b7f000000000000000000000000000000000000000000000000000000000000000073ffffffffffffffffffffffffffffffffffffffff1663c04b8d596040518060a001604052808760a0015181526020013073ffffffffffffffffffffffffffffffffffffffff1681526020016000886080015111610b215742610b27565b87608001515b8152602001846101000151815260200187606001518152506040518263ffffffff1660e01b8152600401610b5b9190613eb2565b6020604051808303816000875af1158015610b7a573d6000803e3d6000fd5b505050506040513d601f19601f82011682018060405250810190610b9e9190613d75565b61012082015261048d81611783565b600080602b84511015610c1c576040517f08c379a000000000000000000000000000000000000000000000000000000000815260206004820152601660248201527f652f737761702f756e692d706174682d6c656e677468000000000000000000006044820152606401610291565b601760148551610c2c9190613ef4565b610c369190613f3a565b15610c9d576040517f08c379a000000000000000000000000000000000000000000000000000000000815260206004820152601660248201527f652f737761702f756e692d706174682d666f726d6174000000000000000000006044820152606401610291565b60208401516000906c01000000000000000000000000900490506000610ce38660148851610ccb9190613ef4565b01602001516c01000000000000000000000000900490565b905084610cf1578181610cf4565b80825b9350935050509250929050565b610e4560408051610160808201835260008083526020808401829052838501829052606080850183905285516101e081018752838152918201839052948101829052938401819052608084810182905260a0850182905260c0850182905260e0850182905261010085018290526101208501829052610140850182905291840181905261018084018190526101a084018190526101c08401529091908201908152604080516101e08101825260008082526020828101829052928201819052606082018190526080820181905260a0820181905260c0820181905260e08201819052610100820181905261012082018190526101408201819052610160820181905261018082018190526101a082018190526101c0820152910190815260200160008152602001600081526020016000815260200160008152602001600081525090565b8573ffffffffffffffffffffffffffffffffffffffff168773ffffffffffffffffffffffffffffffffffffffff161415610edb576040517f08c379a000000000000000000000000000000000000000000000000000000000815260206004820152600b60248201527f652f737761702f73616d650000000000000000000000000000000000000000006044820152606401610291565b6000610ee5611ac4565b9050610ef18186611ada565b73ffffffffffffffffffffffffffffffffffffffff168252610f138185611ada565b73ffffffffffffffffffffffffffffffffffffffff1660208301528151610f3990611b4c565b816020015173ffffffffffffffffffffffffffffffffffffffff16826000015173ffffffffffffffffffffffffffffffffffffffff1614610f8157610f818260200151611b4c565b60208281015183516040805173ffffffffffffffffffffffffffffffffffffffff8c811682529481018b90529081018790528b84169392831692909116907e67954c8a2fb8cdfeea6b19b552f81a3f98fb552a868f29df939556a2c57fff9060600160405180910390a473ffffffffffffffffffffffffffffffffffffffff80891660009081526008602081815260408084205485168782019081528c86168552928252808420548516606088019081528351861685526009909252808420915185168452909220905191929091166110b6576040517f08c379a000000000000000000000000000000000000000000000000000000000815260206004820152601e60248201527f652f737761702f696e2d6d61726b65742d6e6f742d61637469766174656400006044820152606401610291565b606084015173ffffffffffffffffffffffffffffffffffffffff16611137576040517f08c379a000000000000000000000000000000000000000000000000000000000815260206004820152601f60248201527f652f737761702f6f75742d6d61726b65742d6e6f742d616374697661746564006044820152606401610291565b6111418a83611c32565b60808501526111508982611c32565b60a085015260808401516111649030611d93565b60c085015260a08401516111789030611d93565b60e0850152509198975050505050505050565b606082015173ffffffffffffffffffffffffffffffffffffffff166000908152600960209081526040822060a08501519185015183926111cb9291611eb0565b9050828111611236576040517f08c379a000000000000000000000000000000000000000000000000000000000815260206004820152601260248201527f652f737761702f7461726765742d6465627400000000000000000000000000006044820152606401610291565b6112408382613ef4565b9150505b92915050565b611279817f0000000000000000000000000000000000000000000000000000000000000000846060015161190f565b60007f000000000000000000000000000000000000000000000000000000000000000073ffffffffffffffffffffffffffffffffffffffff1663f28c04986040518060a001604052808660a0015181526020013073ffffffffffffffffffffffffffffffffffffffff16815260200160008760800151116112fa5742611300565b86608001515b8152602001876101200151815260200186606001518152506040518263ffffffff1660e01b81526004016113349190613eb2565b6020604051808303816000875af1158015611353573d6000803e3d6000fd5b505050506040513d601f19601f820116820180604052508101906113779190613d75565b90507fffffffffffffffffffffffffffffffffffffffffffffffffffffffffffffffff811415611403576040517f08c379a000000000000000000000000000000000000000000000000000000000815260206004820152601a60248201527f652f737761702f65786163742d6f75742d616d6f756e742d696e0000000000006044820152606401610291565b61140d8482611838565b8260600151846101000151101561144a5761144a827f0000000000000000000000000000000000000000000000000000000000000000600061190f565b50505050565b600061145b82611f30565b6040808401805173ffffffffffffffffffffffffffffffffffffffff1660009081526009602052919091206080850151915185516101408701519495506114a5949293928661204a565b61150060096000846060015173ffffffffffffffffffffffffffffffffffffffff1673ffffffffffffffffffffffffffffffffffffffff1681526020019081526020016000208360a001518460200151856101200151612070565b815161150b906120a3565b5050565b61154281604001517f00000000000000000000000000000000000000000000000000000000000000008360a0015161190f565b60007f000000000000000000000000000000000000000000000000000000000000000073ffffffffffffffffffffffffffffffffffffffff1663db3e2198604051806101000160405280856040015173ffffffffffffffffffffffffffffffffffffffff168152602001856060015173ffffffffffffffffffffffffffffffffffffffff1681526020018560e0015162ffffff1681526020013073ffffffffffffffffffffffffffffffffffffffff16815260200160008660c0015111611609574261160f565b8560c001515b815260200186610120015181526020018560a00151815260200185610100015173ffffffffffffffffffffffffffffffffffffffff168152506040518263ffffffff1660e01b81526004016116649190613d8e565b6020604051808303816000875af1158015611683573d6000803e3d6000fd5b505050506040513d601f19601f820116820180604052508101906116a79190613d75565b90507fffffffffffffffffffffffffffffffffffffffffffffffffffffffffffffffff811415611733576040517f08c379a000000000000000000000000000000000000000000000000000000000815260206004820152601a60248201527f652f737761702f65786163742d6f75742d616d6f756e742d696e0000000000006044820152606401610291565b61173d8382611838565b8160a00151836101000151101561177e5761177e82604001517f0000000000000000000000000000000000000000000000000000000000000000600061190f565b505050565b600061178e82611f30565b6040808401805173ffffffffffffffffffffffffffffffffffffffff1660009081526009602052919091206080850151915185516101408701519495506117d8949293928661204a565b61150060096000846060015173ffffffffffffffffffffffffffffffffffffffff1673ffffffffffffffffffffffffffffffffffffffff1681526020019081526020016000208360a00151846060015185602001518661012001516121ff565b60408083015173ffffffffffffffffffffffffffffffffffffffff1660009081526009602052206080830151835161187292919084612230565b610140840152608083015161018001519091508111156118ee576040517f08c379a000000000000000000000000000000000000000000000000000000000815260206004820152601d60248201527f652f737761702f696e73756666696369656e742d706f6f6c2d73697a650000006044820152606401610291565b60808201516101a001516119029082613f4e565b6101009092019190915250565b6040805173ffffffffffffffffffffffffffffffffffffffff8481166024830152604480830185905283518084039091018152606490920183526020820180517bffffffffffffffffffffffffffffffffffffffffffffffffffffffff167f095ea7b30000000000000000000000000000000000000000000000000000000017905291516000928392908716916119a69190613d59565b6000604051808303816000865af19150503d80600081146119e3576040519150601f19603f3d011682016040523d82523d6000602084013e6119e8565b606091505b5091509150818015611a12575080511580611a12575080806020019051810190611a129190613f72565b8190611a4b576040517f08c379a00000000000000000000000000000000000000000000000000000000081526004016102919190613f8d565b505050505050565b805115611a6257805181602001fd5b6040517f08c379a000000000000000000000000000000000000000000000000000000000815260206004820152600d60248201527f652f656d7074792d6572726f72000000000000000000000000000000000000006044820152606401610291565b600080600052601460283603600c375060005190565b60006101008210611b47576040517f08c379a000000000000000000000000000000000000000000000000000000000815260206004820152601860248201527f652f7375622d6163636f756e742d69642d746f6f2d62696700000000000000006044820152606401610291565b501890565b73ffffffffffffffffffffffffffffffffffffffff8116600090815260066020526040902054610100900464ffffffffff1680611b87575050565b6000611b938242613ef4565b905080611b9f57505050565b73ffffffffffffffffffffffffffffffffffffffff8316600090815260066020526040902080547fffffffffffffffffffffffffffffffffffffffffffffffffffff0000000000ff166101004264ffffffffff1602179055611c0183826122cd565b73ffffffffffffffffffffffffffffffffffffffff9093166000908152600660205260409020600101929092555050565b604080516101e081018252600080825260208201819052918101829052606081018290526080810182905260a0810182905260c0810182905260e08101829052610100810182905261012081018290526101408101829052610160810182905261018081018290526101a081018290526101c0810191909152611cb6838383612398565b156112445760a0810151825464ffffffffff9091167fffffffffffffffffffffffffffffffffffffffffffffffffffffff0000000000909116178255805160608201516bffffffffffffffffffffffff16740100000000000000000000000000000000000000000273ffffffffffffffffffffffffffffffffffffffff9091161760018301556020810151604082015171ffffffffffffffffffffffffffffffffffff166e010000000000000000000000000000026dffffffffffffffffffffffffffff9091161760038301556080810151600483015592915050565b60408051835173ffffffffffffffffffffffffffffffffffffffff848116602480850191909152845180850390910181526044840185526020810180517bffffffffffffffffffffffffffffffffffffffffffffffffffffffff167f70a08231000000000000000000000000000000000000000000000000000000001790529351600094859384931691614e2091611e2a91613d59565b6000604051808303818686fa925050503d8060008114611e66576040519150601f19603f3d011682016040523d82523d6000602084013e611e6b565b606091505b5091509150811580611e7e575060208151105b15611e8e57600093505050611ea7565b80806020019051810190611ea29190613d75565b935050505b60405292915050565b73ffffffffffffffffffffffffffffffffffffffff81166000908152600584016020526040812054633b9aca0090611f1e908590611f19908890839088906e010000000000000000000000000000900471ffffffffffffffffffffffffffffffffffff1661280b565b612867565b611f289190613f4e565b949350505050565b600080611f41836080015130611d93565b90508261010001518360c00151611f589190613ef4565b8114611fc0576040517f08c379a000000000000000000000000000000000000000000000000000000000815260206004820152601160248201527f652f737761702f62616c616e63652d696e0000000000000000000000000000006044820152606401610291565b8261012001518360e00151611fd59190613fa0565b611fe38460a0015130611d93565b14611244576040517f08c379a000000000000000000000000000000000000000000000000000000000815260206004820152601260248201527f652f737761702f62616c616e63652d6f757400000000000000000000000000006044820152606401610291565b61205485826128c0565b610180860152612067868686868661293d565b611a4b85612b12565b600284015461209a908590859073ffffffffffffffffffffffffffffffffffffffff168585612bf1565b61144a83612b12565b73ffffffffffffffffffffffffffffffffffffffff811660009081526006602052604090205460ff16806121a15760405173ffffffffffffffffffffffffffffffffffffffff8316602482015261177e90620f4240907fc39b543a00000000000000000000000000000000000000000000000000000000906044015b604080517fffffffffffffffffffffffffffffffffffffffffffffffffffffffffffffffe08184030181529190526020810180517bffffffffffffffffffffffffffffffffffffffffffffffffffffffff167fffffffff0000000000000000000000000000000000000000000000000000000090931692909217909152612dcc565b60ff81166001141561150b5773ffffffffffffffffffffffffffffffffffffffff8216600090815260066020526040902080547fffffffffffffffffffffffffffffffffffffffffffffffffffffffffffffff001660021790555050565b600061220b8583612e5b565b90508185610180018181516122209190613fa0565b9052506120678686868685612e86565b60008060007fffffffffffffffffffffffffffffffffffffffffffffffffffffffffffffffff8414156122a7575073ffffffffffffffffffffffffffffffffffffffff841660009081526005870160205260409020546dffffffffffffffffffffffffffff166122a08682612ff5565b93506122c0565b6122b186856128c0565b93506122bd8685613016565b90505b9296929550919350505050565b600080620151808310156122e157826122e6565b620151805b905060006122f78262015180613ef4565b905060008060006123078861304c565b91509150808211612319576000612323565b6123238183613ef4565b925050506201518083826123379190613fb8565b6123419190613f4e565b73ffffffffffffffffffffffffffffffffffffffff8716600090815260066020526040902060010154620151809061237a908590613fb8565b6123849190613f4e565b61238e9190613fa0565b9695505050505050565b73ffffffffffffffffffffffffffffffffffffffff83168152815464ffffffffff811660a083015265010000000000810460ff90811660c084018190526601000000000000830463ffffffff90811660e08601526a01000000000000000000008404600b0b610100860152760100000000000000000000000000000000000000000000840481166101208601527a010000000000000000000000000000000000000000000000000000840461ffff166101408601527c010000000000000000000000000000000000000000000000000000000090930490921661016084015260018401547401000000000000000000000000000000000000000090046bffffffffffffffffffffffff16606084015260038401546dffffffffffffffffffffffffffff80821660208601526e01000000000000000000000000000090910471ffffffffffffffffffffffffffffffffffff166040850152600485015460808501526012839003909116600a0a6101a08401819052600092918161251d5761251d613f0b565b046101c084015260006125308430611d93565b9050836101c001518111612551576101a0840151810261018085015261255a565b60006101808501525b8360a0015164ffffffffff164214612802576001925060008460a0015164ffffffffff16426125899190613ef4565b905060006b033b2e3c9fd0803ce800000086608001516125d5886101000151600b0b6b033b2e3c9fd0803ce80000006125c29190613ff5565b856b033b2e3c9fd0803ce80000006130d1565b6125df9190613fb8565b6125e99190613f4e565b90506000866080015182886040015171ffffffffffffffffffffffffffffffffffff166126169190613fb8565b6126209190613f4e565b606088015160208901519192506bffffffffffffffffffffffff16906dffffffffffffffffffffffffffff166000612660633b9aca0063ee6b2800613fb8565b6101208b015163ffffffff9081161461267e578a6101200151612684565b6336d616005b63ffffffff168b6040015171ffffffffffffffffffffffffffffffffffff16866126ae9190613ef4565b6126b89190613fb8565b6126c29190613f4e565b9050801561273a5760006126da633b9aca0086613f4e565b8b61018001516126ea9190613fa0565b90506126f68282613ef4565b6127008483613fb8565b61270a9190613f4e565b92508a602001516dffffffffffffffffffffffffffff168361272c9190613ef4565b6127369085613fa0565b9350505b6dffffffffffffffffffffffffffff821180159061276a575071ffffffffffffffffffffffffffffffffffff8411155b156127fb576127788461318e565b71ffffffffffffffffffffffffffffffffffff1660408b015260808a0185905264ffffffffff421660a08b015260208a01516dffffffffffffffffffffffffffff1682146127fb576127c983613236565b6bffffffffffffffffffffffff1660608b01526127e5826132d4565b6dffffffffffffffffffffffffffff1660208b01525b5050505050505b50509392505050565b60008161281a57506000611f28565b73ffffffffffffffffffffffffffffffffffffffff8316600090815260058601602052604090206001015460808501516128549084613fb8565b61285e9190613f4e565b95945050505050565b60008161287657506000611244565b6101a0830151633b9aca000280807fffffffffffffffffffffffffffffffffffffffffffffffffffffffffffffffff85820101816128b6576128b6613f0b565b0402949350505050565b6000826101c00151821115612931576040517f08c379a000000000000000000000000000000000000000000000000000000000815260206004820152601260248201527f652f616d6f756e742d746f6f2d6c6172676500000000000000000000000000006044820152606401610291565b506101a0909101510290565b73ffffffffffffffffffffffffffffffffffffffff821660009081526005860160205260409020546dffffffffffffffffffffffffffff16818110156129df576040517f08c379a000000000000000000000000000000000000000000000000000000000815260206004820152601660248201527f652f696e73756666696369656e742d62616c616e6365000000000000000000006044820152606401610291565b6129f16129ec8383613ef4565b6132d4565b73ffffffffffffffffffffffffffffffffffffffff84166000908152600588016020908152604090912080547fffffffffffffffffffffffffffffffffffff0000000000000000000000000000166dffffffffffffffffffffffffffff938416179055860151612a67916129ec91859116613ef4565b6dffffffffffffffffffffffffffff16602086018190526003870180547fffffffffffffffffffffffffffffffffffff0000000000000000000000000000169091179055612ab5868661334e565b845160405183815273ffffffffffffffffffffffffffffffffffffffff8086169216907f9b1bfa7fa9ee420a16e124f794c35ac9f90472acc99140eb2f6447c714cad8eb9060200160405180910390a3611a4b84846000856134b7565b806000015173ffffffffffffffffffffffffffffffffffffffff167f2f2d732e1a7a15fe7a2e51d3482efe83ff791579cebc5e3cd12cd2064374bc7f8260200151633b9aca00846040015171ffffffffffffffffffffffffffffffffffff16612b7b9190613f4e565b6060808601516101808701516080808901516101008a0151604080516dffffffffffffffffffffffffffff909916895260208901979097526bffffffffffffffffffffffff909416958701959095529285015290830191909152600b0b60a08201524260c082015260e00160405180910390a250565b6000612c01633b9aca0083613fb8565b9050600080612c1188888761364e565b915091506000612c218884612867565b905080841115612c8d576040517f08c379a000000000000000000000000000000000000000000000000000000000815260206004820152601060248201527f652f72657061792d746f6f2d6d756368000000000000000000000000000000006044820152606401610291565b60408801518482039071ffffffffffffffffffffffffffffffffffff16841115612ccd57886040015171ffffffffffffffffffffffffffffffffffff1693505b612cd68161318e565b73ffffffffffffffffffffffffffffffffffffffff8816600090815260058c0160205260409081902080546dffffffffffffffffffffffffffff166e01000000000000000000000000000071ffffffffffffffffffffffffffffffffffff948516021790558a0151612d5f918391612d5091889116613ef4565b612d5a9190613fa0565b61318e565b71ffffffffffffffffffffffffffffffffffff1660408a0181905260038b0180546dffffffffffffffffffffffffffff166e010000000000000000000000000000909202919091179055612db38a8a61334e565b612dc0898989868561372e565b50505050505050505050565b60008281526003602052604080822054905160609291829173ffffffffffffffffffffffffffffffffffffffff90911690612e08908690613d59565b600060405180830381855af49150503d8060008114612e43576040519150601f19603f3d011682016040523d82523d6000602084013e612e48565b606091505b5091509150816112405761124081611a53565b600080612e6784613886565b905080612e7c84670de0b6b3a7640000613fb8565b6112409190613f4e565b73ffffffffffffffffffffffffffffffffffffffff82166000908152600586016020526040902054612ecd906129ec9083906dffffffffffffffffffffffffffff16613fa0565b73ffffffffffffffffffffffffffffffffffffffff83166000908152600587016020908152604090912080547fffffffffffffffffffffffffffffffffffff0000000000000000000000000000166dffffffffffffffffffffffffffff938416179055850151612f43916129ec91849116613fa0565b6dffffffffffffffffffffffffffff16602085018190526003860180547fffffffffffffffffffffffffffffffffffff0000000000000000000000000000169091179055612f91858561334e565b835160405182815273ffffffffffffffffffffffffffffffffffffffff8085169216907f5548c837ab068cf56a2c2479df0882a4922fd203edb7517321831d95078c5f629060200160405180910390a3612fee83600084846134b7565b5050505050565b60008061300184613886565b9050670de0b6b3a7640000612e7c8285613fb8565b60008061302284613886565b905080613030600182613ef4565b61304285670de0b6b3a7640000613fb8565b612e7c9190613fa0565b60405173ffffffffffffffffffffffffffffffffffffffff82166024820152600090819081906130a590620f4240907f37fe974a000000000000000000000000000000000000000000000000000000009060440161211f565b90506000818060200190518101906130bd9190614069565b805160209091015190969095509350505050565b6000838015613171576001841680156130ec578592506130f0565b8392505b50600283046002850494505b841561316b57858602868782041461311357600080fd5b8181018181101561312357600080fd5b859004965050600185161561316057858302838782041415871515161561314957600080fd5b8181018181101561315957600080fd5b8590049350505b6002850494506130fc565b50613186565b8380156131815760009250612802565b839250505b509392505050565b600071ffffffffffffffffffffffffffffffffffff821115613232576040517f08c379a000000000000000000000000000000000000000000000000000000000815260206004820152602160248201527f652f646562742d616d6f756e742d746f6f2d6c617267652d746f2d656e636f6460448201527f65000000000000000000000000000000000000000000000000000000000000006064820152608401610291565b5090565b60006bffffffffffffffffffffffff821115613232576040517f08c379a000000000000000000000000000000000000000000000000000000000815260206004820152602260248201527f652f736d616c6c2d616d6f756e742d746f6f2d6c617267652d746f2d656e636f60448201527f64650000000000000000000000000000000000000000000000000000000000006064820152608401610291565b60006dffffffffffffffffffffffffffff821115613232576040517f08c379a000000000000000000000000000000000000000000000000000000000815260206004820152601c60248201527f652f616d6f756e742d746f6f2d6c617267652d746f2d656e636f6465000000006044820152606401610291565b600080633b9aca00836040015171ffffffffffffffffffffffffffffffffffff166133799190613f4e565b905060008184610180015161338e9190613fa0565b90508061339e57600092506133d7565b670de0b6b3a7640000816133b663ffffffff83613fb8565b6133c09085613fb8565b6133ca9190613f4e565b6133d49190613f4e565b92505b505060e0820151825160405173ffffffffffffffffffffffffffffffffffffffff909116602482015263ffffffff8381166044830152600092613441929116907fd50c08f8000000000000000000000000000000000000000000000000000000009060640161211f565b905060008180602001905181019061345991906140d3565b600b81900b61010090950194909452505082546bffffffffffffffffffffffff9092166a0100000000000000000000027fffffffffffffffffffff000000000000000000000000ffffffffffffffffffff9092169190911790915550565b6000604051905060008573ffffffffffffffffffffffffffffffffffffffff1660036040518060600160405280602181526020016140f760219139805160209182012060405160f89390931b7fff000000000000000000000000000000000000000000000000000000000000001691830191909152602182015273ffffffffffffffffffffffffffffffffffffffff8781166041830152861660618201526081810185905260a101604080517fffffffffffffffffffffffffffffffffffffffffffffffffffffffffffffffe08184030181529082905261359791613d59565b6000604051808303816000865af19150503d80600081146135d4576040519150601f19603f3d011682016040523d82523d6000602084013e6135d9565b606091505b5050905080613644576040517f08c379a000000000000000000000000000000000000000000000000000000000815260206004820152601060248201527f652f6c6f672d70726f78792d6661696c000000000000000000000000000000006044820152606401610291565b5060405250505050565b73ffffffffffffffffffffffffffffffffffffffff811660009081526005840160205260408120546e010000000000000000000000000000900471ffffffffffffffffffffffffffffffffffff166136a88585858461280b565b91506136b38261318e565b73ffffffffffffffffffffffffffffffffffffffff909316600090815260059095016020526040909420805471ffffffffffffffffffffffffffffffffffff939093166e010000000000000000000000000000026dffffffffffffffffffffffffffff90931692909217825560809092015160019091015591565b633b9aca0061373d8684612867565b6137479190613f4e565b9150633b9aca006137588683612867565b6137629190613f4e565b9050818111156137f85760006137788383613ef4565b90508373ffffffffffffffffffffffffffffffffffffffff16866000015173ffffffffffffffffffffffffffffffffffffffff167f312a5e5e1079f5dda4e95dbbd0b908b291fd5b992ef22073643ab691572c5b52836040516137dd91815260200190565b60405180910390a36137f285600086846134b7565b50612fee565b80821115612fee57600061380c8284613ef4565b90508373ffffffffffffffffffffffffffffffffffffffff16866000015173ffffffffffffffffffffffffffffffffffffffff167f05f2eeda0e08e4b437f487c8d7d29b14537d15e3488170dc3de5dbdf8dac46848360405161387191815260200190565b60405180910390a3611a4b85856000846134b7565b600081602001516dffffffffffffffffffffffffffff16600014156138b45750670de0b6b3a7640000919050565b81602001516dffffffffffffffffffffffffffff16633b9aca00836040015171ffffffffffffffffffffffffffffffffffff166138f19190613f4e565b8361018001516139019190613fa0565b61391390670de0b6b3a7640000613fb8565b6112449190613f4e565b7f4e487b7100000000000000000000000000000000000000000000000000000000600052604160045260246000fd5b604051610120810167ffffffffffffffff811182821017156139705761397061391d565b60405290565b60405160e0810167ffffffffffffffff811182821017156139705761397061391d565b600082601f8301126139aa57600080fd5b813567ffffffffffffffff808211156139c5576139c561391d565b604051601f83017fffffffffffffffffffffffffffffffffffffffffffffffffffffffffffffffe0908116603f01168101908282118183101715613a0b57613a0b61391d565b81604052838152866020858801011115613a2457600080fd5b836020870160208301376000602085830101528094505050505092915050565b600060c08284031215613a5657600080fd5b60405160c0810167ffffffffffffffff8282108183111715613a7a57613a7a61391d565b81604052829350843583526020850135602084015260408501356040840152606085013560608401526080850135608084015260a0850135915080821115613ac157600080fd5b50613ace85828601613999565b60a0830152505092915050565b60008060408385031215613aee57600080fd5b823567ffffffffffffffff811115613b0557600080fd5b613b1185828601613a44565b95602094909401359450505050565b803573ffffffffffffffffffffffffffffffffffffffff81168114613b4457600080fd5b919050565b803562ffffff81168114613b4457600080fd5b60006101208284031215613b6f57600080fd5b613b7761394c565b90508135815260208201356020820152613b9360408301613b20565b6040820152613ba460608301613b20565b60608201526080820135608082015260a082013560a082015260c082013560c0820152613bd360e08301613b49565b60e0820152610100613be6818401613b20565b9082015292915050565b60006101208284031215613c0357600080fd5b613c0d8383613b5c565b9392505050565b600060208284031215613c2657600080fd5b813567ffffffffffffffff811115613c3d57600080fd5b61124084828501613a44565b600060208284031215613c5b57600080fd5b813567ffffffffffffffff80821115613c7357600080fd5b9083019060e08286031215613c8757600080fd5b613c8f613976565b8235815260208301356020820152613ca960408401613b20565b6040820152613cba60608401613b20565b60608201526080830135608082015260a083013560a082015260c083013582811115613ce557600080fd5b613cf187828601613999565b60c08301525095945050505050565b6000806101408385031215613d1457600080fd5b613d1e8484613b5c565b94610120939093013593505050565b60005b83811015613d48578181015183820152602001613d30565b8381111561144a5750506000910152565b60008251613d6b818460208701613d2d565b9190910192915050565b600060208284031215613d8757600080fd5b5051919050565b6101008101611244828473ffffffffffffffffffffffffffffffffffffffff80825116835280602083015116602084015262ffffff60408301511660408401528060608301511660608401526080820151608084015260a082015160a084015260c082015160c08401528060e08301511660e0840152505050565b60008151808452613e21816020860160208601613d2d565b601f017fffffffffffffffffffffffffffffffffffffffffffffffffffffffffffffffe0169290920160200192915050565b6000815160a08452613e6860a0850182613e09565b905073ffffffffffffffffffffffffffffffffffffffff60208401511660208501526040830151604085015260608301516060850152608083015160808501528091505092915050565b602081526000613c0d6020830184613e53565b7f4e487b7100000000000000000000000000000000000000000000000000000000600052601160045260246000fd5b600082821015613f0657613f06613ec5565b500390565b7f4e487b7100000000000000000000000000000000000000000000000000000000600052601260045260246000fd5b600082613f4957613f49613f0b565b500690565b600082613f5d57613f5d613f0b565b500490565b80518015158114613b4457600080fd5b600060208284031215613f8457600080fd5b613c0d82613f62565b602081526000613c0d6020830184613e09565b60008219821115613fb357613fb3613ec5565b500190565b6000817fffffffffffffffffffffffffffffffffffffffffffffffffffffffffffffffff0483118215151615613ff057613ff0613ec5565b500290565b6000808212827f7fffffffffffffffffffffffffffffffffffffffffffffffffffffffffffffff0384138115161561402f5761402f613ec5565b827f800000000000000000000000000000000000000000000000000000000000000003841281161561406357614063613ec5565b50500190565b60006080828403121561407b57600080fd5b6040516080810181811067ffffffffffffffff8211171561409e5761409e61391d565b80604052508251815260208301516020820152604083015160408201526140c760608401613f62565b60608201529392505050565b6000602082840312156140e557600080fd5b815180600b0b8114613c0d57600080fdfe5472616e7366657228616464726573732c616464726573732c75696e7432353629a264697066735822122023224b8ecf4ed669dc34aebd4ac2c979a5cc2dd748a252246135d8c7a8fc7c7764736f6c634300080a0033",
  "linkReferences": {},
  "deployedLinkReferences": {}
}