{
  "_format": "hh-sol-artifact-1",
  "contractName": "Swap",
  "sourceName": "contracts/modules/Swap.sol",
  "abi": [
    {
      "inputs": [
        {
          "internalType": "bytes32",
          "name": "moduleGitCommit_",
          "type": "bytes32"
        },
        {
          "internalType": "address",
          "name": "uniswapRouter_",
          "type": "address"
        },
        {
          "internalType": "address",
          "name": "oneInch_",
          "type": "address"
        }
      ],
      "stateMutability": "nonpayable",
      "type": "constructor"
    },
    {
      "anonymous": false,
      "inputs": [
        {
          "indexed": true,
          "internalType": "address",
          "name": "underlying",
          "type": "address"
        },
        {
          "indexed": false,
          "internalType": "uint256",
          "name": "totalBalances",
          "type": "uint256"
        },
        {
          "indexed": false,
          "internalType": "uint256",
          "name": "totalBorrows",
          "type": "uint256"
        },
        {
          "indexed": false,
          "internalType": "uint96",
          "name": "reserveBalance",
          "type": "uint96"
        },
        {
          "indexed": false,
          "internalType": "uint256",
          "name": "poolSize",
          "type": "uint256"
        },
        {
          "indexed": false,
          "internalType": "uint256",
          "name": "interestAccumulator",
          "type": "uint256"
        },
        {
          "indexed": false,
          "internalType": "int96",
          "name": "interestRate",
          "type": "int96"
        },
        {
          "indexed": false,
          "internalType": "uint256",
          "name": "timestamp",
          "type": "uint256"
        }
      ],
      "name": "AssetStatus",
      "type": "event"
    },
    {
      "anonymous": false,
      "inputs": [
        {
          "indexed": true,
          "internalType": "address",
          "name": "underlying",
          "type": "address"
        },
        {
          "indexed": true,
          "internalType": "address",
          "name": "account",
          "type": "address"
        },
        {
          "indexed": false,
          "internalType": "uint256",
          "name": "amount",
          "type": "uint256"
        }
      ],
      "name": "Borrow",
      "type": "event"
    },
    {
      "anonymous": false,
      "inputs": [
        {
          "indexed": true,
          "internalType": "address",
          "name": "account",
          "type": "address"
        },
        {
          "indexed": true,
          "internalType": "address",
          "name": "delegate",
          "type": "address"
        }
      ],
      "name": "DelegateAverageLiquidity",
      "type": "event"
    },
    {
      "anonymous": false,
      "inputs": [
        {
          "indexed": true,
          "internalType": "address",
          "name": "underlying",
          "type": "address"
        },
        {
          "indexed": true,
          "internalType": "address",
          "name": "account",
          "type": "address"
        },
        {
          "indexed": false,
          "internalType": "uint256",
          "name": "amount",
          "type": "uint256"
        }
      ],
      "name": "Deposit",
      "type": "event"
    },
    {
      "anonymous": false,
      "inputs": [
        {
          "indexed": true,
          "internalType": "address",
          "name": "underlying",
          "type": "address"
        },
        {
          "indexed": true,
          "internalType": "address",
          "name": "account",
          "type": "address"
        }
      ],
      "name": "EnterMarket",
      "type": "event"
    },
    {
      "anonymous": false,
      "inputs": [
        {
          "indexed": true,
          "internalType": "address",
          "name": "underlying",
          "type": "address"
        },
        {
          "indexed": true,
          "internalType": "address",
          "name": "account",
          "type": "address"
        }
      ],
      "name": "ExitMarket",
      "type": "event"
    },
    {
      "anonymous": false,
      "inputs": [],
      "name": "Genesis",
      "type": "event"
    },
    {
      "anonymous": false,
      "inputs": [
        {
          "indexed": true,
          "internalType": "address",
          "name": "underlying",
          "type": "address"
        },
        {
          "indexed": true,
          "internalType": "address",
          "name": "recipient",
          "type": "address"
        },
        {
          "indexed": false,
          "internalType": "uint256",
          "name": "amount",
          "type": "uint256"
        }
      ],
      "name": "GovConvertReserves",
      "type": "event"
    },
    {
      "anonymous": false,
      "inputs": [
        {
          "indexed": true,
          "internalType": "address",
          "name": "underlying",
          "type": "address"
        },
        {
          "components": [
            {
              "internalType": "address",
              "name": "eTokenAddress",
              "type": "address"
            },
            {
              "internalType": "bool",
              "name": "borrowIsolated",
              "type": "bool"
            },
            {
              "internalType": "uint32",
              "name": "collateralFactor",
              "type": "uint32"
            },
            {
              "internalType": "uint32",
              "name": "borrowFactor",
              "type": "uint32"
            },
            {
              "internalType": "uint24",
              "name": "twapWindow",
              "type": "uint24"
            }
          ],
          "indexed": false,
          "internalType": "struct Storage.AssetConfig",
          "name": "newConfig",
          "type": "tuple"
        }
      ],
      "name": "GovSetAssetConfig",
      "type": "event"
    },
    {
      "anonymous": false,
      "inputs": [
        {
          "indexed": true,
          "internalType": "address",
          "name": "underlying",
          "type": "address"
        },
        {
          "indexed": false,
          "internalType": "uint256",
          "name": "interestRateModel",
          "type": "uint256"
        },
        {
          "indexed": false,
          "internalType": "bytes",
          "name": "resetParams",
          "type": "bytes"
        }
      ],
      "name": "GovSetIRM",
      "type": "event"
    },
    {
      "anonymous": false,
      "inputs": [
        {
          "indexed": true,
          "internalType": "address",
          "name": "underlying",
          "type": "address"
        },
        {
          "indexed": false,
          "internalType": "uint16",
          "name": "newPricingType",
          "type": "uint16"
        },
        {
          "indexed": false,
          "internalType": "uint32",
          "name": "newPricingParameter",
          "type": "uint32"
        }
      ],
      "name": "GovSetPricingConfig",
      "type": "event"
    },
    {
      "anonymous": false,
      "inputs": [
        {
          "indexed": true,
          "internalType": "address",
          "name": "underlying",
          "type": "address"
        },
        {
          "indexed": false,
          "internalType": "uint32",
          "name": "newReserveFee",
          "type": "uint32"
        }
      ],
      "name": "GovSetReserveFee",
      "type": "event"
    },
    {
      "anonymous": false,
      "inputs": [
        {
          "indexed": true,
          "internalType": "uint256",
          "name": "moduleId",
          "type": "uint256"
        },
        {
          "indexed": true,
          "internalType": "address",
          "name": "moduleImpl",
          "type": "address"
        },
        {
          "indexed": false,
          "internalType": "bytes32",
          "name": "moduleGitCommit",
          "type": "bytes32"
        }
      ],
      "name": "InstallerInstallModule",
      "type": "event"
    },
    {
      "anonymous": false,
      "inputs": [
        {
          "indexed": true,
          "internalType": "address",
          "name": "newGovernorAdmin",
          "type": "address"
        }
      ],
      "name": "InstallerSetGovernorAdmin",
      "type": "event"
    },
    {
      "anonymous": false,
      "inputs": [
        {
          "indexed": true,
          "internalType": "address",
          "name": "newUpgradeAdmin",
          "type": "address"
        }
      ],
      "name": "InstallerSetUpgradeAdmin",
      "type": "event"
    },
    {
      "anonymous": false,
      "inputs": [
        {
          "indexed": true,
          "internalType": "address",
          "name": "liquidator",
          "type": "address"
        },
        {
          "indexed": true,
          "internalType": "address",
          "name": "violator",
          "type": "address"
        },
        {
          "indexed": true,
          "internalType": "address",
          "name": "underlying",
          "type": "address"
        },
        {
          "indexed": false,
          "internalType": "address",
          "name": "collateral",
          "type": "address"
        },
        {
          "indexed": false,
          "internalType": "uint256",
          "name": "repay",
          "type": "uint256"
        },
        {
          "indexed": false,
          "internalType": "uint256",
          "name": "yield",
          "type": "uint256"
        },
        {
          "indexed": false,
          "internalType": "uint256",
          "name": "healthScore",
          "type": "uint256"
        },
        {
          "indexed": false,
          "internalType": "uint256",
          "name": "baseDiscount",
          "type": "uint256"
        },
        {
          "indexed": false,
          "internalType": "uint256",
          "name": "discount",
          "type": "uint256"
        }
      ],
      "name": "Liquidation",
      "type": "event"
    },
    {
      "anonymous": false,
      "inputs": [
        {
          "indexed": true,
          "internalType": "address",
          "name": "underlying",
          "type": "address"
        },
        {
          "indexed": true,
          "internalType": "address",
          "name": "eToken",
          "type": "address"
        },
        {
          "indexed": true,
          "internalType": "address",
          "name": "dToken",
          "type": "address"
        }
      ],
      "name": "MarketActivated",
      "type": "event"
    },
    {
      "anonymous": false,
      "inputs": [
        {
          "indexed": true,
          "internalType": "address",
          "name": "underlying",
          "type": "address"
        },
        {
          "indexed": true,
          "internalType": "address",
          "name": "pToken",
          "type": "address"
        }
      ],
      "name": "PTokenActivated",
      "type": "event"
    },
    {
      "anonymous": false,
      "inputs": [
        {
          "indexed": true,
          "internalType": "address",
          "name": "underlying",
          "type": "address"
        },
        {
          "indexed": true,
          "internalType": "address",
          "name": "account",
          "type": "address"
        },
        {
          "indexed": false,
          "internalType": "uint256",
          "name": "amount",
          "type": "uint256"
        }
      ],
      "name": "PTokenUnWrap",
      "type": "event"
    },
    {
      "anonymous": false,
      "inputs": [
        {
          "indexed": true,
          "internalType": "address",
          "name": "underlying",
          "type": "address"
        },
        {
          "indexed": true,
          "internalType": "address",
          "name": "account",
          "type": "address"
        },
        {
          "indexed": false,
          "internalType": "uint256",
          "name": "amount",
          "type": "uint256"
        }
      ],
      "name": "PTokenWrap",
      "type": "event"
    },
    {
      "anonymous": false,
      "inputs": [
        {
          "indexed": true,
          "internalType": "address",
          "name": "proxy",
          "type": "address"
        },
        {
          "indexed": false,
          "internalType": "uint256",
          "name": "moduleId",
          "type": "uint256"
        }
      ],
      "name": "ProxyCreated",
      "type": "event"
    },
    {
      "anonymous": false,
      "inputs": [
        {
          "indexed": true,
          "internalType": "address",
          "name": "underlying",
          "type": "address"
        },
        {
          "indexed": true,
          "internalType": "address",
          "name": "account",
          "type": "address"
        },
        {
          "indexed": false,
          "internalType": "uint256",
          "name": "amount",
          "type": "uint256"
        }
      ],
      "name": "Repay",
      "type": "event"
    },
    {
      "anonymous": false,
      "inputs": [
        {
          "indexed": true,
          "internalType": "address",
          "name": "account",
          "type": "address"
        },
        {
          "indexed": false,
          "internalType": "uint256",
          "name": "amount",
          "type": "uint256"
        }
      ],
      "name": "RequestBorrow",
      "type": "event"
    },
    {
      "anonymous": false,
      "inputs": [
        {
          "indexed": true,
          "internalType": "address",
          "name": "account",
          "type": "address"
        },
        {
          "indexed": false,
          "internalType": "uint256",
          "name": "amount",
          "type": "uint256"
        }
      ],
      "name": "RequestBurn",
      "type": "event"
    },
    {
      "anonymous": false,
      "inputs": [
        {
          "indexed": true,
          "internalType": "address",
          "name": "account",
          "type": "address"
        },
        {
          "indexed": false,
          "internalType": "uint256",
          "name": "amount",
          "type": "uint256"
        }
      ],
      "name": "RequestDeposit",
      "type": "event"
    },
    {
      "anonymous": false,
      "inputs": [
        {
          "indexed": true,
          "internalType": "address",
          "name": "liquidator",
          "type": "address"
        },
        {
          "indexed": true,
          "internalType": "address",
          "name": "violator",
          "type": "address"
        },
        {
          "indexed": true,
          "internalType": "address",
          "name": "underlying",
          "type": "address"
        },
        {
          "indexed": false,
          "internalType": "address",
          "name": "collateral",
          "type": "address"
        },
        {
          "indexed": false,
          "internalType": "uint256",
          "name": "repay",
          "type": "uint256"
        },
        {
          "indexed": false,
          "internalType": "uint256",
          "name": "minYield",
          "type": "uint256"
        }
      ],
      "name": "RequestLiquidate",
      "type": "event"
    },
    {
      "anonymous": false,
      "inputs": [
        {
          "indexed": true,
          "internalType": "address",
          "name": "account",
          "type": "address"
        },
        {
          "indexed": false,
          "internalType": "uint256",
          "name": "amount",
          "type": "uint256"
        }
      ],
      "name": "RequestMint",
      "type": "event"
    },
    {
      "anonymous": false,
      "inputs": [
        {
          "indexed": true,
          "internalType": "address",
          "name": "account",
          "type": "address"
        },
        {
          "indexed": false,
          "internalType": "uint256",
          "name": "amount",
          "type": "uint256"
        }
      ],
      "name": "RequestRepay",
      "type": "event"
    },
    {
      "anonymous": false,
      "inputs": [
        {
          "indexed": true,
          "internalType": "address",
          "name": "accountIn",
          "type": "address"
        },
        {
          "indexed": true,
          "internalType": "address",
          "name": "accountOut",
          "type": "address"
        },
        {
          "indexed": true,
          "internalType": "address",
          "name": "underlyingIn",
          "type": "address"
        },
        {
          "indexed": false,
          "internalType": "address",
          "name": "underlyingOut",
          "type": "address"
        },
        {
          "indexed": false,
          "internalType": "uint256",
          "name": "amount",
          "type": "uint256"
        },
        {
          "indexed": false,
          "internalType": "uint256",
          "name": "swapType",
          "type": "uint256"
        }
      ],
      "name": "RequestSwap",
      "type": "event"
    },
    {
      "anonymous": false,
      "inputs": [
        {
          "indexed": true,
          "internalType": "address",
          "name": "from",
          "type": "address"
        },
        {
          "indexed": true,
          "internalType": "address",
          "name": "to",
          "type": "address"
        },
        {
          "indexed": false,
          "internalType": "uint256",
          "name": "amount",
          "type": "uint256"
        }
      ],
      "name": "RequestTransferDToken",
      "type": "event"
    },
    {
      "anonymous": false,
      "inputs": [
        {
          "indexed": true,
          "internalType": "address",
          "name": "from",
          "type": "address"
        },
        {
          "indexed": true,
          "internalType": "address",
          "name": "to",
          "type": "address"
        },
        {
          "indexed": false,
          "internalType": "uint256",
          "name": "amount",
          "type": "uint256"
        }
      ],
      "name": "RequestTransferEToken",
      "type": "event"
    },
    {
      "anonymous": false,
      "inputs": [
        {
          "indexed": true,
          "internalType": "address",
          "name": "account",
          "type": "address"
        },
        {
          "indexed": false,
          "internalType": "uint256",
          "name": "amount",
          "type": "uint256"
        }
      ],
      "name": "RequestWithdraw",
      "type": "event"
    },
    {
      "anonymous": false,
      "inputs": [
        {
          "indexed": true,
          "internalType": "address",
          "name": "account",
          "type": "address"
        }
      ],
      "name": "TrackAverageLiquidity",
      "type": "event"
    },
    {
      "anonymous": false,
      "inputs": [
        {
          "indexed": true,
          "internalType": "address",
          "name": "account",
          "type": "address"
        }
      ],
      "name": "UnTrackAverageLiquidity",
      "type": "event"
    },
    {
      "anonymous": false,
      "inputs": [
        {
          "indexed": true,
          "internalType": "address",
          "name": "underlying",
          "type": "address"
        },
        {
          "indexed": true,
          "internalType": "address",
          "name": "account",
          "type": "address"
        },
        {
          "indexed": false,
          "internalType": "uint256",
          "name": "amount",
          "type": "uint256"
        }
      ],
      "name": "Withdraw",
      "type": "event"
    },
    {
      "inputs": [],
      "name": "moduleGitCommit",
      "outputs": [
        {
          "internalType": "bytes32",
          "name": "",
          "type": "bytes32"
        }
      ],
      "stateMutability": "view",
      "type": "function"
    },
    {
      "inputs": [],
      "name": "moduleId",
      "outputs": [
        {
          "internalType": "uint256",
          "name": "",
          "type": "uint256"
        }
      ],
      "stateMutability": "view",
      "type": "function"
    },
    {
      "inputs": [],
      "name": "oneInch",
      "outputs": [
        {
          "internalType": "address",
          "name": "",
          "type": "address"
        }
      ],
      "stateMutability": "view",
      "type": "function"
    },
    {
      "inputs": [
        {
          "components": [
            {
              "internalType": "uint256",
              "name": "subAccountIdIn",
              "type": "uint256"
            },
            {
              "internalType": "uint256",
              "name": "subAccountIdOut",
              "type": "uint256"
            },
            {
              "internalType": "address",
              "name": "underlyingIn",
              "type": "address"
            },
            {
              "internalType": "address",
              "name": "underlyingOut",
              "type": "address"
            },
            {
              "internalType": "uint256",
              "name": "amount",
              "type": "uint256"
            },
            {
              "internalType": "uint256",
              "name": "amountOutMinimum",
              "type": "uint256"
            },
            {
              "internalType": "bytes",
              "name": "payload",
              "type": "bytes"
            }
          ],
          "internalType": "struct Swap.Swap1InchParams",
          "name": "params",
          "type": "tuple"
        }
      ],
      "name": "swap1Inch",
      "outputs": [],
      "stateMutability": "nonpayable",
      "type": "function"
    },
    {
      "inputs": [
        {
          "components": [
            {
              "internalType": "uint256",
              "name": "subAccountIdIn",
              "type": "uint256"
            },
            {
              "internalType": "uint256",
              "name": "subAccountIdOut",
              "type": "uint256"
            },
            {
              "internalType": "uint256",
              "name": "amountIn",
              "type": "uint256"
            },
            {
              "internalType": "uint256",
              "name": "amountOutMinimum",
              "type": "uint256"
            },
            {
              "internalType": "uint256",
              "name": "deadline",
              "type": "uint256"
            },
            {
              "internalType": "bytes",
              "name": "path",
              "type": "bytes"
            }
          ],
          "internalType": "struct Swap.SwapUniExactInputParams",
          "name": "params",
          "type": "tuple"
        }
      ],
      "name": "swapUniExactInput",
      "outputs": [],
      "stateMutability": "nonpayable",
      "type": "function"
    },
    {
      "inputs": [
        {
          "components": [
            {
              "internalType": "uint256",
              "name": "subAccountIdIn",
              "type": "uint256"
            },
            {
              "internalType": "uint256",
              "name": "subAccountIdOut",
              "type": "uint256"
            },
            {
              "internalType": "address",
              "name": "underlyingIn",
              "type": "address"
            },
            {
              "internalType": "address",
              "name": "underlyingOut",
              "type": "address"
            },
            {
              "internalType": "uint256",
              "name": "amountIn",
              "type": "uint256"
            },
            {
              "internalType": "uint256",
              "name": "amountOutMinimum",
              "type": "uint256"
            },
            {
              "internalType": "uint256",
              "name": "deadline",
              "type": "uint256"
            },
            {
              "internalType": "uint24",
              "name": "fee",
              "type": "uint24"
            },
            {
              "internalType": "uint160",
              "name": "sqrtPriceLimitX96",
              "type": "uint160"
            }
          ],
          "internalType": "struct Swap.SwapUniExactInputSingleParams",
          "name": "params",
          "type": "tuple"
        }
      ],
      "name": "swapUniExactInputSingle",
      "outputs": [],
      "stateMutability": "nonpayable",
      "type": "function"
    },
    {
      "inputs": [
        {
          "components": [
            {
              "internalType": "uint256",
              "name": "subAccountIdIn",
              "type": "uint256"
            },
            {
              "internalType": "uint256",
              "name": "subAccountIdOut",
              "type": "uint256"
            },
            {
              "internalType": "uint256",
              "name": "amountOut",
              "type": "uint256"
            },
            {
              "internalType": "uint256",
              "name": "amountInMaximum",
              "type": "uint256"
            },
            {
              "internalType": "uint256",
              "name": "deadline",
              "type": "uint256"
            },
            {
              "internalType": "bytes",
              "name": "path",
              "type": "bytes"
            }
          ],
          "internalType": "struct Swap.SwapUniExactOutputParams",
          "name": "params",
          "type": "tuple"
        }
      ],
      "name": "swapUniExactOutput",
      "outputs": [],
      "stateMutability": "nonpayable",
      "type": "function"
    },
    {
      "inputs": [
        {
          "components": [
            {
              "internalType": "uint256",
              "name": "subAccountIdIn",
              "type": "uint256"
            },
            {
              "internalType": "uint256",
              "name": "subAccountIdOut",
              "type": "uint256"
            },
            {
              "internalType": "address",
              "name": "underlyingIn",
              "type": "address"
            },
            {
              "internalType": "address",
              "name": "underlyingOut",
              "type": "address"
            },
            {
              "internalType": "uint256",
              "name": "amountOut",
              "type": "uint256"
            },
            {
              "internalType": "uint256",
              "name": "amountInMaximum",
              "type": "uint256"
            },
            {
              "internalType": "uint256",
              "name": "deadline",
              "type": "uint256"
            },
            {
              "internalType": "uint24",
              "name": "fee",
              "type": "uint24"
            },
            {
              "internalType": "uint160",
              "name": "sqrtPriceLimitX96",
              "type": "uint160"
            }
          ],
          "internalType": "struct Swap.SwapUniExactOutputSingleParams",
          "name": "params",
          "type": "tuple"
        }
      ],
      "name": "swapUniExactOutputSingle",
      "outputs": [],
      "stateMutability": "nonpayable",
      "type": "function"
    },
    {
      "inputs": [],
      "name": "uniswapRouter",
      "outputs": [
        {
          "internalType": "address",
          "name": "",
          "type": "address"
        }
      ],
      "stateMutability": "view",
      "type": "function"
    }
  ],
  "bytecode": "0x6101006040523480156200001257600080fd5b506040516200395238038062003952833981016040819052620000359162000075565b600660805260a0929092526001600160a01b0390811660c0521660e052620000b6565b80516001600160a01b03811681146200007057600080fd5b919050565b6000806000606084860312156200008b57600080fd5b835192506200009d6020850162000058565b9150620000ad6040850162000058565b90509250925092565b60805160a05160c05160e05161380f620001436000396000818160ad0152818161088b01526108ba01526000818161014801528181610299015281816102c2015281816104dc015281816105ca015281816105f7015281816107a601528181610aa601528181610ad201528181610d080152610d340152600061011301526000610195015261380f6000f3fe608060405234801561001057600080fd5b50600436106100a35760003560e01c80637ee3d88911610076578063a1308f271161005b578063a1308f2714610190578063f205beb0146101b7578063fa258bf9146101ca57600080fd5b80637ee3d8891461016a57806382d7af8f1461017d57600080fd5b8063045c08d5146100a8578063465734c8146100f957806369a92ea31461010e578063735de9f714610143575b600080fd5b6100cf7f000000000000000000000000000000000000000000000000000000000000000081565b60405173ffffffffffffffffffffffffffffffffffffffff90911681526020015b60405180910390f35b61010c610107366004613199565b6101dd565b005b6101357f000000000000000000000000000000000000000000000000000000000000000081565b6040519081526020016100f0565b6100cf7f000000000000000000000000000000000000000000000000000000000000000081565b61010c6101783660046132ff565b61050c565b61010c61018b366004613334565b6107d8565b6101357f000000000000000000000000000000000000000000000000000000000000000081565b61010c6101c5366004613199565b6109f3565b61010c6101d83660046132ff565b610c4b565b60016000541461024e576040517f08c379a000000000000000000000000000000000000000000000000000000000815260206004820152600c60248201527f652f7265656e7472616e6379000000000000000000000000000000000000000060448201526064015b60405180910390fd5b6002600081905550600061027b826040015183606001518460800151856000015186602001516003610e3d565b6080830151610120820152604083015160a08401519192506102be917f0000000000000000000000000000000000000000000000000000000000000000906112c7565b60007f000000000000000000000000000000000000000000000000000000000000000073ffffffffffffffffffffffffffffffffffffffff1663db3e2198604051806101000160405280866040015173ffffffffffffffffffffffffffffffffffffffff168152602001866060015173ffffffffffffffffffffffffffffffffffffffff1681526020018660e0015162ffffff1681526020013073ffffffffffffffffffffffffffffffffffffffff16815260200160008760c0015111610385574261038b565b8660c001515b8152602001866080015181526020018660a00151815260200186610100015173ffffffffffffffffffffffffffffffffffffffff168152506040518263ffffffff1660e01b81526004016103df91906133eb565b6020604051808303816000875af11580156103fe573d6000803e3d6000fd5b505050506040513d601f19601f820116820180604052508101906104229190613466565b90507fffffffffffffffffffffffffffffffffffffffffffffffffffffffffffffffff8114156104ae576040517f08c379a000000000000000000000000000000000000000000000000000000000815260206004820152601a60248201527f652f737761702f65786163742d6f75742d616d6f756e742d696e0000000000006044820152606401610245565b6104b8828261140b565b6104c1826114e2565b8260a0015182610100015110156105025761050283604001517f000000000000000000000000000000000000000000000000000000000000000060006112c7565b5050600160005550565b600160005414610578576040517f08c379a000000000000000000000000000000000000000000000000000000000815260206004820152600c60248201527f652f7265656e7472616e637900000000000000000000000000000000000000006044820152606401610245565b60026000819055506000806105928360a0015160016116b1565b9150915060006105b383838660400151876000015188602001516004610e3d565b90508360400151816101200181815250506105f3837f000000000000000000000000000000000000000000000000000000000000000086606001516112c7565b60007f000000000000000000000000000000000000000000000000000000000000000073ffffffffffffffffffffffffffffffffffffffff1663f28c04986040518060a001604052808860a0015181526020013073ffffffffffffffffffffffffffffffffffffffff1681526020016000896080015111610674574261067a565b88608001515b81526020018860400151815260200188606001518152506040518263ffffffff1660e01b81526004016106ad9190613558565b6020604051808303816000875af11580156106cc573d6000803e3d6000fd5b505050506040513d601f19601f820116820180604052508101906106f09190613466565b90507fffffffffffffffffffffffffffffffffffffffffffffffffffffffffffffffff81141561077c576040517f08c379a000000000000000000000000000000000000000000000000000000000815260206004820152601a60248201527f652f737761702f65786163742d6f75742d616d6f756e742d696e0000000000006044820152606401610245565b610786828261140b565b61078f826114e2565b846060015182610100015110156107cc576107cc847f000000000000000000000000000000000000000000000000000000000000000060006112c7565b50506001600055505050565b600160005414610844576040517f08c379a000000000000000000000000000000000000000000000000000000000815260206004820152600c60248201527f652f7265656e7472616e637900000000000000000000000000000000000000006044820152606401610245565b60026000819055506000610871826040015183606001518460800151856000015186602001516005610e3d565b905061088181836080015161140b565b6108b582604001517f00000000000000000000000000000000000000000000000000000000000000008361010001516112c7565b6000807f000000000000000000000000000000000000000000000000000000000000000073ffffffffffffffffffffffffffffffffffffffff168460c00151604051610901919061356b565b6000604051808303816000865af19150503d806000811461093e576040519150601f19603f3d011682016040523d82523d6000602084013e610943565b606091505b5091509150816109565761095681611805565b8080602001905181019061096a9190613466565b610120840181905260a085015111156109df576040517f08c379a000000000000000000000000000000000000000000000000000000000815260206004820152601560248201527f652f737761702f6d696e2d616d6f756e742d6f757400000000000000000000006044820152606401610245565b6109e8836114e2565b505060016000555050565b600160005414610a5f576040517f08c379a000000000000000000000000000000000000000000000000000000000815260206004820152600c60248201527f652f7265656e7472616e637900000000000000000000000000000000000000006044820152606401610245565b60026000819055506000610a8c826040015183606001518460800151856000015186602001516001610e3d565b9050610a9c81836080015161140b565b610ad082604001517f00000000000000000000000000000000000000000000000000000000000000008361010001516112c7565b7f000000000000000000000000000000000000000000000000000000000000000073ffffffffffffffffffffffffffffffffffffffff1663414bf389604051806101000160405280856040015173ffffffffffffffffffffffffffffffffffffffff168152602001856060015173ffffffffffffffffffffffffffffffffffffffff1681526020018560e0015162ffffff1681526020013073ffffffffffffffffffffffffffffffffffffffff16815260200160008660c0015111610b955742610b9b565b8560c001515b815260200184610100015181526020018560a00151815260200185610100015173ffffffffffffffffffffffffffffffffffffffff168152506040518263ffffffff1660e01b8152600401610bf091906133eb565b6020604051808303816000875af1158015610c0f573d6000803e3d6000fd5b505050506040513d601f19601f82011682018060405250810190610c339190613466565b610120820152610c42816114e2565b50506001600055565b600160005414610cb7576040517f08c379a000000000000000000000000000000000000000000000000000000000815260206004820152600c60248201527f652f7265656e7472616e637900000000000000000000000000000000000000006044820152606401610245565b6002600081905550600080610cd18360a0015160006116b1565b915091506000610cf283838660400151876000015188602001516002610e3d565b9050610d0281856040015161140b565b610d32837f00000000000000000000000000000000000000000000000000000000000000008361010001516112c7565b7f000000000000000000000000000000000000000000000000000000000000000073ffffffffffffffffffffffffffffffffffffffff1663c04b8d596040518060a001604052808760a0015181526020013073ffffffffffffffffffffffffffffffffffffffff1681526020016000886080015111610db15742610db7565b87608001515b8152602001846101000151815260200187606001518152506040518263ffffffff1660e01b8152600401610deb9190613558565b6020604051808303816000875af1158015610e0a573d6000803e3d6000fd5b505050506040513d601f19601f82011682018060405250810190610e2e9190613466565b6101208201526109e8816114e2565b610f8160408051610160808201835260008083526020808401829052838501829052606080850183905285516101e081018752838152918201839052948101829052938401819052608084810182905260a0850182905260c0850182905260e0850182905261010085018290526101208501829052610140850182905291840181905261018084018190526101a084018190526101c08401529091908201908152604080516101e08101825260008082526020828101829052928201819052606082018190526080820181905260a0820181905260c0820181905260e08201819052610100820181905261012082018190526101408201819052610160820181905261018082018190526101a082018190526101c0820152910190815260200160008152602001600081526020016000815260200160008152602001600081525090565b8573ffffffffffffffffffffffffffffffffffffffff168773ffffffffffffffffffffffffffffffffffffffff161415611017576040517f08c379a000000000000000000000000000000000000000000000000000000000815260206004820152600b60248201527f652f737761702f73616d650000000000000000000000000000000000000000006044820152606401610245565b6000611021611876565b905061102d818661188c565b73ffffffffffffffffffffffffffffffffffffffff16825261104f818561188c565b73ffffffffffffffffffffffffffffffffffffffff166020830152815161107590611904565b816020015173ffffffffffffffffffffffffffffffffffffffff16826000015173ffffffffffffffffffffffffffffffffffffffff16146110bd576110bd8260200151611904565b60208281015183516040805173ffffffffffffffffffffffffffffffffffffffff8c811682529481018b90529081018790528b84169392831692909116907e67954c8a2fb8cdfeea6b19b552f81a3f98fb552a868f29df939556a2c57fff9060600160405180910390a473ffffffffffffffffffffffffffffffffffffffff80891660009081526008602081815260408084205485168782019081528c86168552928252808420548516606088019081528351861685526009909252808420915185168452909220905191929091166111f2576040517f08c379a000000000000000000000000000000000000000000000000000000000815260206004820152601e60248201527f652f737761702f696e2d6d61726b65742d6e6f742d61637469766174656400006044820152606401610245565b606084015173ffffffffffffffffffffffffffffffffffffffff16611273576040517f08c379a000000000000000000000000000000000000000000000000000000000815260206004820152601f60248201527f652f737761702f6f75742d6d61726b65742d6e6f742d616374697661746564006044820152606401610245565b61127d8a836119ea565b608085015261128c89826119ea565b60a085015260808401516112a09030611b4b565b60c085015260a08401516112b49030611b4b565b60e0850152509198975050505050505050565b6040805173ffffffffffffffffffffffffffffffffffffffff8481166024830152604480830185905283518084039091018152606490920183526020820180517bffffffffffffffffffffffffffffffffffffffffffffffffffffffff167f095ea7b300000000000000000000000000000000000000000000000000000000179052915160009283929087169161135e919061356b565b6000604051808303816000865af19150503d806000811461139b576040519150601f19603f3d011682016040523d82523d6000602084013e6113a0565b606091505b50915091508180156113ca5750805115806113ca5750808060200190518101906113ca9190613597565b8190611403576040517f08c379a000000000000000000000000000000000000000000000000000000000815260040161024591906135b2565b505050505050565b60408083015173ffffffffffffffffffffffffffffffffffffffff1660009081526009602052206080830151835161144592919084611c68565b610140840152608083015161018001519091508111156114c1576040517f08c379a000000000000000000000000000000000000000000000000000000000815260206004820152601d60248201527f652f737761702f696e73756666696369656e742d706f6f6c2d73697a650000006044820152606401610245565b60808201516101a001516114d59082613623565b6101009092019190915250565b60006114f2826080015130611b4b565b90508161010001518260c001516115099190613637565b8114611571576040517f08c379a000000000000000000000000000000000000000000000000000000000815260206004820152601160248201527f652f737761702f62616c616e63652d696e0000000000000000000000000000006044820152606401610245565b8161012001518260e00151611586919061364e565b6115948360a0015130611b4b565b146115fb576040517f08c379a000000000000000000000000000000000000000000000000000000000815260206004820152601260248201527f652f737761702f62616c616e63652d6f757400000000000000000000000000006044820152606401610245565b6040808301805173ffffffffffffffffffffffffffffffffffffffff1660009081526009602052919091206080840151915184516101408601516116429492919086611d05565b6116a260096000846060015173ffffffffffffffffffffffffffffffffffffffff1673ffffffffffffffffffffffffffffffffffffffff1681526020019081526020016000208360a0015184606001518560200151866101200151611d2b565b81516116ad90611d5c565b5050565b600080602b84511015611720576040517f08c379a000000000000000000000000000000000000000000000000000000000815260206004820152601660248201527f652f737761702f756e692d706174682d6c656e677468000000000000000000006044820152606401610245565b6017601485516117309190613637565b61173a9190613666565b156117a1576040517f08c379a000000000000000000000000000000000000000000000000000000000815260206004820152601660248201527f652f737761702f756e692d706174682d666f726d6174000000000000000000006044820152606401610245565b60208401516000906c010000000000000000000000009004905060006117e786601488516117cf9190613637565b01602001516c01000000000000000000000000900490565b9050846117f55781816117f8565b80825b9350935050509250929050565b80511561181457805181602001fd5b6040517f08c379a000000000000000000000000000000000000000000000000000000000815260206004820152600d60248201527f652f656d7074792d6572726f72000000000000000000000000000000000000006044820152606401610245565b600080600052601460283603600c375060005190565b600061010082106118f9576040517f08c379a000000000000000000000000000000000000000000000000000000000815260206004820152601860248201527f652f7375622d6163636f756e742d69642d746f6f2d62696700000000000000006044820152606401610245565b508181185b92915050565b73ffffffffffffffffffffffffffffffffffffffff8116600090815260066020526040902054610100900464ffffffffff168061193f575050565b600061194b8242613637565b90508061195757505050565b73ffffffffffffffffffffffffffffffffffffffff8316600090815260066020526040902080547fffffffffffffffffffffffffffffffffffffffffffffffffffff0000000000ff166101004264ffffffffff16021790556119b98382611ebd565b73ffffffffffffffffffffffffffffffffffffffff9093166000908152600660205260409020600101929092555050565b604080516101e081018252600080825260208201819052918101829052606081018290526080810182905260a0810182905260c0810182905260e08101829052610100810182905261012081018290526101408101829052610160810182905261018081018290526101a081018290526101c0810191909152611a6e838383611f88565b156118fe5760a0810151825464ffffffffff9091167fffffffffffffffffffffffffffffffffffffffffffffffffffffff0000000000909116178255805160608201516bffffffffffffffffffffffff16740100000000000000000000000000000000000000000273ffffffffffffffffffffffffffffffffffffffff9091161760018301556020810151604082015171ffffffffffffffffffffffffffffffffffff166e010000000000000000000000000000026dffffffffffffffffffffffffffff9091161760038301556080810151600483015592915050565b60408051835173ffffffffffffffffffffffffffffffffffffffff848116602480850191909152845180850390910181526044840185526020810180517bffffffffffffffffffffffffffffffffffffffffffffffffffffffff167f70a08231000000000000000000000000000000000000000000000000000000001790529351600094859384931691614e2091611be29161356b565b6000604051808303818686fa925050503d8060008114611c1e576040519150601f19603f3d011682016040523d82523d6000602084013e611c23565b606091505b5091509150811580611c36575060208151105b15611c4657600093505050611c5f565b80806020019051810190611c5a9190613466565b935050505b60405292915050565b60008060007fffffffffffffffffffffffffffffffffffffffffffffffffffffffffffffffff841415611cdf575073ffffffffffffffffffffffffffffffffffffffff841660009081526005870160205260409020546dffffffffffffffffffffffffffff16611cd886826123fb565b9350611cf8565b611ce9868561242e565b9350611cf586856124ab565b90505b9296929550919350505050565b611d0f858261242e565b610180860152611d2286868686866124e1565b611403856126b6565b6000611d378583612795565b9050818561018001818151611d4c919061364e565b905250611d2286868686856127b6565b73ffffffffffffffffffffffffffffffffffffffff811660009081526006602052604090205460ff1680611e5f5760405173ffffffffffffffffffffffffffffffffffffffff83166024820152611e5a90620f4240907fc39b543a00000000000000000000000000000000000000000000000000000000906044015b604080517fffffffffffffffffffffffffffffffffffffffffffffffffffffffffffffffe08184030181529190526020810180517bffffffffffffffffffffffffffffffffffffffffffffffffffffffff167fffffffff0000000000000000000000000000000000000000000000000000000090931692909217909152612925565b505050565b60ff8116600114156116ad5773ffffffffffffffffffffffffffffffffffffffff8216600090815260066020526040902080547fffffffffffffffffffffffffffffffffffffffffffffffffffffffffffffff001660021790555050565b60008062015180831015611ed15782611ed6565b620151805b90506000611ee78262015180613637565b90506000806000611ef7886129b4565b91509150808211611f09576000611f13565b611f138183613637565b92505050620151808382611f27919061367a565b611f319190613623565b73ffffffffffffffffffffffffffffffffffffffff87166000908152600660205260409020600101546201518090611f6a90859061367a565b611f749190613623565b611f7e919061364e565b9695505050505050565b73ffffffffffffffffffffffffffffffffffffffff83168152815464ffffffffff811660a083015265010000000000810460ff90811660c084018190526601000000000000830463ffffffff90811660e08601526a01000000000000000000008404600b0b610100860152760100000000000000000000000000000000000000000000840481166101208601527a010000000000000000000000000000000000000000000000000000840461ffff166101408601527c010000000000000000000000000000000000000000000000000000000090930490921661016084015260018401547401000000000000000000000000000000000000000090046bffffffffffffffffffffffff16606084015260038401546dffffffffffffffffffffffffffff80821660208601526e01000000000000000000000000000090910471ffffffffffffffffffffffffffffffffffff166040850152600485015460808501526012839003909116600a0a6101a08401819052600092918161210d5761210d6135c5565b046101c084015260006121208430611b4b565b9050836101c001518111612141576101a0840151810261018085015261214a565b60006101808501525b8360a0015164ffffffffff1642146123f2576001925060008460a0015164ffffffffff16426121799190613637565b905060006b033b2e3c9fd0803ce800000086608001516121c5886101000151600b0b6b033b2e3c9fd0803ce80000006121b291906136b7565b856b033b2e3c9fd0803ce8000000612a39565b6121cf919061367a565b6121d99190613623565b90506000866080015182886040015171ffffffffffffffffffffffffffffffffffff16612206919061367a565b6122109190613623565b606088015160208901519192506bffffffffffffffffffffffff16906dffffffffffffffffffffffffffff166000612250633b9aca0063ee6b280061367a565b6101208b015163ffffffff9081161461226e578a6101200151612274565b6336d616005b63ffffffff168b6040015171ffffffffffffffffffffffffffffffffffff168661229e9190613637565b6122a8919061367a565b6122b29190613623565b9050801561232a5760006122ca633b9aca0086613623565b8b61018001516122da919061364e565b90506122e68282613637565b6122f0848361367a565b6122fa9190613623565b92508a602001516dffffffffffffffffffffffffffff168361231c9190613637565b612326908561364e565b9350505b6dffffffffffffffffffffffffffff821180159061235a575071ffffffffffffffffffffffffffffffffffff8411155b156123eb5761236884612af6565b71ffffffffffffffffffffffffffffffffffff1660408b015260808a0185905264ffffffffff421660a08b015260208a01516dffffffffffffffffffffffffffff1682146123eb576123b983612b9e565b6bffffffffffffffffffffffff1660608b01526123d582612c3c565b6dffffffffffffffffffffffffffff1660208b01525b5050505050505b50509392505050565b60008061240784612cb6565b9050670de0b6b3a764000061241c828561367a565b6124269190613623565b949350505050565b6000826101c0015182111561249f576040517f08c379a000000000000000000000000000000000000000000000000000000000815260206004820152601260248201527f652f616d6f756e742d746f6f2d6c6172676500000000000000000000000000006044820152606401610245565b506101a0909101510290565b6000806124b784612cb6565b9050806124c5600182613637565b6124d785670de0b6b3a764000061367a565b61241c919061364e565b73ffffffffffffffffffffffffffffffffffffffff821660009081526005860160205260409020546dffffffffffffffffffffffffffff1681811015612583576040517f08c379a000000000000000000000000000000000000000000000000000000000815260206004820152601660248201527f652f696e73756666696369656e742d62616c616e6365000000000000000000006044820152606401610245565b6125956125908383613637565b612c3c565b73ffffffffffffffffffffffffffffffffffffffff84166000908152600588016020908152604090912080547fffffffffffffffffffffffffffffffffffff0000000000000000000000000000166dffffffffffffffffffffffffffff93841617905586015161260b9161259091859116613637565b6dffffffffffffffffffffffffffff16602086018190526003870180547fffffffffffffffffffffffffffffffffffff00000000000000000000000000001690911790556126598686612d4d565b845160405183815273ffffffffffffffffffffffffffffffffffffffff8086169216907f9b1bfa7fa9ee420a16e124f794c35ac9f90472acc99140eb2f6447c714cad8eb9060200160405180910390a36114038484600085612eb6565b806000015173ffffffffffffffffffffffffffffffffffffffff167f2f2d732e1a7a15fe7a2e51d3482efe83ff791579cebc5e3cd12cd2064374bc7f8260200151633b9aca00846040015171ffffffffffffffffffffffffffffffffffff1661271f9190613623565b6060808601516101808701516080808901516101008a0151604080516dffffffffffffffffffffffffffff909916895260208901979097526bffffffffffffffffffffffff909416958701959095529285015290830191909152600b0b60a08201524260c082015260e00160405180910390a250565b6000806127a184612cb6565b90508061241c84670de0b6b3a764000061367a565b73ffffffffffffffffffffffffffffffffffffffff821660009081526005860160205260409020546127fd906125909083906dffffffffffffffffffffffffffff1661364e565b73ffffffffffffffffffffffffffffffffffffffff83166000908152600587016020908152604090912080547fffffffffffffffffffffffffffffffffffff0000000000000000000000000000166dffffffffffffffffffffffffffff938416179055850151612873916125909184911661364e565b6dffffffffffffffffffffffffffff16602085018190526003860180547fffffffffffffffffffffffffffffffffffff00000000000000000000000000001690911790556128c18585612d4d565b835160405182815273ffffffffffffffffffffffffffffffffffffffff8085169216907f5548c837ab068cf56a2c2479df0882a4922fd203edb7517321831d95078c5f629060200160405180910390a361291e8360008484612eb6565b5050505050565b60008281526003602052604080822054905160609291829173ffffffffffffffffffffffffffffffffffffffff9091169061296190869061356b565b600060405180830381855af49150503d806000811461299c576040519150601f19603f3d011682016040523d82523d6000602084013e6129a1565b606091505b5091509150816124265761242681611805565b60405173ffffffffffffffffffffffffffffffffffffffff8216602482015260009081908190612a0d90620f4240907f37fe974a0000000000000000000000000000000000000000000000000000000090604401611dd8565b9050600081806020019051810190612a25919061372b565b805160209091015190969095509350505050565b6000838015612ad957600184168015612a5457859250612a58565b8392505b50600283046002850494505b8415612ad3578586028687820414612a7b57600080fd5b81810181811015612a8b57600080fd5b8590049650506001851615612ac8578583028387820414158715151615612ab157600080fd5b81810181811015612ac157600080fd5b8590049350505b600285049450612a64565b50612aee565b838015612ae957600092506123f2565b839250505b509392505050565b600071ffffffffffffffffffffffffffffffffffff821115612b9a576040517f08c379a000000000000000000000000000000000000000000000000000000000815260206004820152602160248201527f652f646562742d616d6f756e742d746f6f2d6c617267652d746f2d656e636f6460448201527f65000000000000000000000000000000000000000000000000000000000000006064820152608401610245565b5090565b60006bffffffffffffffffffffffff821115612b9a576040517f08c379a000000000000000000000000000000000000000000000000000000000815260206004820152602260248201527f652f736d616c6c2d616d6f756e742d746f6f2d6c617267652d746f2d656e636f60448201527f64650000000000000000000000000000000000000000000000000000000000006064820152608401610245565b60006dffffffffffffffffffffffffffff821115612b9a576040517f08c379a000000000000000000000000000000000000000000000000000000000815260206004820152601c60248201527f652f616d6f756e742d746f6f2d6c617267652d746f2d656e636f6465000000006044820152606401610245565b600081602001516dffffffffffffffffffffffffffff1660001415612ce45750670de0b6b3a7640000919050565b81602001516dffffffffffffffffffffffffffff16633b9aca00836040015171ffffffffffffffffffffffffffffffffffff16612d219190613623565b836101800151612d31919061364e565b612d4390670de0b6b3a764000061367a565b6118fe9190613623565b600080633b9aca00836040015171ffffffffffffffffffffffffffffffffffff16612d789190613623565b9050600081846101800151612d8d919061364e565b905080612d9d5760009250612dd6565b670de0b6b3a764000081612db563ffffffff8361367a565b612dbf908561367a565b612dc99190613623565b612dd39190613623565b92505b505060e0820151825160405173ffffffffffffffffffffffffffffffffffffffff909116602482015263ffffffff8381166044830152600092612e40929116907fd50c08f80000000000000000000000000000000000000000000000000000000090606401611dd8565b9050600081806020019051810190612e589190613795565b600b81900b61010090950194909452505082546bffffffffffffffffffffffff9092166a0100000000000000000000027fffffffffffffffffffff000000000000000000000000ffffffffffffffffffff9092169190911790915550565b6000604051905060008573ffffffffffffffffffffffffffffffffffffffff1660036040518060600160405280602181526020016137b960219139805160209182012060405160f89390931b7fff000000000000000000000000000000000000000000000000000000000000001691830191909152602182015273ffffffffffffffffffffffffffffffffffffffff8781166041830152861660618201526081810185905260a101604080517fffffffffffffffffffffffffffffffffffffffffffffffffffffffffffffffe081840301815290829052612f969161356b565b6000604051808303816000865af19150503d8060008114612fd3576040519150601f19603f3d011682016040523d82523d6000602084013e612fd8565b606091505b5050905080613043576040517f08c379a000000000000000000000000000000000000000000000000000000000815260206004820152601060248201527f652f6c6f672d70726f78792d6661696c000000000000000000000000000000006044820152606401610245565b5060405250505050565b7f4e487b7100000000000000000000000000000000000000000000000000000000600052604160045260246000fd5b604051610120810167ffffffffffffffff811182821017156130a0576130a061304d565b60405290565b60405160e0810167ffffffffffffffff811182821017156130a0576130a061304d565b803573ffffffffffffffffffffffffffffffffffffffff811681146130ed57600080fd5b919050565b803562ffffff811681146130ed57600080fd5b6000610120828403121561311857600080fd5b61312061307c565b9050813581526020820135602082015261313c604083016130c9565b604082015261314d606083016130c9565b60608201526080820135608082015260a082013560a082015260c082013560c082015261317c60e083016130f2565b60e082015261010061318f8184016130c9565b9082015292915050565b600061012082840312156131ac57600080fd5b6131b68383613105565b9392505050565b600082601f8301126131ce57600080fd5b813567ffffffffffffffff808211156131e9576131e961304d565b604051601f83017fffffffffffffffffffffffffffffffffffffffffffffffffffffffffffffffe0908116603f0116810190828211818310171561322f5761322f61304d565b8160405283815286602085880101111561324857600080fd5b836020870160208301376000602085830101528094505050505092915050565b600060c0828403121561327a57600080fd5b60405160c0810167ffffffffffffffff828210818311171561329e5761329e61304d565b81604052829350843583526020850135602084015260408501356040840152606085013560608401526080850135608084015260a08501359150808211156132e557600080fd5b506132f2858286016131bd565b60a0830152505092915050565b60006020828403121561331157600080fd5b813567ffffffffffffffff81111561332857600080fd5b61242684828501613268565b60006020828403121561334657600080fd5b813567ffffffffffffffff8082111561335e57600080fd5b9083019060e0828603121561337257600080fd5b61337a6130a6565b8235815260208301356020820152613394604084016130c9565b60408201526133a5606084016130c9565b60608201526080830135608082015260a083013560a082015260c0830135828111156133d057600080fd5b6133dc878286016131bd565b60c08301525095945050505050565b61010081016118fe828473ffffffffffffffffffffffffffffffffffffffff80825116835280602083015116602084015262ffffff60408301511660408401528060608301511660608401526080820151608084015260a082015160a084015260c082015160c08401528060e08301511660e0840152505050565b60006020828403121561347857600080fd5b5051919050565b60005b8381101561349a578181015183820152602001613482565b838111156134a9576000848401525b50505050565b600081518084526134c781602086016020860161347f565b601f017fffffffffffffffffffffffffffffffffffffffffffffffffffffffffffffffe0169290920160200192915050565b6000815160a0845261350e60a08501826134af565b905073ffffffffffffffffffffffffffffffffffffffff60208401511660208501526040830151604085015260608301516060850152608083015160808501528091505092915050565b6020815260006131b660208301846134f9565b6000825161357d81846020870161347f565b9190910192915050565b805180151581146130ed57600080fd5b6000602082840312156135a957600080fd5b6131b682613587565b6020815260006131b660208301846134af565b7f4e487b7100000000000000000000000000000000000000000000000000000000600052601260045260246000fd5b7f4e487b7100000000000000000000000000000000000000000000000000000000600052601160045260246000fd5b600082613632576136326135c5565b500490565b600082821015613649576136496135f4565b500390565b60008219821115613661576136616135f4565b500190565b600082613675576136756135c5565b500690565b6000817fffffffffffffffffffffffffffffffffffffffffffffffffffffffffffffffff04831182151516156136b2576136b26135f4565b500290565b6000808212827f7fffffffffffffffffffffffffffffffffffffffffffffffffffffffffffffff038413811516156136f1576136f16135f4565b827f8000000000000000000000000000000000000000000000000000000000000000038412811615613725576137256135f4565b50500190565b60006080828403121561373d57600080fd5b6040516080810181811067ffffffffffffffff821117156137605761376061304d565b806040525082518152602083015160208201526040830151604082015261378960608401613587565b60608201529392505050565b6000602082840312156137a757600080fd5b815180600b0b81146131b657600080fdfe5472616e7366657228616464726573732c616464726573732c75696e7432353629a264697066735822122066740f7d2f9b8226268f1b54d76deebbdc69e57a22c2b3fde8ca59434c54269664736f6c634300080a0033",
  "linkReferences": {},
  "deployedLinkReferences": {}
}