{
  "_format": "hh-sol-artifact-1",
  "contractName": "MockUniswapV3Factory",
  "sourceName": "contracts/test/MockUniswapV3Factory.sol",
  "abi": [
    {
      "inputs": [
        {
          "internalType": "address",
          "name": "tokenA",
          "type": "address"
        },
        {
          "internalType": "address",
          "name": "tokenB",
          "type": "address"
        },
        {
          "internalType": "uint24",
          "name": "fee",
          "type": "uint24"
        }
      ],
      "name": "createPool",
      "outputs": [
        {
          "internalType": "address",
          "name": "pool",
          "type": "address"
        }
      ],
      "stateMutability": "nonpayable",
      "type": "function"
    },
    {
      "inputs": [
        {
          "internalType": "address",
          "name": "",
          "type": "address"
        },
        {
          "internalType": "address",
          "name": "",
          "type": "address"
        },
        {
          "internalType": "uint24",
          "name": "",
          "type": "uint24"
        }
      ],
      "name": "getPool",
      "outputs": [
        {
          "internalType": "address",
          "name": "",
          "type": "address"
        }
      ],
      "stateMutability": "view",
      "type": "function"
    },
    {
      "inputs": [],
      "name": "parameters",
      "outputs": [
        {
          "internalType": "address",
          "name": "factory",
          "type": "address"
        },
        {
          "internalType": "address",
          "name": "token0",
          "type": "address"
        },
        {
          "internalType": "address",
          "name": "token1",
          "type": "address"
        },
        {
          "internalType": "uint24",
          "name": "fee",
          "type": "uint24"
        },
        {
          "internalType": "int24",
          "name": "tickSpacing",
          "type": "int24"
        }
      ],
      "stateMutability": "view",
      "type": "function"
    },
    {
      "inputs": [
        {
          "internalType": "address",
          "name": "tokenA",
          "type": "address"
        },
        {
          "internalType": "address",
          "name": "tokenB",
          "type": "address"
        },
        {
          "internalType": "uint24",
          "name": "fee",
          "type": "uint24"
        },
        {
          "internalType": "address",
          "name": "newAddress",
          "type": "address"
        }
      ],
      "name": "setPoolAddress",
      "outputs": [],
      "stateMutability": "nonpayable",
      "type": "function"
    }
  ],
  "bytecode": "0x608060405234801561001057600080fd5b50611e41806100206000396000f3fe608060405234801561001057600080fd5b506004361061004c5760003560e01c80631079a008146100515780631698ee821461006657806389035730146100d6578063a167129514610192575b600080fd5b61006461005f366004610637565b6101a5565b005b6100ac61007436600461068b565b6000602081815293815260408082208552928152828120909352825290205473ffffffffffffffffffffffffffffffffffffffff1681565b60405173ffffffffffffffffffffffffffffffffffffffff90911681526020015b60405180910390f35b600154600280546003546101449373ffffffffffffffffffffffffffffffffffffffff90811693928116929082169162ffffff740100000000000000000000000000000000000000008204169177010000000000000000000000000000000000000000000000909104900b85565b6040805173ffffffffffffffffffffffffffffffffffffffff96871681529486166020860152929094169183019190915262ffffff16606082015260029190910b608082015260a0016100cd565b6100ac6101a036600461068b565b610283565b6000808473ffffffffffffffffffffffffffffffffffffffff168673ffffffffffffffffffffffffffffffffffffffff16106101e25784866101e5565b85855b73ffffffffffffffffffffffffffffffffffffffff91821660008181526020818152604080832094861680845294825280832062ffffff909a168084529982528083208054969099167fffffffffffffffffffffffff00000000000000000000000000000000000000009687168117909955938252818152838220928252918252828120978152969052909420805490941690921790925550505050565b60008273ffffffffffffffffffffffffffffffffffffffff168473ffffffffffffffffffffffffffffffffffffffff1614156102be57600080fd5b6000808473ffffffffffffffffffffffffffffffffffffffff168673ffffffffffffffffffffffffffffffffffffffff16106102fb5784866102fe565b85855b909250905073ffffffffffffffffffffffffffffffffffffffff821661032357600080fd5b73ffffffffffffffffffffffffffffffffffffffff8281166000908152602081815260408083208585168452825280832062ffffff89168452909152902054161561036d57600080fd5b61037b308383876000610417565b73ffffffffffffffffffffffffffffffffffffffff92831660008181526020818152604080832095871680845295825280832062ffffff90991680845298825280832080549786167fffffffffffffffffffffffff000000000000000000000000000000000000000098891681179091559583528282528083209383529281528282209782529690965290942080549092161790555092915050565b6040805160a08101825273ffffffffffffffffffffffffffffffffffffffff878116808352878216602080850182905292881684860181905262ffffff888116606080880182905260028a810b6080998a0152600180547fffffffffffffffffffffffff0000000000000000000000000000000000000000908116909817905580549096168517909555600380547fffffffffffffffffff0000000000000000000000000000000000000000000000168417740100000000000000000000000000000000000000008302177fffffffffffff000000ffffffffffffffffffffffffffffffffffffffffffffff1677010000000000000000000000000000000000000000000000938b169390930292909217909155865194850192909252948301949094528101929092526000910160405160208183030381529060405280519060200120604051610567906105ee565b8190604051809103906000f5905080158015610587573d6000803e3d6000fd5b50600180547fffffffffffffffffffffffff0000000000000000000000000000000000000000908116909155600280549091169055600380547fffffffffffff00000000000000000000000000000000000000000000000000001690559695505050505050565b61173d806106cf83390190565b803573ffffffffffffffffffffffffffffffffffffffff8116811461061f57600080fd5b919050565b803562ffffff8116811461061f57600080fd5b6000806000806080858703121561064d57600080fd5b610656856105fb565b9350610664602086016105fb565b925061067260408601610624565b9150610680606086016105fb565b905092959194509250565b6000806000606084860312156106a057600080fd5b6106a9846105fb565b92506106b7602085016105fb565b91506106c560408501610624565b9050925092509256fe6101006040523480156200001257600080fd5b50336001600160a01b031663890357306040518163ffffffff1660e01b815260040160a060405180830381865afa15801562000052573d6000803e3d6000fd5b505050506040513d601f19601f82011682018060405250810190620000789190620000bc565b5062ffffff1660e0526001600160a01b0390811660c05290811660a0521660805262000140565b80516001600160a01b0381168114620000b757600080fd5b919050565b600080600080600060a08688031215620000d557600080fd5b620000e0866200009f565b9450620000f0602087016200009f565b935062000100604087016200009f565b9250606086015162ffffff811681146200011957600080fd5b8092505060808601518060020b81146200013257600080fd5b809150509295509295909350565b60805160a05160c05160e0516115c46200017960003960006103960152600061036f0152600060f4015260006102ec01526115c46000f3fe608060405234801561001057600080fd5b50600436106100ea5760003560e01c8063c45a01551161008c578063ddca3f4311610066578063ddca3f4314610391578063eaffb078146103cc578063f38e1838146103df578063f637731d1461043a57600080fd5b8063c45a0155146102e7578063cd44c8311461030e578063d21220a71461036a57600080fd5b80633850c7bd116100c85780633850c7bd146101b757806362cc77901461020b5780637c5ce3c614610268578063883bdbfd146102c657600080fd5b80630dfe1681146100ef578063252c09d71461014057806332148f67146101a2575b600080fd5b6101167f000000000000000000000000000000000000000000000000000000000000000081565b60405173ffffffffffffffffffffffffffffffffffffffff90911681526020015b60405180910390f35b61015b61014e366004611289565b6000808060019193509193565b6040805163ffffffff909516855260069390930b602085015273ffffffffffffffffffffffffffffffffffffffff9091169183019190915215156060820152608001610137565b6101b56101b03660046112a2565b61044d565b005b600080546040805173ffffffffffffffffffffffffffffffffffffffff909216825260208201839052600190820181905260608201819052608082015260a0810182905260c081019190915260e001610137565b6101b56102193660046112cd565b60008054911515790100000000000000000000000000000000000000000000000000027fffffffffffff00ffffffffffffffffffffffffffffffffffffffffffffffffff909216919091179055565b6101b56102763660046112cd565b600080549115157a010000000000000000000000000000000000000000000000000000027fffffffffff00ffffffffffffffffffffffffffffffffffffffffffffffffffff909216919091179055565b6102d96102d43660046112ef565b6105e6565b604051610137929190611364565b6101167f000000000000000000000000000000000000000000000000000000000000000081565b6101b561031c3660046112cd565b600080549115157801000000000000000000000000000000000000000000000000027fffffffffffffff00ffffffffffffffffffffffffffffffffffffffffffffffff909216919091179055565b6101167f000000000000000000000000000000000000000000000000000000000000000081565b6103b87f000000000000000000000000000000000000000000000000000000000000000081565b60405162ffffff9091168152602001610137565b6101b56103da3660046113f8565b610a8a565b6101b56103ed3660046112cd565b6000805491151577010000000000000000000000000000000000000000000000027fffffffffffffffff00ffffffffffffffffffffffffffffffffffffffffffffff909216919091179055565b6101b56104483660046113f8565b610b23565b6000547801000000000000000000000000000000000000000000000000900460ff16156104db576040517f08c379a000000000000000000000000000000000000000000000000000000000815260206004820152600360248201527f4c4f4b000000000000000000000000000000000000000000000000000000000060448201526064015b60405180910390fd5b600054790100000000000000000000000000000000000000000000000000900460ff1615610565576040517f08c379a000000000000000000000000000000000000000000000000000000000815260206004820152600560248201527f4f5448455200000000000000000000000000000000000000000000000000000060448201526064016104d2565b6000547a010000000000000000000000000000000000000000000000000000900460ff161561059357600080fd5b50600080547fffffffffffffff00ffffffffffffffffffffffffffffffffffffffffffffffff811678010000000000000000000000000000000000000000000000009182900460ff161515909102179055565b600054606090819077010000000000000000000000000000000000000000000000900460ff1615610673576040517f08c379a000000000000000000000000000000000000000000000000000000000815260206004820152600360248201527f4f4c44000000000000000000000000000000000000000000000000000000000060448201526064016104d2565b600054790100000000000000000000000000000000000000000000000000900460ff16156106fd576040517f08c379a000000000000000000000000000000000000000000000000000000000815260206004820152600560248201527f4f5448455200000000000000000000000000000000000000000000000000000060448201526064016104d2565b6002831461078c576040517f08c379a0000000000000000000000000000000000000000000000000000000008152602060048201526024808201527f756e69737761702d706f6f6c2d6d6f636b2f756e737570706f727465642d617260448201527f67732d310000000000000000000000000000000000000000000000000000000060648201526084016104d2565b8383600181811061079f5761079f61142e565b90506020020160208101906107b4919061145d565b63ffffffff1615610846576040517f08c379a0000000000000000000000000000000000000000000000000000000008152602060048201526024808201527f756e69737761702d706f6f6c2d6d6f636b2f756e737570706f727465642d617260448201527f67732d320000000000000000000000000000000000000000000000000000000060648201526084016104d2565b60008484600081811061085b5761085b61142e565b9050602002016020810190610870919061145d565b63ffffffff1611610902576040517f08c379a0000000000000000000000000000000000000000000000000000000008152602060048201526024808201527f756e69737761702d706f6f6c2d6d6f636b2f756e737570706f727465642d617260448201527f67732d330000000000000000000000000000000000000000000000000000000060648201526084016104d2565b604080516002808252606082018352909160208301908036833750506040805160028082526060820183529395509291506020830190803683370190505090506000826000815181106109575761095761142e565b602002602001019060060b908160060b815250508383600081811061097e5761097e61142e565b9050602002016020810190610993919061145d565b6000546109c19163ffffffff169074010000000000000000000000000000000000000000900460020b6114b2565b826001815181106109d4576109d461142e565b602002602001019060060b908160060b815250506000816001815181106109fd576109fd61142e565b602002602001019073ffffffffffffffffffffffffffffffffffffffff16908173ffffffffffffffffffffffffffffffffffffffff1681525081600081518110610a4957610a4961142e565b602002602001019073ffffffffffffffffffffffffffffffffffffffff16908173ffffffffffffffffffffffffffffffffffffffff16815250509250929050565b600080547fffffffffffffffffffffffff00000000000000000000000000000000000000001673ffffffffffffffffffffffffffffffffffffffff8316179055610ad381610b2f565b6000805462ffffff9290921674010000000000000000000000000000000000000000027fffffffffffffffffff000000ffffffffffffffffffffffffffffffffffffffff90921691909117905550565b610b2c81610a8a565b50565b60006401000276a373ffffffffffffffffffffffffffffffffffffffff831610801590610b85575073fffd8963efd1fc6a506488495d951d5263988d2673ffffffffffffffffffffffffffffffffffffffff8316105b610beb576040517f08c379a000000000000000000000000000000000000000000000000000000000815260206004820152600160248201527f520000000000000000000000000000000000000000000000000000000000000060448201526064016104d2565b77ffffffffffffffffffffffffffffffffffffffff00000000602083901b166fffffffffffffffffffffffffffffffff811160071b81811c67ffffffffffffffff811160061b90811c63ffffffff811160051b90811c61ffff811160041b90811c60ff8111600390811b91821c600f811160021b90811c918211600190811b92831c97908811961790941790921717909117171760808110610c9557607f810383901c9150610c9f565b80607f0383901b91505b908002607f81811c60ff83811c9190911c800280831c81831c1c800280841c81841c1c800280851c81851c1c800280861c81861c1c800280871c81871c1c800280881c81881c1c800280891c81891c1c8002808a1c818a1c1c8002808b1c818b1c1c8002808c1c818c1c1c8002808d1c818d1c1c8002808e1c9c81901c9c909c1c80029c8d901c9e9d7fffffffffffffffffffffffffffffffffffffffffffffffffffffffffffffff808f0160401b60c09190911c678000000000000000161760c19b909b1c674000000000000000169a909a1760c29990991c672000000000000000169890981760c39790971c671000000000000000169690961760c49590951c670800000000000000169490941760c59390931c670400000000000000169290921760c69190911c670200000000000000161760c79190911c670100000000000000161760c89190911c6680000000000000161760c99190911c6640000000000000161760ca9190911c6620000000000000161760cb9190911c6610000000000000161760cc9190911c6608000000000000161760cd9190911c66040000000000001617693627a301d71055774c8581027ffffffffffffffffffffffffffffffffffd709b7e5480fba5a50fed5e62ffc5568101608090811d906fdb2df09e81959a81455e260799a0632f8301901d600281810b9083900b14610ee6578873ffffffffffffffffffffffffffffffffffffffff16610ebe82610ef5565b73ffffffffffffffffffffffffffffffffffffffff161115610ee05781610ee8565b80610ee8565b815b9998505050505050505050565b60008060008360020b12610f0c578260020b610f14565b8260020b6000035b9050620d89e8811115610f83576040517f08c379a000000000000000000000000000000000000000000000000000000000815260206004820152600160248201527f540000000000000000000000000000000000000000000000000000000000000060448201526064016104d2565b600060018216610fa457700100000000000000000000000000000000610fb6565b6ffffcb933bd6fad37aa2d162d1a5940015b70ffffffffffffffffffffffffffffffffff1690506002821615610fea576ffff97272373d413259a46990580e213a0260801c5b6004821615611009576ffff2e50f5f656932ef12357cf3c7fdcc0260801c5b6008821615611028576fffe5caca7e10e4e61c3624eaa0941cd00260801c5b6010821615611047576fffcb9843d60f6159c9db58835c9266440260801c5b6020821615611066576fff973b41fa98c081472e6896dfb254c00260801c5b6040821615611085576fff2ea16466c96a3843ec78b326b528610260801c5b60808216156110a4576ffe5dee046a99a2a811c461f1969c30530260801c5b6101008216156110c4576ffcbe86c7900a88aedcffc83b479aa3a40260801c5b6102008216156110e4576ff987a7253ac413176f2b074cf7815e540260801c5b610400821615611104576ff3392b0822b70005940c7a398e4b70f30260801c5b610800821615611124576fe7159475a2c29b7443b29c7fa6e889d90260801c5b611000821615611144576fd097f3bdfd2022b8845ad8f792aa58250260801c5b612000821615611164576fa9f746462d870fdf8a65dc1f90e061e50260801c5b614000821615611184576f70d869a156d2a1b890bb3df62baf32f70260801c5b6180008216156111a4576f31be135f97d08fd981231505542fcfa60260801c5b620100008216156111c5576f09aa508b5b7a84e1c677de54f3e99bc90260801c5b620200008216156111e5576e5d6af8dedb81196699c329225ee6040260801c5b62040000821615611204576d2216e584f5fa1ea926041bedfe980260801c5b62080000821615611221576b048a170391f7dc42444e8fa20260801c5b60008460020b131561126057807fffffffffffffffffffffffffffffffffffffffffffffffffffffffffffffffff8161125c5761125c61155f565b0490505b640100000000810615611274576001611277565b60005b60ff16602082901c0192505050919050565b60006020828403121561129b57600080fd5b5035919050565b6000602082840312156112b457600080fd5b813561ffff811681146112c657600080fd5b9392505050565b6000602082840312156112df57600080fd5b813580151581146112c657600080fd5b6000806020838503121561130257600080fd5b823567ffffffffffffffff8082111561131a57600080fd5b818501915085601f83011261132e57600080fd5b81358181111561133d57600080fd5b8660208260051b850101111561135257600080fd5b60209290920196919550909350505050565b604080825283519082018190526000906020906060840190828701845b828110156113a057815160060b84529284019290840190600101611381565b5050508381038285015284518082528583019183019060005b818110156113eb57835173ffffffffffffffffffffffffffffffffffffffff16835292840192918401916001016113b9565b5090979650505050505050565b60006020828403121561140a57600080fd5b813573ffffffffffffffffffffffffffffffffffffffff811681146112c657600080fd5b7f4e487b7100000000000000000000000000000000000000000000000000000000600052603260045260246000fd5b60006020828403121561146f57600080fd5b813563ffffffff811681146112c657600080fd5b7f4e487b7100000000000000000000000000000000000000000000000000000000600052601160045260246000fd5b60008160060b8360060b667fffffffffffff6000821360008413838304851182821616156114e2576114e2611483565b7fffffffffffffffffffffffffffffffffffffffffffffffffff80000000000000600085128682058612818416161561151d5761151d611483565b6000871292508582058712848416161561153957611539611483565b8585058712818416161561154f5761154f611483565b5050509290910295945050505050565b7f4e487b7100000000000000000000000000000000000000000000000000000000600052601260045260246000fdfea2646970667358221220d2b55b7848f197ed9f2bff7730b76095522ff7e3e6f5f7e974adcac3d47fa8b564736f6c634300080a0033a26469706673582212207235029e75876210f86de067356087c28dc22eef76a1e2197e0ad36fbb6183eb64736f6c634300080a0033",
  "linkReferences": {},
  "deployedLinkReferences": {}
}