{
  "_format": "hh-sol-artifact-1",
  "contractName": "Liquidation",
  "sourceName": "contracts/modules/Liquidation.sol",
  "abi": [
    {
      "inputs": [
        {
          "internalType": "bytes32",
          "name": "moduleGitCommit_",
          "type": "bytes32"
        }
      ],
      "stateMutability": "nonpayable",
      "type": "constructor"
    },
    {
      "anonymous": false,
      "inputs": [
        {
          "indexed": true,
          "internalType": "address",
          "name": "underlying",
          "type": "address"
        },
        {
          "indexed": false,
          "internalType": "uint256",
          "name": "totalBalances",
          "type": "uint256"
        },
        {
          "indexed": false,
          "internalType": "uint256",
          "name": "totalBorrows",
          "type": "uint256"
        },
        {
          "indexed": false,
          "internalType": "uint96",
          "name": "reserveBalance",
          "type": "uint96"
        },
        {
          "indexed": false,
          "internalType": "uint256",
          "name": "poolSize",
          "type": "uint256"
        },
        {
          "indexed": false,
          "internalType": "uint256",
          "name": "interestAccumulator",
          "type": "uint256"
        },
        {
          "indexed": false,
          "internalType": "int96",
          "name": "interestRate",
          "type": "int96"
        },
        {
          "indexed": false,
          "internalType": "uint256",
          "name": "timestamp",
          "type": "uint256"
        }
      ],
      "name": "AssetStatus",
      "type": "event"
    },
    {
      "anonymous": false,
      "inputs": [
        {
          "indexed": true,
          "internalType": "address",
          "name": "underlying",
          "type": "address"
        },
        {
          "indexed": true,
          "internalType": "address",
          "name": "account",
          "type": "address"
        },
        {
          "indexed": false,
          "internalType": "uint256",
          "name": "amount",
          "type": "uint256"
        }
      ],
      "name": "Borrow",
      "type": "event"
    },
    {
      "anonymous": false,
      "inputs": [
        {
          "indexed": true,
          "internalType": "address",
          "name": "account",
          "type": "address"
        },
        {
          "indexed": true,
          "internalType": "address",
          "name": "delegate",
          "type": "address"
        }
      ],
      "name": "DelegateAverageLiquidity",
      "type": "event"
    },
    {
      "anonymous": false,
      "inputs": [
        {
          "indexed": true,
          "internalType": "address",
          "name": "underlying",
          "type": "address"
        },
        {
          "indexed": true,
          "internalType": "address",
          "name": "account",
          "type": "address"
        },
        {
          "indexed": false,
          "internalType": "uint256",
          "name": "amount",
          "type": "uint256"
        }
      ],
      "name": "Deposit",
      "type": "event"
    },
    {
      "anonymous": false,
      "inputs": [
        {
          "indexed": true,
          "internalType": "address",
          "name": "underlying",
          "type": "address"
        },
        {
          "indexed": true,
          "internalType": "address",
          "name": "account",
          "type": "address"
        }
      ],
      "name": "EnterMarket",
      "type": "event"
    },
    {
      "anonymous": false,
      "inputs": [
        {
          "indexed": true,
          "internalType": "address",
          "name": "underlying",
          "type": "address"
        },
        {
          "indexed": true,
          "internalType": "address",
          "name": "account",
          "type": "address"
        }
      ],
      "name": "ExitMarket",
      "type": "event"
    },
    {
      "anonymous": false,
      "inputs": [],
      "name": "Genesis",
      "type": "event"
    },
    {
      "anonymous": false,
      "inputs": [
        {
          "indexed": true,
          "internalType": "address",
          "name": "underlying",
          "type": "address"
        },
        {
          "indexed": true,
          "internalType": "address",
          "name": "recipient",
          "type": "address"
        },
        {
          "indexed": false,
          "internalType": "uint256",
          "name": "amount",
          "type": "uint256"
        }
      ],
      "name": "GovConvertReserves",
      "type": "event"
    },
    {
      "anonymous": false,
      "inputs": [
        {
          "indexed": true,
          "internalType": "address",
          "name": "underlying",
          "type": "address"
        },
        {
          "components": [
            {
              "internalType": "address",
              "name": "eTokenAddress",
              "type": "address"
            },
            {
              "internalType": "bool",
              "name": "borrowIsolated",
              "type": "bool"
            },
            {
              "internalType": "uint32",
              "name": "collateralFactor",
              "type": "uint32"
            },
            {
              "internalType": "uint32",
              "name": "borrowFactor",
              "type": "uint32"
            },
            {
              "internalType": "uint24",
              "name": "twapWindow",
              "type": "uint24"
            }
          ],
          "indexed": false,
          "internalType": "struct Storage.AssetConfig",
          "name": "newConfig",
          "type": "tuple"
        }
      ],
      "name": "GovSetAssetConfig",
      "type": "event"
    },
    {
      "anonymous": false,
      "inputs": [
        {
          "indexed": true,
          "internalType": "address",
          "name": "underlying",
          "type": "address"
        },
        {
          "indexed": false,
          "internalType": "uint256",
          "name": "interestRateModel",
          "type": "uint256"
        },
        {
          "indexed": false,
          "internalType": "bytes",
          "name": "resetParams",
          "type": "bytes"
        }
      ],
      "name": "GovSetIRM",
      "type": "event"
    },
    {
      "anonymous": false,
      "inputs": [
        {
          "indexed": true,
          "internalType": "address",
          "name": "underlying",
          "type": "address"
        },
        {
          "indexed": false,
          "internalType": "uint16",
          "name": "newPricingType",
          "type": "uint16"
        },
        {
          "indexed": false,
          "internalType": "uint32",
          "name": "newPricingParameter",
          "type": "uint32"
        }
      ],
      "name": "GovSetPricingConfig",
      "type": "event"
    },
    {
      "anonymous": false,
      "inputs": [
        {
          "indexed": true,
          "internalType": "address",
          "name": "underlying",
          "type": "address"
        },
        {
          "indexed": false,
          "internalType": "uint32",
          "name": "newReserveFee",
          "type": "uint32"
        }
      ],
      "name": "GovSetReserveFee",
      "type": "event"
    },
    {
      "anonymous": false,
      "inputs": [
        {
          "indexed": true,
          "internalType": "uint256",
          "name": "moduleId",
          "type": "uint256"
        },
        {
          "indexed": true,
          "internalType": "address",
          "name": "moduleImpl",
          "type": "address"
        },
        {
          "indexed": false,
          "internalType": "bytes32",
          "name": "moduleGitCommit",
          "type": "bytes32"
        }
      ],
      "name": "InstallerInstallModule",
      "type": "event"
    },
    {
      "anonymous": false,
      "inputs": [
        {
          "indexed": true,
          "internalType": "address",
          "name": "newGovernorAdmin",
          "type": "address"
        }
      ],
      "name": "InstallerSetGovernorAdmin",
      "type": "event"
    },
    {
      "anonymous": false,
      "inputs": [
        {
          "indexed": true,
          "internalType": "address",
          "name": "newUpgradeAdmin",
          "type": "address"
        }
      ],
      "name": "InstallerSetUpgradeAdmin",
      "type": "event"
    },
    {
      "anonymous": false,
      "inputs": [
        {
          "indexed": true,
          "internalType": "address",
          "name": "liquidator",
          "type": "address"
        },
        {
          "indexed": true,
          "internalType": "address",
          "name": "violator",
          "type": "address"
        },
        {
          "indexed": true,
          "internalType": "address",
          "name": "underlying",
          "type": "address"
        },
        {
          "indexed": false,
          "internalType": "address",
          "name": "collateral",
          "type": "address"
        },
        {
          "indexed": false,
          "internalType": "uint256",
          "name": "repay",
          "type": "uint256"
        },
        {
          "indexed": false,
          "internalType": "uint256",
          "name": "yield",
          "type": "uint256"
        },
        {
          "indexed": false,
          "internalType": "uint256",
          "name": "healthScore",
          "type": "uint256"
        },
        {
          "indexed": false,
          "internalType": "uint256",
          "name": "baseDiscount",
          "type": "uint256"
        },
        {
          "indexed": false,
          "internalType": "uint256",
          "name": "discount",
          "type": "uint256"
        }
      ],
      "name": "Liquidation",
      "type": "event"
    },
    {
      "anonymous": false,
      "inputs": [
        {
          "indexed": true,
          "internalType": "address",
          "name": "underlying",
          "type": "address"
        },
        {
          "indexed": true,
          "internalType": "address",
          "name": "eToken",
          "type": "address"
        },
        {
          "indexed": true,
          "internalType": "address",
          "name": "dToken",
          "type": "address"
        }
      ],
      "name": "MarketActivated",
      "type": "event"
    },
    {
      "anonymous": false,
      "inputs": [
        {
          "indexed": true,
          "internalType": "address",
          "name": "underlying",
          "type": "address"
        },
        {
          "indexed": true,
          "internalType": "address",
          "name": "pToken",
          "type": "address"
        }
      ],
      "name": "PTokenActivated",
      "type": "event"
    },
    {
      "anonymous": false,
      "inputs": [
        {
          "indexed": true,
          "internalType": "address",
          "name": "underlying",
          "type": "address"
        },
        {
          "indexed": true,
          "internalType": "address",
          "name": "account",
          "type": "address"
        },
        {
          "indexed": false,
          "internalType": "uint256",
          "name": "amount",
          "type": "uint256"
        }
      ],
      "name": "PTokenUnWrap",
      "type": "event"
    },
    {
      "anonymous": false,
      "inputs": [
        {
          "indexed": true,
          "internalType": "address",
          "name": "underlying",
          "type": "address"
        },
        {
          "indexed": true,
          "internalType": "address",
          "name": "account",
          "type": "address"
        },
        {
          "indexed": false,
          "internalType": "uint256",
          "name": "amount",
          "type": "uint256"
        }
      ],
      "name": "PTokenWrap",
      "type": "event"
    },
    {
      "anonymous": false,
      "inputs": [
        {
          "indexed": true,
          "internalType": "address",
          "name": "proxy",
          "type": "address"
        },
        {
          "indexed": false,
          "internalType": "uint256",
          "name": "moduleId",
          "type": "uint256"
        }
      ],
      "name": "ProxyCreated",
      "type": "event"
    },
    {
      "anonymous": false,
      "inputs": [
        {
          "indexed": true,
          "internalType": "address",
          "name": "underlying",
          "type": "address"
        },
        {
          "indexed": true,
          "internalType": "address",
          "name": "account",
          "type": "address"
        },
        {
          "indexed": false,
          "internalType": "uint256",
          "name": "amount",
          "type": "uint256"
        }
      ],
      "name": "Repay",
      "type": "event"
    },
    {
      "anonymous": false,
      "inputs": [
        {
          "indexed": true,
          "internalType": "address",
          "name": "account",
          "type": "address"
        },
        {
          "indexed": false,
          "internalType": "uint256",
          "name": "amount",
          "type": "uint256"
        }
      ],
      "name": "RequestBorrow",
      "type": "event"
    },
    {
      "anonymous": false,
      "inputs": [
        {
          "indexed": true,
          "internalType": "address",
          "name": "account",
          "type": "address"
        },
        {
          "indexed": false,
          "internalType": "uint256",
          "name": "amount",
          "type": "uint256"
        }
      ],
      "name": "RequestBurn",
      "type": "event"
    },
    {
      "anonymous": false,
      "inputs": [
        {
          "indexed": true,
          "internalType": "address",
          "name": "account",
          "type": "address"
        },
        {
          "indexed": false,
          "internalType": "uint256",
          "name": "amount",
          "type": "uint256"
        }
      ],
      "name": "RequestDeposit",
      "type": "event"
    },
    {
      "anonymous": false,
      "inputs": [
        {
          "indexed": true,
          "internalType": "address",
          "name": "liquidator",
          "type": "address"
        },
        {
          "indexed": true,
          "internalType": "address",
          "name": "violator",
          "type": "address"
        },
        {
          "indexed": true,
          "internalType": "address",
          "name": "underlying",
          "type": "address"
        },
        {
          "indexed": false,
          "internalType": "address",
          "name": "collateral",
          "type": "address"
        },
        {
          "indexed": false,
          "internalType": "uint256",
          "name": "repay",
          "type": "uint256"
        },
        {
          "indexed": false,
          "internalType": "uint256",
          "name": "minYield",
          "type": "uint256"
        }
      ],
      "name": "RequestLiquidate",
      "type": "event"
    },
    {
      "anonymous": false,
      "inputs": [
        {
          "indexed": true,
          "internalType": "address",
          "name": "account",
          "type": "address"
        },
        {
          "indexed": false,
          "internalType": "uint256",
          "name": "amount",
          "type": "uint256"
        }
      ],
      "name": "RequestMint",
      "type": "event"
    },
    {
      "anonymous": false,
      "inputs": [
        {
          "indexed": true,
          "internalType": "address",
          "name": "account",
          "type": "address"
        },
        {
          "indexed": false,
          "internalType": "uint256",
          "name": "amount",
          "type": "uint256"
        }
      ],
      "name": "RequestRepay",
      "type": "event"
    },
    {
      "anonymous": false,
      "inputs": [
        {
          "indexed": true,
          "internalType": "address",
          "name": "accountIn",
          "type": "address"
        },
        {
          "indexed": true,
          "internalType": "address",
          "name": "accountOut",
          "type": "address"
        },
        {
          "indexed": true,
          "internalType": "address",
          "name": "underlyingIn",
          "type": "address"
        },
        {
          "indexed": false,
          "internalType": "address",
          "name": "underlyingOut",
          "type": "address"
        },
        {
          "indexed": false,
          "internalType": "uint256",
          "name": "amount",
          "type": "uint256"
        },
        {
          "indexed": false,
          "internalType": "uint256",
          "name": "swapType",
          "type": "uint256"
        }
      ],
      "name": "RequestSwap",
      "type": "event"
    },
    {
      "anonymous": false,
      "inputs": [
        {
          "indexed": true,
          "internalType": "address",
          "name": "from",
          "type": "address"
        },
        {
          "indexed": true,
          "internalType": "address",
          "name": "to",
          "type": "address"
        },
        {
          "indexed": false,
          "internalType": "uint256",
          "name": "amount",
          "type": "uint256"
        }
      ],
      "name": "RequestTransferDToken",
      "type": "event"
    },
    {
      "anonymous": false,
      "inputs": [
        {
          "indexed": true,
          "internalType": "address",
          "name": "from",
          "type": "address"
        },
        {
          "indexed": true,
          "internalType": "address",
          "name": "to",
          "type": "address"
        },
        {
          "indexed": false,
          "internalType": "uint256",
          "name": "amount",
          "type": "uint256"
        }
      ],
      "name": "RequestTransferEToken",
      "type": "event"
    },
    {
      "anonymous": false,
      "inputs": [
        {
          "indexed": true,
          "internalType": "address",
          "name": "account",
          "type": "address"
        },
        {
          "indexed": false,
          "internalType": "uint256",
          "name": "amount",
          "type": "uint256"
        }
      ],
      "name": "RequestWithdraw",
      "type": "event"
    },
    {
      "anonymous": false,
      "inputs": [
        {
          "indexed": true,
          "internalType": "address",
          "name": "account",
          "type": "address"
        }
      ],
      "name": "TrackAverageLiquidity",
      "type": "event"
    },
    {
      "anonymous": false,
      "inputs": [
        {
          "indexed": true,
          "internalType": "address",
          "name": "account",
          "type": "address"
        }
      ],
      "name": "UnTrackAverageLiquidity",
      "type": "event"
    },
    {
      "anonymous": false,
      "inputs": [
        {
          "indexed": true,
          "internalType": "address",
          "name": "underlying",
          "type": "address"
        },
        {
          "indexed": true,
          "internalType": "address",
          "name": "account",
          "type": "address"
        },
        {
          "indexed": false,
          "internalType": "uint256",
          "name": "amount",
          "type": "uint256"
        }
      ],
      "name": "Withdraw",
      "type": "event"
    },
    {
      "inputs": [],
      "name": "DISCOUNT_BOOSTER_SLOPE",
      "outputs": [
        {
          "internalType": "uint256",
          "name": "",
          "type": "uint256"
        }
      ],
      "stateMutability": "view",
      "type": "function"
    },
    {
      "inputs": [],
      "name": "MAXIMUM_BOOSTER_DISCOUNT",
      "outputs": [
        {
          "internalType": "uint256",
          "name": "",
          "type": "uint256"
        }
      ],
      "stateMutability": "view",
      "type": "function"
    },
    {
      "inputs": [],
      "name": "MAXIMUM_DISCOUNT",
      "outputs": [
        {
          "internalType": "uint256",
          "name": "",
          "type": "uint256"
        }
      ],
      "stateMutability": "view",
      "type": "function"
    },
    {
      "inputs": [],
      "name": "TARGET_HEALTH",
      "outputs": [
        {
          "internalType": "uint256",
          "name": "",
          "type": "uint256"
        }
      ],
      "stateMutability": "view",
      "type": "function"
    },
    {
      "inputs": [],
      "name": "UNDERLYING_RESERVES_FEE",
      "outputs": [
        {
          "internalType": "uint256",
          "name": "",
          "type": "uint256"
        }
      ],
      "stateMutability": "view",
      "type": "function"
    },
    {
      "inputs": [
        {
          "internalType": "address",
          "name": "liquidator",
          "type": "address"
        },
        {
          "internalType": "address",
          "name": "violator",
          "type": "address"
        },
        {
          "internalType": "address",
          "name": "underlying",
          "type": "address"
        },
        {
          "internalType": "address",
          "name": "collateral",
          "type": "address"
        }
      ],
      "name": "checkLiquidation",
      "outputs": [
        {
          "components": [
            {
              "internalType": "uint256",
              "name": "repay",
              "type": "uint256"
            },
            {
              "internalType": "uint256",
              "name": "yield",
              "type": "uint256"
            },
            {
              "internalType": "uint256",
              "name": "healthScore",
              "type": "uint256"
            },
            {
              "internalType": "uint256",
              "name": "baseDiscount",
              "type": "uint256"
            },
            {
              "internalType": "uint256",
              "name": "discount",
              "type": "uint256"
            },
            {
              "internalType": "uint256",
              "name": "conversionRate",
              "type": "uint256"
            }
          ],
          "internalType": "struct Liquidation.LiquidationOpportunity",
          "name": "liqOpp",
          "type": "tuple"
        }
      ],
      "stateMutability": "nonpayable",
      "type": "function"
    },
    {
      "inputs": [
        {
          "internalType": "address",
          "name": "violator",
          "type": "address"
        },
        {
          "internalType": "address",
          "name": "underlying",
          "type": "address"
        },
        {
          "internalType": "address",
          "name": "collateral",
          "type": "address"
        },
        {
          "internalType": "uint256",
          "name": "repay",
          "type": "uint256"
        },
        {
          "internalType": "uint256",
          "name": "minYield",
          "type": "uint256"
        }
      ],
      "name": "liquidate",
      "outputs": [],
      "stateMutability": "nonpayable",
      "type": "function"
    },
    {
      "inputs": [],
      "name": "moduleGitCommit",
      "outputs": [
        {
          "internalType": "bytes32",
          "name": "",
          "type": "bytes32"
        }
      ],
      "stateMutability": "view",
      "type": "function"
    },
    {
      "inputs": [],
      "name": "moduleId",
      "outputs": [
        {
          "internalType": "uint256",
          "name": "",
          "type": "uint256"
        }
      ],
      "stateMutability": "view",
      "type": "function"
    }
  ],
  "bytecode": "0x60c06040523480156200001157600080fd5b5060405162003a6038038062003a60833981016040819052620000349162000042565b600360805260a0526200005c565b6000602082840312156200005557600080fd5b5051919050565b60805160a0516139de6200008260003960006101400152600061018b01526139de6000f3fe608060405234801561001057600080fd5b50600436106100a35760003560e01c80636f70e66f11610076578063a1308f271161005b578063a1308f2714610186578063a8e1cf4b146101ad578063ae539533146101bb57600080fd5b80636f70e66f1461016257806387d6d4da1461017757600080fd5b80631a96d9d5146100a85780632579605214610110578063279cfb391461012c57806369a92ea31461013b575b600080fd5b6100bb6100b63660046135c6565b6101ca565b6040516101079190600060c082019050825182526020830151602083015260408301516040830152606083015160608301526080830151608083015260a083015160a083015292915050565b60405180910390f35b61011e66470de4df82000081565b604051908152602001610107565b61011e6702c68af0bb14000081565b61011e7f000000000000000000000000000000000000000000000000000000000000000081565b61017561017036600461361a565b6102cd565b005b61011e671bc16d674ec8000081565b61011e7f000000000000000000000000000000000000000000000000000000000000000081565b61011e6658d15e1762800081565b61011e671158e460913d000081565b6102036040518060c001604052806000815260200160008152602001600081526020016000815260200160008152602001600081525090565b600160005414610274576040517f08c379a000000000000000000000000000000000000000000000000000000000815260206004820152600c60248201527f652f7265656e7472616e6379000000000000000000000000000000000000000060448201526064015b60405180910390fd5b60026000556102816134c9565b73ffffffffffffffffffffffffffffffffffffffff808716825285811660208301528481166040830152831660608201526102bb816104d0565b60c00151600160005595945050505050565b600160005414610339576040517f08c379a000000000000000000000000000000000000000000000000000000000815260206004820152600c60248201527f652f7265656e7472616e63790000000000000000000000000000000000000000604482015260640161026b565b6002600090815573ffffffffffffffffffffffffffffffffffffffff861681526006602052604090205460ff16156103f3576040517f08c379a000000000000000000000000000000000000000000000000000000000815260206004820152602160248201527f652f6c69712f76696f6c61746f722d6c69717569646974792d6465666572726560448201527f6400000000000000000000000000000000000000000000000000000000000000606482015260840161026b565b60006103fd610b6f565b6040805173ffffffffffffffffffffffffffffffffffffffff87811682526020820187905291810185905291925080871691888216918416907f258be119f0bb402a931bfc28de6236747c14f2a56e87e9e7fe5151976b65e5a09060600160405180910390a461046c81610b85565b61047586610b85565b61047d6134c9565b73ffffffffffffffffffffffffffffffffffffffff808316825287811660208301528681166040830152851660608201526104b7816104d0565b6104c2818585610c6b565b505060016000555050505050565b6104e281602001518260000151610fff565b15610549576040517f08c379a000000000000000000000000000000000000000000000000000000000815260206004820152601660248201527f652f6c69712f73656c662d6c69717569646174696f6e00000000000000000000604482015260640161026b565b61055b81602001518260400151611028565b6105e7576040517f08c379a000000000000000000000000000000000000000000000000000000000815260206004820152602560248201527f652f6c69712f76696f6c61746f722d6e6f742d656e74657265642d756e64657260448201527f6c79696e67000000000000000000000000000000000000000000000000000000606482015260840161026b565b6105f981602001518260600151611028565b610685576040517f08c379a000000000000000000000000000000000000000000000000000000000815260206004820152602560248201527f652f6c69712f76696f6c61746f722d6e6f742d656e74657265642d636f6c6c6160448201527f746572616c000000000000000000000000000000000000000000000000000000606482015260840161026b565b610692816040015161116b565b608082015260608101516106a59061116b565b60a082015260c08101516040808301805173ffffffffffffffffffffffffffffffffffffffff908116600090815260086020908152848220549092168152600990915291822090519091906106fa908361125d565b60608501805173ffffffffffffffffffffffffffffffffffffffff90811660009081526008602090815260408083205490931682526009905290812091519293509091610747908361125d565b60006020808801829052818852880151919250908190610766906113be565b9150915080600014156107a65750507fffffffffffffffffffffffffffffffffffffffffffffffffffffffffffffffff6040909501949094525050505050565b806107b983670de0b6b3a764000061369e565b6107c3919061370a565b60408801528082106107d9575050505050505050565b60008760400151670de0b6b3a76400006107f39190613745565b6108049066470de4df82000061375c565b905060006108168a6000015184611443565b90506000670de0b6b3a764000061082d838561369e565b610837919061370a565b905061084a6658d15e176280008461375c565b811115610865576108626658d15e176280008461375c565b90505b6702c68af0bb14000081111561088057506702c68af0bb1400005b60608a0183905260808a018190526108a081670de0b6b3a7640000613745565b60a08c015160808d01516108bc90670de0b6b3a764000061369e565b6108c6919061370a565b6108d890670de0b6b3a764000061369e565b6108e2919061370a565b60a08b015250505060408801516000906108fb906114d4565b9050600061090c8a606001516114d4565b90506000670de0b6b3a764000061092b671158e460913d00008661369e565b610935919061370a565b90506000836060015163ffffffff1663ee6b2800671158e460913d000061095c919061369e565b610966919061370a565b905060008b60800151670de0b6b3a76400006109829190613745565b63ee6b2800856040015163ffffffff16670de0b6b3a76400006109a5919061369e565b6109af919061370a565b6109c190670de0b6b3a764000061369e565b6109cb919061370a565b90508082116109fc577fffffffffffffffffffffffffffffffffffffffffffffffffffffffffffffffff8c52610a56565b6000610a088284613745565b610a128986613745565b610a2490670de0b6b3a764000061369e565b610a2e919061370a565b60808f0151909150610a4882670de0b6b3a764000061369e565b610a52919061370a565b8d52505b5050506000610a6a89898d6020015161167b565b9050808a600001511115610a7c57808a525b5060a08901518951670de0b6b3a764000091610a979161369e565b610aa1919061370a565b6020808b01919091528a81015173ffffffffffffffffffffffffffffffffffffffff166000908152600588019091526040812054610af09087906dffffffffffffffffffffffffffff166116f3565b90508960200151811015610b295760a08a0151610b1582670de0b6b3a764000061369e565b610b1f919061370a565b8a5260208a018190525b50885160e08b0152670de0b6b3a7640000610b4b66470de4df8200008261375c565b8a51610b57919061369e565b610b61919061370a565b909852505050505050505050565b600080600052601460283603600c375060005190565b73ffffffffffffffffffffffffffffffffffffffff8116600090815260066020526040902054610100900464ffffffffff1680610bc0575050565b6000610bcc8242613745565b905080610bd857505050565b73ffffffffffffffffffffffffffffffffffffffff8316600090815260066020526040902080547fffffffffffffffffffffffffffffffffffffffffffffffffffff0000000000ff166101004264ffffffffff1602179055610c3a8382611714565b73ffffffffffffffffffffffffffffffffffffffff9093166000908152600660205260409020600101929092555050565b60c083015151821115610cda576040517f08c379a000000000000000000000000000000000000000000000000000000000815260206004820152601c60248201527f652f6c69712f6578636573736976652d72657061792d616d6f756e7400000000604482015260640161026b565b6040808401805173ffffffffffffffffffffffffffffffffffffffff908116600090815260086020908152848220549092168152600990915291822090518290610d24908361125d565b60c087015151909150851415610d40578560e001519250610d8a565b670de0b6b3a7640000610d5a66470de4df8200008261375c565b610d73906ec097ce7bc90715b34b9f100000000061370a565b610d7d908761369e565b610d87919061370a565b92505b6000610d968487613745565b600284015460208901518951929350610dcc928692869273ffffffffffffffffffffffffffffffffffffffff90911691896117df565b60028301548751610df8918591859173ffffffffffffffffffffffffffffffffffffffff1690856119f3565b6000633b9aca00836040015171ffffffffffffffffffffffffffffffffffff16610e22919061370a565b836101800151610e32919061375c565b90506000610e408383613745565b6020850151610e5f906dffffffffffffffffffffffffffff168461369e565b610e69919061370a565b9050610e95858586602001516dffffffffffffffffffffffffffff1684610e909190613745565b611bcf565b505050610ea181611cb7565b505060608401805173ffffffffffffffffffffffffffffffffffffffff90811660009081526008602090815260408083205490931682526009905290812091519091908290610ef0908361125d565b9050670de0b6b3a76400008760c0015160a0015185610f0f919061369e565b610f19919061370a565b925084831015610f85576040517f08c379a000000000000000000000000000000000000000000000000000000000815260206004820152600f60248201527f652f6c69712f6d696e2d7969656c640000000000000000000000000000000000604482015260640161026b565b805173ffffffffffffffffffffffffffffffffffffffff9081166000908152600860209081526040909120549089015189519190921691610fd69185918591859190610fd1848b611d96565b611db7565b610fdf82611cb7565b50508551610fed9150611fe9565b610ff88583836120cd565b5050505050565b60ff82811773ffffffffffffffffffffffffffffffffffffffff90811691831716145b92915050565b73ffffffffffffffffffffffffffffffffffffffff808316600090815260066020526040812054909163ffffffff6601000000000000830416916a01000000000000000000009004168161108157600092505050611022565b8373ffffffffffffffffffffffffffffffffffffffff168173ffffffffffffffffffffffffffffffffffffffff1614156110c057600192505050611022565b73ffffffffffffffffffffffffffffffffffffffff8516600090815260076020526040902060015b8363ffffffff1681101561115e578573ffffffffffffffffffffffffffffffffffffffff168282640100000000811061112357611123613774565b015473ffffffffffffffffffffffffffffffffffffffff16141561114e576001945050505050611022565b611157816137a3565b90506110e8565b5060009695505050505050565b60405173ffffffffffffffffffffffffffffffffffffffff82166024820152600090819061124090620f4240907f41976e0900000000000000000000000000000000000000000000000000000000906044015b604080517fffffffffffffffffffffffffffffffffffffffffffffffffffffffffffffffe08184030181529190526020810180517bffffffffffffffffffffffffffffffffffffffffffffffffffffffff167fffffffff000000000000000000000000000000000000000000000000000000009093169290921790915261216a565b90508080602001905181019061125691906137dc565b9392505050565b604080516101e081018252600080825260208201819052918101829052606081018290526080810182905260a0810182905260c0810182905260e08101829052610100810182905261012081018290526101408101829052610160810182905261018081018290526101a081018290526101c08101919091526112e18383836121f9565b156110225760a0810151825464ffffffffff9091167fffffffffffffffffffffffffffffffffffffffffffffffffffffff0000000000909116178255805160608201516bffffffffffffffffffffffff16740100000000000000000000000000000000000000000273ffffffffffffffffffffffffffffffffffffffff9091161760018301556020810151604082015171ffffffffffffffffffffffffffffffffffff166e010000000000000000000000000000026dffffffffffffffffffffffffffff9091161760038301556080810151600483015592915050565b60405173ffffffffffffffffffffffffffffffffffffffff821660248201526000908190819061141790620f4240907f37fe974a00000000000000000000000000000000000000000000000000000000906044016111be565b905060008180602001905181019061142f91906137f5565b805160209091015190969095509350505050565b600080826114508561266c565b61146290670de0b6b3a764000061369e565b61146c919061370a565b9050670de0b6b3a76400008111156114895750670de0b6b3a76400005b670de0b6b3a76400006114a481671bc16d674ec80000613745565b6114ae908361369e565b6114b8919061370a565b90506114cc81670de0b6b3a764000061375c565b949350505050565b6040805160a08101825260008082526020820181905291810182905260608101829052608081019190915273ffffffffffffffffffffffffffffffffffffffff828116600090815260086020908152604091829020825160a081018452905493841680825274010000000000000000000000000000000000000000850460ff161515928201929092527501000000000000000000000000000000000000000000840463ffffffff90811693820193909352790100000000000000000000000000000000000000000000000000840490921660608301527d01000000000000000000000000000000000000000000000000000000000090920462ffffff1660808201529061163d576040517f08c379a000000000000000000000000000000000000000000000000000000000815260206004820152601660248201527f652f6d61726b65742d6e6f742d61637469766174656400000000000000000000604482015260640161026b565b606081015163ffffffff908116141561165b576342c1d80060608201525b608081015162ffffff908116141561102257610708608082015292915050565b73ffffffffffffffffffffffffffffffffffffffff81166000908152600584016020526040812054633b9aca00906116e99085906116e4908890839088906e010000000000000000000000000000900471ffffffffffffffffffffffffffffffffffff166126ef565b61274b565b6114cc919061370a565b6000806116ff846127a4565b9050670de0b6b3a76400006116e9828561369e565b60008062015180831015611728578261172d565b620151805b9050600061173e8262015180613745565b9050600080600061174e886113be565b9150915080821161176057600061176a565b61176a8183613745565b9250505062015180838261177e919061369e565b611788919061370a565b73ffffffffffffffffffffffffffffffffffffffff871660009081526006602052604090206001015462015180906117c190859061369e565b6117cb919061370a565b6117d5919061375c565b9695505050505050565b60006117ef633b9aca008361369e565b90506000806117ff89898861283b565b915091506000806118118b8b8961283b565b91509150816000141561182c5761182c878b6000015161291b565b83851180156118475750633b9aca006118458587613745565b105b15611850578394505b848410156118ba576040517f08c379a000000000000000000000000000000000000000000000000000000000815260206004820152601660248201527f652f696e73756666696369656e742d62616c616e636500000000000000000000604482015260640161026b565b8484039350633b9aca008410156118dc576118d5848661375c565b9450600093505b6118e6858361375c565b91506118f184612bd3565b73ffffffffffffffffffffffffffffffffffffffff8916600090815260058d0160205260409020805471ffffffffffffffffffffffffffffffffffff929092166e010000000000000000000000000000026dffffffffffffffffffffffffffff90921691909117905561196382612bd3565b73ffffffffffffffffffffffffffffffffffffffff8816600090815260058d0160205260409020805471ffffffffffffffffffffffffffffffffffff929092166e010000000000000000000000000000026dffffffffffffffffffffffffffff9092169190911790556119d98a8a8a8688612c7b565b6119e68a8a898486612c7b565b5050505050505050505050565b611a01633b9aca008261369e565b61014085015190915061ffff166003141580611a445750835173ffffffffffffffffffffffffffffffffffffffff9081166000908152600b602052604090205416155b611aaa576040517f08c379a000000000000000000000000000000000000000000000000000000000815260206004820152601660248201527f652f626f72726f772d6e6f742d737570706f7274656400000000000000000000604482015260640161026b565b600080611ab887878661283b565b915091508160001415611ad357611ad384876000015161291b565b611add838361375c565b9150611ae882612bd3565b73ffffffffffffffffffffffffffffffffffffffff851660009081526005890160205260409081902080546dffffffffffffffffffffffffffff166e01000000000000000000000000000071ffffffffffffffffffffffffffffffffffff94851602179055870151611b6591611b609186911661375c565b612bd3565b71ffffffffffffffffffffffffffffffffffff16604087018190526003880180546dffffffffffffffffffffffffffff166e010000000000000000000000000000909202919091179055611bb98787612ddb565b611bc68686868486612c7b565b50505050505050565b611bf58183606001516bffffffffffffffffffffffff16611bf0919061375c565b612f44565b6bffffffffffffffffffffffff166060830181905260018401805473ffffffffffffffffffffffffffffffffffffffff16740100000000000000000000000000000000000000009092029190911790556020820151611c6e90611c699083906dffffffffffffffffffffffffffff1661375c565b612fe2565b6dffffffffffffffffffffffffffff16602090920182905250600390910180547fffffffffffffffffffffffffffffffffffff0000000000000000000000000000169091179055565b806000015173ffffffffffffffffffffffffffffffffffffffff167f2f2d732e1a7a15fe7a2e51d3482efe83ff791579cebc5e3cd12cd2064374bc7f8260200151633b9aca00846040015171ffffffffffffffffffffffffffffffffffff16611d20919061370a565b6060808601516101808701516080808901516101008a0151604080516dffffffffffffffffffffffffffff909916895260208901979097526bffffffffffffffffffffffff909416958701959095529285015290830191909152600b0b60a08201524260c082015260e00160405180910390a250565b600080611da2846127a4565b9050806116e984670de0b6b3a764000061369e565b73ffffffffffffffffffffffffffffffffffffffff831660009081526005870160205260409020546dffffffffffffffffffffffffffff1681811015611e59576040517f08c379a000000000000000000000000000000000000000000000000000000000815260206004820152601660248201527f652f696e73756666696369656e742d62616c616e636500000000000000000000604482015260640161026b565b818103611e6581612fe2565b73ffffffffffffffffffffffffffffffffffffffff868116600090815260058b01602052604080822080547fffffffffffffffffffffffffffffffffffff0000000000000000000000000000166dffffffffffffffffffffffffffff95861617905591871681522054611ede91611c699186911661375c565b73ffffffffffffffffffffffffffffffffffffffff858116600090815260058b01602090815260409182902080547fffffffffffffffffffffffffffffffffffff0000000000000000000000000000166dffffffffffffffffffffffffffff9590951694909417909355895190518681528883169391909216917f9b1bfa7fa9ee420a16e124f794c35ac9f90472acc99140eb2f6447c714cad8eb910160405180910390a3865160405184815273ffffffffffffffffffffffffffffffffffffffff8087169216907f5548c837ab068cf56a2c2479df0882a4922fd203edb7517321831d95078c5f629060200160405180910390a3611fdf8686868661305c565b5050505050505050565b73ffffffffffffffffffffffffffffffffffffffff811660009081526006602052604090205460ff168061206e5760405173ffffffffffffffffffffffffffffffffffffffff8316602482015261206990620f4240907fc39b543a00000000000000000000000000000000000000000000000000000000906044016111be565b505050565b60ff8116600114156120c95773ffffffffffffffffffffffffffffffffffffffff8216600090815260066020526040902080547fffffffffffffffffffffffffffffffffffffffffffffffffffffffffffffff001660021790555b5050565b604080840151602080860151865160608089015160c0808b015180890151818501516080928301518b5173ffffffffffffffffffffffffffffffffffffffff9687168152998a018e90529a89018c90529488015286019290925260a085019690965293851694918216939116917fbba0f1d6fb8b9abe2bbc543b7c13d43faba91c6f78da4700381c94041ac7267d910160405180910390a4505050565b60008281526003602052604080822054905160609291829173ffffffffffffffffffffffffffffffffffffffff909116906121a690869061388d565b600060405180830381855af49150503d80600081146121e1576040519150601f19603f3d011682016040523d82523d6000602084013e6121e6565b606091505b5091509150816114cc576114cc816131f3565b73ffffffffffffffffffffffffffffffffffffffff83168152815464ffffffffff811660a083015265010000000000810460ff90811660c084018190526601000000000000830463ffffffff90811660e08601526a01000000000000000000008404600b0b610100860152760100000000000000000000000000000000000000000000840481166101208601527a010000000000000000000000000000000000000000000000000000840461ffff166101408601527c010000000000000000000000000000000000000000000000000000000090930490921661016084015260018401547401000000000000000000000000000000000000000090046bffffffffffffffffffffffff16606084015260038401546dffffffffffffffffffffffffffff80821660208601526e01000000000000000000000000000090910471ffffffffffffffffffffffffffffffffffff166040850152600485015460808501526012839003909116600a0a6101a08401819052600092918161237e5761237e6136db565b046101c084015260006123918430613264565b9050836101c0015181116123b2576101a084015181026101808501526123bb565b60006101808501525b8360a0015164ffffffffff164214612663576001925060008460a0015164ffffffffff16426123ea9190613745565b905060006b033b2e3c9fd0803ce80000008660800151612436886101000151600b0b6b033b2e3c9fd0803ce800000061242391906138c8565b856b033b2e3c9fd0803ce8000000613381565b612440919061369e565b61244a919061370a565b90506000866080015182886040015171ffffffffffffffffffffffffffffffffffff16612477919061369e565b612481919061370a565b606088015160208901519192506bffffffffffffffffffffffff16906dffffffffffffffffffffffffffff1660006124c1633b9aca0063ee6b280061369e565b6101208b015163ffffffff908116146124df578a61012001516124e5565b6336d616005b63ffffffff168b6040015171ffffffffffffffffffffffffffffffffffff168661250f9190613745565b612519919061369e565b612523919061370a565b9050801561259b57600061253b633b9aca008661370a565b8b610180015161254b919061375c565b90506125578282613745565b612561848361369e565b61256b919061370a565b92508a602001516dffffffffffffffffffffffffffff168361258d9190613745565b612597908561375c565b9350505b6dffffffffffffffffffffffffffff82118015906125cb575071ffffffffffffffffffffffffffffffffffff8411155b1561265c576125d984612bd3565b71ffffffffffffffffffffffffffffffffffff1660408b015260808a0185905264ffffffffff421660a08b015260208a01516dffffffffffffffffffffffffffff16821461265c5761262a83612f44565b6bffffffffffffffffffffffff1660608b015261264682612fe2565b6dffffffffffffffffffffffffffff1660208b01525b5050505050505b50509392505050565b73ffffffffffffffffffffffffffffffffffffffff80821660009081526006602052604081206002015490911680158015906126d4575073ffffffffffffffffffffffffffffffffffffffff8181166000908152600660205260409020600201548116908416145b6126e6576126e18361343e565b611256565b6112568161343e565b6000816126fe575060006114cc565b73ffffffffffffffffffffffffffffffffffffffff831660009081526005860160205260409020600101546080850151612738908461369e565b612742919061370a565b95945050505050565b60008161275a57506000611022565b6101a0830151633b9aca000280807fffffffffffffffffffffffffffffffffffffffffffffffffffffffffffffffff858201018161279a5761279a6136db565b0402949350505050565b600081602001516dffffffffffffffffffffffffffff16600014156127d25750670de0b6b3a7640000919050565b81602001516dffffffffffffffffffffffffffff16633b9aca00836040015171ffffffffffffffffffffffffffffffffffff1661280f919061370a565b83610180015161281f919061375c565b61283190670de0b6b3a764000061369e565b611022919061370a565b73ffffffffffffffffffffffffffffffffffffffff811660009081526005840160205260408120546e010000000000000000000000000000900471ffffffffffffffffffffffffffffffffffff16612895858585846126ef565b91506128a082612bd3565b73ffffffffffffffffffffffffffffffffffffffff909316600090815260059095016020526040909420805471ffffffffffffffffffffffffffffffffffff939093166e010000000000000000000000000000026dffffffffffffffffffffffffffff90931692909217825560809092015160019091015591565b73ffffffffffffffffffffffffffffffffffffffff82166000908152600660209081526040808320805460079093529220660100000000000090910463ffffffff16908115612a1357825473ffffffffffffffffffffffffffffffffffffffff8581166a010000000000000000000090920416141561299b575050505050565b60015b8263ffffffff16811015612a11578473ffffffffffffffffffffffffffffffffffffffff16828264010000000081106129d9576129d9613774565b015473ffffffffffffffffffffffffffffffffffffffff1614156129ff57505050505050565b80612a09816137a3565b91505061299e565b505b600a8263ffffffff1610612a83576040517f08c379a000000000000000000000000000000000000000000000000000000000815260206004820152601a60248201527f652f746f6f2d6d616e792d656e74657265642d6d61726b657473000000000000604482015260640161026b565b63ffffffff8216612ade5782547fffff0000000000000000000000000000000000000000ffffffffffffffffffff166a010000000000000000000073ffffffffffffffffffffffffffffffffffffffff861602178355612b40565b83818363ffffffff166401000000008110612afb57612afb613774565b0180547fffffffffffffffffffffffff00000000000000000000000000000000000000001673ffffffffffffffffffffffffffffffffffffffff929092169190911790555b612b4b82600161393c565b835463ffffffff919091166601000000000000027fffffffffffffffffffffffffffffffffffffffffffff00000000ffffffffffff90911617835560405173ffffffffffffffffffffffffffffffffffffffff80871691908616907f1c0971b8e0f7bb4e90bdbd87cfe682c36c383e2fc3dc4716ecc02771186293cc90600090a35050505050565b600071ffffffffffffffffffffffffffffffffffff821115612c77576040517f08c379a000000000000000000000000000000000000000000000000000000000815260206004820152602160248201527f652f646562742d616d6f756e742d746f6f2d6c617267652d746f2d656e636f6460448201527f6500000000000000000000000000000000000000000000000000000000000000606482015260840161026b565b5090565b633b9aca00612c8a868461274b565b612c94919061370a565b9150633b9aca00612ca5868361274b565b612caf919061370a565b905081811115612d45576000612cc58383613745565b90508373ffffffffffffffffffffffffffffffffffffffff16866000015173ffffffffffffffffffffffffffffffffffffffff167f312a5e5e1079f5dda4e95dbbd0b908b291fd5b992ef22073643ab691572c5b5283604051612d2a91815260200190565b60405180910390a3612d3f856000868461305c565b50610ff8565b80821115610ff8576000612d598284613745565b90508373ffffffffffffffffffffffffffffffffffffffff16866000015173ffffffffffffffffffffffffffffffffffffffff167f05f2eeda0e08e4b437f487c8d7d29b14537d15e3488170dc3de5dbdf8dac468483604051612dbe91815260200190565b60405180910390a3612dd3858560008461305c565b505050505050565b600080633b9aca00836040015171ffffffffffffffffffffffffffffffffffff16612e06919061370a565b9050600081846101800151612e1b919061375c565b905080612e2b5760009250612e64565b670de0b6b3a764000081612e4363ffffffff8361369e565b612e4d908561369e565b612e57919061370a565b612e61919061370a565b92505b505060e0820151825160405173ffffffffffffffffffffffffffffffffffffffff909116602482015263ffffffff8381166044830152600092612ece929116907fd50c08f800000000000000000000000000000000000000000000000000000000906064016111be565b9050600081806020019051810190612ee69190613964565b600b81900b61010090950194909452505082546bffffffffffffffffffffffff9092166a0100000000000000000000027fffffffffffffffffffff000000000000000000000000ffffffffffffffffffff9092169190911790915550565b60006bffffffffffffffffffffffff821115612c77576040517f08c379a000000000000000000000000000000000000000000000000000000000815260206004820152602260248201527f652f736d616c6c2d616d6f756e742d746f6f2d6c617267652d746f2d656e636f60448201527f6465000000000000000000000000000000000000000000000000000000000000606482015260840161026b565b60006dffffffffffffffffffffffffffff821115612c77576040517f08c379a000000000000000000000000000000000000000000000000000000000815260206004820152601c60248201527f652f616d6f756e742d746f6f2d6c617267652d746f2d656e636f646500000000604482015260640161026b565b6000604051905060008573ffffffffffffffffffffffffffffffffffffffff16600360405180606001604052806021815260200161398860219139805160209182012060405160f89390931b7fff000000000000000000000000000000000000000000000000000000000000001691830191909152602182015273ffffffffffffffffffffffffffffffffffffffff8781166041830152861660618201526081810185905260a101604080517fffffffffffffffffffffffffffffffffffffffffffffffffffffffffffffffe08184030181529082905261313c9161388d565b6000604051808303816000865af19150503d8060008114613179576040519150601f19603f3d011682016040523d82523d6000602084013e61317e565b606091505b50509050806131e9576040517f08c379a000000000000000000000000000000000000000000000000000000000815260206004820152601060248201527f652f6c6f672d70726f78792d6661696c00000000000000000000000000000000604482015260640161026b565b5060405250505050565b80511561320257805181602001fd5b6040517f08c379a000000000000000000000000000000000000000000000000000000000815260206004820152600d60248201527f652f656d7074792d6572726f7200000000000000000000000000000000000000604482015260640161026b565b60408051835173ffffffffffffffffffffffffffffffffffffffff848116602480850191909152845180850390910181526044840185526020810180517bffffffffffffffffffffffffffffffffffffffffffffffffffffffff167f70a08231000000000000000000000000000000000000000000000000000000001790529351600094859384931691614e20916132fb9161388d565b6000604051808303818686fa925050503d8060008114613337576040519150601f19603f3d011682016040523d82523d6000602084013e61333c565b606091505b509150915081158061334f575060208151105b1561335f57600093505050613378565b8080602001905181019061337391906137dc565b935050505b60405292915050565b60008380156134215760018416801561339c578592506133a0565b8392505b50600283046002850494505b841561341b5785860286878204146133c357600080fd5b818101818110156133d357600080fd5b85900496505060018516156134105785830283878204141587151516156133f957600080fd5b8181018181101561340957600080fd5b8590049350505b6002850494506133ac565b50613436565b8380156134315760009250612663565b839250505b509392505050565b73ffffffffffffffffffffffffffffffffffffffff8116600090815260066020526040812054610100900464ffffffffff168061347e5750600092915050565b600061348a8242613745565b9050806134bf5750505073ffffffffffffffffffffffffffffffffffffffff1660009081526006602052604090206001015490565b6114cc8482611714565b604051806101000160405280600073ffffffffffffffffffffffffffffffffffffffff168152602001600073ffffffffffffffffffffffffffffffffffffffff168152602001600073ffffffffffffffffffffffffffffffffffffffff168152602001600073ffffffffffffffffffffffffffffffffffffffff16815260200160008152602001600081526020016135906040518060c001604052806000815260200160008152602001600081526020016000815260200160008152602001600081525090565b8152602001600081525090565b803573ffffffffffffffffffffffffffffffffffffffff811681146135c157600080fd5b919050565b600080600080608085870312156135dc57600080fd5b6135e58561359d565b93506135f36020860161359d565b92506136016040860161359d565b915061360f6060860161359d565b905092959194509250565b600080600080600060a0868803121561363257600080fd5b61363b8661359d565b94506136496020870161359d565b93506136576040870161359d565b94979396509394606081013594506080013592915050565b7f4e487b7100000000000000000000000000000000000000000000000000000000600052601160045260246000fd5b6000817fffffffffffffffffffffffffffffffffffffffffffffffffffffffffffffffff04831182151516156136d6576136d661366f565b500290565b7f4e487b7100000000000000000000000000000000000000000000000000000000600052601260045260246000fd5b600082613740577f4e487b7100000000000000000000000000000000000000000000000000000000600052601260045260246000fd5b500490565b6000828210156137575761375761366f565b500390565b6000821982111561376f5761376f61366f565b500190565b7f4e487b7100000000000000000000000000000000000000000000000000000000600052603260045260246000fd5b60007fffffffffffffffffffffffffffffffffffffffffffffffffffffffffffffffff8214156137d5576137d561366f565b5060010190565b6000602082840312156137ee57600080fd5b5051919050565b60006080828403121561380757600080fd5b6040516080810181811067ffffffffffffffff82111715613851577f4e487b7100000000000000000000000000000000000000000000000000000000600052604160045260246000fd5b80604052508251815260208301516020820152604083015160408201526060830151801515811461388157600080fd5b60608201529392505050565b6000825160005b818110156138ae5760208186018101518583015201613894565b818111156138bd576000828501525b509190910192915050565b6000808212827f7fffffffffffffffffffffffffffffffffffffffffffffffffffffffffffffff038413811516156139025761390261366f565b827f80000000000000000000000000000000000000000000000000000000000000000384128116156139365761393661366f565b50500190565b600063ffffffff80831681851680830382111561395b5761395b61366f565b01949350505050565b60006020828403121561397657600080fd5b815180600b0b811461125657600080fdfe5472616e7366657228616464726573732c616464726573732c75696e7432353629a2646970667358221220a59a83d001e3425fb3c04d1a177ce07d8f79bab79b81c62d1cddcd2c213bdf3064736f6c634300080a0033",
  "linkReferences": {},
  "deployedLinkReferences": {}
}