{
  "_format": "hh-sol-artifact-1",
  "contractName": "InvariantChecker",
  "sourceName": "contracts/test/InvariantChecker.sol",
  "abi": [
    {
      "inputs": [
        {
          "internalType": "address",
          "name": "eulerContract",
          "type": "address"
        },
        {
          "internalType": "address[]",
          "name": "markets",
          "type": "address[]"
        },
        {
          "internalType": "address[]",
          "name": "accounts",
          "type": "address[]"
        },
        {
          "internalType": "bool",
          "name": "verbose",
          "type": "bool"
        }
      ],
      "name": "check",
      "outputs": [],
      "stateMutability": "view",
      "type": "function"
    }
  ],
  "bytecode": "0x608060405234801561001057600080fd5b506111d2806100206000396000f3fe608060405234801561001057600080fd5b506004361061002b5760003560e01c8063c8c32de814610030575b600080fd5b61004361003e366004610ee3565b610045565b005b6040517f734c938f00000000000000000000000000000000000000000000000000000000815260026004820152869060009073ffffffffffffffffffffffffffffffffffffffff83169063734c938f90602401602060405180830381865afa1580156100b5573d6000803e3d6000fd5b505050506040513d601f19601f820116820180604052508101906100d99190610f7d565b9050610131604051806101400160405280600081526020016000815260200160008152602001600081526020016000815260200160008152602001600081526020016000815260200160008152602001600081525090565b60005b87811015610c945760008373ffffffffffffffffffffffffffffffffffffffff1663894887498b8b8581811061016c5761016c610fa1565b90506020020160208101906101819190610fd0565b6040517fffffffff0000000000000000000000000000000000000000000000000000000060e084901b16815273ffffffffffffffffffffffffffffffffffffffff9091166004820152602401602060405180830381865afa1580156101ea573d6000803e3d6000fd5b505050506040513d601f19601f8201168201806040525081019061020e9190610f7d565b6040517f6b5e360600000000000000000000000000000000000000000000000000000000815273ffffffffffffffffffffffffffffffffffffffff8083166004830152919250600091861690636b5e360690602401602060405180830381865afa158015610280573d6000803e3d6000fd5b505050506040513d601f19601f820116820180604052508101906102a49190610f7d565b6000808652602086018190526040860181905260608601819052608086018190529091505b888110156105475760008a8a838181106102e5576102e5610fa1565b90506020020160208101906102fa9190610fd0565b6040517f70a0823100000000000000000000000000000000000000000000000000000000815273ffffffffffffffffffffffffffffffffffffffff80831660048301529192506000918616906370a0823190602401602060405180830381865afa15801561036c573d6000803e3d6000fd5b505050506040513d601f19601f820116820180604052508101906103909190610fed565b905080876000018181516103a49190611035565b90525080156103c157606087018051906103bd8261104d565b9052505b506040517f70a0823100000000000000000000000000000000000000000000000000000000815273ffffffffffffffffffffffffffffffffffffffff8281166004830152600091908516906370a0823190602401602060405180830381865afa158015610432573d6000803e3d6000fd5b505050506040513d601f19601f820116820180604052508101906104569190610fed565b9050808760200181815161046a9190611035565b905250801561048757608087018051906104838261104d565b9052505b506040517f1c9f006f00000000000000000000000000000000000000000000000000000000815273ffffffffffffffffffffffffffffffffffffffff828116600483015260009190851690631c9f006f90602401602060405180830381865afa1580156104f8573d6000803e3d6000fd5b505050506040513d601f19601f8201168201806040525081019061051c9190610fed565b905080876040018181516105309190611035565b905250610540915082905061104d565b90506102c9565b508173ffffffffffffffffffffffffffffffffffffffff166318160ddd6040518163ffffffff1660e01b8152600401602060405180830381865afa158015610593573d6000803e3d6000fd5b505050506040513d601f19601f820116820180604052508101906105b79190610fed565b8460a00181815250508173ffffffffffffffffffffffffffffffffffffffff1663a10954fe6040518163ffffffff1660e01b8152600401602060405180830381865afa15801561060b573d6000803e3d6000fd5b505050506040513d601f19601f8201168201806040525081019061062f9190610fed565b8460c00181815250508073ffffffffffffffffffffffffffffffffffffffff166318160ddd6040518163ffffffff1660e01b8152600401602060405180830381865afa158015610683573d6000803e3d6000fd5b505050506040513d601f19601f820116820180604052508101906106a79190610fed565b8460e00181815250508073ffffffffffffffffffffffffffffffffffffffff16635ea0c45f6040518163ffffffff1660e01b8152600401602060405180830381865afa1580156106fb573d6000803e3d6000fd5b505050506040513d601f19601f8201168201806040525081019061071f9190610fed565b6101008501528a8a8481811061073757610737610fa1565b905060200201602081019061074c9190610fd0565b6040517f70a0823100000000000000000000000000000000000000000000000000000000815273ffffffffffffffffffffffffffffffffffffffff8e8116600483015291909116906370a0823190602401602060405180830381865afa1580156107ba573d6000803e3d6000fd5b505050506040513d601f19601f820116820180604052508101906107de9190610fed565b6101208501528615610b405761080b6040518060600160405280603e815260200161115f603e9139610ca0565b6108706040518060400160405280600981526020017f4d41524b4554203d2000000000000000000000000000000000000000000000008152508c8c8681811061085657610856610fa1565b905060200201602081019061086b9190610fd0565b610d32565b6108b46040518060400160405280601681526020017f504f4f4c2053495a4520202020202020202020203d2000000000000000000000815250856101200151610dc7565b6108cc60405180602001604052806000815250610ca0565b61090f6040518060400160405280601681526020017f555345525320574954482045544f4b454e5320203d20000000000000000000008152508560600151610dc7565b6109526040518060400160405280601681526020017f45544f4b454e2042414c414e43452053554d20203d20000000000000000000008152508560000151610dc7565b6109956040518060400160405280601681526020017f524553455256452042414c414e434520202020203d20000000000000000000008152508560c00151610dc7565b6109d86040518060400160405280601681526020017f45544f4b454e20544f54414c20535550504c59203d20000000000000000000008152508560a00151610dc7565b6109f060405180602001604052806000815250610ca0565b610a336040518060400160405280601681526020017f555345525320574954482044544f4b454e5320203d20000000000000000000008152508560800151610dc7565b610a766040518060400160405280601681526020017f44544f4b454e2042414c414e43452053554d20203d20000000000000000000008152508560200151610dc7565b610ab96040518060400160405280601681526020017f44544f4b454e20544f54414c20535550504c59203d20000000000000000000008152508560e00151610dc7565b610afc6040518060400160405280601681526020017f44544f4b454e2042414c45584143542053554d203d20000000000000000000008152508560400151610dc7565b610b406040518060400160405280601681526020017f44544f4b454e20455841435420535550504c59203d2000000000000000000000815250856101000151610dc7565b60a084015160c08501518551610b569190611035565b14610be8576040517f08c379a000000000000000000000000000000000000000000000000000000000815260206004820152602a60248201527f696e76617269616e7420636865636b65723a2065546f6b656e2062616c616e6360448201527f65206d69736d617463680000000000000000000000000000000000000000000060648201526084015b60405180910390fd5b83610100015184604001511015610c81576040517f08c379a000000000000000000000000000000000000000000000000000000000815260206004820152603060248201527f696e76617269616e7420636865636b65723a2064546f6b656e2065786163742060448201527f62616c616e6365206d69736d61746368000000000000000000000000000000006064820152608401610bdf565b505080610c8d9061104d565b9050610134565b50505050505050505050565b610d2f81604051602401610cb491906110f1565b604080517fffffffffffffffffffffffffffffffffffffffffffffffffffffffffffffffe08184030181529190526020810180517bffffffffffffffffffffffffffffffffffffffffffffffffffffffff167f41304fac00000000000000000000000000000000000000000000000000000000179052610e54565b50565b610dc38282604051602401610d48929190611104565b604080517fffffffffffffffffffffffffffffffffffffffffffffffffffffffffffffffe08184030181529190526020810180517bffffffffffffffffffffffffffffffffffffffffffffffffffffffff167f319af33300000000000000000000000000000000000000000000000000000000179052610e54565b5050565b610dc38282604051602401610ddd92919061113c565b604080517fffffffffffffffffffffffffffffffffffffffffffffffffffffffffffffffe08184030181529190526020810180517bffffffffffffffffffffffffffffffffffffffffffffffffffffffff167f9710a9d0000000000000000000000000000000000000000000000000000000001790525b80516a636f6e736f6c652e6c6f67602083016000808483855afa5050505050565b73ffffffffffffffffffffffffffffffffffffffff81168114610d2f57600080fd5b60008083601f840112610ea957600080fd5b50813567ffffffffffffffff811115610ec157600080fd5b6020830191508360208260051b8501011115610edc57600080fd5b9250929050565b60008060008060008060808789031215610efc57600080fd5b8635610f0781610e75565b9550602087013567ffffffffffffffff80821115610f2457600080fd5b610f308a838b01610e97565b90975095506040890135915080821115610f4957600080fd5b50610f5689828a01610e97565b90945092505060608701358015158114610f6f57600080fd5b809150509295509295509295565b600060208284031215610f8f57600080fd5b8151610f9a81610e75565b9392505050565b7f4e487b7100000000000000000000000000000000000000000000000000000000600052603260045260246000fd5b600060208284031215610fe257600080fd5b8135610f9a81610e75565b600060208284031215610fff57600080fd5b5051919050565b7f4e487b7100000000000000000000000000000000000000000000000000000000600052601160045260246000fd5b6000821982111561104857611048611006565b500190565b60007fffffffffffffffffffffffffffffffffffffffffffffffffffffffffffffffff82141561107f5761107f611006565b5060010190565b6000815180845260005b818110156110ac57602081850181015186830182015201611090565b818111156110be576000602083870101525b50601f017fffffffffffffffffffffffffffffffffffffffffffffffffffffffffffffffe0169290920160200192915050565b602081526000610f9a6020830184611086565b6040815260006111176040830185611086565b905073ffffffffffffffffffffffffffffffffffffffff831660208301529392505050565b60408152600061114f6040830185611086565b9050826020830152939250505056fe2d2d2d2d2d2d2d2d2d2d2d2d2d2d2d2d2d2d2d2d2d2d2d2d2d2d2d2d2d2d2d2d2d2d2d2d2d2d2d2d2d2d2d2d2d2d2d2d2d2d2d2d2d2d2d2d2d2d2d2d2d2da264697066735822122051cc63809c8f92072d50ea4083727aada562522ef388335bef1756a58ee5e2fb64736f6c634300080a0033",
  "linkReferences": {},
  "deployedLinkReferences": {}
}